{
  "contractName": "Test3",
  "abi": [
    {
      "constant": false,
      "inputs": [
        {
          "name": "_value",
          "type": "string"
        }
      ],
      "name": "setS",
      "outputs": [
        {
          "name": "",
          "type": "uint256"
        }
      ],
      "payable": false,
      "stateMutability": "nonpayable",
      "type": "function"
    },
    {
      "constant": true,
      "inputs": [],
      "name": "s",
      "outputs": [
        {
          "name": "",
          "type": "uint256"
        }
      ],
      "payable": false,
      "stateMutability": "view",
      "type": "function"
    },
    {
      "constant": true,
      "inputs": [],
      "name": "s3",
      "outputs": [
        {
          "name": "",
          "type": "uint256"
        }
      ],
      "payable": false,
      "stateMutability": "view",
      "type": "function"
    },
    {
      "constant": false,
      "inputs": [
        {
          "name": "_value",
          "type": "uint256"
        }
      ],
      "name": "setS",
      "outputs": [
        {
          "name": "",
          "type": "uint256"
        }
      ],
      "payable": false,
      "stateMutability": "nonpayable",
      "type": "function"
    },
    {
      "inputs": [],
      "payable": false,
      "stateMutability": "nonpayable",
      "type": "constructor"
    },
    {
      "constant": false,
      "inputs": [
        {
          "name": "_value",
          "type": "uint256"
        }
      ],
      "name": "setS3",
      "outputs": [],
      "payable": false,
      "stateMutability": "nonpayable",
      "type": "function"
    }
  ],
  "bytecode": "0x608060405234801561001057600080fd5b506101b5806100206000396000f3fe608060405234801561001057600080fd5b50600436106100575760003560e01c806345995f481461005c578063717020761461007b57806386b714e214610133578063a5d666a91461013b578063ad58477b14610143575b600080fd5b6100796004803603602081101561007257600080fd5b5035610160565b005b6101216004803603602081101561009157600080fd5b8101906020810181356401000000008111156100ac57600080fd5b8201836020820111156100be57600080fd5b803590602001918460018302840111640100000000831117156100e057600080fd5b91908080601f016020809104026020016040519081016040528093929190818152602001838380828437600092019190915250929550610168945050505050565b60408051918252519081900360200190f35b61012161016e565b610121610174565b6101216004803603602081101561015957600080fd5b503561017a565b600201600055565b50600490565b60005481565b60015481565b6000805482019081905591905056fea165627a7a72305820eff5850a07c1ce98b7abdb21ddc73afd7d2448dee16fcc7c09d7d9d591add8230029",
  "source": {
    "path": "/Users/mathew/workspace/quantal/tests/test-project/contracts/Test3.sol",
    "content": "pragma solidity ^0.5.0;\nimport \"./Test2.sol\";\n\ncontract Test3 is Test2 {\n  uint256 public s3;\n\n  constructor() public {\n\n  }\n\n function setS3(uint256 _value) public {\n    s = _value + 2;\n  }  \n}\n",
    "imports": [
      "/Users/mathew/workspace/quantal/tests/test-project/contracts/Test2.sol"
    ]
  },
  "sourcePath": "/Users/mathew/workspace/quantal/tests/test-project/contracts/Test3.sol",
  "compiler": {
    "name": "solc",
    "version": "0.5.8"
  },
  "schemaVersion": "3.0.6",
  "updatedAt": "2019-06-07T20:48:48.734Z",
  "devdoc": {
    "methods": {}
  },
  "userdoc": {
    "methods": {}
  }
}