{
  "contractName": "Test",
  "abi": [
    {
      "constant": true,
      "inputs": [],
      "name": "value",
      "outputs": [
        {
          "name": "",
          "type": "uint256"
        }
      ],
      "payable": false,
      "stateMutability": "view",
      "type": "function"
    },
    {
      "constant": true,
      "inputs": [],
      "name": "tokenAddress",
      "outputs": [
        {
          "name": "",
          "type": "address"
        }
      ],
      "payable": false,
      "stateMutability": "view",
      "type": "function"
    },
    {
      "constant": true,
      "inputs": [],
      "name": "token",
      "outputs": [
        {
          "name": "",
          "type": "address"
        }
      ],
      "payable": false,
      "stateMutability": "view",
      "type": "function"
    },
    {
      "inputs": [
        {
          "name": "supply",
          "type": "uint256"
        }
      ],
      "payable": false,
      "stateMutability": "nonpayable",
      "type": "constructor"
    },
    {
      "constant": false,
      "inputs": [
        {
          "name": "_value",
          "type": "uint256"
        }
      ],
      "name": "setValue",
      "outputs": [],
      "payable": false,
      "stateMutability": "nonpayable",
      "type": "function"
    },
    {
      "constant": true,
      "inputs": [],
      "name": "getToken",
      "outputs": [
        {
          "name": "",
          "type": "address"
        }
      ],
      "payable": false,
      "stateMutability": "view",
      "type": "function"
    }
  ],
  "bytecode": "0x608060405234801561001057600080fd5b506040516020806101628339810180604052602081101561003057600080fd5b505160005561011e806100446000396000f3fe6080604052348015600f57600080fd5b506004361060505760003560e01c806321df0da71460555780633fa4f2451460775780635524107714608f5780639d76ea581460ab578063fc0c546a1460b1575b600080fd5b605b60b7565b604080516001600160a01b039092168252519081900360200190f35b607d60c6565b60408051918252519081900360200190f35b60a96004803603602081101560a357600080fd5b503560cc565b005b605b60d4565b605b60e3565b6001546001600160a01b031690565b60005481565b600201600055565b6002546001600160a01b031681565b6001546001600160a01b03168156fea165627a7a723058206d800a29e3077bfb1be0b1bad2c1f6139392e7bf759cd4c48da085c0981c0abb0029",
  "source": {
    "path": "/Users/mathew/workspace/quantal/tests/test-project/contracts/Test.sol",
    "content": "pragma solidity ^0.5.0;\nimport \"./ERC20.sol\";\n\ncontract Test {\n  uint256 public value;\n  ERC20 public token;\n  address public tokenAddress;\n\n  constructor(uint256 supply) public {\n    value = supply;\n  }\n\n  function setValue(uint256 _value) public {\n    value = _value + 2;\n  }\n\n  function getToken() public view returns(ERC20) {\n    return token;\n  }\n}\n",
    "imports": [
      "/Users/mathew/workspace/quantal/tests/test-project/contracts/ERC20.sol"
    ]
  },
  "sourcePath": "/Users/mathew/workspace/quantal/tests/test-project/contracts/Test.sol",
  "compiler": {
    "name": "solc",
    "version": "0.5.8"
  },
  "schemaVersion": "3.0.6",
  "updatedAt": "2019-06-07T20:48:48.733Z",
  "devdoc": {
    "methods": {}
  },
  "userdoc": {
    "methods": {}
  }
}