{
  "contractName": "Test2",
  "abi": [
    {
      "constant": true,
      "inputs": [],
      "name": "s",
      "outputs": [
        {
          "name": "",
          "type": "uint256"
        }
      ],
      "payable": false,
      "stateMutability": "view",
      "type": "function"
    },
    {
      "inputs": [],
      "payable": false,
      "stateMutability": "nonpayable",
      "type": "constructor"
    },
    {
      "constant": false,
      "inputs": [
        {
          "name": "_value",
          "type": "string"
        }
      ],
      "name": "setS",
      "outputs": [
        {
          "name": "",
          "type": "uint256"
        }
      ],
      "payable": false,
      "stateMutability": "nonpayable",
      "type": "function"
    },
    {
      "constant": false,
      "inputs": [
        {
          "name": "_value",
          "type": "uint256"
        }
      ],
      "name": "setS",
      "outputs": [
        {
          "name": "",
          "type": "uint256"
        }
      ],
      "payable": false,
      "stateMutability": "nonpayable",
      "type": "function"
    }
  ],
  "bytecode": "0x608060405234801561001057600080fd5b5061016a806100206000396000f3fe608060405234801561001057600080fd5b50600436106100415760003560e01c8063717020761461004657806386b714e2146100fe578063ad58477b14610106575b600080fd5b6100ec6004803603602081101561005c57600080fd5b81019060208101813564010000000081111561007757600080fd5b82018360208201111561008957600080fd5b803590602001918460018302840111640100000000831117156100ab57600080fd5b91908080601f016020809104026020016040519081016040528093929190818152602001838380828437600092019190915250929550610123945050505050565b60408051918252519081900360200190f35b6100ec610129565b6100ec6004803603602081101561011c57600080fd5b503561012f565b50600490565b60005481565b6000805482019081905591905056fea165627a7a72305820b68650c6dbf3a0ae7de751536750056264b06ae4b1361f7abb05b092416b64d60029",
  "source": {
    "path": "/Users/mathew/workspace/quantal/tests/test-project/contracts/Test2.sol",
    "content": "pragma solidity ^0.5.0;\n\ncontract Test2 {\n  uint256 public s;\n\n  constructor() public {\n    \n  }\n\n  function setS(uint256 _value) public returns(uint256) {\n    s = s + _value;\n    return s;\n  }  \n\n  function setS(string memory _value) public returns(uint256) {\n    return 4;\n  }   \n\n  /*\n  function getToken() public view returns(ERC20) {\n    return token;\n  }\n\n  function getToken2() public view returns(ERC20 t, uint256 num) {\n    t = token;\n    num = 6;\n  }*/\n}\n ",
    "imports": []
  },
  "sourcePath": "/Users/mathew/workspace/quantal/tests/test-project/contracts/Test2.sol",
  "compiler": {
    "name": "solc",
    "version": "0.5.8"
  },
  "schemaVersion": "3.0.6",
  "updatedAt": "2019-06-07T20:48:48.734Z",
  "devdoc": {
    "methods": {}
  },
  "userdoc": {
    "methods": {}
  }
}