{
  "contractName": "Test4",
  "abi": [
    {
      "constant": true,
      "inputs": [],
      "name": "s3",
      "outputs": [
        {
          "name": "",
          "type": "uint256"
        }
      ],
      "payable": false,
      "stateMutability": "view",
      "type": "function"
    },
    {
      "inputs": [],
      "payable": false,
      "stateMutability": "nonpayable",
      "type": "constructor"
    }
  ],
  "bytecode": "0x6080604052348015600f57600080fd5b5060778061001e6000396000f3fe6080604052348015600f57600080fd5b506004361060285760003560e01c8063a5d666a914602d575b600080fd5b60336045565b60408051918252519081900360200190f35b6000548156fea165627a7a72305820e7b22179ba73c64f58bde55431e4172b0f188c8864cb432da692c6a52913bf950029",
  "source": {
    "path": "/Users/mathew/workspace/quantal/tests/test-project/contracts/Test4.sol",
    "content": "pragma solidity ^0.5.0;\n\ncontract Test4 {\n  uint256 public s3;\n\n  constructor() public {\n\n  }\n}",
    "imports": []
  },
  "sourcePath": "/Users/mathew/workspace/quantal/tests/test-project/contracts/Test4.sol",
  "compiler": {
    "name": "solc",
    "version": "0.5.8"
  },
  "schemaVersion": "3.0.6",
  "updatedAt": "2019-06-07T20:48:48.734Z",
  "devdoc": {
    "methods": {}
  },
  "userdoc": {
    "methods": {}
  }
}