{
  "contractName": "DelegateApprovals",
  "abi": [
    {
      "constant": false,
      "inputs": [
        {
          "name": "_owner",
          "type": "address"
        }
      ],
      "name": "nominateNewOwner",
      "outputs": [],
      "payable": false,
      "stateMutability": "nonpayable",
      "type": "function"
    },
    {
      "constant": false,
      "inputs": [
        {
          "name": "_associatedContract",
          "type": "address"
        }
      ],
      "name": "setAssociatedContract",
      "outputs": [],
      "payable": false,
      "stateMutability": "nonpayable",
      "type": "function"
    },
    {
      "constant": true,
      "inputs": [],
      "name": "nominatedOwner",
      "outputs": [
        {
          "name": "",
          "type": "address"
        }
      ],
      "payable": false,
      "stateMutability": "view",
      "type": "function"
    },
    {
      "constant": false,
      "inputs": [],
      "name": "acceptOwnership",
      "outputs": [],
      "payable": false,
      "stateMutability": "nonpayable",
      "type": "function"
    },
    {
      "constant": true,
      "inputs": [],
      "name": "owner",
      "outputs": [
        {
          "name": "",
          "type": "address"
        }
      ],
      "payable": false,
      "stateMutability": "view",
      "type": "function"
    },
    {
      "constant": true,
      "inputs": [],
      "name": "associatedContract",
      "outputs": [
        {
          "name": "",
          "type": "address"
        }
      ],
      "payable": false,
      "stateMutability": "view",
      "type": "function"
    },
    {
      "constant": true,
      "inputs": [
        {
          "name": "",
          "type": "address"
        },
        {
          "name": "",
          "type": "address"
        }
      ],
      "name": "approval",
      "outputs": [
        {
          "name": "",
          "type": "bool"
        }
      ],
      "payable": false,
      "stateMutability": "view",
      "type": "function"
    },
    {
      "inputs": [
        {
          "name": "_owner",
          "type": "address"
        },
        {
          "name": "_associatedContract",
          "type": "address"
        }
      ],
      "payable": false,
      "stateMutability": "nonpayable",
      "type": "constructor"
    },
    {
      "anonymous": false,
      "inputs": [
        {
          "indexed": true,
          "name": "authoriser",
          "type": "address"
        },
        {
          "indexed": false,
          "name": "delegate",
          "type": "address"
        }
      ],
      "name": "Approval",
      "type": "event"
    },
    {
      "anonymous": false,
      "inputs": [
        {
          "indexed": true,
          "name": "authoriser",
          "type": "address"
        },
        {
          "indexed": false,
          "name": "delegate",
          "type": "address"
        }
      ],
      "name": "WithdrawApproval",
      "type": "event"
    },
    {
      "anonymous": false,
      "inputs": [
        {
          "indexed": false,
          "name": "associatedContract",
          "type": "address"
        }
      ],
      "name": "AssociatedContractUpdated",
      "type": "event"
    },
    {
      "anonymous": false,
      "inputs": [
        {
          "indexed": false,
          "name": "newOwner",
          "type": "address"
        }
      ],
      "name": "OwnerNominated",
      "type": "event"
    },
    {
      "anonymous": false,
      "inputs": [
        {
          "indexed": false,
          "name": "oldOwner",
          "type": "address"
        },
        {
          "indexed": false,
          "name": "newOwner",
          "type": "address"
        }
      ],
      "name": "OwnerChanged",
      "type": "event"
    },
    {
      "constant": false,
      "inputs": [
        {
          "name": "authoriser",
          "type": "address"
        },
        {
          "name": "delegate",
          "type": "address"
        }
      ],
      "name": "setApproval",
      "outputs": [],
      "payable": false,
      "stateMutability": "nonpayable",
      "type": "function"
    },
    {
      "constant": false,
      "inputs": [
        {
          "name": "authoriser",
          "type": "address"
        },
        {
          "name": "delegate",
          "type": "address"
        }
      ],
      "name": "withdrawApproval",
      "outputs": [],
      "payable": false,
      "stateMutability": "nonpayable",
      "type": "function"
    }
  ],
  "bytecode": "0x608060405234801561001057600080fd5b50604051604080610872833981016040528051602090910151818181600160a060020a03811615156100a357604080517f08c379a000000000000000000000000000000000000000000000000000000000815260206004820152601960248201527f4f776e657220616464726573732063616e6e6f74206265203000000000000000604482015290519081900360640190fd5b60008054600160a060020a031916600160a060020a038316908117825560408051928352602083019190915280517fb532073b38c83145e3e5135377a08bf9aab55bc0fd7c1179cd4fb995d2a5159c9281900390910190a15060028054600160a060020a038316600160a060020a0319909116811790915560408051918252517f73f20cff579e8a4086fa607db83867595f1b6a798e718c0bfa0b94a404128e039181900360200190a150505050610712806101606000396000f3006080604052600436106100985763ffffffff7c01000000000000000000000000000000000000000000000000000000006000350416631627540c811461009d57806352f445ca146100c057806353a47bb7146100e15780635f0736a11461011257806379ba5097146101395780638da5cb5b1461014e578063aefc4ccb14610163578063b3c1235414610178578063e1270b6e1461019f575b600080fd5b3480156100a957600080fd5b506100be600160a060020a03600435166101da565b005b3480156100cc57600080fd5b506100be600160a060020a03600435166102c3565b3480156100ed57600080fd5b506100f66103ac565b60408051600160a060020a039092168252519081900360200190f35b34801561011e57600080fd5b506100be600160a060020a03600435811690602435166103bb565b34801561014557600080fd5b506100be6104ac565b34801561015a57600080fd5b506100f66105b4565b34801561016f57600080fd5b506100f66105c3565b34801561018457600080fd5b506100be600160a060020a03600435811690602435166105d2565b3480156101ab57600080fd5b506101c6600160a060020a03600435811690602435166106c6565b604080519115158252519081900360200190f35b600054600160a060020a03163314610262576040805160e560020a62461bcd02815260206004820152602f60248201527f4f6e6c792074686520636f6e7472616374206f776e6572206d6179207065726660448201527f6f726d207468697320616374696f6e0000000000000000000000000000000000606482015290519081900360840190fd5b60018054600160a060020a03831673ffffffffffffffffffffffffffffffffffffffff19909116811790915560408051918252517f906a1c6bd7e3091ea86693dd029a831c19049ce77f1dce2ce0bab1cacbabce229181900360200190a150565b600054600160a060020a0316331461034b576040805160e560020a62461bcd02815260206004820152602f60248201527f4f6e6c792074686520636f6e7472616374206f776e6572206d6179207065726660448201527f6f726d207468697320616374696f6e0000000000000000000000000000000000606482015290519081900360840190fd5b60028054600160a060020a03831673ffffffffffffffffffffffffffffffffffffffff19909116811790915560408051918252517f73f20cff579e8a4086fa607db83867595f1b6a798e718c0bfa0b94a404128e039181900360200190a150565b600154600160a060020a031681565b600254600160a060020a03163314610443576040805160e560020a62461bcd02815260206004820152603460248201527f4f6e6c7920746865206173736f63696174656420636f6e74726163742063616e60448201527f20706572666f726d207468697320616374696f6e000000000000000000000000606482015290519081900360840190fd5b600160a060020a03808316600081815260036020908152604080832094861680845294825291829020805460ff191690558151938452905191927f16097899efec09cc50ee9db7218e30a5d8d6d2b2549c23e79568bf4a1a8c6f74929081900390910190a25050565b600154600160a060020a03163314610534576040805160e560020a62461bcd02815260206004820152603560248201527f596f75206d757374206265206e6f6d696e61746564206265666f726520796f7560448201527f2063616e20616363657074206f776e6572736869700000000000000000000000606482015290519081900360840190fd5b60005460015460408051600160a060020a03938416815292909116602083015280517fb532073b38c83145e3e5135377a08bf9aab55bc0fd7c1179cd4fb995d2a5159c9281900390910190a1600180546000805473ffffffffffffffffffffffffffffffffffffffff19908116600160a060020a03841617909155169055565b600054600160a060020a031681565b600254600160a060020a031681565b600254600160a060020a0316331461065a576040805160e560020a62461bcd02815260206004820152603460248201527f4f6e6c7920746865206173736f63696174656420636f6e74726163742063616e60448201527f20706572666f726d207468697320616374696f6e000000000000000000000000606482015290519081900360840190fd5b600160a060020a03808316600081815260036020908152604080832094861680845294825291829020805460ff191660011790558151938452905191927ff37f546c25e850257cc0c94f92bec94a17e2f0e884ddda268a25d8144b70eb6a929081900390910190a25050565b600360209081526000928352604080842090915290825290205460ff16815600a165627a7a7230582004dae023fc29528440954f8635baa345173e0e96279521e748f2373f5e0d163d0029",
  "source": "/*\n-----------------------------------------------------------------\nFILE INFORMATION\n-----------------------------------------------------------------\n\nfile:       DelegateApprovals.sol\nversion:    1.0\nauthor:     Jackson Chan\nchecked:    Clinton Ennis\ndate:       2019-05-01\n\n-----------------------------------------------------------------\nMODULE DESCRIPTION\n-----------------------------------------------------------------\n\nThe approval state contract is designed to allow a wallet to\nauthorise another address to perform actions, on a contract,\non their behalf. This could be an automated service\nthat would help a wallet claim fees / rewards on their behalf.\n\nThe concept is similar to the ERC20 interface where a wallet can\napprove an authorised party to spend on the authorising party's\nbehalf in the allowance interface.\n\nWithdrawing approval sets the delegate as false instead of\nremoving from the approvals list for auditability.\n\nThis contract inherits state for upgradeability / associated\ncontract.\n\n-----------------------------------------------------------------\n*/\npragma solidity 0.4.25;\n\n\nimport \"./State.sol\";\n\ncontract DelegateApprovals is State {\n\n    // Approvals - [authoriser][delegate]\n    // Each authoriser can have multiple delegates\n    mapping(address => mapping(address => bool)) public approval;\n\n    /**\n     * @dev Constructor\n     * @param _owner The address which controls this contract.\n     * @param _associatedContract The contract whose approval state this composes.\n     */\n    constructor(address _owner, address _associatedContract)\n        State(_owner, _associatedContract)\n        public\n    {}\n\n    function setApproval(address authoriser, address delegate)\n        external\n        onlyAssociatedContract\n    {\n        approval[authoriser][delegate] = true;\n        emit Approval(authoriser, delegate);\n    }\n\n    function withdrawApproval(address authoriser, address delegate)\n        external\n        onlyAssociatedContract\n    {\n        delete approval[authoriser][delegate];\n        emit WithdrawApproval(authoriser, delegate);\n    }\n\n     /* ========== EVENTS ========== */\n\n    event Approval(address indexed authoriser, address delegate);\n    event WithdrawApproval(address indexed authoriser, address delegate);\n}\n",
  "sourcePath": "/Users/mathew/workspace/quantal/test/test-projects/synthetix/contracts/DelegateApprovals.sol",
  "compiler": {
    "name": "solc",
    "version": "0.4.25+commit.59dbf8f1.Emscripten.clang"
  },
  "schemaVersion": "3.0.6",
  "updatedAt": "2019-08-12T22:49:05.651Z",
  "devdoc": {
    "methods": {
      "nominateNewOwner(address)": {
        "details": "Only the current owner may nominate a new owner."
      }
    }
  },
  "userdoc": {
    "methods": {
      "acceptOwnership()": {
        "notice": "Accept the nomination to be owner."
      },
      "nominateNewOwner(address)": {
        "notice": "Nominate a new owner of this contract."
      }
    }
  }
}