{
  "contractName": "Depot",
  "abi": [
    {
      "constant": true,
      "inputs": [],
      "name": "minimumDepositAmount",
      "outputs": [
        {
          "name": "",
          "type": "uint256"
        }
      ],
      "payable": false,
      "stateMutability": "view",
      "type": "function"
    },
    {
      "constant": true,
      "inputs": [],
      "name": "synth",
      "outputs": [
        {
          "name": "",
          "type": "address"
        }
      ],
      "payable": false,
      "stateMutability": "view",
      "type": "function"
    },
    {
      "constant": false,
      "inputs": [
        {
          "name": "_owner",
          "type": "address"
        }
      ],
      "name": "nominateNewOwner",
      "outputs": [],
      "payable": false,
      "stateMutability": "nonpayable",
      "type": "function"
    },
    {
      "constant": false,
      "inputs": [
        {
          "name": "_paused",
          "type": "bool"
        }
      ],
      "name": "setPaused",
      "outputs": [],
      "payable": false,
      "stateMutability": "nonpayable",
      "type": "function"
    },
    {
      "constant": true,
      "inputs": [],
      "name": "initiationTime",
      "outputs": [
        {
          "name": "",
          "type": "uint256"
        }
      ],
      "payable": false,
      "stateMutability": "view",
      "type": "function"
    },
    {
      "constant": false,
      "inputs": [
        {
          "name": "_beneficiary",
          "type": "address"
        }
      ],
      "name": "setSelfDestructBeneficiary",
      "outputs": [],
      "payable": false,
      "stateMutability": "nonpayable",
      "type": "function"
    },
    {
      "constant": true,
      "inputs": [],
      "name": "fundsWallet",
      "outputs": [
        {
          "name": "",
          "type": "address"
        }
      ],
      "payable": false,
      "stateMutability": "view",
      "type": "function"
    },
    {
      "constant": true,
      "inputs": [],
      "name": "priceStalePeriod",
      "outputs": [
        {
          "name": "",
          "type": "uint256"
        }
      ],
      "payable": false,
      "stateMutability": "view",
      "type": "function"
    },
    {
      "constant": false,
      "inputs": [],
      "name": "terminateSelfDestruct",
      "outputs": [],
      "payable": false,
      "stateMutability": "nonpayable",
      "type": "function"
    },
    {
      "constant": true,
      "inputs": [],
      "name": "lastPriceUpdateTime",
      "outputs": [
        {
          "name": "",
          "type": "uint256"
        }
      ],
      "payable": false,
      "stateMutability": "view",
      "type": "function"
    },
    {
      "constant": true,
      "inputs": [],
      "name": "totalSellableDeposits",
      "outputs": [
        {
          "name": "",
          "type": "uint256"
        }
      ],
      "payable": false,
      "stateMutability": "view",
      "type": "function"
    },
    {
      "constant": true,
      "inputs": [],
      "name": "nominatedOwner",
      "outputs": [
        {
          "name": "",
          "type": "address"
        }
      ],
      "payable": false,
      "stateMutability": "view",
      "type": "function"
    },
    {
      "constant": true,
      "inputs": [],
      "name": "paused",
      "outputs": [
        {
          "name": "",
          "type": "bool"
        }
      ],
      "payable": false,
      "stateMutability": "view",
      "type": "function"
    },
    {
      "constant": true,
      "inputs": [],
      "name": "depositStartIndex",
      "outputs": [
        {
          "name": "",
          "type": "uint256"
        }
      ],
      "payable": false,
      "stateMutability": "view",
      "type": "function"
    },
    {
      "constant": true,
      "inputs": [],
      "name": "synthetix",
      "outputs": [
        {
          "name": "",
          "type": "address"
        }
      ],
      "payable": false,
      "stateMutability": "view",
      "type": "function"
    },
    {
      "constant": false,
      "inputs": [],
      "name": "acceptOwnership",
      "outputs": [],
      "payable": false,
      "stateMutability": "nonpayable",
      "type": "function"
    },
    {
      "constant": true,
      "inputs": [],
      "name": "oracle",
      "outputs": [
        {
          "name": "",
          "type": "address"
        }
      ],
      "payable": false,
      "stateMutability": "view",
      "type": "function"
    },
    {
      "constant": true,
      "inputs": [],
      "name": "owner",
      "outputs": [
        {
          "name": "",
          "type": "address"
        }
      ],
      "payable": false,
      "stateMutability": "view",
      "type": "function"
    },
    {
      "constant": true,
      "inputs": [],
      "name": "lastPauseTime",
      "outputs": [
        {
          "name": "",
          "type": "uint256"
        }
      ],
      "payable": false,
      "stateMutability": "view",
      "type": "function"
    },
    {
      "constant": false,
      "inputs": [],
      "name": "selfDestruct",
      "outputs": [],
      "payable": false,
      "stateMutability": "nonpayable",
      "type": "function"
    },
    {
      "constant": true,
      "inputs": [],
      "name": "SELFDESTRUCT_DELAY",
      "outputs": [
        {
          "name": "",
          "type": "uint256"
        }
      ],
      "payable": false,
      "stateMutability": "view",
      "type": "function"
    },
    {
      "constant": true,
      "inputs": [],
      "name": "feePool",
      "outputs": [
        {
          "name": "",
          "type": "address"
        }
      ],
      "payable": false,
      "stateMutability": "view",
      "type": "function"
    },
    {
      "constant": true,
      "inputs": [
        {
          "name": "",
          "type": "uint256"
        }
      ],
      "name": "deposits",
      "outputs": [
        {
          "name": "user",
          "type": "address"
        },
        {
          "name": "amount",
          "type": "uint256"
        }
      ],
      "payable": false,
      "stateMutability": "view",
      "type": "function"
    },
    {
      "constant": true,
      "inputs": [],
      "name": "selfDestructInitiated",
      "outputs": [
        {
          "name": "",
          "type": "bool"
        }
      ],
      "payable": false,
      "stateMutability": "view",
      "type": "function"
    },
    {
      "constant": true,
      "inputs": [],
      "name": "usdToEthPrice",
      "outputs": [
        {
          "name": "",
          "type": "uint256"
        }
      ],
      "payable": false,
      "stateMutability": "view",
      "type": "function"
    },
    {
      "constant": false,
      "inputs": [],
      "name": "initiateSelfDestruct",
      "outputs": [],
      "payable": false,
      "stateMutability": "nonpayable",
      "type": "function"
    },
    {
      "constant": true,
      "inputs": [],
      "name": "selfDestructBeneficiary",
      "outputs": [
        {
          "name": "",
          "type": "address"
        }
      ],
      "payable": false,
      "stateMutability": "view",
      "type": "function"
    },
    {
      "constant": true,
      "inputs": [
        {
          "name": "",
          "type": "address"
        }
      ],
      "name": "smallDeposits",
      "outputs": [
        {
          "name": "",
          "type": "uint256"
        }
      ],
      "payable": false,
      "stateMutability": "view",
      "type": "function"
    },
    {
      "constant": true,
      "inputs": [],
      "name": "usdToSnxPrice",
      "outputs": [
        {
          "name": "",
          "type": "uint256"
        }
      ],
      "payable": false,
      "stateMutability": "view",
      "type": "function"
    },
    {
      "constant": true,
      "inputs": [],
      "name": "ORACLE_FUTURE_LIMIT",
      "outputs": [
        {
          "name": "",
          "type": "uint256"
        }
      ],
      "payable": false,
      "stateMutability": "view",
      "type": "function"
    },
    {
      "constant": true,
      "inputs": [],
      "name": "depositEndIndex",
      "outputs": [
        {
          "name": "",
          "type": "uint256"
        }
      ],
      "payable": false,
      "stateMutability": "view",
      "type": "function"
    },
    {
      "inputs": [
        {
          "name": "_owner",
          "type": "address"
        },
        {
          "name": "_fundsWallet",
          "type": "address"
        },
        {
          "name": "_synthetix",
          "type": "address"
        },
        {
          "name": "_synth",
          "type": "address"
        },
        {
          "name": "_feePool",
          "type": "address"
        },
        {
          "name": "_oracle",
          "type": "address"
        },
        {
          "name": "_usdToEthPrice",
          "type": "uint256"
        },
        {
          "name": "_usdToSnxPrice",
          "type": "uint256"
        }
      ],
      "payable": false,
      "stateMutability": "nonpayable",
      "type": "constructor"
    },
    {
      "payable": true,
      "stateMutability": "payable",
      "type": "fallback"
    },
    {
      "anonymous": false,
      "inputs": [
        {
          "indexed": false,
          "name": "newFundsWallet",
          "type": "address"
        }
      ],
      "name": "FundsWalletUpdated",
      "type": "event"
    },
    {
      "anonymous": false,
      "inputs": [
        {
          "indexed": false,
          "name": "newOracle",
          "type": "address"
        }
      ],
      "name": "OracleUpdated",
      "type": "event"
    },
    {
      "anonymous": false,
      "inputs": [
        {
          "indexed": false,
          "name": "newSynthContract",
          "type": "address"
        }
      ],
      "name": "SynthUpdated",
      "type": "event"
    },
    {
      "anonymous": false,
      "inputs": [
        {
          "indexed": false,
          "name": "newSynthetixContract",
          "type": "address"
        }
      ],
      "name": "SynthetixUpdated",
      "type": "event"
    },
    {
      "anonymous": false,
      "inputs": [
        {
          "indexed": false,
          "name": "priceStalePeriod",
          "type": "uint256"
        }
      ],
      "name": "PriceStalePeriodUpdated",
      "type": "event"
    },
    {
      "anonymous": false,
      "inputs": [
        {
          "indexed": false,
          "name": "newEthPrice",
          "type": "uint256"
        },
        {
          "indexed": false,
          "name": "newSynthetixPrice",
          "type": "uint256"
        },
        {
          "indexed": false,
          "name": "timeSent",
          "type": "uint256"
        }
      ],
      "name": "PricesUpdated",
      "type": "event"
    },
    {
      "anonymous": false,
      "inputs": [
        {
          "indexed": false,
          "name": "fromCurrency",
          "type": "string"
        },
        {
          "indexed": false,
          "name": "fromAmount",
          "type": "uint256"
        },
        {
          "indexed": false,
          "name": "toCurrency",
          "type": "string"
        },
        {
          "indexed": false,
          "name": "toAmount",
          "type": "uint256"
        }
      ],
      "name": "Exchange",
      "type": "event"
    },
    {
      "anonymous": false,
      "inputs": [
        {
          "indexed": false,
          "name": "user",
          "type": "address"
        },
        {
          "indexed": false,
          "name": "amount",
          "type": "uint256"
        }
      ],
      "name": "SynthWithdrawal",
      "type": "event"
    },
    {
      "anonymous": false,
      "inputs": [
        {
          "indexed": true,
          "name": "user",
          "type": "address"
        },
        {
          "indexed": false,
          "name": "amount",
          "type": "uint256"
        },
        {
          "indexed": true,
          "name": "depositIndex",
          "type": "uint256"
        }
      ],
      "name": "SynthDeposit",
      "type": "event"
    },
    {
      "anonymous": false,
      "inputs": [
        {
          "indexed": true,
          "name": "user",
          "type": "address"
        },
        {
          "indexed": false,
          "name": "amount",
          "type": "uint256"
        },
        {
          "indexed": true,
          "name": "depositIndex",
          "type": "uint256"
        }
      ],
      "name": "SynthDepositRemoved",
      "type": "event"
    },
    {
      "anonymous": false,
      "inputs": [
        {
          "indexed": false,
          "name": "user",
          "type": "address"
        },
        {
          "indexed": false,
          "name": "amount",
          "type": "uint256"
        },
        {
          "indexed": false,
          "name": "minimum",
          "type": "uint256"
        }
      ],
      "name": "SynthDepositNotAccepted",
      "type": "event"
    },
    {
      "anonymous": false,
      "inputs": [
        {
          "indexed": false,
          "name": "amount",
          "type": "uint256"
        }
      ],
      "name": "MinimumDepositAmountUpdated",
      "type": "event"
    },
    {
      "anonymous": false,
      "inputs": [
        {
          "indexed": true,
          "name": "receiver",
          "type": "address"
        },
        {
          "indexed": false,
          "name": "amount",
          "type": "uint256"
        }
      ],
      "name": "NonPayableContract",
      "type": "event"
    },
    {
      "anonymous": false,
      "inputs": [
        {
          "indexed": true,
          "name": "fromAddress",
          "type": "address"
        },
        {
          "indexed": true,
          "name": "toAddress",
          "type": "address"
        },
        {
          "indexed": false,
          "name": "fromETHAmount",
          "type": "uint256"
        },
        {
          "indexed": false,
          "name": "toAmount",
          "type": "uint256"
        },
        {
          "indexed": true,
          "name": "depositIndex",
          "type": "uint256"
        }
      ],
      "name": "ClearedDeposit",
      "type": "event"
    },
    {
      "anonymous": false,
      "inputs": [
        {
          "indexed": false,
          "name": "isPaused",
          "type": "bool"
        }
      ],
      "name": "PauseChanged",
      "type": "event"
    },
    {
      "anonymous": false,
      "inputs": [],
      "name": "SelfDestructTerminated",
      "type": "event"
    },
    {
      "anonymous": false,
      "inputs": [
        {
          "indexed": false,
          "name": "beneficiary",
          "type": "address"
        }
      ],
      "name": "SelfDestructed",
      "type": "event"
    },
    {
      "anonymous": false,
      "inputs": [
        {
          "indexed": false,
          "name": "selfDestructDelay",
          "type": "uint256"
        }
      ],
      "name": "SelfDestructInitiated",
      "type": "event"
    },
    {
      "anonymous": false,
      "inputs": [
        {
          "indexed": false,
          "name": "newBeneficiary",
          "type": "address"
        }
      ],
      "name": "SelfDestructBeneficiaryUpdated",
      "type": "event"
    },
    {
      "anonymous": false,
      "inputs": [
        {
          "indexed": false,
          "name": "newOwner",
          "type": "address"
        }
      ],
      "name": "OwnerNominated",
      "type": "event"
    },
    {
      "anonymous": false,
      "inputs": [
        {
          "indexed": false,
          "name": "oldOwner",
          "type": "address"
        },
        {
          "indexed": false,
          "name": "newOwner",
          "type": "address"
        }
      ],
      "name": "OwnerChanged",
      "type": "event"
    },
    {
      "constant": false,
      "inputs": [
        {
          "name": "_fundsWallet",
          "type": "address"
        }
      ],
      "name": "setFundsWallet",
      "outputs": [],
      "payable": false,
      "stateMutability": "nonpayable",
      "type": "function"
    },
    {
      "constant": false,
      "inputs": [
        {
          "name": "_oracle",
          "type": "address"
        }
      ],
      "name": "setOracle",
      "outputs": [],
      "payable": false,
      "stateMutability": "nonpayable",
      "type": "function"
    },
    {
      "constant": false,
      "inputs": [
        {
          "name": "_synth",
          "type": "address"
        }
      ],
      "name": "setSynth",
      "outputs": [],
      "payable": false,
      "stateMutability": "nonpayable",
      "type": "function"
    },
    {
      "constant": false,
      "inputs": [
        {
          "name": "_synthetix",
          "type": "address"
        }
      ],
      "name": "setSynthetix",
      "outputs": [],
      "payable": false,
      "stateMutability": "nonpayable",
      "type": "function"
    },
    {
      "constant": false,
      "inputs": [
        {
          "name": "_time",
          "type": "uint256"
        }
      ],
      "name": "setPriceStalePeriod",
      "outputs": [],
      "payable": false,
      "stateMutability": "nonpayable",
      "type": "function"
    },
    {
      "constant": false,
      "inputs": [
        {
          "name": "_amount",
          "type": "uint256"
        }
      ],
      "name": "setMinimumDepositAmount",
      "outputs": [],
      "payable": false,
      "stateMutability": "nonpayable",
      "type": "function"
    },
    {
      "constant": false,
      "inputs": [
        {
          "name": "newEthPrice",
          "type": "uint256"
        },
        {
          "name": "newSynthetixPrice",
          "type": "uint256"
        },
        {
          "name": "timeSent",
          "type": "uint256"
        }
      ],
      "name": "updatePrices",
      "outputs": [],
      "payable": false,
      "stateMutability": "nonpayable",
      "type": "function"
    },
    {
      "constant": false,
      "inputs": [],
      "name": "exchangeEtherForSynths",
      "outputs": [
        {
          "name": "",
          "type": "uint256"
        }
      ],
      "payable": true,
      "stateMutability": "payable",
      "type": "function"
    },
    {
      "constant": false,
      "inputs": [
        {
          "name": "guaranteedRate",
          "type": "uint256"
        }
      ],
      "name": "exchangeEtherForSynthsAtRate",
      "outputs": [
        {
          "name": "",
          "type": "uint256"
        }
      ],
      "payable": true,
      "stateMutability": "payable",
      "type": "function"
    },
    {
      "constant": false,
      "inputs": [],
      "name": "exchangeEtherForSynthetix",
      "outputs": [
        {
          "name": "",
          "type": "uint256"
        }
      ],
      "payable": true,
      "stateMutability": "payable",
      "type": "function"
    },
    {
      "constant": false,
      "inputs": [
        {
          "name": "guaranteedEtherRate",
          "type": "uint256"
        },
        {
          "name": "guaranteedSynthetixRate",
          "type": "uint256"
        }
      ],
      "name": "exchangeEtherForSynthetixAtRate",
      "outputs": [
        {
          "name": "",
          "type": "uint256"
        }
      ],
      "payable": true,
      "stateMutability": "payable",
      "type": "function"
    },
    {
      "constant": false,
      "inputs": [
        {
          "name": "synthAmount",
          "type": "uint256"
        }
      ],
      "name": "exchangeSynthsForSynthetix",
      "outputs": [
        {
          "name": "",
          "type": "uint256"
        }
      ],
      "payable": false,
      "stateMutability": "nonpayable",
      "type": "function"
    },
    {
      "constant": false,
      "inputs": [
        {
          "name": "synthAmount",
          "type": "uint256"
        },
        {
          "name": "guaranteedRate",
          "type": "uint256"
        }
      ],
      "name": "exchangeSynthsForSynthetixAtRate",
      "outputs": [
        {
          "name": "",
          "type": "uint256"
        }
      ],
      "payable": false,
      "stateMutability": "nonpayable",
      "type": "function"
    },
    {
      "constant": false,
      "inputs": [
        {
          "name": "amount",
          "type": "uint256"
        }
      ],
      "name": "withdrawSynthetix",
      "outputs": [],
      "payable": false,
      "stateMutability": "nonpayable",
      "type": "function"
    },
    {
      "constant": false,
      "inputs": [],
      "name": "withdrawMyDepositedSynths",
      "outputs": [],
      "payable": false,
      "stateMutability": "nonpayable",
      "type": "function"
    },
    {
      "constant": false,
      "inputs": [
        {
          "name": "amount",
          "type": "uint256"
        }
      ],
      "name": "depositSynths",
      "outputs": [],
      "payable": false,
      "stateMutability": "nonpayable",
      "type": "function"
    },
    {
      "constant": false,
      "inputs": [
        {
          "name": "from",
          "type": "address"
        },
        {
          "name": "amount",
          "type": "uint256"
        },
        {
          "name": "data",
          "type": "bytes"
        }
      ],
      "name": "tokenFallback",
      "outputs": [
        {
          "name": "",
          "type": "bool"
        }
      ],
      "payable": false,
      "stateMutability": "nonpayable",
      "type": "function"
    },
    {
      "constant": true,
      "inputs": [],
      "name": "pricesAreStale",
      "outputs": [
        {
          "name": "",
          "type": "bool"
        }
      ],
      "payable": false,
      "stateMutability": "view",
      "type": "function"
    },
    {
      "constant": true,
      "inputs": [
        {
          "name": "amount",
          "type": "uint256"
        }
      ],
      "name": "synthetixReceivedForSynths",
      "outputs": [
        {
          "name": "",
          "type": "uint256"
        }
      ],
      "payable": false,
      "stateMutability": "view",
      "type": "function"
    },
    {
      "constant": true,
      "inputs": [
        {
          "name": "amount",
          "type": "uint256"
        }
      ],
      "name": "synthetixReceivedForEther",
      "outputs": [
        {
          "name": "",
          "type": "uint256"
        }
      ],
      "payable": false,
      "stateMutability": "view",
      "type": "function"
    },
    {
      "constant": true,
      "inputs": [
        {
          "name": "amount",
          "type": "uint256"
        }
      ],
      "name": "synthsReceivedForEther",
      "outputs": [
        {
          "name": "",
          "type": "uint256"
        }
      ],
      "payable": false,
      "stateMutability": "view",
      "type": "function"
    }
  ],
  "bytecode": "0x60806040819052612a30600a557f907af6c000000000000000000000000000000000000000000000000000000000815273__SafeDecimalMath_______________________9063907af6c09060849060209060048186803b1580156200006457600080fd5b505af415801562000079573d6000803e3d6000fd5b505050506040513d60208110156200009057600080fd5b5051603202601255348015620000a557600080fd5b5060405161010080620032eb83398101604090815281516020830151918301516060840151608085015160a086015160c087015160e0909701519496939492939192909190878080600160a060020a03811615156200016557604080517f08c379a000000000000000000000000000000000000000000000000000000000815260206004820152601960248201527f4f776e657220616464726573732063616e6e6f74206265203000000000000000604482015290519081900360640190fd5b60008054600160a060020a031916600160a060020a038316908117825560408051928352602083019190915280517fb532073b38c83145e3e5135377a08bf9aab55bc0fd7c1179cd4fb995d2a5159c9281900390910190a150600160a060020a03811615156200025c57604080517f08c379a000000000000000000000000000000000000000000000000000000000815260206004820152602260248201527f4f776e6572206d757374206e6f7420626520746865207a65726f20616464726560448201527f7373000000000000000000000000000000000000000000000000000000000000606482015290519081900360840190fd5b60038054600160a060020a038316610100810261010060a860020a03199092169190911790915560408051918252517fd5da63a0b864b315bc04128dedbc93888c8529ee6cf47ce664dc204339228c539181900360200190a1505060088054600160a060020a03988916600160a060020a031991821617909155600580549789166101000261010060a860020a031990981697909717909655600680549588169587169590951790945560078054938716938616939093179092556009805491909516931692909217909255600d55600c555042600b55612fa880620003436000396000f3006080604052600436106102715763ffffffff7c0100000000000000000000000000000000000000000000000000000000600035041663080c279a811461027c5780630c928bc2146102a35780630c928f05146102ae578063115f4fee146102c657806315ef856d146102f75780631627540c1461030f57806316c38b3c1461033257806317c70de41461034c5780631f9301151461036157806320714f88146103695780632194f3a21461038a57806321cf35141461039f57806329f3533c146103b45780633278c960146103cc5780633b2b49b9146103e15780633d160de9146104025780633ed620a41461042b57806349b9a7af146104495780634d0387fb1461045e57806353a47bb7146104735780635b7b5b35146104885780635c975abb146104a357806364e39b87146104b85780636d5ab4a9146104d9578063759b5225146104ee57806379ba5097146105035780637a2a6526146105185780637adbf973146105205780637d43c206146105415780637dc0d1d01461054f57806381b797dc146105645780638da5cb5b1461057957806391b4ded91461058e5780639cb8a26a146105a3578063a3d8829b146105b8578063a461fc82146105d0578063aab483d6146105e5578063ae2e933b146105fd578063b02c43d014610612578063b8225dec1461064d578063ba34251b14610662578063bd32aa4414610677578063c0ee0b8a1461068c578063c58aaae6146106bd578063c6abb7c7146106d2578063c8d889f2146106f3578063dc8fa6c21461070b578063e6d76a7614610723578063ec1d06871461073b578063f782b3ef14610750578063fd12167f14610765578063fec9f9da1461077a575b61027961079b565b50005b34801561028857600080fd5b50610291610e49565b60408051918252519081900360200190f35b610291600435610e4f565b3480156102ba57600080fd5b50610291600435610f9a565b3480156102d257600080fd5b506102db61104f565b60408051600160a060020a039092168252519081900360200190f35b34801561030357600080fd5b5061029160043561105e565b34801561031b57600080fd5b50610330600160a060020a03600435166112fd565b005b34801561033e57600080fd5b5061033060043515156113b5565b34801561035857600080fd5b5061029161148b565b61029161079b565b34801561037557600080fd5b50610330600160a060020a0360043516611491565b34801561039657600080fd5b506102db6115e4565b3480156103ab57600080fd5b506102916115f3565b3480156103c057600080fd5b506103306004356115f9565b3480156103d857600080fd5b50610330611698565b3480156103ed57600080fd5b50610330600160a060020a0360043516611736565b34801561040e57600080fd5b506104176117ee565b604080519115158252519081900360200190f35b34801561043757600080fd5b5061033060043560243560443561180e565b34801561045557600080fd5b506102916119ea565b34801561046a57600080fd5b506102916119f0565b34801561047f57600080fd5b506102db6119f6565b34801561049457600080fd5b50610291600435602435611a05565b3480156104af57600080fd5b50610417611b52565b3480156104c457600080fd5b50610330600160a060020a0360043516611b5b565b3480156104e557600080fd5b50610291611c19565b3480156104fa57600080fd5b506102db611c1f565b34801561050f57600080fd5b50610330611c33565b610291611d2e565b34801561052c57600080fd5b50610330600160a060020a0360043516611f5f565b61029160043560243561201d565b34801561055b57600080fd5b506102db6121e1565b34801561057057600080fd5b506103306121f0565b34801561058557600080fd5b506102db612466565b34801561059a57600080fd5b50610291612475565b3480156105af57600080fd5b5061033061247b565b3480156105c457600080fd5b50610291600435612640565b3480156105dc57600080fd5b506102916126ee565b3480156105f157600080fd5b506103306004356126f5565b34801561060957600080fd5b506102db61289c565b34801561061e57600080fd5b5061062a6004356128ab565b60408051600160a060020a03909316835260208301919091528051918290030190f35b34801561065957600080fd5b506104176128d0565b34801561066e57600080fd5b506102916128d9565b34801561068357600080fd5b506103306128df565b34801561069857600080fd5b5061041760048035600160a060020a031690602480359160443591820191013561298c565b3480156106c957600080fd5b506102db612b58565b3480156106de57600080fd5b50610291600160a060020a0360043516612b6c565b3480156106ff57600080fd5b50610291600435612b7e565b34801561071757600080fd5b50610330600435612ba1565b34801561072f57600080fd5b50610330600435612c43565b34801561074757600080fd5b50610291612d0b565b34801561075c57600080fd5b50610291612d11565b34801561077157600080fd5b50610291612d17565b34801561078657600080fd5b50610330600160a060020a0360043516612d1d565b60008060008060006107ab612ec5565b6000806107b66117ee565b1561080d576040805160e560020a62461bcd02815260206004820152602f6024820152600080516020612f5d8339815191526044820152600080516020612f1d833981519152606482015290519081900360840190fd5b60055460ff161561086a576040805160e560020a62461bcd02815260206004820152603c6024820152600080516020612f3d8339815191526044820152600080516020612edd833981519152606482015290519081900360840190fd5b600d5461087e90349063ffffffff612dea16565b9550859450600f5493505b60008511801561089a575060105484105b15610d32576000848152600e602090815260409182902082518084019093528054600160a060020a03168084526001909101549183019190915290935015156108f957600f546108f190600163ffffffff612e1616565b600f55610d27565b8483602001511115610b1257602083015161091a908663ffffffff612e3316565b6040805180820182528551600160a060020a039081168252602080830185815260008a8152600e90925293902091518254600160a060020a031916911617815590516001909101556011549092506109729086612e33565b601155600d5461098990869063ffffffff612e4a16565b8351604051919850600160a060020a03169088156108fc029089906000818181858888f193505050501515610a3957600854604051600160a060020a039091169088156108fc029089906000818181858888f193505050501580156109f2573d6000803e3d6000fd5b508251604080518981529051600160a060020a03909216917ff2435d3901399daa085f8b58d2409fff9b83ce4ca97c1f144b532f5a08b1c96c9181900360200190a2610a85565b8251604080518981526020810188905281518793600160a060020a03169233927f6d957e9e816107f67cb7118461e3c259e96896f80223c9af2972596c2fdd401c929081900390910190a45b6006546040805160e060020a63a9059cbb028152336004820152602481018890529051600160a060020a039092169163a9059cbb916044808201926020929091908290030181600087803b158015610adc57600080fd5b505af1158015610af0573d6000803e3d6000fd5b505050506040513d6020811015610b0657600080fd5b5060009550610d279050565b60208301518510610d27576000848152600e602052604081208054600160a060020a0319168155600190810191909155600f54610b549163ffffffff612e1616565b600f556020830151601154610b6e9163ffffffff612e3316565b601155600d546020840151610b889163ffffffff612e4a16565b8351604051919850600160a060020a03169088156108fc029089906000818181858888f193505050501515610c3857600854604051600160a060020a039091169088156108fc029089906000818181858888f19350505050158015610bf1573d6000803e3d6000fd5b508251604080518981529051600160a060020a03909216917ff2435d3901399daa085f8b58d2409fff9b83ce4ca97c1f144b532f5a08b1c96c9181900360200190a2610c88565b8251602080850151604080518b81529283019190915280518793600160a060020a03169233927f6d957e9e816107f67cb7118461e3c259e96896f80223c9af2972596c2fdd401c92918290030190a45b6006546020808501516040805160e060020a63a9059cbb028152336004820152602481019290925251600160a060020a039093169263a9059cbb926044808401939192918290030181600087803b158015610ce257600080fd5b505af1158015610cf6573d6000803e3d6000fd5b505050506040513d6020811015610d0c57600080fd5b50506020830151610d2490869063ffffffff612e3316565b94505b600190930192610889565b6000851115610d7f57600d5433906108fc90610d5590889063ffffffff612e4a16565b6040518115909202916000818181858888f19350505050158015610d7d573d6000803e3d6000fd5b505b610d8f868663ffffffff612e3316565b90506000811115610e3e57604080513460208201526060810183905260808082526003908201527f455448000000000000000000000000000000000000000000000000000000000060a082015260c08183018190526004908201527f735553440000000000000000000000000000000000000000000000000000000060e082015290517fdb1741ffc6844b04a9284bb6337fb0ccfe543a493ef0ac8e725242201e93d4bd918190036101000190a15b979650505050505050565b60125481565b6000610e596117ee565b15610eb0576040805160e560020a62461bcd02815260206004820152602f6024820152600080516020612f5d8339815191526044820152600080516020612f1d833981519152606482015290519081900360840190fd5b60055460ff1615610f0d576040805160e560020a62461bcd02815260206004820152603c6024820152600080516020612f3d8339815191526044820152600080516020612edd833981519152606482015290519081900360840190fd5b600d548214610f8c576040805160e560020a62461bcd02815260206004820152602560248201527f47756172616e74656564207261746520776f756c64206e6f742062652072656360448201527f6569766564000000000000000000000000000000000000000000000000000000606482015290519081900360840190fd5b610f9461079b565b92915050565b600080610fb2600d5484612dea90919063ffffffff16565b600754604080517fb7fcfa69000000000000000000000000000000000000000000000000000000008152600481018490529051929350600160a060020a039091169163b7fcfa69916024808201926020929091908290030181600087803b15801561101c57600080fd5b505af1158015611030573d6000803e3d6000fd5b505050506040513d602081101561104657600080fd5b50519392505050565b600654600160a060020a031681565b6000806110696117ee565b156110c0576040805160e560020a62461bcd02815260206004820152602f6024820152600080516020612f5d8339815191526044820152600080516020612f1d833981519152606482015290519081900360840190fd5b60055460ff161561111d576040805160e560020a62461bcd02815260206004820152603c6024820152600080516020612f3d8339815191526044820152600080516020612edd833981519152606482015290519081900360840190fd5b61112683612640565b600654600854604080517f23b872dd000000000000000000000000000000000000000000000000000000008152336004820152600160a060020a0392831660248201526044810188905290519394509116916323b872dd916064808201926020929091908290030181600087803b1580156111a057600080fd5b505af11580156111b4573d6000803e3d6000fd5b505050506040513d60208110156111ca57600080fd5b50506005546040805160e060020a63a9059cbb028152336004820152602481018490529051610100909204600160a060020a03169163a9059cbb916044808201926020929091908290030181600087803b15801561122757600080fd5b505af115801561123b573d6000803e3d6000fd5b505050506040513d602081101561125157600080fd5b505060408051602081018590526060810183905260808082526004908201527f735553440000000000000000000000000000000000000000000000000000000060a082015260c08183018190526003908201527f534e58000000000000000000000000000000000000000000000000000000000060e082015290517fdb1741ffc6844b04a9284bb6337fb0ccfe543a493ef0ac8e725242201e93d4bd918190036101000190a192915050565b600054600160a060020a03163314611361576040805160e560020a62461bcd02815260206004820152602f6024820152600080516020612efd8339815191526044820152600080516020612f1d833981519152606482015290519081900360840190fd5b60018054600160a060020a038316600160a060020a0319909116811790915560408051918252517f906a1c6bd7e3091ea86693dd029a831c19049ce77f1dce2ce0bab1cacbabce229181900360200190a150565b600054600160a060020a03163314611419576040805160e560020a62461bcd02815260206004820152602f6024820152600080516020612efd8339815191526044820152600080516020612f1d833981519152606482015290519081900360840190fd5b60055460ff161515811515141561142f57611488565b6005805460ff1916821515179081905560ff161561144c57426004555b6005546040805160ff90921615158252517f8fb6c181ee25a520cf3dd6565006ef91229fcfe5a989566c2a3b8c115570cec59181900360200190a15b50565b60025481565b600054600160a060020a031633146114f5576040805160e560020a62461bcd02815260206004820152602f6024820152600080516020612efd8339815191526044820152600080516020612f1d833981519152606482015290519081900360840190fd5b600160a060020a038116151561157b576040805160e560020a62461bcd02815260206004820152602860248201527f42656e6566696369617279206d757374206e6f7420626520746865207a65726f60448201527f2061646472657373000000000000000000000000000000000000000000000000606482015290519081900360840190fd5b60038054600160a060020a038316610100810274ffffffffffffffffffffffffffffffffffffffff00199092169190911790915560408051918252517fd5da63a0b864b315bc04128dedbc93888c8529ee6cf47ce664dc204339228c539181900360200190a150565b600854600160a060020a031681565b600a5481565b600054600160a060020a0316331461165d576040805160e560020a62461bcd02815260206004820152602f6024820152600080516020612efd8339815191526044820152600080516020612f1d833981519152606482015290519081900360840190fd5b600a8190556040805182815290517f456c8075c5b512d696c9a215b96d7146add8797e2050899ad8a97fd4a648ac939181900360200190a150565b600054600160a060020a031633146116fc576040805160e560020a62461bcd02815260206004820152602f6024820152600080516020612efd8339815191526044820152600080516020612f1d833981519152606482015290519081900360840190fd5b600060028190556003805460ff191690556040517f6adcc7125002935e0aa31697538ebbd65cfddf20431eb6ecdcfc3e238bfd082c9190a1565b600054600160a060020a0316331461179a576040805160e560020a62461bcd02815260206004820152602f6024820152600080516020612efd8339815191526044820152600080516020612f1d833981519152606482015290519081900360840190fd5b60068054600160a060020a038316600160a060020a0319909116811790915560408051918252517f765d601a1e833e9d1cda08533c41d3a9e68ea99952d60e479a8e8fa63c390d419181900360200190a150565b600042611808600a54600b54612e1690919063ffffffff16565b10905090565b600954600160a060020a03163314611896576040805160e560020a62461bcd02815260206004820152602760248201527f4f6e6c7920746865206f7261636c652063616e20706572666f726d207468697360448201527f20616374696f6e00000000000000000000000000000000000000000000000000606482015290519081900360840190fd5b600b548111611915576040805160e560020a62461bcd02815260206004820152602360248201527f54696d65206d757374206265206c61746572207468616e206c6173742075706460448201527f6174650000000000000000000000000000000000000000000000000000000000606482015290519081900360840190fd5b42610258018110611996576040805160e560020a62461bcd02815260206004820152603060248201527f54696d65206d757374206265206c657373207468616e206e6f77202b204f524160448201527f434c455f4655545552455f4c494d495400000000000000000000000000000000606482015290519081900360840190fd5b600d839055600c829055600b819055604080518481526020810184905280820183905290517fa6b830b74e52d7d1140e76252f225dc7bed28782519845600bbd3182341dc1159181900360600190a1505050565b600b5481565b60115481565b600154600160a060020a031681565b6000611a0f6117ee565b15611a66576040805160e560020a62461bcd02815260206004820152602f6024820152600080516020612f5d8339815191526044820152600080516020612f1d833981519152606482015290519081900360840190fd5b60055460ff1615611ac3576040805160e560020a62461bcd02815260206004820152603c6024820152600080516020612f3d8339815191526044820152600080516020612edd833981519152606482015290519081900360840190fd5b600c548214611b42576040805160e560020a62461bcd02815260206004820152602560248201527f47756172616e74656564207261746520776f756c64206e6f742062652072656360448201527f6569766564000000000000000000000000000000000000000000000000000000606482015290519081900360840190fd5b611b4b8361105e565b9392505050565b60055460ff1681565b600054600160a060020a03163314611bbf576040805160e560020a62461bcd02815260206004820152602f6024820152600080516020612efd8339815191526044820152600080516020612f1d833981519152606482015290519081900360840190fd5b60088054600160a060020a031916600160a060020a03838116919091179182905560408051929091168252517f4deb077bf9c4bc824cc2c989e01a5e53b0a4ecc44c5039d46abc9ffc88f8a050916020908290030190a150565b600f5481565b6005546101009004600160a060020a031681565b600154600160a060020a03163314611cbb576040805160e560020a62461bcd02815260206004820152603560248201527f596f75206d757374206265206e6f6d696e61746564206265666f726520796f7560448201527f2063616e20616363657074206f776e6572736869700000000000000000000000606482015290519081900360840190fd5b60005460015460408051600160a060020a03938416815292909116602083015280517fb532073b38c83145e3e5135377a08bf9aab55bc0fd7c1179cd4fb995d2a5159c9281900390910190a16001805460008054600160a060020a0319908116600160a060020a03841617909155169055565b600080611d396117ee565b15611d90576040805160e560020a62461bcd02815260206004820152602f6024820152600080516020612f5d8339815191526044820152600080516020612f1d833981519152606482015290519081900360840190fd5b60055460ff1615611ded576040805160e560020a62461bcd02815260206004820152603c6024820152600080516020612f3d8339815191526044820152600080516020612edd833981519152606482015290519081900360840190fd5b611df634612b7e565b600854604051919250600160a060020a0316903480156108fc02916000818181858888f19350505050158015611e30573d6000803e3d6000fd5b506005546040805160e060020a63a9059cbb028152336004820152602481018490529051610100909204600160a060020a03169163a9059cbb916044808201926020929091908290030181600087803b158015611e8c57600080fd5b505af1158015611ea0573d6000803e3d6000fd5b505050506040513d6020811015611eb657600080fd5b50506040805134602082015260608101839052608080825260039082018190527f455448000000000000000000000000000000000000000000000000000000000060a083015260c08284018190528201527f534e58000000000000000000000000000000000000000000000000000000000060e082015290517fdb1741ffc6844b04a9284bb6337fb0ccfe543a493ef0ac8e725242201e93d4bd918190036101000190a1919050565b600054600160a060020a03163314611fc3576040805160e560020a62461bcd02815260206004820152602f6024820152600080516020612efd8339815191526044820152600080516020612f1d833981519152606482015290519081900360840190fd5b60098054600160a060020a031916600160a060020a03838116919091179182905560408051929091168252517f3df77beb5db05fcdd70a30fc8adf3f83f9501b68579455adbd100b8180940394916020908290030190a150565b60006120276117ee565b1561207e576040805160e560020a62461bcd02815260206004820152602f6024820152600080516020612f5d8339815191526044820152600080516020612f1d833981519152606482015290519081900360840190fd5b60055460ff16156120db576040805160e560020a62461bcd02815260206004820152603c6024820152600080516020612f3d8339815191526044820152600080516020612edd833981519152606482015290519081900360840190fd5b600d54831461215a576040805160e560020a62461bcd02815260206004820152602b60248201527f47756172616e74656564206574686572207261746520776f756c64206e6f742060448201527f6265207265636569766564000000000000000000000000000000000000000000606482015290519081900360840190fd5b600c5482146121d9576040805160e560020a62461bcd02815260206004820152602f60248201527f47756172616e746565642073796e746865746978207261746520776f756c642060448201527f6e6f742062652072656365697665640000000000000000000000000000000000606482015290519081900360840190fd5b611b4b611d2e565b600954600160a060020a031681565b6000806121fb612ec5565b60009250600f5491505b6010548210156122db57506000818152600e602090815260409182902082518084019093528054600160a060020a0316808452600190910154918301919091523314156122d057602081015161226290849063ffffffff612e1616565b6000838152600e602090815260408083208054600160a060020a031916815560010192909255835184820151835190815292519396508593600160a060020a03909116927f3aa2b18eace5e5727a4ab525921b9b0a1ca1afdb0f96b599e3ab2d76cb5e7f7292908290030190a35b600190910190612205565b6011546122ee908463ffffffff612e3316565b6011553360009081526013602052604090205461231290849063ffffffff612e1616565b33600090815260136020526040812081905590935083116123a3576040805160e560020a62461bcd02815260206004820152602160248201527f596f752068617665206e6f206465706f7369747320746f20776974686472617760448201527f2e00000000000000000000000000000000000000000000000000000000000000606482015290519081900360840190fd5b6006546040805160e060020a63a9059cbb028152336004820152602481018690529051600160a060020a039092169163a9059cbb916044808201926020929091908290030181600087803b1580156123fa57600080fd5b505af115801561240e573d6000803e3d6000fd5b505050506040513d602081101561242457600080fd5b5050604080513381526020810185905281517faf6ec623f558c7b3527ff6c9c09432c7d81a3d38bd2e1eaaee2efe7aac23c28b929181900390910190a1505050565b600054600160a060020a031681565b60045481565b60008054600160a060020a031633146124e0576040805160e560020a62461bcd02815260206004820152602f6024820152600080516020612efd8339815191526044820152600080516020612f1d833981519152606482015290519081900360840190fd5b60035460ff161515612562576040805160e560020a62461bcd02815260206004820152602860248201527f53656c6620646573747275637420686173206e6f7420796574206265656e206960448201527f6e69746961746564000000000000000000000000000000000000000000000000606482015290519081900360840190fd5b426224ea00600254011015156125e8576040805160e560020a62461bcd02815260206004820152602760248201527f53656c662064657374727563742064656c617920686173206e6f74207965742060448201527f656c617073656400000000000000000000000000000000000000000000000000606482015290519081900360840190fd5b5060035460408051600160a060020a0361010090930492909216808352905190917f8a09e1677ced846cb537dc2b172043bd05a1a81ad7e0033a7ef8ba762df990b7919081900360200190a180600160a060020a0316ff5b600754604080517fb7fcfa690000000000000000000000000000000000000000000000000000000081526004810184905290516000928392600160a060020a039091169163b7fcfa699160248082019260209290919082900301818787803b1580156126ab57600080fd5b505af11580156126bf573d6000803e3d6000fd5b505050506040513d60208110156126d557600080fd5b5051600c54909150611b4b90829063ffffffff612e4a16565b6224ea0081565b600054600160a060020a03163314612759576040805160e560020a62461bcd02815260206004820152602f6024820152600080516020612efd8339815191526044820152600080516020612f1d833981519152606482015290519081900360840190fd5b73__SafeDecimalMath_______________________63907af6c06040518163ffffffff167c010000000000000000000000000000000000000000000000000000000002815260040160206040518083038186803b1580156127b957600080fd5b505af41580156127cd573d6000803e3d6000fd5b505050506040513d60208110156127e357600080fd5b50518111612861576040805160e560020a62461bcd02815260206004820152603060248201527f4d696e696d756d206465706f73697420616d6f756e74206d757374206265206760448201527f726561746572207468616e20554e495400000000000000000000000000000000606482015290519081900360840190fd5b60128190556040805182815290517fa39eacd162ee82c70b2b030a1bc8fe89adcccc61122fad4821a8772dbcc542679181900360200190a150565b600754600160a060020a031681565b600e6020526000908152604090208054600190910154600160a060020a039091169082565b60035460ff1681565b600d5481565b600054600160a060020a03163314612943576040805160e560020a62461bcd02815260206004820152602f6024820152600080516020612efd8339815191526044820152600080516020612f1d833981519152606482015290519081900360840190fd5b426002556003805460ff19166001179055604080516224ea00815290517fcbd94ca75b8dc45c9d80c77e851670e78843c0d75180cb81db3e2158228fa9a69181900360200190a1565b600654600090600160a060020a03163314612a05576040805160e560020a62461bcd02815260206004820152602f60248201527f4f6e6c79207468652073796e746820636f6e74726163742063616e20706572666044820152600080516020612f1d833981519152606482015290519081900360840190fd5b601254841015612a9e57600160a060020a038516600090815260136020526040902054612a38908563ffffffff612e1616565b600160a060020a0386166000818152601360209081526040918290209390935560125481519283529282018790528181019290925290517fbc3a12638d840d60760c64b39c73985a6498cf6eb8176f124995b0e07236cbd29181900360600190a1612b50565b604080518082018252600160a060020a038781168083526020808401898152601080546000908152600e845287902095518654600160a060020a031916951694909417855551600190940193909355905483518881529351909391927fd9acabe6e09d178728ba5c366661c5be0621b4770f216305b059ec175b37e0b4928290030190a3601054612b3690600163ffffffff612e1616565b601055601154612b4c908563ffffffff612e1616565b6011555b949350505050565b6003546101009004600160a060020a031681565b60136020526000908152604090205481565b600080612b96600d5484612dea90919063ffffffff16565b9050611b4b81612640565b600654604080517f23b872dd000000000000000000000000000000000000000000000000000000008152336004820152306024820152604481018490529051600160a060020a03909216916323b872dd916064808201926020929091908290030181600087803b158015612c1457600080fd5b505af1158015612c28573d6000803e3d6000fd5b505050506040513d6020811015612c3e57600080fd5b505050565b600054600160a060020a03163314612ca7576040805160e560020a62461bcd02815260206004820152602f6024820152600080516020612efd8339815191526044820152600080516020612f1d833981519152606482015290519081900360840190fd5b600554600080546040805160e060020a63a9059cbb028152600160a060020a0392831660048201526024810186905290516101009094049091169263a9059cbb92604480840193602093929083900390910190829087803b158015612c1457600080fd5b600c5481565b61025881565b60105481565b600054600160a060020a03163314612d81576040805160e560020a62461bcd02815260206004820152602f6024820152600080516020612efd8339815191526044820152600080516020612f1d833981519152606482015290519081900360840190fd5b60058054600160a060020a038316610100810274ffffffffffffffffffffffffffffffffffffffff00199092169190911790915560408051918252517f46e9c68bd7831071bdd478f1ae4c4a52463961a9d620383a0a121dbfc0e0f06d9181900360200190a150565b6000670de0b6b3a7640000612e05848463ffffffff612e7416565b811515612e0e57fe5b049392505050565b600082820183811015612e2857600080fd5b8091505b5092915050565b60008083831115612e4357600080fd5b5050900390565b6000611b4b82612e6885670de0b6b3a764000063ffffffff612e7416565b9063ffffffff612ea216565b600080831515612e875760009150612e2c565b50828202828482811515612e9757fe5b0414612e2857600080fd5b600080808311612eb157600080fd5b8284811515612ebc57fe5b04949350505050565b60408051808201909152600080825260208201529056007768696c652074686520636f6e747261637420697320706175736564000000004f6e6c792074686520636f6e7472616374206f776e6572206d617920706572666f726d207468697320616374696f6e00000000000000000000000000000000005468697320616374696f6e2063616e6e6f7420626520706572666f726d656420507269636573206d757374206e6f74206265207374616c6520746f2070657266a165627a7a72305820687f10273a5bffb80e73f6f4155ab2f092396a8d4df17709fe82ddb755d445a00029",
  "deployedBytecode": "0x6080604052600436106102715763ffffffff7c0100000000000000000000000000000000000000000000000000000000600035041663080c279a811461027c5780630c928bc2146102a35780630c928f05146102ae578063115f4fee146102c657806315ef856d146102f75780631627540c1461030f57806316c38b3c1461033257806317c70de41461034c5780631f9301151461036157806320714f88146103695780632194f3a21461038a57806321cf35141461039f57806329f3533c146103b45780633278c960146103cc5780633b2b49b9146103e15780633d160de9146104025780633ed620a41461042b57806349b9a7af146104495780634d0387fb1461045e57806353a47bb7146104735780635b7b5b35146104885780635c975abb146104a357806364e39b87146104b85780636d5ab4a9146104d9578063759b5225146104ee57806379ba5097146105035780637a2a6526146105185780637adbf973146105205780637d43c206146105415780637dc0d1d01461054f57806381b797dc146105645780638da5cb5b1461057957806391b4ded91461058e5780639cb8a26a146105a3578063a3d8829b146105b8578063a461fc82146105d0578063aab483d6146105e5578063ae2e933b146105fd578063b02c43d014610612578063b8225dec1461064d578063ba34251b14610662578063bd32aa4414610677578063c0ee0b8a1461068c578063c58aaae6146106bd578063c6abb7c7146106d2578063c8d889f2146106f3578063dc8fa6c21461070b578063e6d76a7614610723578063ec1d06871461073b578063f782b3ef14610750578063fd12167f14610765578063fec9f9da1461077a575b61027961079b565b50005b34801561028857600080fd5b50610291610e49565b60408051918252519081900360200190f35b610291600435610e4f565b3480156102ba57600080fd5b50610291600435610f9a565b3480156102d257600080fd5b506102db61104f565b60408051600160a060020a039092168252519081900360200190f35b34801561030357600080fd5b5061029160043561105e565b34801561031b57600080fd5b50610330600160a060020a03600435166112fd565b005b34801561033e57600080fd5b5061033060043515156113b5565b34801561035857600080fd5b5061029161148b565b61029161079b565b34801561037557600080fd5b50610330600160a060020a0360043516611491565b34801561039657600080fd5b506102db6115e4565b3480156103ab57600080fd5b506102916115f3565b3480156103c057600080fd5b506103306004356115f9565b3480156103d857600080fd5b50610330611698565b3480156103ed57600080fd5b50610330600160a060020a0360043516611736565b34801561040e57600080fd5b506104176117ee565b604080519115158252519081900360200190f35b34801561043757600080fd5b5061033060043560243560443561180e565b34801561045557600080fd5b506102916119ea565b34801561046a57600080fd5b506102916119f0565b34801561047f57600080fd5b506102db6119f6565b34801561049457600080fd5b50610291600435602435611a05565b3480156104af57600080fd5b50610417611b52565b3480156104c457600080fd5b50610330600160a060020a0360043516611b5b565b3480156104e557600080fd5b50610291611c19565b3480156104fa57600080fd5b506102db611c1f565b34801561050f57600080fd5b50610330611c33565b610291611d2e565b34801561052c57600080fd5b50610330600160a060020a0360043516611f5f565b61029160043560243561201d565b34801561055b57600080fd5b506102db6121e1565b34801561057057600080fd5b506103306121f0565b34801561058557600080fd5b506102db612466565b34801561059a57600080fd5b50610291612475565b3480156105af57600080fd5b5061033061247b565b3480156105c457600080fd5b50610291600435612640565b3480156105dc57600080fd5b506102916126ee565b3480156105f157600080fd5b506103306004356126f5565b34801561060957600080fd5b506102db61289c565b34801561061e57600080fd5b5061062a6004356128ab565b60408051600160a060020a03909316835260208301919091528051918290030190f35b34801561065957600080fd5b506104176128d0565b34801561066e57600080fd5b506102916128d9565b34801561068357600080fd5b506103306128df565b34801561069857600080fd5b5061041760048035600160a060020a031690602480359160443591820191013561298c565b3480156106c957600080fd5b506102db612b58565b3480156106de57600080fd5b50610291600160a060020a0360043516612b6c565b3480156106ff57600080fd5b50610291600435612b7e565b34801561071757600080fd5b50610330600435612ba1565b34801561072f57600080fd5b50610330600435612c43565b34801561074757600080fd5b50610291612d0b565b34801561075c57600080fd5b50610291612d11565b34801561077157600080fd5b50610291612d17565b34801561078657600080fd5b50610330600160a060020a0360043516612d1d565b60008060008060006107ab612ec5565b6000806107b66117ee565b1561080d576040805160e560020a62461bcd02815260206004820152602f6024820152600080516020612f5d8339815191526044820152600080516020612f1d833981519152606482015290519081900360840190fd5b60055460ff161561086a576040805160e560020a62461bcd02815260206004820152603c6024820152600080516020612f3d8339815191526044820152600080516020612edd833981519152606482015290519081900360840190fd5b600d5461087e90349063ffffffff612dea16565b9550859450600f5493505b60008511801561089a575060105484105b15610d32576000848152600e602090815260409182902082518084019093528054600160a060020a03168084526001909101549183019190915290935015156108f957600f546108f190600163ffffffff612e1616565b600f55610d27565b8483602001511115610b1257602083015161091a908663ffffffff612e3316565b6040805180820182528551600160a060020a039081168252602080830185815260008a8152600e90925293902091518254600160a060020a031916911617815590516001909101556011549092506109729086612e33565b601155600d5461098990869063ffffffff612e4a16565b8351604051919850600160a060020a03169088156108fc029089906000818181858888f193505050501515610a3957600854604051600160a060020a039091169088156108fc029089906000818181858888f193505050501580156109f2573d6000803e3d6000fd5b508251604080518981529051600160a060020a03909216917ff2435d3901399daa085f8b58d2409fff9b83ce4ca97c1f144b532f5a08b1c96c9181900360200190a2610a85565b8251604080518981526020810188905281518793600160a060020a03169233927f6d957e9e816107f67cb7118461e3c259e96896f80223c9af2972596c2fdd401c929081900390910190a45b6006546040805160e060020a63a9059cbb028152336004820152602481018890529051600160a060020a039092169163a9059cbb916044808201926020929091908290030181600087803b158015610adc57600080fd5b505af1158015610af0573d6000803e3d6000fd5b505050506040513d6020811015610b0657600080fd5b5060009550610d279050565b60208301518510610d27576000848152600e602052604081208054600160a060020a0319168155600190810191909155600f54610b549163ffffffff612e1616565b600f556020830151601154610b6e9163ffffffff612e3316565b601155600d546020840151610b889163ffffffff612e4a16565b8351604051919850600160a060020a03169088156108fc029089906000818181858888f193505050501515610c3857600854604051600160a060020a039091169088156108fc029089906000818181858888f19350505050158015610bf1573d6000803e3d6000fd5b508251604080518981529051600160a060020a03909216917ff2435d3901399daa085f8b58d2409fff9b83ce4ca97c1f144b532f5a08b1c96c9181900360200190a2610c88565b8251602080850151604080518b81529283019190915280518793600160a060020a03169233927f6d957e9e816107f67cb7118461e3c259e96896f80223c9af2972596c2fdd401c92918290030190a45b6006546020808501516040805160e060020a63a9059cbb028152336004820152602481019290925251600160a060020a039093169263a9059cbb926044808401939192918290030181600087803b158015610ce257600080fd5b505af1158015610cf6573d6000803e3d6000fd5b505050506040513d6020811015610d0c57600080fd5b50506020830151610d2490869063ffffffff612e3316565b94505b600190930192610889565b6000851115610d7f57600d5433906108fc90610d5590889063ffffffff612e4a16565b6040518115909202916000818181858888f19350505050158015610d7d573d6000803e3d6000fd5b505b610d8f868663ffffffff612e3316565b90506000811115610e3e57604080513460208201526060810183905260808082526003908201527f455448000000000000000000000000000000000000000000000000000000000060a082015260c08183018190526004908201527f735553440000000000000000000000000000000000000000000000000000000060e082015290517fdb1741ffc6844b04a9284bb6337fb0ccfe543a493ef0ac8e725242201e93d4bd918190036101000190a15b979650505050505050565b60125481565b6000610e596117ee565b15610eb0576040805160e560020a62461bcd02815260206004820152602f6024820152600080516020612f5d8339815191526044820152600080516020612f1d833981519152606482015290519081900360840190fd5b60055460ff1615610f0d576040805160e560020a62461bcd02815260206004820152603c6024820152600080516020612f3d8339815191526044820152600080516020612edd833981519152606482015290519081900360840190fd5b600d548214610f8c576040805160e560020a62461bcd02815260206004820152602560248201527f47756172616e74656564207261746520776f756c64206e6f742062652072656360448201527f6569766564000000000000000000000000000000000000000000000000000000606482015290519081900360840190fd5b610f9461079b565b92915050565b600080610fb2600d5484612dea90919063ffffffff16565b600754604080517fb7fcfa69000000000000000000000000000000000000000000000000000000008152600481018490529051929350600160a060020a039091169163b7fcfa69916024808201926020929091908290030181600087803b15801561101c57600080fd5b505af1158015611030573d6000803e3d6000fd5b505050506040513d602081101561104657600080fd5b50519392505050565b600654600160a060020a031681565b6000806110696117ee565b156110c0576040805160e560020a62461bcd02815260206004820152602f6024820152600080516020612f5d8339815191526044820152600080516020612f1d833981519152606482015290519081900360840190fd5b60055460ff161561111d576040805160e560020a62461bcd02815260206004820152603c6024820152600080516020612f3d8339815191526044820152600080516020612edd833981519152606482015290519081900360840190fd5b61112683612640565b600654600854604080517f23b872dd000000000000000000000000000000000000000000000000000000008152336004820152600160a060020a0392831660248201526044810188905290519394509116916323b872dd916064808201926020929091908290030181600087803b1580156111a057600080fd5b505af11580156111b4573d6000803e3d6000fd5b505050506040513d60208110156111ca57600080fd5b50506005546040805160e060020a63a9059cbb028152336004820152602481018490529051610100909204600160a060020a03169163a9059cbb916044808201926020929091908290030181600087803b15801561122757600080fd5b505af115801561123b573d6000803e3d6000fd5b505050506040513d602081101561125157600080fd5b505060408051602081018590526060810183905260808082526004908201527f735553440000000000000000000000000000000000000000000000000000000060a082015260c08183018190526003908201527f534e58000000000000000000000000000000000000000000000000000000000060e082015290517fdb1741ffc6844b04a9284bb6337fb0ccfe543a493ef0ac8e725242201e93d4bd918190036101000190a192915050565b600054600160a060020a03163314611361576040805160e560020a62461bcd02815260206004820152602f6024820152600080516020612efd8339815191526044820152600080516020612f1d833981519152606482015290519081900360840190fd5b60018054600160a060020a038316600160a060020a0319909116811790915560408051918252517f906a1c6bd7e3091ea86693dd029a831c19049ce77f1dce2ce0bab1cacbabce229181900360200190a150565b600054600160a060020a03163314611419576040805160e560020a62461bcd02815260206004820152602f6024820152600080516020612efd8339815191526044820152600080516020612f1d833981519152606482015290519081900360840190fd5b60055460ff161515811515141561142f57611488565b6005805460ff1916821515179081905560ff161561144c57426004555b6005546040805160ff90921615158252517f8fb6c181ee25a520cf3dd6565006ef91229fcfe5a989566c2a3b8c115570cec59181900360200190a15b50565b60025481565b600054600160a060020a031633146114f5576040805160e560020a62461bcd02815260206004820152602f6024820152600080516020612efd8339815191526044820152600080516020612f1d833981519152606482015290519081900360840190fd5b600160a060020a038116151561157b576040805160e560020a62461bcd02815260206004820152602860248201527f42656e6566696369617279206d757374206e6f7420626520746865207a65726f60448201527f2061646472657373000000000000000000000000000000000000000000000000606482015290519081900360840190fd5b60038054600160a060020a038316610100810274ffffffffffffffffffffffffffffffffffffffff00199092169190911790915560408051918252517fd5da63a0b864b315bc04128dedbc93888c8529ee6cf47ce664dc204339228c539181900360200190a150565b600854600160a060020a031681565b600a5481565b600054600160a060020a0316331461165d576040805160e560020a62461bcd02815260206004820152602f6024820152600080516020612efd8339815191526044820152600080516020612f1d833981519152606482015290519081900360840190fd5b600a8190556040805182815290517f456c8075c5b512d696c9a215b96d7146add8797e2050899ad8a97fd4a648ac939181900360200190a150565b600054600160a060020a031633146116fc576040805160e560020a62461bcd02815260206004820152602f6024820152600080516020612efd8339815191526044820152600080516020612f1d833981519152606482015290519081900360840190fd5b600060028190556003805460ff191690556040517f6adcc7125002935e0aa31697538ebbd65cfddf20431eb6ecdcfc3e238bfd082c9190a1565b600054600160a060020a0316331461179a576040805160e560020a62461bcd02815260206004820152602f6024820152600080516020612efd8339815191526044820152600080516020612f1d833981519152606482015290519081900360840190fd5b60068054600160a060020a038316600160a060020a0319909116811790915560408051918252517f765d601a1e833e9d1cda08533c41d3a9e68ea99952d60e479a8e8fa63c390d419181900360200190a150565b600042611808600a54600b54612e1690919063ffffffff16565b10905090565b600954600160a060020a03163314611896576040805160e560020a62461bcd02815260206004820152602760248201527f4f6e6c7920746865206f7261636c652063616e20706572666f726d207468697360448201527f20616374696f6e00000000000000000000000000000000000000000000000000606482015290519081900360840190fd5b600b548111611915576040805160e560020a62461bcd02815260206004820152602360248201527f54696d65206d757374206265206c61746572207468616e206c6173742075706460448201527f6174650000000000000000000000000000000000000000000000000000000000606482015290519081900360840190fd5b42610258018110611996576040805160e560020a62461bcd02815260206004820152603060248201527f54696d65206d757374206265206c657373207468616e206e6f77202b204f524160448201527f434c455f4655545552455f4c494d495400000000000000000000000000000000606482015290519081900360840190fd5b600d839055600c829055600b819055604080518481526020810184905280820183905290517fa6b830b74e52d7d1140e76252f225dc7bed28782519845600bbd3182341dc1159181900360600190a1505050565b600b5481565b60115481565b600154600160a060020a031681565b6000611a0f6117ee565b15611a66576040805160e560020a62461bcd02815260206004820152602f6024820152600080516020612f5d8339815191526044820152600080516020612f1d833981519152606482015290519081900360840190fd5b60055460ff1615611ac3576040805160e560020a62461bcd02815260206004820152603c6024820152600080516020612f3d8339815191526044820152600080516020612edd833981519152606482015290519081900360840190fd5b600c548214611b42576040805160e560020a62461bcd02815260206004820152602560248201527f47756172616e74656564207261746520776f756c64206e6f742062652072656360448201527f6569766564000000000000000000000000000000000000000000000000000000606482015290519081900360840190fd5b611b4b8361105e565b9392505050565b60055460ff1681565b600054600160a060020a03163314611bbf576040805160e560020a62461bcd02815260206004820152602f6024820152600080516020612efd8339815191526044820152600080516020612f1d833981519152606482015290519081900360840190fd5b60088054600160a060020a031916600160a060020a03838116919091179182905560408051929091168252517f4deb077bf9c4bc824cc2c989e01a5e53b0a4ecc44c5039d46abc9ffc88f8a050916020908290030190a150565b600f5481565b6005546101009004600160a060020a031681565b600154600160a060020a03163314611cbb576040805160e560020a62461bcd02815260206004820152603560248201527f596f75206d757374206265206e6f6d696e61746564206265666f726520796f7560448201527f2063616e20616363657074206f776e6572736869700000000000000000000000606482015290519081900360840190fd5b60005460015460408051600160a060020a03938416815292909116602083015280517fb532073b38c83145e3e5135377a08bf9aab55bc0fd7c1179cd4fb995d2a5159c9281900390910190a16001805460008054600160a060020a0319908116600160a060020a03841617909155169055565b600080611d396117ee565b15611d90576040805160e560020a62461bcd02815260206004820152602f6024820152600080516020612f5d8339815191526044820152600080516020612f1d833981519152606482015290519081900360840190fd5b60055460ff1615611ded576040805160e560020a62461bcd02815260206004820152603c6024820152600080516020612f3d8339815191526044820152600080516020612edd833981519152606482015290519081900360840190fd5b611df634612b7e565b600854604051919250600160a060020a0316903480156108fc02916000818181858888f19350505050158015611e30573d6000803e3d6000fd5b506005546040805160e060020a63a9059cbb028152336004820152602481018490529051610100909204600160a060020a03169163a9059cbb916044808201926020929091908290030181600087803b158015611e8c57600080fd5b505af1158015611ea0573d6000803e3d6000fd5b505050506040513d6020811015611eb657600080fd5b50506040805134602082015260608101839052608080825260039082018190527f455448000000000000000000000000000000000000000000000000000000000060a083015260c08284018190528201527f534e58000000000000000000000000000000000000000000000000000000000060e082015290517fdb1741ffc6844b04a9284bb6337fb0ccfe543a493ef0ac8e725242201e93d4bd918190036101000190a1919050565b600054600160a060020a03163314611fc3576040805160e560020a62461bcd02815260206004820152602f6024820152600080516020612efd8339815191526044820152600080516020612f1d833981519152606482015290519081900360840190fd5b60098054600160a060020a031916600160a060020a03838116919091179182905560408051929091168252517f3df77beb5db05fcdd70a30fc8adf3f83f9501b68579455adbd100b8180940394916020908290030190a150565b60006120276117ee565b1561207e576040805160e560020a62461bcd02815260206004820152602f6024820152600080516020612f5d8339815191526044820152600080516020612f1d833981519152606482015290519081900360840190fd5b60055460ff16156120db576040805160e560020a62461bcd02815260206004820152603c6024820152600080516020612f3d8339815191526044820152600080516020612edd833981519152606482015290519081900360840190fd5b600d54831461215a576040805160e560020a62461bcd02815260206004820152602b60248201527f47756172616e74656564206574686572207261746520776f756c64206e6f742060448201527f6265207265636569766564000000000000000000000000000000000000000000606482015290519081900360840190fd5b600c5482146121d9576040805160e560020a62461bcd02815260206004820152602f60248201527f47756172616e746565642073796e746865746978207261746520776f756c642060448201527f6e6f742062652072656365697665640000000000000000000000000000000000606482015290519081900360840190fd5b611b4b611d2e565b600954600160a060020a031681565b6000806121fb612ec5565b60009250600f5491505b6010548210156122db57506000818152600e602090815260409182902082518084019093528054600160a060020a0316808452600190910154918301919091523314156122d057602081015161226290849063ffffffff612e1616565b6000838152600e602090815260408083208054600160a060020a031916815560010192909255835184820151835190815292519396508593600160a060020a03909116927f3aa2b18eace5e5727a4ab525921b9b0a1ca1afdb0f96b599e3ab2d76cb5e7f7292908290030190a35b600190910190612205565b6011546122ee908463ffffffff612e3316565b6011553360009081526013602052604090205461231290849063ffffffff612e1616565b33600090815260136020526040812081905590935083116123a3576040805160e560020a62461bcd02815260206004820152602160248201527f596f752068617665206e6f206465706f7369747320746f20776974686472617760448201527f2e00000000000000000000000000000000000000000000000000000000000000606482015290519081900360840190fd5b6006546040805160e060020a63a9059cbb028152336004820152602481018690529051600160a060020a039092169163a9059cbb916044808201926020929091908290030181600087803b1580156123fa57600080fd5b505af115801561240e573d6000803e3d6000fd5b505050506040513d602081101561242457600080fd5b5050604080513381526020810185905281517faf6ec623f558c7b3527ff6c9c09432c7d81a3d38bd2e1eaaee2efe7aac23c28b929181900390910190a1505050565b600054600160a060020a031681565b60045481565b60008054600160a060020a031633146124e0576040805160e560020a62461bcd02815260206004820152602f6024820152600080516020612efd8339815191526044820152600080516020612f1d833981519152606482015290519081900360840190fd5b60035460ff161515612562576040805160e560020a62461bcd02815260206004820152602860248201527f53656c6620646573747275637420686173206e6f7420796574206265656e206960448201527f6e69746961746564000000000000000000000000000000000000000000000000606482015290519081900360840190fd5b426224ea00600254011015156125e8576040805160e560020a62461bcd02815260206004820152602760248201527f53656c662064657374727563742064656c617920686173206e6f74207965742060448201527f656c617073656400000000000000000000000000000000000000000000000000606482015290519081900360840190fd5b5060035460408051600160a060020a0361010090930492909216808352905190917f8a09e1677ced846cb537dc2b172043bd05a1a81ad7e0033a7ef8ba762df990b7919081900360200190a180600160a060020a0316ff5b600754604080517fb7fcfa690000000000000000000000000000000000000000000000000000000081526004810184905290516000928392600160a060020a039091169163b7fcfa699160248082019260209290919082900301818787803b1580156126ab57600080fd5b505af11580156126bf573d6000803e3d6000fd5b505050506040513d60208110156126d557600080fd5b5051600c54909150611b4b90829063ffffffff612e4a16565b6224ea0081565b600054600160a060020a03163314612759576040805160e560020a62461bcd02815260206004820152602f6024820152600080516020612efd8339815191526044820152600080516020612f1d833981519152606482015290519081900360840190fd5b73__SafeDecimalMath_______________________63907af6c06040518163ffffffff167c010000000000000000000000000000000000000000000000000000000002815260040160206040518083038186803b1580156127b957600080fd5b505af41580156127cd573d6000803e3d6000fd5b505050506040513d60208110156127e357600080fd5b50518111612861576040805160e560020a62461bcd02815260206004820152603060248201527f4d696e696d756d206465706f73697420616d6f756e74206d757374206265206760448201527f726561746572207468616e20554e495400000000000000000000000000000000606482015290519081900360840190fd5b60128190556040805182815290517fa39eacd162ee82c70b2b030a1bc8fe89adcccc61122fad4821a8772dbcc542679181900360200190a150565b600754600160a060020a031681565b600e6020526000908152604090208054600190910154600160a060020a039091169082565b60035460ff1681565b600d5481565b600054600160a060020a03163314612943576040805160e560020a62461bcd02815260206004820152602f6024820152600080516020612efd8339815191526044820152600080516020612f1d833981519152606482015290519081900360840190fd5b426002556003805460ff19166001179055604080516224ea00815290517fcbd94ca75b8dc45c9d80c77e851670e78843c0d75180cb81db3e2158228fa9a69181900360200190a1565b600654600090600160a060020a03163314612a05576040805160e560020a62461bcd02815260206004820152602f60248201527f4f6e6c79207468652073796e746820636f6e74726163742063616e20706572666044820152600080516020612f1d833981519152606482015290519081900360840190fd5b601254841015612a9e57600160a060020a038516600090815260136020526040902054612a38908563ffffffff612e1616565b600160a060020a0386166000818152601360209081526040918290209390935560125481519283529282018790528181019290925290517fbc3a12638d840d60760c64b39c73985a6498cf6eb8176f124995b0e07236cbd29181900360600190a1612b50565b604080518082018252600160a060020a038781168083526020808401898152601080546000908152600e845287902095518654600160a060020a031916951694909417855551600190940193909355905483518881529351909391927fd9acabe6e09d178728ba5c366661c5be0621b4770f216305b059ec175b37e0b4928290030190a3601054612b3690600163ffffffff612e1616565b601055601154612b4c908563ffffffff612e1616565b6011555b949350505050565b6003546101009004600160a060020a031681565b60136020526000908152604090205481565b600080612b96600d5484612dea90919063ffffffff16565b9050611b4b81612640565b600654604080517f23b872dd000000000000000000000000000000000000000000000000000000008152336004820152306024820152604481018490529051600160a060020a03909216916323b872dd916064808201926020929091908290030181600087803b158015612c1457600080fd5b505af1158015612c28573d6000803e3d6000fd5b505050506040513d6020811015612c3e57600080fd5b505050565b600054600160a060020a03163314612ca7576040805160e560020a62461bcd02815260206004820152602f6024820152600080516020612efd8339815191526044820152600080516020612f1d833981519152606482015290519081900360840190fd5b600554600080546040805160e060020a63a9059cbb028152600160a060020a0392831660048201526024810186905290516101009094049091169263a9059cbb92604480840193602093929083900390910190829087803b158015612c1457600080fd5b600c5481565b61025881565b60105481565b600054600160a060020a03163314612d81576040805160e560020a62461bcd02815260206004820152602f6024820152600080516020612efd8339815191526044820152600080516020612f1d833981519152606482015290519081900360840190fd5b60058054600160a060020a038316610100810274ffffffffffffffffffffffffffffffffffffffff00199092169190911790915560408051918252517f46e9c68bd7831071bdd478f1ae4c4a52463961a9d620383a0a121dbfc0e0f06d9181900360200190a150565b6000670de0b6b3a7640000612e05848463ffffffff612e7416565b811515612e0e57fe5b049392505050565b600082820183811015612e2857600080fd5b8091505b5092915050565b60008083831115612e4357600080fd5b5050900390565b6000611b4b82612e6885670de0b6b3a764000063ffffffff612e7416565b9063ffffffff612ea216565b600080831515612e875760009150612e2c565b50828202828482811515612e9757fe5b0414612e2857600080fd5b600080808311612eb157600080fd5b8284811515612ebc57fe5b04949350505050565b60408051808201909152600080825260208201529056007768696c652074686520636f6e747261637420697320706175736564000000004f6e6c792074686520636f6e7472616374206f776e6572206d617920706572666f726d207468697320616374696f6e00000000000000000000000000000000005468697320616374696f6e2063616e6e6f7420626520706572666f726d656420507269636573206d757374206e6f74206265207374616c6520746f2070657266a165627a7a72305820687f10273a5bffb80e73f6f4155ab2f092396a8d4df17709fe82ddb755d445a00029",
  "source": "/*\n-----------------------------------------------------------------\nFILE INFORMATION\n-----------------------------------------------------------------\n\nfile:       Depot.sol\nversion:    3.0\nauthor:     Kevin Brown\ndate:       2018-10-23\n\n-----------------------------------------------------------------\nMODULE DESCRIPTION\n-----------------------------------------------------------------\n\nDepot contract. The Depot provides\na way for users to acquire synths (Synth.sol) and SNX\n(Synthetix.sol) by paying ETH and a way for users to acquire SNX\n(Synthetix.sol) by paying synths. Users can also deposit their synths\nand allow other users to purchase them with ETH. The ETH is sent\nto the user who offered their synths for sale.\n\nThis smart contract contains a balance of each token, and\nallows the owner of the contract (the Synthetix Foundation) to\nmanage the available balance of synthetix at their discretion, while\nusers are allowed to deposit and withdraw their own synth deposits\nif they have not yet been taken up by another user.\n\n-----------------------------------------------------------------\n*/\n\npragma solidity 0.4.25;\n\nimport \"./SelfDestructible.sol\";\nimport \"./Pausable.sol\";\nimport \"./SafeDecimalMath.sol\";\nimport \"./ISynthetix.sol\";\nimport \"./ISynth.sol\";\nimport \"./IFeePool.sol\";\n\n/**\n * @title Depot Contract.\n */\ncontract Depot is SelfDestructible, Pausable {\n    using SafeMath for uint;\n    using SafeDecimalMath for uint;\n\n    /* ========== STATE VARIABLES ========== */\n    ISynthetix public synthetix;\n    ISynth public synth;\n    IFeePool public feePool;\n\n    // Address where the ether and Synths raised for selling SNX is transfered to\n    // Any ether raised for selling Synths gets sent back to whoever deposited the Synths,\n    // and doesn't have anything to do with this address.\n    address public fundsWallet;\n\n    /* The address of the oracle which pushes the USD price SNX and ether to this contract */\n    address public oracle;\n    /* Do not allow the oracle to submit times any further forward into the future than\n       this constant. */\n    uint public constant ORACLE_FUTURE_LIMIT = 10 minutes;\n\n    /* How long will the contract assume the price of any asset is correct */\n    uint public priceStalePeriod = 3 hours;\n\n    /* The time the prices were last updated */\n    uint public lastPriceUpdateTime;\n    /* The USD price of SNX denominated in UNIT */\n    uint public usdToSnxPrice;\n    /* The USD price of ETH denominated in UNIT */\n    uint public usdToEthPrice;\n\n    /* Stores deposits from users. */\n    struct synthDeposit {\n        // The user that made the deposit\n        address user;\n        // The amount (in Synths) that they deposited\n        uint amount;\n    }\n\n    /* User deposits are sold on a FIFO (First in First out) basis. When users deposit\n       synths with us, they get added this queue, which then gets fulfilled in order.\n       Conceptually this fits well in an array, but then when users fill an order we\n       end up copying the whole array around, so better to use an index mapping instead\n       for gas performance reasons.\n\n       The indexes are specified (inclusive, exclusive), so (0, 0) means there's nothing\n       in the array, and (3, 6) means there are 3 elements at 3, 4, and 5. You can obtain\n       the length of the \"array\" by querying depositEndIndex - depositStartIndex. All index\n       operations use safeAdd, so there is no way to overflow, so that means there is a\n       very large but finite amount of deposits this contract can handle before it fills up. */\n    mapping(uint => synthDeposit) public deposits;\n    // The starting index of our queue inclusive\n    uint public depositStartIndex;\n    // The ending index of our queue exclusive\n    uint public depositEndIndex;\n\n    /* This is a convenience variable so users and dApps can just query how much sUSD\n       we have available for purchase without having to iterate the mapping with a\n       O(n) amount of calls for something we'll probably want to display quite regularly. */\n    uint public totalSellableDeposits;\n\n    // The minimum amount of sUSD required to enter the FiFo queue\n    uint public minimumDepositAmount = 50 * SafeDecimalMath.unit();\n\n    // If a user deposits a synth amount < the minimumDepositAmount the contract will keep\n    // the total of small deposits which will not be sold on market and the sender\n    // must call withdrawMyDepositedSynths() to get them back.\n    mapping(address => uint) public smallDeposits;\n\n\n    /* ========== CONSTRUCTOR ========== */\n\n    /**\n     * @dev Constructor\n     * @param _owner The owner of this contract.\n     * @param _fundsWallet The recipient of ETH and Synths that are sent to this contract while exchanging.\n     * @param _synthetix The Synthetix contract we'll interact with for balances and sending.\n     * @param _synth The Synth contract we'll interact with for balances and sending.\n     * @param _oracle The address which is able to update price information.\n     * @param _usdToEthPrice The current price of ETH in USD, expressed in UNIT.\n     * @param _usdToSnxPrice The current price of Synthetix in USD, expressed in UNIT.\n     */\n    constructor(\n        // Ownable\n        address _owner,\n\n        // Funds Wallet\n        address _fundsWallet,\n\n        // Other contracts needed\n        ISynthetix _synthetix,\n        ISynth _synth,\n\t\tIFeePool _feePool,\n\n        // Oracle values - Allows for price updates\n        address _oracle,\n        uint _usdToEthPrice,\n        uint _usdToSnxPrice\n    )\n        /* Owned is initialised in SelfDestructible */\n        SelfDestructible(_owner)\n        Pausable(_owner)\n        public\n    {\n        fundsWallet = _fundsWallet;\n        synthetix = _synthetix;\n        synth = _synth;\n        feePool = _feePool;\n        oracle = _oracle;\n        usdToEthPrice = _usdToEthPrice;\n        usdToSnxPrice = _usdToSnxPrice;\n        lastPriceUpdateTime = now;\n    }\n\n    /* ========== SETTERS ========== */\n\n    /**\n     * @notice Set the funds wallet where ETH raised is held\n     * @param _fundsWallet The new address to forward ETH and Synths to\n     */\n    function setFundsWallet(address _fundsWallet)\n        external\n        onlyOwner\n    {\n        fundsWallet = _fundsWallet;\n        emit FundsWalletUpdated(fundsWallet);\n    }\n\n    /**\n     * @notice Set the Oracle that pushes the synthetix price to this contract\n     * @param _oracle The new oracle address\n     */\n    function setOracle(address _oracle)\n        external\n        onlyOwner\n    {\n        oracle = _oracle;\n        emit OracleUpdated(oracle);\n    }\n\n    /**\n     * @notice Set the Synth contract that the issuance controller uses to issue Synths.\n     * @param _synth The new synth contract target\n     */\n    function setSynth(ISynth _synth)\n        external\n        onlyOwner\n    {\n        synth = _synth;\n        emit SynthUpdated(_synth);\n    }\n\n    /**\n     * @notice Set the Synthetix contract that the issuance controller uses to issue SNX.\n     * @param _synthetix The new synthetix contract target\n     */\n    function setSynthetix(ISynthetix _synthetix)\n        external\n        onlyOwner\n    {\n        synthetix = _synthetix;\n        emit SynthetixUpdated(_synthetix);\n    }\n\n    /**\n     * @notice Set the stale period on the updated price variables\n     * @param _time The new priceStalePeriod\n     */\n    function setPriceStalePeriod(uint _time)\n        external\n        onlyOwner\n    {\n        priceStalePeriod = _time;\n        emit PriceStalePeriodUpdated(priceStalePeriod);\n    }\n\n    /**\n     * @notice Set the minimum deposit amount required to depoist sUSD into the FIFO queue\n     * @param _amount The new new minimum number of sUSD required to deposit\n     */\n    function setMinimumDepositAmount(uint _amount)\n        external\n        onlyOwner\n    {\n        // Do not allow us to set it less than 1 dollar opening up to fractional desposits in the queue again\n        require(_amount > SafeDecimalMath.unit(), \"Minimum deposit amount must be greater than UNIT\");\n        minimumDepositAmount = _amount;\n        emit MinimumDepositAmountUpdated(minimumDepositAmount);\n    }\n\n    /* ========== MUTATIVE FUNCTIONS ========== */\n    /**\n     * @notice Access point for the oracle to update the prices of SNX / eth.\n     * @param newEthPrice The current price of ether in USD, specified to 18 decimal places.\n     * @param newSynthetixPrice The current price of SNX in USD, specified to 18 decimal places.\n     * @param timeSent The timestamp from the oracle when the transaction was created. This ensures we don't consider stale prices as current in times of heavy network congestion.\n     */\n    function updatePrices(uint newEthPrice, uint newSynthetixPrice, uint timeSent)\n        external\n        onlyOracle\n    {\n        /* Must be the most recently sent price, but not too far in the future.\n         * (so we can't lock ourselves out of updating the oracle for longer than this) */\n        require(lastPriceUpdateTime < timeSent, \"Time must be later than last update\");\n        require(timeSent < (now + ORACLE_FUTURE_LIMIT), \"Time must be less than now + ORACLE_FUTURE_LIMIT\");\n\n        usdToEthPrice = newEthPrice;\n        usdToSnxPrice = newSynthetixPrice;\n        lastPriceUpdateTime = timeSent;\n\n        emit PricesUpdated(usdToEthPrice, usdToSnxPrice, lastPriceUpdateTime);\n    }\n\n    /**\n     * @notice Fallback function (exchanges ETH to sUSD)\n     */\n    function ()\n        external\n        payable\n    {\n        exchangeEtherForSynths();\n    }\n\n    /**\n     * @notice Exchange ETH to sUSD.\n     */\n    function exchangeEtherForSynths()\n        public\n        payable\n        pricesNotStale\n        notPaused\n        returns (uint) // Returns the number of Synths (sUSD) received\n    {\n        uint ethToSend;\n\n        // The multiplication works here because usdToEthPrice is specified in\n        // 18 decimal places, just like our currency base.\n        uint requestedToPurchase = msg.value.multiplyDecimal(usdToEthPrice);\n        uint remainingToFulfill = requestedToPurchase;\n\n        // Iterate through our outstanding deposits and sell them one at a time.\n        for (uint i = depositStartIndex; remainingToFulfill > 0 && i < depositEndIndex; i++) {\n            synthDeposit memory deposit = deposits[i];\n\n            // If it's an empty spot in the queue from a previous withdrawal, just skip over it and\n            // update the queue. It's already been deleted.\n            if (deposit.user == address(0)) {\n\n                depositStartIndex = depositStartIndex.add(1);\n            } else {\n                // If the deposit can more than fill the order, we can do this\n                // without touching the structure of our queue.\n                if (deposit.amount > remainingToFulfill) {\n\n                    // Ok, this deposit can fulfill the whole remainder. We don't need\n                    // to change anything about our queue we can just fulfill it.\n                    // Subtract the amount from our deposit and total.\n                    uint newAmount = deposit.amount.sub(remainingToFulfill);\n                    deposits[i] = synthDeposit({ user: deposit.user, amount: newAmount});\n\n                    totalSellableDeposits = totalSellableDeposits.sub(remainingToFulfill);\n\n                    // Transfer the ETH to the depositor. Send is used instead of transfer\n                    // so a non payable contract won't block the FIFO queue on a failed\n                    // ETH payable for synths transaction. The proceeds to be sent to the\n                    // synthetix foundation funds wallet. This is to protect all depositors\n                    // in the queue in this rare case that may occur.\n                    ethToSend = remainingToFulfill.divideDecimal(usdToEthPrice);\n\n                    // We need to use send here instead of transfer because transfer reverts\n                    // if the recipient is a non-payable contract. Send will just tell us it\n                    // failed by returning false at which point we can continue.\n                    // solium-disable-next-line security/no-send\n                    if(!deposit.user.send(ethToSend)) {\n                        fundsWallet.transfer(ethToSend);\n                        emit NonPayableContract(deposit.user, ethToSend);\n                    } else {\n                        emit ClearedDeposit(msg.sender, deposit.user, ethToSend, remainingToFulfill, i);\n                    }\n\n                    // And the Synths to the recipient.\n                    // Note: Fees are calculated by the Synth contract, so when\n                    //       we request a specific transfer here, the fee is\n                    //       automatically deducted and sent to the fee pool.\n                    synth.transfer(msg.sender, remainingToFulfill);\n\n                    // And we have nothing left to fulfill on this order.\n                    remainingToFulfill = 0;\n                } else if (deposit.amount <= remainingToFulfill) {\n                    // We need to fulfill this one in its entirety and kick it out of the queue.\n                    // Start by kicking it out of the queue.\n                    // Free the storage because we can.\n                    delete deposits[i];\n                    // Bump our start index forward one.\n                    depositStartIndex = depositStartIndex.add(1);\n                    // We also need to tell our total it's decreased\n                    totalSellableDeposits = totalSellableDeposits.sub(deposit.amount);\n\n                    // Now fulfill by transfering the ETH to the depositor. Send is used instead of transfer\n                    // so a non payable contract won't block the FIFO queue on a failed\n                    // ETH payable for synths transaction. The proceeds to be sent to the\n                    // synthetix foundation funds wallet. This is to protect all depositors\n                    // in the queue in this rare case that may occur.\n                    ethToSend = deposit.amount.divideDecimal(usdToEthPrice);\n\n                    // We need to use send here instead of transfer because transfer reverts\n                    // if the recipient is a non-payable contract. Send will just tell us it\n                    // failed by returning false at which point we can continue.\n                    // solium-disable-next-line security/no-send\n                    if(!deposit.user.send(ethToSend)) {\n                        fundsWallet.transfer(ethToSend);\n                        emit NonPayableContract(deposit.user, ethToSend);\n                    } else {\n                        emit ClearedDeposit(msg.sender, deposit.user, ethToSend, deposit.amount, i);\n                    }\n\n                    // And the Synths to the recipient.\n                    // Note: Fees are calculated by the Synth contract, so when\n                    //       we request a specific transfer here, the fee is\n                    //       automatically deducted and sent to the fee pool.\n                    synth.transfer(msg.sender, deposit.amount);\n\n                    // And subtract the order from our outstanding amount remaining\n                    // for the next iteration of the loop.\n                    remainingToFulfill = remainingToFulfill.sub(deposit.amount);\n                }\n            }\n        }\n\n        // Ok, if we're here and 'remainingToFulfill' isn't zero, then\n        // we need to refund the remainder of their ETH back to them.\n        if (remainingToFulfill > 0) {\n            msg.sender.transfer(remainingToFulfill.divideDecimal(usdToEthPrice));\n        }\n\n        // How many did we actually give them?\n        uint fulfilled = requestedToPurchase.sub(remainingToFulfill);\n\n        if (fulfilled > 0) {\n            // Now tell everyone that we gave them that many (only if the amount is greater than 0).\n            emit Exchange(\"ETH\", msg.value, \"sUSD\", fulfilled);\n        }\n\n        return fulfilled;\n    }\n\n    /**\n     * @notice Exchange ETH to sUSD while insisting on a particular rate. This allows a user to\n     *         exchange while protecting against frontrunning by the contract owner on the exchange rate.\n     * @param guaranteedRate The exchange rate (ether price) which must be honored or the call will revert.\n     */\n    function exchangeEtherForSynthsAtRate(uint guaranteedRate)\n        public\n        payable\n        pricesNotStale\n        notPaused\n        returns (uint) // Returns the number of Synths (sUSD) received\n    {\n        require(guaranteedRate == usdToEthPrice, \"Guaranteed rate would not be received\");\n\n        return exchangeEtherForSynths();\n    }\n\n\n    /**\n     * @notice Exchange ETH to SNX.\n     */\n    function exchangeEtherForSynthetix()\n        public\n        payable\n        pricesNotStale\n        notPaused\n        returns (uint) // Returns the number of SNX received\n    {\n        // How many SNX are they going to be receiving?\n        uint synthetixToSend = synthetixReceivedForEther(msg.value);\n\n        // Store the ETH in our funds wallet\n        fundsWallet.transfer(msg.value);\n\n        // And send them the SNX.\n        synthetix.transfer(msg.sender, synthetixToSend);\n\n        emit Exchange(\"ETH\", msg.value, \"SNX\", synthetixToSend);\n\n        return synthetixToSend;\n    }\n\n    /**\n     * @notice Exchange ETH to SNX while insisting on a particular set of rates. This allows a user to\n     *         exchange while protecting against frontrunning by the contract owner on the exchange rates.\n     * @param guaranteedEtherRate The ether exchange rate which must be honored or the call will revert.\n     * @param guaranteedSynthetixRate The synthetix exchange rate which must be honored or the call will revert.\n     */\n    function exchangeEtherForSynthetixAtRate(uint guaranteedEtherRate, uint guaranteedSynthetixRate)\n        public\n        payable\n        pricesNotStale\n        notPaused\n        returns (uint) // Returns the number of SNX received\n    {\n        require(guaranteedEtherRate == usdToEthPrice, \"Guaranteed ether rate would not be received\");\n        require(guaranteedSynthetixRate == usdToSnxPrice, \"Guaranteed synthetix rate would not be received\");\n\n        return exchangeEtherForSynthetix();\n    }\n\n\n    /**\n     * @notice Exchange sUSD for SNX\n     * @param synthAmount The amount of synths the user wishes to exchange.\n     */\n    function exchangeSynthsForSynthetix(uint synthAmount)\n        public\n        pricesNotStale\n        notPaused\n        returns (uint) // Returns the number of SNX received\n    {\n        // How many SNX are they going to be receiving?\n        uint synthetixToSend = synthetixReceivedForSynths(synthAmount);\n\n        // Ok, transfer the Synths to our funds wallet.\n        // These do not go in the deposit queue as they aren't for sale as such unless\n        // they're sent back in from the funds wallet.\n        synth.transferFrom(msg.sender, fundsWallet, synthAmount);\n\n        // And send them the SNX.\n        synthetix.transfer(msg.sender, synthetixToSend);\n\n        emit Exchange(\"sUSD\", synthAmount, \"SNX\", synthetixToSend);\n\n        return synthetixToSend;\n    }\n\n    /**\n     * @notice Exchange sUSD for SNX while insisting on a particular rate. This allows a user to\n     *         exchange while protecting against frontrunning by the contract owner on the exchange rate.\n     * @param synthAmount The amount of synths the user wishes to exchange.\n     * @param guaranteedRate A rate (synthetix price) the caller wishes to insist upon.\n     */\n    function exchangeSynthsForSynthetixAtRate(uint synthAmount, uint guaranteedRate)\n        public\n        pricesNotStale\n        notPaused\n        returns (uint) // Returns the number of SNX received\n    {\n        require(guaranteedRate == usdToSnxPrice, \"Guaranteed rate would not be received\");\n\n        return exchangeSynthsForSynthetix(synthAmount);\n    }\n\n    /**\n     * @notice Allows the owner to withdraw SNX from this contract if needed.\n     * @param amount The amount of SNX to attempt to withdraw (in 18 decimal places).\n     */\n    function withdrawSynthetix(uint amount)\n        external\n        onlyOwner\n    {\n        synthetix.transfer(owner, amount);\n\n        // We don't emit our own events here because we assume that anyone\n        // who wants to watch what the Issuance Controller is doing can\n        // just watch ERC20 events from the Synth and/or Synthetix contracts\n        // filtered to our address.\n    }\n\n    /**\n     * @notice Allows a user to withdraw all of their previously deposited synths from this contract if needed.\n     *         Developer note: We could keep an index of address to deposits to make this operation more efficient\n     *         but then all the other operations on the queue become less efficient. It's expected that this\n     *         function will be very rarely used, so placing the inefficiency here is intentional. The usual\n     *         use case does not involve a withdrawal.\n     */\n    function withdrawMyDepositedSynths()\n        external\n    {\n        uint synthsToSend = 0;\n\n        for (uint i = depositStartIndex; i < depositEndIndex; i++) {\n            synthDeposit memory deposit = deposits[i];\n\n            if (deposit.user == msg.sender) {\n                // The user is withdrawing this deposit. Remove it from our queue.\n                // We'll just leave a gap, which the purchasing logic can walk past.\n                synthsToSend = synthsToSend.add(deposit.amount);\n                delete deposits[i];\n                //Let the DApps know we've removed this deposit\n                emit SynthDepositRemoved(deposit.user, deposit.amount, i);\n            }\n        }\n\n        // Update our total\n        totalSellableDeposits = totalSellableDeposits.sub(synthsToSend);\n\n        // Check if the user has tried to send deposit amounts < the minimumDepositAmount to the FIFO\n        // queue which would have been added to this mapping for withdrawal only\n        synthsToSend = synthsToSend.add(smallDeposits[msg.sender]);\n        smallDeposits[msg.sender] = 0;\n\n        // If there's nothing to do then go ahead and revert the transaction\n        require(synthsToSend > 0, \"You have no deposits to withdraw.\");\n\n        // Send their deposits back to them (minus fees)\n        synth.transfer(msg.sender, synthsToSend);\n\n        emit SynthWithdrawal(msg.sender, synthsToSend);\n    }\n\n    /**\n     * @notice depositSynths: Allows users to deposit synths via the approve / transferFrom workflow\n     *         if they'd like. You can equally just transfer synths to this contract and it will work\n     *         exactly the same way but with one less call (and therefore cheaper transaction fees)\n     * @param amount The amount of sUSD you wish to deposit (must have been approved first)\n     */\n    function depositSynths(uint amount)\n        external\n    {\n        // Grab the amount of synths\n        synth.transferFrom(msg.sender, this, amount);\n\n        // Note, we don't need to add them to the deposit list below, as the Synth contract itself will\n        // call tokenFallback when the transfer happens, adding their deposit to the queue.\n    }\n\n    /**\n     * @notice Triggers when users send us SNX or sUSD, but the modifier only allows sUSD calls to proceed.\n     * @param from The address sending the sUSD\n     * @param amount The amount of sUSD\n     */\n    function tokenFallback(address from, uint amount, bytes data)\n        external\n        onlySynth\n        returns (bool)\n    {\n        // A minimum deposit amount is designed to protect purchasers from over paying\n        // gas for fullfilling multiple small synth deposits\n        if (amount < minimumDepositAmount) {\n            // We cant fail/revert the transaction or send the synths back in a reentrant call.\n            // So we will keep your synths balance seperate from the FIFO queue so you can withdraw them\n            smallDeposits[from] = smallDeposits[from].add(amount);\n\n            emit SynthDepositNotAccepted(from, amount, minimumDepositAmount);\n        } else {\n            // Ok, thanks for the deposit, let's queue it up.\n            deposits[depositEndIndex] = synthDeposit({ user: from, amount: amount });\n            emit SynthDeposit(from, amount, depositEndIndex);\n\n            // Walk our index forward as well.\n            depositEndIndex = depositEndIndex.add(1);\n\n            // And add it to our total.\n            totalSellableDeposits = totalSellableDeposits.add(amount);\n        }\n    }\n\n    /* ========== VIEWS ========== */\n    /**\n     * @notice Check if the prices haven't been updated for longer than the stale period.\n     */\n    function pricesAreStale()\n        public\n        view\n        returns (bool)\n    {\n        return lastPriceUpdateTime.add(priceStalePeriod) < now;\n    }\n\n    /**\n     * @notice Calculate how many SNX you will receive if you transfer\n     *         an amount of synths.\n     * @param amount The amount of synths (in 18 decimal places) you want to ask about\n     */\n    function synthetixReceivedForSynths(uint amount)\n        public\n        view\n        returns (uint)\n    {\n        // How many synths would we receive after the transfer fee?\n        uint synthsReceived = feePool.amountReceivedFromTransfer(amount);\n\n        // And what would that be worth in SNX based on the current price?\n        return synthsReceived.divideDecimal(usdToSnxPrice);\n    }\n\n    /**\n     * @notice Calculate how many SNX you will receive if you transfer\n     *         an amount of ether.\n     * @param amount The amount of ether (in wei) you want to ask about\n     */\n    function synthetixReceivedForEther(uint amount)\n        public\n        view\n        returns (uint)\n    {\n        // How much is the ETH they sent us worth in sUSD (ignoring the transfer fee)?\n        uint valueSentInSynths = amount.multiplyDecimal(usdToEthPrice);\n\n        // Now, how many SNX will that USD amount buy?\n        return synthetixReceivedForSynths(valueSentInSynths);\n    }\n\n    /**\n     * @notice Calculate how many synths you will receive if you transfer\n     *         an amount of ether.\n     * @param amount The amount of ether (in wei) you want to ask about\n     */\n    function synthsReceivedForEther(uint amount)\n        public\n        view\n        returns (uint)\n    {\n        // How many synths would that amount of ether be worth?\n        uint synthsTransferred = amount.multiplyDecimal(usdToEthPrice);\n\n        // And how many of those would you receive after a transfer (deducting the transfer fee)\n        return feePool.amountReceivedFromTransfer(synthsTransferred);\n    }\n\n    /* ========== MODIFIERS ========== */\n\n    modifier onlyOracle\n    {\n        require(msg.sender == oracle, \"Only the oracle can perform this action\");\n        _;\n    }\n\n    modifier onlySynth\n    {\n        // We're only interested in doing anything on receiving sUSD.\n        require(msg.sender == address(synth), \"Only the synth contract can perform this action\");\n        _;\n    }\n\n    modifier pricesNotStale\n    {\n        require(!pricesAreStale(), \"Prices must not be stale to perform this action\");\n        _;\n    }\n\n    /* ========== EVENTS ========== */\n\n    event FundsWalletUpdated(address newFundsWallet);\n    event OracleUpdated(address newOracle);\n    event SynthUpdated(ISynth newSynthContract);\n    event SynthetixUpdated(ISynthetix newSynthetixContract);\n    event PriceStalePeriodUpdated(uint priceStalePeriod);\n    event PricesUpdated(uint newEthPrice, uint newSynthetixPrice, uint timeSent);\n    event Exchange(string fromCurrency, uint fromAmount, string toCurrency, uint toAmount);\n    event SynthWithdrawal(address user, uint amount);\n    event SynthDeposit(address indexed user, uint amount, uint indexed depositIndex);\n    event SynthDepositRemoved(address indexed user, uint amount, uint indexed depositIndex);\n    event SynthDepositNotAccepted(address user, uint amount, uint minimum);\n    event MinimumDepositAmountUpdated(uint amount);\n    event NonPayableContract(address indexed receiver, uint amount);\n    event ClearedDeposit(address indexed fromAddress, address indexed toAddress, uint fromETHAmount, uint toAmount, uint indexed depositIndex);\n}\n",
  "sourcePath": "/Users/mathew/workspace/quantal/test/test-projects/synthetix/contracts/Depot.sol",
  "compiler": {
    "name": "solc",
    "version": "0.4.25+commit.59dbf8f1.Emscripten.clang"
  },
  "schemaVersion": "3.0.6",
  "updatedAt": "2019-08-12T22:49:05.654Z",
  "devdoc": {
    "methods": {
      "depositSynths(uint256)": {
        "params": {
          "amount": "The amount of sUSD you wish to deposit (must have been approved first)"
        }
      },
      "exchangeEtherForSynthetixAtRate(uint256,uint256)": {
        "params": {
          "guaranteedEtherRate": "The ether exchange rate which must be honored or the call will revert.",
          "guaranteedSynthetixRate": "The synthetix exchange rate which must be honored or the call will revert."
        }
      },
      "exchangeEtherForSynthsAtRate(uint256)": {
        "params": {
          "guaranteedRate": "The exchange rate (ether price) which must be honored or the call will revert."
        }
      },
      "exchangeSynthsForSynthetix(uint256)": {
        "params": {
          "synthAmount": "The amount of synths the user wishes to exchange."
        }
      },
      "exchangeSynthsForSynthetixAtRate(uint256,uint256)": {
        "params": {
          "guaranteedRate": "A rate (synthetix price) the caller wishes to insist upon.",
          "synthAmount": "The amount of synths the user wishes to exchange."
        }
      },
      "initiateSelfDestruct()": {
        "details": "Only the contract owner may call this."
      },
      "nominateNewOwner(address)": {
        "details": "Only the current owner may nominate a new owner."
      },
      "selfDestruct()": {
        "details": "Only the contract owner may call this."
      },
      "setFundsWallet(address)": {
        "params": {
          "_fundsWallet": "The new address to forward ETH and Synths to"
        }
      },
      "setMinimumDepositAmount(uint256)": {
        "params": {
          "_amount": "The new new minimum number of sUSD required to deposit"
        }
      },
      "setOracle(address)": {
        "params": {
          "_oracle": "The new oracle address"
        }
      },
      "setPaused(bool)": {
        "details": "Only the contract owner may call this."
      },
      "setPriceStalePeriod(uint256)": {
        "params": {
          "_time": "The new priceStalePeriod"
        }
      },
      "setSelfDestructBeneficiary(address)": {
        "details": "Only the contract owner may call this. The provided beneficiary must be non-null.",
        "params": {
          "_beneficiary": "The address to pay any eth contained in this contract to upon self-destruction."
        }
      },
      "setSynth(address)": {
        "params": {
          "_synth": "The new synth contract target"
        }
      },
      "setSynthetix(address)": {
        "params": {
          "_synthetix": "The new synthetix contract target"
        }
      },
      "synthetixReceivedForEther(uint256)": {
        "params": {
          "amount": "The amount of ether (in wei) you want to ask about"
        }
      },
      "synthetixReceivedForSynths(uint256)": {
        "params": {
          "amount": "The amount of synths (in 18 decimal places) you want to ask about"
        }
      },
      "synthsReceivedForEther(uint256)": {
        "params": {
          "amount": "The amount of ether (in wei) you want to ask about"
        }
      },
      "terminateSelfDestruct()": {
        "details": "Only the contract owner may call this."
      },
      "tokenFallback(address,uint256,bytes)": {
        "params": {
          "amount": "The amount of sUSD",
          "from": "The address sending the sUSD"
        }
      },
      "updatePrices(uint256,uint256,uint256)": {
        "params": {
          "newEthPrice": "The current price of ether in USD, specified to 18 decimal places.",
          "newSynthetixPrice": "The current price of SNX in USD, specified to 18 decimal places.",
          "timeSent": "The timestamp from the oracle when the transaction was created. This ensures we don't consider stale prices as current in times of heavy network congestion."
        }
      },
      "withdrawSynthetix(uint256)": {
        "params": {
          "amount": "The amount of SNX to attempt to withdraw (in 18 decimal places)."
        }
      }
    },
    "title": "Depot Contract."
  },
  "userdoc": {
    "methods": {
      "acceptOwnership()": {
        "notice": "Accept the nomination to be owner."
      },
      "depositSynths(uint256)": {
        "notice": "depositSynths: Allows users to deposit synths via the approve / transferFrom workflow        if they'd like. You can equally just transfer synths to this contract and it will work        exactly the same way but with one less call (and therefore cheaper transaction fees)"
      },
      "exchangeEtherForSynthetix()": {
        "notice": "Exchange ETH to SNX."
      },
      "exchangeEtherForSynthetixAtRate(uint256,uint256)": {
        "notice": "Exchange ETH to SNX while insisting on a particular set of rates. This allows a user to        exchange while protecting against frontrunning by the contract owner on the exchange rates."
      },
      "exchangeEtherForSynths()": {
        "notice": "Exchange ETH to sUSD."
      },
      "exchangeEtherForSynthsAtRate(uint256)": {
        "notice": "Exchange ETH to sUSD while insisting on a particular rate. This allows a user to        exchange while protecting against frontrunning by the contract owner on the exchange rate."
      },
      "exchangeSynthsForSynthetix(uint256)": {
        "notice": "Exchange sUSD for SNX"
      },
      "exchangeSynthsForSynthetixAtRate(uint256,uint256)": {
        "notice": "Exchange sUSD for SNX while insisting on a particular rate. This allows a user to        exchange while protecting against frontrunning by the contract owner on the exchange rate."
      },
      "initiateSelfDestruct()": {
        "notice": "Begin the self-destruction counter of this contract. Once the delay has elapsed, the contract may be self-destructed."
      },
      "nominateNewOwner(address)": {
        "notice": "Nominate a new owner of this contract."
      },
      "pricesAreStale()": {
        "notice": "Check if the prices haven't been updated for longer than the stale period."
      },
      "selfDestruct()": {
        "notice": "If the self-destruction delay has elapsed, destroy this contract and remit any ether it owns to the beneficiary address."
      },
      "setFundsWallet(address)": {
        "notice": "Set the funds wallet where ETH raised is held"
      },
      "setMinimumDepositAmount(uint256)": {
        "notice": "Set the minimum deposit amount required to depoist sUSD into the FIFO queue"
      },
      "setOracle(address)": {
        "notice": "Set the Oracle that pushes the synthetix price to this contract"
      },
      "setPaused(bool)": {
        "notice": "Change the paused state of the contract"
      },
      "setPriceStalePeriod(uint256)": {
        "notice": "Set the stale period on the updated price variables"
      },
      "setSelfDestructBeneficiary(address)": {
        "notice": "Set the beneficiary address of this contract."
      },
      "setSynth(address)": {
        "notice": "Set the Synth contract that the issuance controller uses to issue Synths."
      },
      "setSynthetix(address)": {
        "notice": "Set the Synthetix contract that the issuance controller uses to issue SNX."
      },
      "synthetixReceivedForEther(uint256)": {
        "notice": "Calculate how many SNX you will receive if you transfer        an amount of ether."
      },
      "synthetixReceivedForSynths(uint256)": {
        "notice": "Calculate how many SNX you will receive if you transfer        an amount of synths."
      },
      "synthsReceivedForEther(uint256)": {
        "notice": "Calculate how many synths you will receive if you transfer        an amount of ether."
      },
      "terminateSelfDestruct()": {
        "notice": "Terminate and reset the self-destruction timer."
      },
      "tokenFallback(address,uint256,bytes)": {
        "notice": "Triggers when users send us SNX or sUSD, but the modifier only allows sUSD calls to proceed."
      },
      "updatePrices(uint256,uint256,uint256)": {
        "notice": "Access point for the oracle to update the prices of SNX / eth."
      },
      "withdrawMyDepositedSynths()": {
        "notice": "Allows a user to withdraw all of their previously deposited synths from this contract if needed.        Developer note: We could keep an index of address to deposits to make this operation more efficient        but then all the other operations on the queue become less efficient. It's expected that this        function will be very rarely used, so placing the inefficiency here is intentional. The usual        use case does not involve a withdrawal."
      },
      "withdrawSynthetix(uint256)": {
        "notice": "Allows the owner to withdraw SNX from this contract if needed."
      }
    }
  }
}