{
  "contractName": "EternalStorage",
  "abi": [
    {
      "constant": false,
      "inputs": [
        {
          "name": "_owner",
          "type": "address"
        }
      ],
      "name": "nominateNewOwner",
      "outputs": [],
      "payable": false,
      "stateMutability": "nonpayable",
      "type": "function"
    },
    {
      "constant": false,
      "inputs": [
        {
          "name": "_associatedContract",
          "type": "address"
        }
      ],
      "name": "setAssociatedContract",
      "outputs": [],
      "payable": false,
      "stateMutability": "nonpayable",
      "type": "function"
    },
    {
      "constant": true,
      "inputs": [],
      "name": "nominatedOwner",
      "outputs": [
        {
          "name": "",
          "type": "address"
        }
      ],
      "payable": false,
      "stateMutability": "view",
      "type": "function"
    },
    {
      "constant": false,
      "inputs": [],
      "name": "acceptOwnership",
      "outputs": [],
      "payable": false,
      "stateMutability": "nonpayable",
      "type": "function"
    },
    {
      "constant": true,
      "inputs": [],
      "name": "owner",
      "outputs": [
        {
          "name": "",
          "type": "address"
        }
      ],
      "payable": false,
      "stateMutability": "view",
      "type": "function"
    },
    {
      "constant": true,
      "inputs": [],
      "name": "associatedContract",
      "outputs": [
        {
          "name": "",
          "type": "address"
        }
      ],
      "payable": false,
      "stateMutability": "view",
      "type": "function"
    },
    {
      "inputs": [
        {
          "name": "_owner",
          "type": "address"
        },
        {
          "name": "_associatedContract",
          "type": "address"
        }
      ],
      "payable": false,
      "stateMutability": "nonpayable",
      "type": "constructor"
    },
    {
      "anonymous": false,
      "inputs": [
        {
          "indexed": false,
          "name": "associatedContract",
          "type": "address"
        }
      ],
      "name": "AssociatedContractUpdated",
      "type": "event"
    },
    {
      "anonymous": false,
      "inputs": [
        {
          "indexed": false,
          "name": "newOwner",
          "type": "address"
        }
      ],
      "name": "OwnerNominated",
      "type": "event"
    },
    {
      "anonymous": false,
      "inputs": [
        {
          "indexed": false,
          "name": "oldOwner",
          "type": "address"
        },
        {
          "indexed": false,
          "name": "newOwner",
          "type": "address"
        }
      ],
      "name": "OwnerChanged",
      "type": "event"
    },
    {
      "constant": true,
      "inputs": [
        {
          "name": "record",
          "type": "bytes32"
        }
      ],
      "name": "getUIntValue",
      "outputs": [
        {
          "name": "",
          "type": "uint256"
        }
      ],
      "payable": false,
      "stateMutability": "view",
      "type": "function"
    },
    {
      "constant": false,
      "inputs": [
        {
          "name": "record",
          "type": "bytes32"
        },
        {
          "name": "value",
          "type": "uint256"
        }
      ],
      "name": "setUIntValue",
      "outputs": [],
      "payable": false,
      "stateMutability": "nonpayable",
      "type": "function"
    },
    {
      "constant": false,
      "inputs": [
        {
          "name": "record",
          "type": "bytes32"
        }
      ],
      "name": "deleteUIntValue",
      "outputs": [],
      "payable": false,
      "stateMutability": "nonpayable",
      "type": "function"
    },
    {
      "constant": true,
      "inputs": [
        {
          "name": "record",
          "type": "bytes32"
        }
      ],
      "name": "getStringValue",
      "outputs": [
        {
          "name": "",
          "type": "string"
        }
      ],
      "payable": false,
      "stateMutability": "view",
      "type": "function"
    },
    {
      "constant": false,
      "inputs": [
        {
          "name": "record",
          "type": "bytes32"
        },
        {
          "name": "value",
          "type": "string"
        }
      ],
      "name": "setStringValue",
      "outputs": [],
      "payable": false,
      "stateMutability": "nonpayable",
      "type": "function"
    },
    {
      "constant": false,
      "inputs": [
        {
          "name": "record",
          "type": "bytes32"
        }
      ],
      "name": "deleteStringValue",
      "outputs": [],
      "payable": false,
      "stateMutability": "nonpayable",
      "type": "function"
    },
    {
      "constant": true,
      "inputs": [
        {
          "name": "record",
          "type": "bytes32"
        }
      ],
      "name": "getAddressValue",
      "outputs": [
        {
          "name": "",
          "type": "address"
        }
      ],
      "payable": false,
      "stateMutability": "view",
      "type": "function"
    },
    {
      "constant": false,
      "inputs": [
        {
          "name": "record",
          "type": "bytes32"
        },
        {
          "name": "value",
          "type": "address"
        }
      ],
      "name": "setAddressValue",
      "outputs": [],
      "payable": false,
      "stateMutability": "nonpayable",
      "type": "function"
    },
    {
      "constant": false,
      "inputs": [
        {
          "name": "record",
          "type": "bytes32"
        }
      ],
      "name": "deleteAddressValue",
      "outputs": [],
      "payable": false,
      "stateMutability": "nonpayable",
      "type": "function"
    },
    {
      "constant": true,
      "inputs": [
        {
          "name": "record",
          "type": "bytes32"
        }
      ],
      "name": "getBytesValue",
      "outputs": [
        {
          "name": "",
          "type": "bytes"
        }
      ],
      "payable": false,
      "stateMutability": "view",
      "type": "function"
    },
    {
      "constant": false,
      "inputs": [
        {
          "name": "record",
          "type": "bytes32"
        },
        {
          "name": "value",
          "type": "bytes"
        }
      ],
      "name": "setBytesValue",
      "outputs": [],
      "payable": false,
      "stateMutability": "nonpayable",
      "type": "function"
    },
    {
      "constant": false,
      "inputs": [
        {
          "name": "record",
          "type": "bytes32"
        }
      ],
      "name": "deleteBytesValue",
      "outputs": [],
      "payable": false,
      "stateMutability": "nonpayable",
      "type": "function"
    },
    {
      "constant": true,
      "inputs": [
        {
          "name": "record",
          "type": "bytes32"
        }
      ],
      "name": "getBytes32Value",
      "outputs": [
        {
          "name": "",
          "type": "bytes32"
        }
      ],
      "payable": false,
      "stateMutability": "view",
      "type": "function"
    },
    {
      "constant": false,
      "inputs": [
        {
          "name": "record",
          "type": "bytes32"
        },
        {
          "name": "value",
          "type": "bytes32"
        }
      ],
      "name": "setBytes32Value",
      "outputs": [],
      "payable": false,
      "stateMutability": "nonpayable",
      "type": "function"
    },
    {
      "constant": false,
      "inputs": [
        {
          "name": "record",
          "type": "bytes32"
        }
      ],
      "name": "deleteBytes32Value",
      "outputs": [],
      "payable": false,
      "stateMutability": "nonpayable",
      "type": "function"
    },
    {
      "constant": true,
      "inputs": [
        {
          "name": "record",
          "type": "bytes32"
        }
      ],
      "name": "getBooleanValue",
      "outputs": [
        {
          "name": "",
          "type": "bool"
        }
      ],
      "payable": false,
      "stateMutability": "view",
      "type": "function"
    },
    {
      "constant": false,
      "inputs": [
        {
          "name": "record",
          "type": "bytes32"
        },
        {
          "name": "value",
          "type": "bool"
        }
      ],
      "name": "setBooleanValue",
      "outputs": [],
      "payable": false,
      "stateMutability": "nonpayable",
      "type": "function"
    },
    {
      "constant": false,
      "inputs": [
        {
          "name": "record",
          "type": "bytes32"
        }
      ],
      "name": "deleteBooleanValue",
      "outputs": [],
      "payable": false,
      "stateMutability": "nonpayable",
      "type": "function"
    },
    {
      "constant": true,
      "inputs": [
        {
          "name": "record",
          "type": "bytes32"
        }
      ],
      "name": "getIntValue",
      "outputs": [
        {
          "name": "",
          "type": "int256"
        }
      ],
      "payable": false,
      "stateMutability": "view",
      "type": "function"
    },
    {
      "constant": false,
      "inputs": [
        {
          "name": "record",
          "type": "bytes32"
        },
        {
          "name": "value",
          "type": "int256"
        }
      ],
      "name": "setIntValue",
      "outputs": [],
      "payable": false,
      "stateMutability": "nonpayable",
      "type": "function"
    },
    {
      "constant": false,
      "inputs": [
        {
          "name": "record",
          "type": "bytes32"
        }
      ],
      "name": "deleteIntValue",
      "outputs": [],
      "payable": false,
      "stateMutability": "nonpayable",
      "type": "function"
    }
  ],
  "bytecode": "0x608060405234801561001057600080fd5b506040516040806112e7833981016040528051602090910151818181600160a060020a03811615156100a357604080517f08c379a000000000000000000000000000000000000000000000000000000000815260206004820152601960248201527f4f776e657220616464726573732063616e6e6f74206265203000000000000000604482015290519081900360640190fd5b60008054600160a060020a031916600160a060020a038316908117825560408051928352602083019190915280517fb532073b38c83145e3e5135377a08bf9aab55bc0fd7c1179cd4fb995d2a5159c9281900390910190a15060028054600160a060020a038316600160a060020a0319909116811790915560408051918252517f73f20cff579e8a4086fa607db83867595f1b6a798e718c0bfa0b94a404128e039181900360200190a150505050611187806101606000396000f30060806040526004361061015e5763ffffffff7c0100000000000000000000000000000000000000000000000000000000600035041663025ec81a8114610163578063043106c01461018d5780630c55d925146101a7578063124f2418146101bf5780631627540c146101d757806317e7dd22146101f857806325cf512d146102245780633562fd201461023f5780633cc1635c1461025a5780633eba9ed21461027257806344bfa56e1461028f5780634c77e5ba1461031c57806352f445ca1461035057806353a47bb7146103715780635a2bf25a1461038657806379ba5097146103aa5780638267a9ee146103bf5780638da5cb5b146103d75780639007127b146103ec57806393fe424814610404578063a209a29c1461041c578063a77aa49e14610434578063aefc4ccb1461044f578063ba69fcaa14610464578063bdc963d81461047c578063c9a52d2c14610494578063f5866066146104b8575b600080fd5b34801561016f57600080fd5b5061017b6004356104dc565b60408051918252519081900360200190f35b34801561019957600080fd5b506101a56004356104ee565b005b3480156101b357600080fd5b506101a560043561057d565b3480156101cb57600080fd5b506101a56004356105fb565b3480156101e357600080fd5b506101a5600160a060020a0360043516610670565b34801561020457600080fd5b50610210600435610759565b604080519115158252519081900360200190f35b34801561023057600080fd5b506101a560043560243561076e565b34801561024b57600080fd5b506101a56004356024356107e4565b34801561026657600080fd5b506101a560043561085a565b34801561027e57600080fd5b506101a560043560243515156108d6565b34801561029b57600080fd5b506102a760043561095a565b6040805160208082528351818301528351919283929083019185019080838360005b838110156102e15781810151838201526020016102c9565b50505050905090810190601f16801561030e5780820380516001836020036101000a031916815260200191505b509250505060405180910390f35b34801561032857600080fd5b506103346004356109fb565b60408051600160a060020a039092168252519081900360200190f35b34801561035c57600080fd5b506101a5600160a060020a0360043516610a16565b34801561037d57600080fd5b50610334610aff565b34801561039257600080fd5b506101a5600435600160a060020a0360243516610b0e565b3480156103b657600080fd5b506101a5610bad565b3480156103cb57600080fd5b506101a5600435610cb5565b3480156103e357600080fd5b50610334610d2a565b3480156103f857600080fd5b5061017b600435610d39565b34801561041057600080fd5b506101a5600435610d4b565b34801561042857600080fd5b506102a7600435610dc0565b34801561044057600080fd5b506101a5600435602435610e2a565b34801561045b57600080fd5b50610334610ea0565b34801561047057600080fd5b506101a5600435610eaf565b34801561048857600080fd5b5061017b600435610f2a565b3480156104a057600080fd5b506101a5600480359060248035908101910135610f3c565b3480156104c457600080fd5b506101a5600480359060248035908101910135610fbf565b60009081526007602052604090205490565b600254600160a060020a03163314610552576040805160e560020a62461bcd028152602060048201526034602482015260008051602061111c833981519152604482015260008051602061113c833981519152606482015290519081900360840190fd5b6000908152600560205260409020805473ffffffffffffffffffffffffffffffffffffffff19169055565b600254600160a060020a031633146105e1576040805160e560020a62461bcd028152602060048201526034602482015260008051602061111c833981519152604482015260008051602061113c833981519152606482015290519081900360840190fd5b60008181526006602052604081206105f89161103c565b50565b600254600160a060020a0316331461065f576040805160e560020a62461bcd028152602060048201526034602482015260008051602061111c833981519152604482015260008051602061113c833981519152606482015290519081900360840190fd5b600090815260076020526040812055565b600054600160a060020a031633146106f8576040805160e560020a62461bcd02815260206004820152602f60248201527f4f6e6c792074686520636f6e7472616374206f776e6572206d6179207065726660448201527f6f726d207468697320616374696f6e0000000000000000000000000000000000606482015290519081900360840190fd5b60018054600160a060020a03831673ffffffffffffffffffffffffffffffffffffffff19909116811790915560408051918252517f906a1c6bd7e3091ea86693dd029a831c19049ce77f1dce2ce0bab1cacbabce229181900360200190a150565b60009081526008602052604090205460ff1690565b600254600160a060020a031633146107d2576040805160e560020a62461bcd028152602060048201526034602482015260008051602061111c833981519152604482015260008051602061113c833981519152606482015290519081900360840190fd5b60009182526007602052604090912055565b600254600160a060020a03163314610848576040805160e560020a62461bcd028152602060048201526034602482015260008051602061111c833981519152604482015260008051602061113c833981519152606482015290519081900360840190fd5b60009182526003602052604090912055565b600254600160a060020a031633146108be576040805160e560020a62461bcd028152602060048201526034602482015260008051602061111c833981519152604482015260008051602061113c833981519152606482015290519081900360840190fd5b6000908152600860205260409020805460ff19169055565b600254600160a060020a0316331461093a576040805160e560020a62461bcd028152602060048201526034602482015260008051602061111c833981519152604482015260008051602061113c833981519152606482015290519081900360840190fd5b600091825260086020526040909120805460ff1916911515919091179055565b60008181526006602090815260409182902080548351601f60026101006001851615026000190190931692909204918201849004840281018401909452808452606093928301828280156109ef5780601f106109c4576101008083540402835291602001916109ef565b820191906000526020600020905b8154815290600101906020018083116109d257829003601f168201915b50505050509050919050565b600090815260056020526040902054600160a060020a031690565b600054600160a060020a03163314610a9e576040805160e560020a62461bcd02815260206004820152602f60248201527f4f6e6c792074686520636f6e7472616374206f776e6572206d6179207065726660448201527f6f726d207468697320616374696f6e0000000000000000000000000000000000606482015290519081900360840190fd5b60028054600160a060020a03831673ffffffffffffffffffffffffffffffffffffffff19909116811790915560408051918252517f73f20cff579e8a4086fa607db83867595f1b6a798e718c0bfa0b94a404128e039181900360200190a150565b600154600160a060020a031681565b600254600160a060020a03163314610b72576040805160e560020a62461bcd028152602060048201526034602482015260008051602061111c833981519152604482015260008051602061113c833981519152606482015290519081900360840190fd5b600091825260056020526040909120805473ffffffffffffffffffffffffffffffffffffffff1916600160a060020a03909216919091179055565b600154600160a060020a03163314610c35576040805160e560020a62461bcd02815260206004820152603560248201527f596f75206d757374206265206e6f6d696e61746564206265666f726520796f7560448201527f2063616e20616363657074206f776e6572736869700000000000000000000000606482015290519081900360840190fd5b60005460015460408051600160a060020a03938416815292909116602083015280517fb532073b38c83145e3e5135377a08bf9aab55bc0fd7c1179cd4fb995d2a5159c9281900390910190a1600180546000805473ffffffffffffffffffffffffffffffffffffffff19908116600160a060020a03841617909155169055565b600254600160a060020a03163314610d19576040805160e560020a62461bcd028152602060048201526034602482015260008051602061111c833981519152604482015260008051602061113c833981519152606482015290519081900360840190fd5b600090815260096020526040812055565b600054600160a060020a031681565b60009081526009602052604090205490565b600254600160a060020a03163314610daf576040805160e560020a62461bcd028152602060048201526034602482015260008051602061111c833981519152604482015260008051602061113c833981519152606482015290519081900360840190fd5b600090815260036020526040812055565b60008181526004602090815260409182902080548351601f60026101006001851615026000190190931692909204918201849004840281018401909452808452606093928301828280156109ef5780601f106109c4576101008083540402835291602001916109ef565b600254600160a060020a03163314610e8e576040805160e560020a62461bcd028152602060048201526034602482015260008051602061111c833981519152604482015260008051602061113c833981519152606482015290519081900360840190fd5b60009182526009602052604090912055565b600254600160a060020a031681565b600254600160a060020a03163314610f13576040805160e560020a62461bcd028152602060048201526034602482015260008051602061111c833981519152604482015260008051602061113c833981519152606482015290519081900360840190fd5b60008181526004602052604081206105f89161103c565b60009081526003602052604090205490565b600254600160a060020a03163314610fa0576040805160e560020a62461bcd028152602060048201526034602482015260008051602061111c833981519152604482015260008051602061113c833981519152606482015290519081900360840190fd5b6000838152600660205260409020610fb9908383611080565b50505050565b600254600160a060020a03163314611023576040805160e560020a62461bcd028152602060048201526034602482015260008051602061111c833981519152604482015260008051602061113c833981519152606482015290519081900360840190fd5b6000838152600460205260409020610fb9908383611080565b50805460018160011615610100020316600290046000825580601f1061106257506105f8565b601f0160209004906000526020600020908101906105f891906110fe565b828054600181600116156101000203166002900490600052602060002090601f016020900481019282601f106110c15782800160ff198235161785556110ee565b828001600101855582156110ee579182015b828111156110ee5782358255916020019190600101906110d3565b506110fa9291506110fe565b5090565b61111891905b808211156110fa5760008155600101611104565b9056004f6e6c7920746865206173736f63696174656420636f6e74726163742063616e20706572666f726d207468697320616374696f6e000000000000000000000000a165627a7a723058204be59a0cb24a2a59845f75da819fd42e15bde9ae695bdc53173d04f6747c6ec00029",
  "source": "/*\n-----------------------------------------------------------------\nFILE INFORMATION\n-----------------------------------------------------------------\n\nfile:       EternalStorage.sol\nversion:    1.0\nauthor:     Clinton Ennise\n            Jackson Chan\n\ndate:       2019-02-01\n\n-----------------------------------------------------------------\nMODULE DESCRIPTION\n-----------------------------------------------------------------\n\nThis contract is used with external state storage contracts for\ndecoupled data storage.\n\nImplements support for storing a keccak256 key and value pairs. It is\nthe more flexible and extensible option. This ensures data schema\nchanges can be implemented without requiring upgrades to the\nstorage contract\n\nThe first deployed storage contract would create this eternal storage.\nFavour use of keccak256 key over sha3 as future version of solidity\n> 0.5.0 will be deprecated.\n\n-----------------------------------------------------------------\n*/\n\npragma solidity 0.4.25;\nimport \"./State.sol\";\n\n/**\n * @notice  This contract is based on the code available from this blog\n * https://blog.colony.io/writing-upgradeable-contracts-in-solidity-6743f0eecc88/\n * Implements support for storing a keccak256 key and value pairs. It is the more flexible\n * and extensible option. This ensures data schema changes can be implemented without\n * requiring upgrades to the storage contract.\n */\ncontract EternalStorage is State {\n\n    constructor(address _owner, address _associatedContract)\n        State(_owner, _associatedContract)\n        public\n    {\n    }\n\n    /* ========== DATA TYPES ========== */\n    mapping(bytes32 => uint) UIntStorage;\n    mapping(bytes32 => string) StringStorage;\n    mapping(bytes32 => address) AddressStorage;\n    mapping(bytes32 => bytes) BytesStorage;\n    mapping(bytes32 => bytes32) Bytes32Storage;\n    mapping(bytes32 => bool) BooleanStorage;\n    mapping(bytes32 => int) IntStorage;\n\n    // UIntStorage;\n    function getUIntValue(bytes32 record) external view returns (uint){\n        return UIntStorage[record];\n    }\n\n    function setUIntValue(bytes32 record, uint value) external\n        onlyAssociatedContract\n    {\n        UIntStorage[record] = value;\n    }\n\n    function deleteUIntValue(bytes32 record) external\n        onlyAssociatedContract\n    {\n        delete UIntStorage[record];\n    }\n\n    // StringStorage\n    function getStringValue(bytes32 record) external view returns (string memory){\n        return StringStorage[record];\n    }\n\n    function setStringValue(bytes32 record, string value) external\n        onlyAssociatedContract\n    {\n        StringStorage[record] = value;\n    }\n\n    function deleteStringValue(bytes32 record) external\n        onlyAssociatedContract\n    {\n        delete StringStorage[record];\n    }\n\n    // AddressStorage\n    function getAddressValue(bytes32 record) external view returns (address){\n        return AddressStorage[record];\n    }\n\n    function setAddressValue(bytes32 record, address value) external\n        onlyAssociatedContract\n    {\n        AddressStorage[record] = value;\n    }\n\n    function deleteAddressValue(bytes32 record) external\n        onlyAssociatedContract\n    {\n        delete AddressStorage[record];\n    }\n\n\n    // BytesStorage\n    function getBytesValue(bytes32 record) external view returns\n    (bytes memory){\n        return BytesStorage[record];\n    }\n\n    function setBytesValue(bytes32 record, bytes value) external\n        onlyAssociatedContract\n    {\n        BytesStorage[record] = value;\n    }\n\n    function deleteBytesValue(bytes32 record) external\n        onlyAssociatedContract\n    {\n        delete BytesStorage[record];\n    }\n\n    // Bytes32Storage\n    function getBytes32Value(bytes32 record) external view returns (bytes32)\n    {\n        return Bytes32Storage[record];\n    }\n\n    function setBytes32Value(bytes32 record, bytes32 value) external\n        onlyAssociatedContract\n    {\n        Bytes32Storage[record] = value;\n    }\n\n    function deleteBytes32Value(bytes32 record) external\n        onlyAssociatedContract\n    {\n        delete Bytes32Storage[record];\n    }\n\n    // BooleanStorage\n    function getBooleanValue(bytes32 record) external view returns (bool)\n    {\n        return BooleanStorage[record];\n    }\n\n    function setBooleanValue(bytes32 record, bool value) external\n        onlyAssociatedContract\n    {\n        BooleanStorage[record] = value;\n    }\n\n    function deleteBooleanValue(bytes32 record) external\n        onlyAssociatedContract\n    {\n        delete BooleanStorage[record];\n    }\n\n    // IntStorage\n    function getIntValue(bytes32 record) external view returns (int){\n        return IntStorage[record];\n    }\n\n    function setIntValue(bytes32 record, int value) external\n        onlyAssociatedContract\n    {\n        IntStorage[record] = value;\n    }\n\n    function deleteIntValue(bytes32 record) external\n        onlyAssociatedContract\n    {\n        delete IntStorage[record];\n    }\n}",
  "sourcePath": "/Users/mathew/workspace/quantal/test/test-projects/synthetix/contracts/EternalStorage.sol",
  "compiler": {
    "name": "solc",
    "version": "0.4.25+commit.59dbf8f1.Emscripten.clang"
  },
  "schemaVersion": "3.0.6",
  "updatedAt": "2019-08-12T22:49:05.675Z",
  "devdoc": {
    "methods": {
      "nominateNewOwner(address)": {
        "details": "Only the current owner may nominate a new owner."
      }
    }
  },
  "userdoc": {
    "methods": {
      "acceptOwnership()": {
        "notice": "Accept the nomination to be owner."
      },
      "nominateNewOwner(address)": {
        "notice": "Nominate a new owner of this contract."
      }
    }
  }
}