{
  "contractName": "ExchangeRates",
  "abi": [
    {
      "constant": true,
      "inputs": [],
      "name": "rateStalePeriod",
      "outputs": [
        {
          "name": "",
          "type": "uint256"
        }
      ],
      "payable": false,
      "stateMutability": "view",
      "type": "function"
    },
    {
      "constant": false,
      "inputs": [
        {
          "name": "_owner",
          "type": "address"
        }
      ],
      "name": "nominateNewOwner",
      "outputs": [],
      "payable": false,
      "stateMutability": "nonpayable",
      "type": "function"
    },
    {
      "constant": true,
      "inputs": [],
      "name": "initiationTime",
      "outputs": [
        {
          "name": "",
          "type": "uint256"
        }
      ],
      "payable": false,
      "stateMutability": "view",
      "type": "function"
    },
    {
      "constant": false,
      "inputs": [
        {
          "name": "_beneficiary",
          "type": "address"
        }
      ],
      "name": "setSelfDestructBeneficiary",
      "outputs": [],
      "payable": false,
      "stateMutability": "nonpayable",
      "type": "function"
    },
    {
      "constant": true,
      "inputs": [
        {
          "name": "",
          "type": "uint256"
        }
      ],
      "name": "invertedKeys",
      "outputs": [
        {
          "name": "",
          "type": "bytes4"
        }
      ],
      "payable": false,
      "stateMutability": "view",
      "type": "function"
    },
    {
      "constant": false,
      "inputs": [],
      "name": "terminateSelfDestruct",
      "outputs": [],
      "payable": false,
      "stateMutability": "nonpayable",
      "type": "function"
    },
    {
      "constant": true,
      "inputs": [],
      "name": "nominatedOwner",
      "outputs": [
        {
          "name": "",
          "type": "address"
        }
      ],
      "payable": false,
      "stateMutability": "view",
      "type": "function"
    },
    {
      "constant": false,
      "inputs": [],
      "name": "acceptOwnership",
      "outputs": [],
      "payable": false,
      "stateMutability": "nonpayable",
      "type": "function"
    },
    {
      "constant": true,
      "inputs": [],
      "name": "oracle",
      "outputs": [
        {
          "name": "",
          "type": "address"
        }
      ],
      "payable": false,
      "stateMutability": "view",
      "type": "function"
    },
    {
      "constant": true,
      "inputs": [],
      "name": "owner",
      "outputs": [
        {
          "name": "",
          "type": "address"
        }
      ],
      "payable": false,
      "stateMutability": "view",
      "type": "function"
    },
    {
      "constant": false,
      "inputs": [],
      "name": "selfDestruct",
      "outputs": [],
      "payable": false,
      "stateMutability": "nonpayable",
      "type": "function"
    },
    {
      "constant": true,
      "inputs": [],
      "name": "SELFDESTRUCT_DELAY",
      "outputs": [
        {
          "name": "",
          "type": "uint256"
        }
      ],
      "payable": false,
      "stateMutability": "view",
      "type": "function"
    },
    {
      "constant": true,
      "inputs": [
        {
          "name": "",
          "type": "uint256"
        }
      ],
      "name": "xdrParticipants",
      "outputs": [
        {
          "name": "",
          "type": "bytes4"
        }
      ],
      "payable": false,
      "stateMutability": "view",
      "type": "function"
    },
    {
      "constant": true,
      "inputs": [],
      "name": "selfDestructInitiated",
      "outputs": [
        {
          "name": "",
          "type": "bool"
        }
      ],
      "payable": false,
      "stateMutability": "view",
      "type": "function"
    },
    {
      "constant": false,
      "inputs": [],
      "name": "initiateSelfDestruct",
      "outputs": [],
      "payable": false,
      "stateMutability": "nonpayable",
      "type": "function"
    },
    {
      "constant": true,
      "inputs": [],
      "name": "selfDestructBeneficiary",
      "outputs": [
        {
          "name": "",
          "type": "address"
        }
      ],
      "payable": false,
      "stateMutability": "view",
      "type": "function"
    },
    {
      "constant": true,
      "inputs": [
        {
          "name": "",
          "type": "bytes4"
        }
      ],
      "name": "inversePricing",
      "outputs": [
        {
          "name": "entryPoint",
          "type": "uint256"
        },
        {
          "name": "upperLimit",
          "type": "uint256"
        },
        {
          "name": "lowerLimit",
          "type": "uint256"
        },
        {
          "name": "frozen",
          "type": "bool"
        }
      ],
      "payable": false,
      "stateMutability": "view",
      "type": "function"
    },
    {
      "constant": true,
      "inputs": [
        {
          "name": "",
          "type": "bytes4"
        }
      ],
      "name": "rates",
      "outputs": [
        {
          "name": "",
          "type": "uint256"
        }
      ],
      "payable": false,
      "stateMutability": "view",
      "type": "function"
    },
    {
      "constant": true,
      "inputs": [
        {
          "name": "",
          "type": "bytes4"
        }
      ],
      "name": "lastRateUpdateTimes",
      "outputs": [
        {
          "name": "",
          "type": "uint256"
        }
      ],
      "payable": false,
      "stateMutability": "view",
      "type": "function"
    },
    {
      "inputs": [
        {
          "name": "_owner",
          "type": "address"
        },
        {
          "name": "_oracle",
          "type": "address"
        },
        {
          "name": "_currencyKeys",
          "type": "bytes4[]"
        },
        {
          "name": "_newRates",
          "type": "uint256[]"
        }
      ],
      "payable": false,
      "stateMutability": "nonpayable",
      "type": "constructor"
    },
    {
      "anonymous": false,
      "inputs": [
        {
          "indexed": false,
          "name": "newOracle",
          "type": "address"
        }
      ],
      "name": "OracleUpdated",
      "type": "event"
    },
    {
      "anonymous": false,
      "inputs": [
        {
          "indexed": false,
          "name": "rateStalePeriod",
          "type": "uint256"
        }
      ],
      "name": "RateStalePeriodUpdated",
      "type": "event"
    },
    {
      "anonymous": false,
      "inputs": [
        {
          "indexed": false,
          "name": "currencyKeys",
          "type": "bytes4[]"
        },
        {
          "indexed": false,
          "name": "newRates",
          "type": "uint256[]"
        }
      ],
      "name": "RatesUpdated",
      "type": "event"
    },
    {
      "anonymous": false,
      "inputs": [
        {
          "indexed": false,
          "name": "currencyKey",
          "type": "bytes4"
        }
      ],
      "name": "RateDeleted",
      "type": "event"
    },
    {
      "anonymous": false,
      "inputs": [
        {
          "indexed": false,
          "name": "currencyKey",
          "type": "bytes4"
        },
        {
          "indexed": false,
          "name": "entryPoint",
          "type": "uint256"
        },
        {
          "indexed": false,
          "name": "upperLimit",
          "type": "uint256"
        },
        {
          "indexed": false,
          "name": "lowerLimit",
          "type": "uint256"
        }
      ],
      "name": "InversePriceConfigured",
      "type": "event"
    },
    {
      "anonymous": false,
      "inputs": [
        {
          "indexed": false,
          "name": "currencyKey",
          "type": "bytes4"
        }
      ],
      "name": "InversePriceFrozen",
      "type": "event"
    },
    {
      "anonymous": false,
      "inputs": [],
      "name": "SelfDestructTerminated",
      "type": "event"
    },
    {
      "anonymous": false,
      "inputs": [
        {
          "indexed": false,
          "name": "beneficiary",
          "type": "address"
        }
      ],
      "name": "SelfDestructed",
      "type": "event"
    },
    {
      "anonymous": false,
      "inputs": [
        {
          "indexed": false,
          "name": "selfDestructDelay",
          "type": "uint256"
        }
      ],
      "name": "SelfDestructInitiated",
      "type": "event"
    },
    {
      "anonymous": false,
      "inputs": [
        {
          "indexed": false,
          "name": "newBeneficiary",
          "type": "address"
        }
      ],
      "name": "SelfDestructBeneficiaryUpdated",
      "type": "event"
    },
    {
      "anonymous": false,
      "inputs": [
        {
          "indexed": false,
          "name": "newOwner",
          "type": "address"
        }
      ],
      "name": "OwnerNominated",
      "type": "event"
    },
    {
      "anonymous": false,
      "inputs": [
        {
          "indexed": false,
          "name": "oldOwner",
          "type": "address"
        },
        {
          "indexed": false,
          "name": "newOwner",
          "type": "address"
        }
      ],
      "name": "OwnerChanged",
      "type": "event"
    },
    {
      "constant": false,
      "inputs": [
        {
          "name": "currencyKeys",
          "type": "bytes4[]"
        },
        {
          "name": "newRates",
          "type": "uint256[]"
        },
        {
          "name": "timeSent",
          "type": "uint256"
        }
      ],
      "name": "updateRates",
      "outputs": [
        {
          "name": "",
          "type": "bool"
        }
      ],
      "payable": false,
      "stateMutability": "nonpayable",
      "type": "function"
    },
    {
      "constant": false,
      "inputs": [
        {
          "name": "currencyKey",
          "type": "bytes4"
        }
      ],
      "name": "deleteRate",
      "outputs": [],
      "payable": false,
      "stateMutability": "nonpayable",
      "type": "function"
    },
    {
      "constant": false,
      "inputs": [
        {
          "name": "_oracle",
          "type": "address"
        }
      ],
      "name": "setOracle",
      "outputs": [],
      "payable": false,
      "stateMutability": "nonpayable",
      "type": "function"
    },
    {
      "constant": false,
      "inputs": [
        {
          "name": "_time",
          "type": "uint256"
        }
      ],
      "name": "setRateStalePeriod",
      "outputs": [],
      "payable": false,
      "stateMutability": "nonpayable",
      "type": "function"
    },
    {
      "constant": false,
      "inputs": [
        {
          "name": "currencyKey",
          "type": "bytes4"
        },
        {
          "name": "entryPoint",
          "type": "uint256"
        },
        {
          "name": "upperLimit",
          "type": "uint256"
        },
        {
          "name": "lowerLimit",
          "type": "uint256"
        }
      ],
      "name": "setInversePricing",
      "outputs": [],
      "payable": false,
      "stateMutability": "nonpayable",
      "type": "function"
    },
    {
      "constant": false,
      "inputs": [
        {
          "name": "currencyKey",
          "type": "bytes4"
        }
      ],
      "name": "removeInversePricing",
      "outputs": [],
      "payable": false,
      "stateMutability": "nonpayable",
      "type": "function"
    },
    {
      "constant": true,
      "inputs": [
        {
          "name": "sourceCurrencyKey",
          "type": "bytes4"
        },
        {
          "name": "sourceAmount",
          "type": "uint256"
        },
        {
          "name": "destinationCurrencyKey",
          "type": "bytes4"
        }
      ],
      "name": "effectiveValue",
      "outputs": [
        {
          "name": "",
          "type": "uint256"
        }
      ],
      "payable": false,
      "stateMutability": "view",
      "type": "function"
    },
    {
      "constant": true,
      "inputs": [
        {
          "name": "currencyKey",
          "type": "bytes4"
        }
      ],
      "name": "rateForCurrency",
      "outputs": [
        {
          "name": "",
          "type": "uint256"
        }
      ],
      "payable": false,
      "stateMutability": "view",
      "type": "function"
    },
    {
      "constant": true,
      "inputs": [
        {
          "name": "currencyKeys",
          "type": "bytes4[]"
        }
      ],
      "name": "ratesForCurrencies",
      "outputs": [
        {
          "name": "",
          "type": "uint256[]"
        }
      ],
      "payable": false,
      "stateMutability": "view",
      "type": "function"
    },
    {
      "constant": true,
      "inputs": [
        {
          "name": "currencyKey",
          "type": "bytes4"
        }
      ],
      "name": "lastRateUpdateTimeForCurrency",
      "outputs": [
        {
          "name": "",
          "type": "uint256"
        }
      ],
      "payable": false,
      "stateMutability": "view",
      "type": "function"
    },
    {
      "constant": true,
      "inputs": [
        {
          "name": "currencyKeys",
          "type": "bytes4[]"
        }
      ],
      "name": "lastRateUpdateTimesForCurrencies",
      "outputs": [
        {
          "name": "",
          "type": "uint256[]"
        }
      ],
      "payable": false,
      "stateMutability": "view",
      "type": "function"
    },
    {
      "constant": true,
      "inputs": [
        {
          "name": "currencyKey",
          "type": "bytes4"
        }
      ],
      "name": "rateIsStale",
      "outputs": [
        {
          "name": "",
          "type": "bool"
        }
      ],
      "payable": false,
      "stateMutability": "view",
      "type": "function"
    },
    {
      "constant": true,
      "inputs": [
        {
          "name": "currencyKey",
          "type": "bytes4"
        }
      ],
      "name": "rateIsFrozen",
      "outputs": [
        {
          "name": "",
          "type": "bool"
        }
      ],
      "payable": false,
      "stateMutability": "view",
      "type": "function"
    },
    {
      "constant": true,
      "inputs": [
        {
          "name": "currencyKeys",
          "type": "bytes4[]"
        }
      ],
      "name": "anyRateIsStale",
      "outputs": [
        {
          "name": "",
          "type": "bool"
        }
      ],
      "payable": false,
      "stateMutability": "view",
      "type": "function"
    }
  ],
  "bytecode": "0x6080604052612a306007553480156200001757600080fd5b50604051620034ec380380620034ec83398101604090815281516020830151918301516060840151919390810191018380600160a060020a0381161515620000c057604080517f08c379a000000000000000000000000000000000000000000000000000000000815260206004820152601960248201527f4f776e657220616464726573732063616e6e6f74206265203000000000000000604482015290519081900360640190fd5b60008054600160a060020a031916600160a060020a038316908117825560408051928352602083019190915280517fb532073b38c83145e3e5135377a08bf9aab55bc0fd7c1179cd4fb995d2a5159c9281900390910190a150600160a060020a0381161515620001b757604080517f08c379a000000000000000000000000000000000000000000000000000000000815260206004820152602260248201527f4f776e6572206d757374206e6f7420626520746865207a65726f20616464726560448201527f7373000000000000000000000000000000000000000000000000000000000000606482015290519081900360840190fd5b60038054600160a060020a038316610100810261010060a860020a03199092169190911790915560408051918252517fd5da63a0b864b315bc04128dedbc93888c8529ee6cf47ce664dc204339228c539181900360200190a1508051825114620002a857604080517f08c379a000000000000000000000000000000000000000000000000000000000815260206004820152602f60248201527f43757272656e6379206b6579206c656e67746820616e642072617465206c656e60448201527f677468206d757374206d617463682e0000000000000000000000000000000000606482015290519081900360840190fd5b60068054600160a060020a031916600160a060020a038516179055604080517f907af6c0000000000000000000000000000000000000000000000000000000008152905173__SafeDecimalMath_______________________9163907af6c0916004808301926020929190829003018186803b1580156200032857600080fd5b505af41580156200033d573d6000803e3d6000fd5b505050506040513d60208110156200035457600080fd5b50517f735553440000000000000000000000000000000000000000000000000000000060008190527f9fb26aab670129fe77edeb65291121f3b0b41e28b5cdcb1e5461de51bb21e3c89190915560056020818152427f74c62d09fbc50aefae0794a9a068f786a692826fbdfe63828ec23a875865823f556040805160a0810182529384527f7341554400000000000000000000000000000000000000000000000000000000918401919091527f7343484600000000000000000000000000000000000000000000000000000000908301527f734555520000000000000000000000000000000000000000000000000000000060608301527f734742500000000000000000000000000000000000000000000000000000000060808301526200047f9160089162000e3f565b5062000496828242640100000000620004a1810204565b505050505062000f23565b600080835185511415156200053d57604080517f08c379a000000000000000000000000000000000000000000000000000000000815260206004820152603860248201527f43757272656e6379206b6579206172726179206c656e677468206d757374206d60448201527f61746368207261746573206172726179206c656e6774682e0000000000000000606482015290519081900360840190fd5b42610258018310620005b057604080517f08c379a000000000000000000000000000000000000000000000000000000000815260206004820152601f60248201527f54696d6520697320746f6f2066617220696e746f207468652066757475726500604482015290519081900360640190fd5b5060005b8451811015620008bc578381815181101515620005cd57fe5b6020908102909101015115156200066b57604080517f08c379a000000000000000000000000000000000000000000000000000000000815260206004820152603960248201527f5a65726f206973206e6f7420612076616c696420726174652c20706c6561736560448201527f2063616c6c2064656c6574655261746520696e73746561642e00000000000000606482015290519081900360840190fd5b84818151811015156200067a57fe5b90602001906020020151600160e060020a0319167f7355534400000000000000000000000000000000000000000000000000000000141515156200074557604080517f08c379a000000000000000000000000000000000000000000000000000000000815260206004820152603160248201527f52617465206f6620735553442063616e6e6f7420626520757064617465642c2060448201527f6974277320616c7761797320554e49542e000000000000000000000000000000606482015290519081900360840190fd5b6005600086838151811015156200075857fe5b60209081029091018101517fffffffff0000000000000000000000000000000000000000000000000000000016825281019190915260400160002054831015620007a257620008b3565b620007ed8582815181101515620007b557fe5b906020019060200201518583815181101515620007ce57fe5b9060200190602002015162000989640100000000026401000000009004565b8482815181101515620007fc57fe5b6020908102909101015283518490829081106200081557fe5b906020019060200201516004600087848151811015156200083257fe5b90602001906020020151600160e060020a031916600160e060020a031916815260200190815260200160002081905550826005600087848151811015156200087657fe5b60209081029091018101517fffffffff00000000000000000000000000000000000000000000000000000000168252810191909152604001600020555b600101620005b4565b600080516020620034ac8339815191528585604051808060200180602001838103835285818151815260200191508051906020019060200280838360005b8381101562000914578181015183820152602001620008fa565b50505050905001838103825284818151815260200191508051906020019060200280838360005b83811015620009555781810151838201526020016200093b565b5050505090500194505050505060405180910390a16200097e8364010000000062000b1d810204565b506001949350505050565b7fffffffff00000000000000000000000000000000000000000000000000000000821660009081526009602052604081208054829081908110620009d05784935062000b14565b7fffffffff000000000000000000000000000000000000000000000000000000008616600090815260046020526040902054600384015490925060ff16151562000b1057825462000a319060026401000000006200200962000dd782021704565b905084811162000a45576000915062000a62565b62000a5f81866401000000006200247962000e1482021704565b91505b6001830154821062000a7b578260010154915062000a8f565b6002830154821162000a8f57826002015491505b826001015482148062000aa55750826002015482145b1562000b105760038301805460ff19166001179055604080517fffffffff000000000000000000000000000000000000000000000000000000008816815290517f684252d859279842b23fadbb3debd086980415e4b545844875fd4189cac852a89181900360200190a15b8193505b50505092915050565b6000806060805b600583101562000bc85762000bba84600460006008876005811062000b4557fe5b600891828204019190066004029054906101000a90047c010000000000000000000000000000000000000000000000000000000002600160e060020a031916600160e060020a03191681526020019081526020016000205462000e2c6401000000000262001fc6179091906401000000009004565b935060019092019162000b24565b7f5844520000000000000000000000000000000000000000000000000000000000600052600080516020620034cc83398151915284905560056020527fc6095f8ba0c30294f3d36501e92c5966cb30d5606d2b235ecebf5abd9fffed92859055604080516001808252818301909252908160200160208202803883390190505091507f584452000000000000000000000000000000000000000000000000000000000082600081518110151562000c7b57fe5b7fffffffff000000000000000000000000000000000000000000000000000000009290921660209283029190910182015260408051600180825281830190925291828101908038833950507f584452000000000000000000000000000000000000000000000000000000000060009081526004602052600080516020620034cc83398151915254835193945092849250811062000d1457fe5b9060200190602002018181525050600080516020620034ac8339815191528282604051808060200180602001838103835285818151815260200191508051906020019060200280838360005b8381101562000d7a57818101518382015260200162000d60565b50505050905001838103825284818151815260200191508051906020019060200280838360005b8381101562000dbb57818101518382015260200162000da1565b5050505090500194505050505060405180910390a15050505050565b60008083151562000dec576000915062000e0d565b5082820282848281151562000dfd57fe5b041462000e0957600080fd5b8091505b5092915050565b6000808383111562000e2557600080fd5b5050900390565b60008282018381101562000e0957600080fd5b60018301918390821562000eea5791602002820160005b8382111562000eb657835183826101000a81548163ffffffff02191690837c010000000000000000000000000000000000000000000000000000000090040217905550926020019260040160208160030104928301926001030262000e56565b801562000ee85782816101000a81549063ffffffff021916905560040160208160030104928301926001030262000eb6565b505b5062000ef892915062000efc565b5090565b62000f2091905b8082111562000ef857805463ffffffff1916815560010162000f03565b90565b6125798062000f336000396000f3006080604052600436106101875763ffffffff60e060020a6000350416630ee4951b811461018c5780631627540c146101b357806317c70de4146101d65780631d2fed16146101eb57806320714f881461022e5780632ea913d41461024f5780633278c960146102845780633608069414610299578063370d62ad146102bb57806339d66fc0146102db57806353a47bb7146103075780635dc2944a1461033857806379ba5097146103dd57806379cb657a146103f25780637adbf9731461040a5780637dc0d1d01461042b57806389f8ab94146104405780638da5cb5b146104955780639cb8a26a146104aa578063a461fc82146104bf578063aa687daf146104d4578063ad752d67146104ec578063af1ff9721461050e578063b8225dec14610530578063bd32aa4414610545578063c0e59e4d1461055a578063c17266eb1461057c578063c58aaae6146105a7578063d24bdad5146105bc578063d95bb9a1146105de578063de5eb83214610628578063e1686e721461064a578063ea3d41091461066c575b600080fd5b34801561019857600080fd5b506101a161068e565b60408051918252519081900360200190f35b3480156101bf57600080fd5b506101d4600160a060020a0360043516610694565b005b3480156101e257600080fd5b506101a1610759565b3480156101f757600080fd5b5061021a602460048035828101929082013591813591820191013560443561075f565b604080519115158252519081900360200190f35b34801561023a57600080fd5b506101d4600160a060020a0360043516610857565b34801561025b57600080fd5b506102676004356109aa565b60408051600160e060020a03199092168252519081900360200190f35b34801561029057600080fd5b506101d46109e2565b3480156102a557600080fd5b506101d4600160e060020a031960043516610a80565b3480156102c757600080fd5b5061021a6004803560248101910135610bd5565b3480156102e757600080fd5b506101a1600160e060020a03196004358116906024359060443516610c99565b34801561031357600080fd5b5061031c610dff565b60408051600160a060020a039092168252519081900360200190f35b34801561034457600080fd5b506040805160206004803580820135838102808601850190965280855261038d95369593946024949385019291829185019084908082843750949750610e0e9650505050505050565b60408051602080825283518183015283519192839290830191858101910280838360005b838110156103c95781810151838201526020016103b1565b505050509050019250505060405180910390f35b3480156103e957600080fd5b506101d4610eae565b3480156103fe57600080fd5b506101d4600435610fb6565b34801561041657600080fd5b506101d4600160a060020a0360043516611055565b34801561043757600080fd5b5061031c611120565b34801561044c57600080fd5b506040805160206004803580820135838102808601850190965280855261038d9536959394602494938501929182918501908490808284375094975061112f9650505050505050565b3480156104a157600080fd5b5061031c6111cf565b3480156104b657600080fd5b506101d46111de565b3480156104cb57600080fd5b506101a16113a3565b3480156104e057600080fd5b506102676004356113aa565b3480156104f857600080fd5b5061021a600160e060020a0319600435166113d7565b34801561051a57600080fd5b506101a1600160e060020a0319600435166113fd565b34801561053c57600080fd5b5061021a611419565b34801561055157600080fd5b506101d4611422565b34801561056657600080fd5b506101a1600160e060020a0319600435166114cf565b34801561058857600080fd5b506101d4600160e060020a0319600435166024356044356064356114eb565b3480156105b357600080fd5b5061031c611886565b3480156105c857600080fd5b506101d4600160e060020a03196004351661189a565b3480156105ea57600080fd5b50610600600160e060020a031960043516611aca565b6040805194855260208501939093528383019190915215156060830152519081900360800190f35b34801561063457600080fd5b506101a1600160e060020a031960043516611af4565b34801561065657600080fd5b506101a1600160e060020a031960043516611b06565b34801561067857600080fd5b5061021a600160e060020a031960043516611b18565b60075481565b600054600160a060020a031633146106f8576040805160e560020a62461bcd02815260206004820152602f602482015260008051602061250e833981519152604482015260008051602061252e833981519152606482015290519081900360840190fd5b60018054600160a060020a03831673ffffffffffffffffffffffffffffffffffffffff19909116811790915560408051918252517f906a1c6bd7e3091ea86693dd029a831c19049ce77f1dce2ce0bab1cacbabce229181900360200190a150565b60025481565b600654600090600160a060020a031633146107ea576040805160e560020a62461bcd02815260206004820152602760248201527f4f6e6c7920746865206f7261636c652063616e20706572666f726d207468697360448201527f20616374696f6e00000000000000000000000000000000000000000000000000606482015290519081900360840190fd5b61084d8686808060200260200160405190810160405280939291908181526020018383602002808284375050604080516020808c0282810182019093528b82529095508b94508a935083925085019084908082843750899450611b8a9350505050565b9695505050505050565b600054600160a060020a031633146108bb576040805160e560020a62461bcd02815260206004820152602f602482015260008051602061250e833981519152604482015260008051602061252e833981519152606482015290519081900360840190fd5b600160a060020a0381161515610941576040805160e560020a62461bcd02815260206004820152602860248201527f42656e6566696369617279206d757374206e6f7420626520746865207a65726f60448201527f2061646472657373000000000000000000000000000000000000000000000000606482015290519081900360840190fd5b60038054600160a060020a038316610100810274ffffffffffffffffffffffffffffffffffffffff00199092169190911790915560408051918252517fd5da63a0b864b315bc04128dedbc93888c8529ee6cf47ce664dc204339228c539181900360200190a150565b600a8054829081106109b857fe5b9060005260206000209060089182820401919006600402915054906101000a900460e060020a0281565b600054600160a060020a03163314610a46576040805160e560020a62461bcd02815260206004820152602f602482015260008051602061250e833981519152604482015260008051602061252e833981519152606482015290519081900360840190fd5b600060028190556003805460ff191690556040517f6adcc7125002935e0aa31697538ebbd65cfddf20431eb6ecdcfc3e238bfd082c9190a1565b600654600160a060020a03163314610b08576040805160e560020a62461bcd02815260206004820152602760248201527f4f6e6c7920746865206f7261636c652063616e20706572666f726d207468697360448201527f20616374696f6e00000000000000000000000000000000000000000000000000606482015290519081900360840190fd5b600160e060020a0319811660009081526004602052604081205411610b77576040805160e560020a62461bcd02815260206004820152600c60248201527f52617465206973207a65726f0000000000000000000000000000000000000000604482015290519081900360640190fd5b600160e060020a0319811660008181526004602090815260408083208390556005825280832092909255815192835290517f2cefb058ca1556b021b67f710e3df89c564650f01fef8cd944cbb14d7358680b9281900390910190a150565b6000805b82811015610c8d57838382818110610bed57fe5b90506020020135600160e060020a031916600160e060020a0319167f735553440000000000000000000000000000000000000000000000000000000014158015610c77575042610c75600754600560008888878181101515610c4b57fe5b60209081029290920135600160e060020a0319168352508101919091526040016000205490611fc6565b105b15610c855760019150610c92565b600101610bd9565b600091505b5092915050565b600083610ca581611b18565b15610d20576040805160e560020a62461bcd02815260206004820152602260248201527f52617465207374616c65206f72206e6f6e6578697374616e742063757272656e60448201527f6379000000000000000000000000000000000000000000000000000000000000606482015290519081900360840190fd5b82610d2a81611b18565b15610da5576040805160e560020a62461bcd02815260206004820152602260248201527f52617465207374616c65206f72206e6f6e6578697374616e742063757272656e60448201527f6379000000000000000000000000000000000000000000000000000000000000606482015290519081900360840190fd5b600160e060020a03198681169085161415610dc257849250610df6565b610df3610dce856113fd565b610de7610dda896113fd565b889063ffffffff611fdf16565b9063ffffffff611ff416565b92505b50509392505050565b600154600160a060020a031681565b60608060008351604051908082528060200260200182016040528015610e3e578160200160208202803883390190505b509150600090505b83518160ff161015610c925760046000858360ff16815181101515610e6757fe5b6020908102909101810151600160e060020a0319168252810191909152604001600020548251839060ff8416908110610e9c57fe5b60209081029091010152600101610e46565b600154600160a060020a03163314610f36576040805160e560020a62461bcd02815260206004820152603560248201527f596f75206d757374206265206e6f6d696e61746564206265666f726520796f7560448201527f2063616e20616363657074206f776e6572736869700000000000000000000000606482015290519081900360840190fd5b60005460015460408051600160a060020a03938416815292909116602083015280517fb532073b38c83145e3e5135377a08bf9aab55bc0fd7c1179cd4fb995d2a5159c9281900390910190a1600180546000805473ffffffffffffffffffffffffffffffffffffffff19908116600160a060020a03841617909155169055565b600054600160a060020a0316331461101a576040805160e560020a62461bcd02815260206004820152602f602482015260008051602061250e833981519152604482015260008051602061252e833981519152606482015290519081900360840190fd5b60078190556040805182815290517f16529d8c407b08938da67de7fa4319199baffce4f5d1971f812cc770b0237e669181900360200190a150565b600054600160a060020a031633146110b9576040805160e560020a62461bcd02815260206004820152602f602482015260008051602061250e833981519152604482015260008051602061252e833981519152606482015290519081900360840190fd5b6006805473ffffffffffffffffffffffffffffffffffffffff1916600160a060020a03838116919091179182905560408051929091168252517f3df77beb5db05fcdd70a30fc8adf3f83f9501b68579455adbd100b8180940394916020908290030190a150565b600654600160a060020a031681565b6060806000835160405190808252806020026020018201604052801561115f578160200160208202803883390190505b509150600090505b83518160ff161015610c925760056000858360ff1681518110151561118857fe5b6020908102909101810151600160e060020a0319168252810191909152604001600020548251839060ff84169081106111bd57fe5b60209081029091010152600101611167565b600054600160a060020a031681565b60008054600160a060020a03163314611243576040805160e560020a62461bcd02815260206004820152602f602482015260008051602061250e833981519152604482015260008051602061252e833981519152606482015290519081900360840190fd5b60035460ff1615156112c5576040805160e560020a62461bcd02815260206004820152602860248201527f53656c6620646573747275637420686173206e6f7420796574206265656e206960448201527f6e69746961746564000000000000000000000000000000000000000000000000606482015290519081900360840190fd5b426224ea006002540110151561134b576040805160e560020a62461bcd02815260206004820152602760248201527f53656c662064657374727563742064656c617920686173206e6f74207965742060448201527f656c617073656400000000000000000000000000000000000000000000000000606482015290519081900360840190fd5b5060035460408051600160a060020a0361010090930492909216808352905190917f8a09e1677ced846cb537dc2b172043bd05a1a81ad7e0033a7ef8ba762df990b7919081900360200190a180600160a060020a0316ff5b6224ea0081565b600881600581106113b757fe5b60089182820401919006600402915054906101000a900460e060020a0281565b600160e060020a0319811660009081526009602052604090206003015460ff165b919050565b600160e060020a03191660009081526004602052604090205490565b60035460ff1681565b600054600160a060020a03163314611486576040805160e560020a62461bcd02815260206004820152602f602482015260008051602061250e833981519152604482015260008051602061252e833981519152606482015290519081900360840190fd5b426002556003805460ff19166001179055604080516224ea00815290517fcbd94ca75b8dc45c9d80c77e851670e78843c0d75180cb81db3e2158228fa9a69181900360200190a1565b600160e060020a03191660009081526005602052604090205490565b600054600160a060020a0316331461154f576040805160e560020a62461bcd02815260206004820152602f602482015260008051602061250e833981519152604482015260008051602061252e833981519152606482015290519081900360840190fd5b600083116115a7576040805160e560020a62461bcd02815260206004820152601a60248201527f656e747279506f696e74206d7573742062652061626f76652030000000000000604482015290519081900360640190fd5b600081116115ff576040805160e560020a62461bcd02815260206004820152601a60248201527f6c6f7765724c696d6974206d7573742062652061626f76652030000000000000604482015290519081900360640190fd5b82821161167c576040805160e560020a62461bcd02815260206004820152602760248201527f75707065724c696d6974206d7573742062652061626f76652074686520656e7460448201527f7279506f696e7400000000000000000000000000000000000000000000000000606482015290519081900360840190fd5b61168d83600263ffffffff61200916565b8210611709576040805160e560020a62461bcd02815260206004820152602e60248201527f75707065724c696d6974206d757374206265206c657373207468616e20646f7560448201527f626c6520656e747279506f696e74000000000000000000000000000000000000606482015290519081900360840190fd5b828110611786576040805160e560020a62461bcd02815260206004820152602760248201527f6c6f7765724c696d6974206d7573742062652062656c6f772074686520656e7460448201527f7279506f696e7400000000000000000000000000000000000000000000000000606482015290519081900360840190fd5b600160e060020a031984166000908152600960205260408120541161180557600a80546001810182556000919091527fc65a7bb8d6351c1cf70c95a316cc6a92839c986682d98bc35f958f4883f9d2a86008820401805463ffffffff60079093166004026101000a928302191660e060020a8704929092029190911790555b600160e060020a031984166000818152600960209081526040918290208681556001810186905560028101859055600301805460ff191690558151928352820185905281810184905260608201839052517f2133db505c9d92361db62ae15e94eb366fc5188c73bb9943966e6176c026c79e9181900360800190a150505050565b6003546101009004600160a060020a031681565b60008054600160a060020a031633146118ff576040805160e560020a62461bcd02815260206004820152602f602482015260008051602061250e833981519152604482015260008051602061252e833981519152606482015290519081900360840190fd5b50600160e060020a0319811660009081526009602052604081208181556001810182905560028101829055600301805460ff191690555b600a5460ff82161015611a755781600160e060020a031916600a8260ff1681548110151561196057fe5b90600052602060002090600891828204019190066004029054906101000a900460e060020a02600160e060020a0319161415611a6d57600a805460ff83169081106119a757fe5b90600052602060002090600891828204019190066004026101000a81549063ffffffff0219169055600a6001600a80549050038154811015156119e657fe5b90600052602060002090600891828204019190066004029054906101000a900460e060020a02600a8260ff16815481101515611a1e57fe5b90600052602060002090600891828204019190066004026101000a81548163ffffffff021916908360e060020a90040217905550600a805480919060019003611a6791906124b3565b50611a75565b600101611936565b60408051600160e060020a031984168152600060208201819052818301819052606082015290517f2133db505c9d92361db62ae15e94eb366fc5188c73bb9943966e6176c026c79e9181900360800190a15050565b60096020526000908152604090208054600182015460028301546003909301549192909160ff1684565b60046020526000908152604090205481565b60056020526000908152604090205481565b60007f7355534400000000000000000000000000000000000000000000000000000000600160e060020a031983161415611b54575060006113f8565b600754600160e060020a031983166000908152600560205260409020544291611b83919063ffffffff611fc616565b1092915050565b60008083518551141515611c0e576040805160e560020a62461bcd02815260206004820152603860248201527f43757272656e6379206b6579206172726179206c656e677468206d757374206d60448201527f61746368207261746573206172726179206c656e6774682e0000000000000000606482015290519081900360840190fd5b42610258018310611c69576040805160e560020a62461bcd02815260206004820152601f60248201527f54696d6520697320746f6f2066617220696e746f207468652066757475726500604482015290519081900360640190fd5b5060005b8451811015611ef7578381815181101515611c8457fe5b602090810290910101511515611d0a576040805160e560020a62461bcd02815260206004820152603960248201527f5a65726f206973206e6f7420612076616c696420726174652c20706c6561736560448201527f2063616c6c2064656c6574655261746520696e73746561642e00000000000000606482015290519081900360840190fd5b8481815181101515611d1857fe5b90602001906020020151600160e060020a0319167f735553440000000000000000000000000000000000000000000000000000000014151515611dcb576040805160e560020a62461bcd02815260206004820152603160248201527f52617465206f6620735553442063616e6e6f7420626520757064617465642c2060448201527f6974277320616c7761797320554e49542e000000000000000000000000000000606482015290519081900360840190fd5b600560008683815181101515611ddd57fe5b6020908102909101810151600160e060020a031916825281019190915260400160002054831015611e0d57611eef565b611e458582815181101515611e1e57fe5b906020019060200201518583815181101515611e3657fe5b90602001906020020151612037565b8482815181101515611e5357fe5b602090810290910101528351849082908110611e6b57fe5b90602001906020020151600460008784815181101515611e8757fe5b90602001906020020151600160e060020a031916600160e060020a03191681526020019081526020016000208190555082600560008784815181101515611eca57fe5b6020908102909101810151600160e060020a0319168252810191909152604001600020555b600101611c6d565b7f7a72efae5f6b256f1ca71728b01f9dd7004ff3770dcaef4c44872b94d9f9e91b8585604051808060200180602001838103835285818151815260200191508051906020019060200280838360005b83811015611f5e578181015183820152602001611f46565b50505050905001838103825284818151815260200191508051906020019060200280838360005b83811015611f9d578181015183820152602001611f85565b5050505090500194505050505060405180910390a1611fbb83612165565b506001949350505050565b600082820183811015611fd857600080fd5b9392505050565b6000611fd88383670de0b6b3a7640000612408565b6000611fd88383670de0b6b3a7640000612447565b60008083151561201c5760009150610c92565b5082820282848281151561202c57fe5b0414611fd857600080fd5b600160e060020a03198216600090815260096020526040812080548290819081106120645784935061215c565b600160e060020a03198616600090815260046020526040902054600384015490925060ff1615156121585782546120a290600263ffffffff61200916565b90508481116120b457600091506120c7565b6120c4818663ffffffff61247916565b91505b600183015482106120de57826001015491506120f1565b600283015482116120f157826002015491505b82600101548214806121065750826002015482145b156121585760038301805460ff1916600117905560408051600160e060020a03198816815290517f684252d859279842b23fadbb3debd086980415e4b545844875fd4189cac852a89181900360200190a15b8193505b50505092915050565b6000806060805b60058310156121e4576121d784600460006008876005811061218a57fe5b600891828204019190066004029054906101000a900460e060020a02600160e060020a031916600160e060020a031916815260200190815260200160002054611fc690919063ffffffff16565b935060019092019161216c565b7f58445200000000000000000000000000000000000000000000000000000000006000527fff1c33bb980e6507c2f1abbbb539f436519cfa198453007a4295f347e328ef6b84905560056020527fc6095f8ba0c30294f3d36501e92c5966cb30d5606d2b235ecebf5abd9fffed92859055604080516001808252818301909252908160200160208202803883390190505091507f58445200000000000000000000000000000000000000000000000000000000008260008151811015156122a757fe5b600160e060020a03199290921660209283029190910182015260408051600180825281830190925291828101908038833950507f5844520000000000000000000000000000000000000000000000000000000000600090815260046020527fff1c33bb980e6507c2f1abbbb539f436519cfa198453007a4295f347e328ef6b54835193945092849250811061233857fe5b90602001906020020181815250507f7a72efae5f6b256f1ca71728b01f9dd7004ff3770dcaef4c44872b94d9f9e91b8282604051808060200180602001838103835285818151815260200191508051906020019060200280838360005b838110156123ad578181015183820152602001612395565b50505050905001838103825284818151815260200191508051906020019060200280838360005b838110156123ec5781810151838201526020016123d4565b5050505090500194505050505060405180910390a15050505050565b600080600a830461241f868663ffffffff61200916565b81151561242857fe5b0490506005600a825b061061243b57600a015b600a9004949350505050565b60008061246d8461246187600a870263ffffffff61200916565b9063ffffffff61249016565b90506005600a82612431565b6000808383111561248957600080fd5b5050900390565b60008080831161249f57600080fd5b82848115156124aa57fe5b04949350505050565b8154818355818111156124e75760070160089004816007016008900483600052602060002091820191016124e791906124ec565b505050565b61250a91905b8082111561250657600081556001016124f2565b5090565b9056004f6e6c792074686520636f6e7472616374206f776e6572206d617920706572666f726d207468697320616374696f6e0000000000000000000000000000000000a165627a7a72305820294b80bb0f7340d416bc2a1f4db075ea96e54557d6ca8ccc397722959013909f00297a72efae5f6b256f1ca71728b01f9dd7004ff3770dcaef4c44872b94d9f9e91bff1c33bb980e6507c2f1abbbb539f436519cfa198453007a4295f347e328ef6b",
  "source": "/*\n-----------------------------------------------------------------\nFILE INFORMATION\n-----------------------------------------------------------------\n\nfile:       ExchangeRates.sol\nversion:    1.0\nauthor:     Kevin Brown\ndate:       2018-09-12\n\n-----------------------------------------------------------------\nMODULE DESCRIPTION\n-----------------------------------------------------------------\n\nA contract that any other contract in the Synthetix system can query\nfor the current market value of various assets, including\ncrypto assets as well as various fiat assets.\n\nThis contract assumes that rate updates will completely update\nall rates to their current values. If a rate shock happens\non a single asset, the oracle will still push updated rates\nfor all other assets.\n\n-----------------------------------------------------------------\n*/\n\npragma solidity 0.4.25;\n\nimport \"openzeppelin-solidity/contracts/math/SafeMath.sol\";\nimport \"./SafeDecimalMath.sol\";\nimport \"./SelfDestructible.sol\";\n\n/**\n * @title The repository for exchange rates\n */\n\ncontract ExchangeRates is SelfDestructible {\n\n\n    using SafeMath for uint;\n    using SafeDecimalMath for uint;\n\n    // Exchange rates stored by currency code, e.g. 'SNX', or 'sUSD'\n    mapping(bytes4 => uint) public rates;\n\n    // Update times stored by currency code, e.g. 'SNX', or 'sUSD'\n    mapping(bytes4 => uint) public lastRateUpdateTimes;\n\n    // The address of the oracle which pushes rate updates to this contract\n    address public oracle;\n\n    // Do not allow the oracle to submit times any further forward into the future than this constant.\n    uint constant ORACLE_FUTURE_LIMIT = 10 minutes;\n\n    // How long will the contract assume the rate of any asset is correct\n    uint public rateStalePeriod = 3 hours;\n\n    // Each participating currency in the XDR basket is represented as a currency key with\n    // equal weighting.\n    // There are 5 participating currencies, so we'll declare that clearly.\n    bytes4[5] public xdrParticipants;\n\n    // For inverted prices, keep a mapping of their entry, limits and frozen status\n    struct InversePricing {\n        uint entryPoint;\n        uint upperLimit;\n        uint lowerLimit;\n        bool frozen;\n    }\n    mapping(bytes4 => InversePricing) public inversePricing;\n    bytes4[] public invertedKeys;\n\n    //\n    // ========== CONSTRUCTOR ==========\n\n    /**\n     * @dev Constructor\n     * @param _owner The owner of this contract.\n     * @param _oracle The address which is able to update rate information.\n     * @param _currencyKeys The initial currency keys to store (in order).\n     * @param _newRates The initial currency amounts for each currency (in order).\n     */\n    constructor(\n        // SelfDestructible (Ownable)\n        address _owner,\n\n        // Oracle values - Allows for rate updates\n        address _oracle,\n        bytes4[] _currencyKeys,\n        uint[] _newRates\n    )\n        /* Owned is initialised in SelfDestructible */\n        SelfDestructible(_owner)\n        public\n    {\n        require(_currencyKeys.length == _newRates.length, \"Currency key length and rate length must match.\");\n\n        oracle = _oracle;\n\n        // The sUSD rate is always 1 and is never stale.\n        rates[\"sUSD\"] = SafeDecimalMath.unit();\n        lastRateUpdateTimes[\"sUSD\"] = now;\n\n        // These are the currencies that make up the XDR basket.\n        // These are hard coded because:\n        //  - This way users can depend on the calculation and know it won't change for this deployment of the contract.\n        //  - Adding new currencies would likely introduce some kind of weighting factor, which\n        //    isn't worth preemptively adding when all of the currencies in the current basket are weighted at 1.\n        //  - The expectation is if this logic needs to be updated, we'll simply deploy a new version of this contract\n        //    then point the system at the new version.\n        xdrParticipants = [\n            bytes4(\"sUSD\"),\n            bytes4(\"sAUD\"),\n            bytes4(\"sCHF\"),\n            bytes4(\"sEUR\"),\n            bytes4(\"sGBP\")\n        ];\n\n        internalUpdateRates(_currencyKeys, _newRates, now);\n    }\n\n    /* ========== SETTERS ========== */\n\n    /**\n     * @notice Set the rates stored in this contract\n     * @param currencyKeys The currency keys you wish to update the rates for (in order)\n     * @param newRates The rates for each currency (in order)\n     * @param timeSent The timestamp of when the update was sent, specified in seconds since epoch (e.g. the same as the now keyword in solidity).contract\n     *                 This is useful because transactions can take a while to confirm, so this way we know how old the oracle's datapoint was exactly even\n     *                 if it takes a long time for the transaction to confirm.\n     */\n    function updateRates(bytes4[] currencyKeys, uint[] newRates, uint timeSent)\n        external\n        onlyOracle\n        returns(bool)\n    {\n        return internalUpdateRates(currencyKeys, newRates, timeSent);\n    }\n\n    /**\n     * @notice Internal function which sets the rates stored in this contract\n     * @param currencyKeys The currency keys you wish to update the rates for (in order)\n     * @param newRates The rates for each currency (in order)\n     * @param timeSent The timestamp of when the update was sent, specified in seconds since epoch (e.g. the same as the now keyword in solidity).contract\n     *                 This is useful because transactions can take a while to confirm, so this way we know how old the oracle's datapoint was exactly even\n     *                 if it takes a long time for the transaction to confirm.\n     */\n    function internalUpdateRates(bytes4[] currencyKeys, uint[] newRates, uint timeSent)\n        internal\n        returns(bool)\n    {\n        require(currencyKeys.length == newRates.length, \"Currency key array length must match rates array length.\");\n        require(timeSent < (now + ORACLE_FUTURE_LIMIT), \"Time is too far into the future\");\n\n        // Loop through each key and perform update.\n        for (uint i = 0; i < currencyKeys.length; i++) {\n            // Should not set any rate to zero ever, as no asset will ever be\n            // truely worthless and still valid. In this scenario, we should\n            // delete the rate and remove it from the system.\n            require(newRates[i] != 0, \"Zero is not a valid rate, please call deleteRate instead.\");\n            require(currencyKeys[i] != \"sUSD\", \"Rate of sUSD cannot be updated, it's always UNIT.\");\n\n            // We should only update the rate if it's at least the same age as the last rate we've got.\n            if (timeSent < lastRateUpdateTimes[currencyKeys[i]]) {\n                continue;\n            }\n\n            newRates[i] = rateOrInverted(currencyKeys[i], newRates[i]);\n\n            // Ok, go ahead with the update.\n            rates[currencyKeys[i]] = newRates[i];\n            lastRateUpdateTimes[currencyKeys[i]] = timeSent;\n        }\n\n        emit RatesUpdated(currencyKeys, newRates);\n\n        // Now update our XDR rate.\n        updateXDRRate(timeSent);\n\n        return true;\n    }\n\n    /**\n     * @notice Internal function to get the inverted rate, if any, and mark an inverted\n     *  key as frozen if either limits are reached.\n     * @param currencyKey The price key to lookup\n     * @param rate The rate for the given price key\n     */\n    function rateOrInverted(bytes4 currencyKey, uint rate) internal returns (uint) {\n        // if an inverse mapping exists, adjust the price accordingly\n        InversePricing storage inverse = inversePricing[currencyKey];\n        if (inverse.entryPoint <= 0) {\n            return rate;\n        }\n\n        // set the rate to the current rate initially (if it's frozen, this is what will be returned)\n        uint newInverseRate = rates[currencyKey];\n\n        // get the new inverted rate if not frozen\n        if (!inverse.frozen) {\n            uint doubleEntryPoint = inverse.entryPoint.mul(2);\n            if (doubleEntryPoint <= rate) {\n                // avoid negative numbers for unsigned ints, so set this to 0\n                // which by the requirement that lowerLimit be > 0 will\n                // cause this to freeze the price to the lowerLimit\n                newInverseRate = 0;\n            } else {\n                newInverseRate = doubleEntryPoint.sub(rate);\n            }\n\n            // now if new rate hits our limits, set it to the limit and freeze\n            if (newInverseRate >= inverse.upperLimit) {\n                newInverseRate = inverse.upperLimit;\n            } else if (newInverseRate <= inverse.lowerLimit) {\n                newInverseRate = inverse.lowerLimit;\n            }\n\n            if (newInverseRate == inverse.upperLimit || newInverseRate == inverse.lowerLimit) {\n                inverse.frozen = true;\n                emit InversePriceFrozen(currencyKey);\n            }\n        }\n\n        return newInverseRate;\n    }\n\n    /**\n     * @notice Update the Synthetix Drawing Rights exchange rate based on other rates already updated.\n     */\n    function updateXDRRate(uint timeSent)\n        internal\n    {\n        uint total = 0;\n\n        for (uint i = 0; i < xdrParticipants.length; i++) {\n            total = rates[xdrParticipants[i]].add(total);\n        }\n\n        // Set the rate\n        rates[\"XDR\"] = total;\n\n        // Record that we updated the XDR rate.\n        lastRateUpdateTimes[\"XDR\"] = timeSent;\n\n        // Emit our updated event separate to the others to save\n        // moving data around between arrays.\n        bytes4[] memory eventCurrencyCode = new bytes4[](1);\n        eventCurrencyCode[0] = \"XDR\";\n\n        uint[] memory eventRate = new uint[](1);\n        eventRate[0] = rates[\"XDR\"];\n\n        emit RatesUpdated(eventCurrencyCode, eventRate);\n    }\n\n    /**\n     * @notice Delete a rate stored in the contract\n     * @param currencyKey The currency key you wish to delete the rate for\n     */\n    function deleteRate(bytes4 currencyKey)\n        external\n        onlyOracle\n    {\n        require(rates[currencyKey] > 0, \"Rate is zero\");\n\n        delete rates[currencyKey];\n        delete lastRateUpdateTimes[currencyKey];\n\n        emit RateDeleted(currencyKey);\n    }\n\n    /**\n     * @notice Set the Oracle that pushes the rate information to this contract\n     * @param _oracle The new oracle address\n     */\n    function setOracle(address _oracle)\n        external\n        onlyOwner\n    {\n        oracle = _oracle;\n        emit OracleUpdated(oracle);\n    }\n\n    /**\n     * @notice Set the stale period on the updated rate variables\n     * @param _time The new rateStalePeriod\n     */\n    function setRateStalePeriod(uint _time)\n        external\n        onlyOwner\n    {\n        rateStalePeriod = _time;\n        emit RateStalePeriodUpdated(rateStalePeriod);\n    }\n\n    /**\n     * @notice Set an inverse price up for the currency key\n     * @param currencyKey The currency to update\n     * @param entryPoint The entry price point of the inverted price\n     * @param upperLimit The upper limit, at or above which the price will be frozen\n     * @param lowerLimit The lower limit, at or below which the price will be frozen\n     */\n    function setInversePricing(bytes4 currencyKey, uint entryPoint, uint upperLimit, uint lowerLimit)\n        external onlyOwner\n    {\n        require(entryPoint > 0, \"entryPoint must be above 0\");\n        require(lowerLimit > 0, \"lowerLimit must be above 0\");\n        require(upperLimit > entryPoint, \"upperLimit must be above the entryPoint\");\n        require(upperLimit < entryPoint.mul(2), \"upperLimit must be less than double entryPoint\");\n        require(lowerLimit < entryPoint, \"lowerLimit must be below the entryPoint\");\n\n        if (inversePricing[currencyKey].entryPoint <= 0) {\n            // then we are adding a new inverse pricing, so add this\n            invertedKeys.push(currencyKey);\n        }\n        inversePricing[currencyKey].entryPoint = entryPoint;\n        inversePricing[currencyKey].upperLimit = upperLimit;\n        inversePricing[currencyKey].lowerLimit = lowerLimit;\n        inversePricing[currencyKey].frozen = false;\n\n        emit InversePriceConfigured(currencyKey, entryPoint, upperLimit, lowerLimit);\n    }\n\n    /**\n     * @notice Remove an inverse price for the currency key\n     * @param currencyKey The currency to remove inverse pricing for\n     */\n    function removeInversePricing(bytes4 currencyKey) external onlyOwner {\n        inversePricing[currencyKey].entryPoint = 0;\n        inversePricing[currencyKey].upperLimit = 0;\n        inversePricing[currencyKey].lowerLimit = 0;\n        inversePricing[currencyKey].frozen = false;\n\n        // now remove inverted key from array\n        for (uint8 i = 0; i < invertedKeys.length; i++) {\n            if (invertedKeys[i] == currencyKey) {\n                delete invertedKeys[i];\n\n                // Copy the last key into the place of the one we just deleted\n                // If there's only one key, this is array[0] = array[0].\n                // If we're deleting the last one, it's also a NOOP in the same way.\n                invertedKeys[i] = invertedKeys[invertedKeys.length - 1];\n\n                // Decrease the size of the array by one.\n                invertedKeys.length--;\n\n                break;\n            }\n        }\n\n        emit InversePriceConfigured(currencyKey, 0, 0, 0);\n    }\n    /* ========== VIEWS ========== */\n\n    /**\n     * @notice A function that lets you easily convert an amount in a source currency to an amount in the destination currency\n     * @param sourceCurrencyKey The currency the amount is specified in\n     * @param sourceAmount The source amount, specified in UNIT base\n     * @param destinationCurrencyKey The destination currency\n     */\n    function effectiveValue(bytes4 sourceCurrencyKey, uint sourceAmount, bytes4 destinationCurrencyKey)\n        public\n        view\n        rateNotStale(sourceCurrencyKey)\n        rateNotStale(destinationCurrencyKey)\n        returns (uint)\n    {\n        // If there's no change in the currency, then just return the amount they gave us\n        if (sourceCurrencyKey == destinationCurrencyKey) return sourceAmount;\n\n        // Calculate the effective value by going from source -> USD -> destination\n        return sourceAmount.multiplyDecimalRound(rateForCurrency(sourceCurrencyKey))\n            .divideDecimalRound(rateForCurrency(destinationCurrencyKey));\n    }\n\n    /**\n     * @notice Retrieve the rate for a specific currency\n     */\n    function rateForCurrency(bytes4 currencyKey)\n        public\n        view\n        returns (uint)\n    {\n        return rates[currencyKey];\n    }\n\n    /**\n     * @notice Retrieve the rates for a list of currencies\n     */\n    function ratesForCurrencies(bytes4[] currencyKeys)\n        public\n        view\n        returns (uint[])\n    {\n        uint[] memory _rates = new uint[](currencyKeys.length);\n\n        for (uint8 i = 0; i < currencyKeys.length; i++) {\n            _rates[i] = rates[currencyKeys[i]];\n        }\n\n        return _rates;\n    }\n\n    /**\n     * @notice Retrieve a list of last update times for specific currencies\n     */\n    function lastRateUpdateTimeForCurrency(bytes4 currencyKey)\n        public\n        view\n        returns (uint)\n    {\n        return lastRateUpdateTimes[currencyKey];\n    }\n\n    /**\n     * @notice Retrieve the last update time for a specific currency\n     */\n    function lastRateUpdateTimesForCurrencies(bytes4[] currencyKeys)\n        public\n        view\n        returns (uint[])\n    {\n        uint[] memory lastUpdateTimes = new uint[](currencyKeys.length);\n\n        for (uint8 i = 0; i < currencyKeys.length; i++) {\n            lastUpdateTimes[i] = lastRateUpdateTimes[currencyKeys[i]];\n        }\n\n        return lastUpdateTimes;\n    }\n\n    /**\n     * @notice Check if a specific currency's rate hasn't been updated for longer than the stale period.\n     */\n    function rateIsStale(bytes4 currencyKey)\n        public\n        view\n        returns (bool)\n    {\n        // sUSD is a special case and is never stale.\n        if (currencyKey == \"sUSD\") return false;\n\n        return lastRateUpdateTimes[currencyKey].add(rateStalePeriod) < now;\n    }\n\n    /**\n     * @notice Check if any rate is frozen (cannot be exchanged into)\n     */\n    function rateIsFrozen(bytes4 currencyKey)\n        external\n        view\n        returns (bool)\n    {\n        return inversePricing[currencyKey].frozen;\n    }\n\n\n    /**\n     * @notice Check if any of the currency rates passed in haven't been updated for longer than the stale period.\n     */\n    function anyRateIsStale(bytes4[] currencyKeys)\n        external\n        view\n        returns (bool)\n    {\n        // Loop through each key and check whether the data point is stale.\n        uint256 i = 0;\n\n        while (i < currencyKeys.length) {\n            // sUSD is a special case and is never false\n            if (currencyKeys[i] != \"sUSD\" && lastRateUpdateTimes[currencyKeys[i]].add(rateStalePeriod) < now) {\n                return true;\n            }\n            i += 1;\n        }\n\n        return false;\n    }\n\n    /* ========== MODIFIERS ========== */\n\n    modifier rateNotStale(bytes4 currencyKey) {\n        require(!rateIsStale(currencyKey), \"Rate stale or nonexistant currency\");\n        _;\n    }\n\n    modifier onlyOracle\n    {\n        require(msg.sender == oracle, \"Only the oracle can perform this action\");\n        _;\n    }\n\n    /* ========== EVENTS ========== */\n\n    event OracleUpdated(address newOracle);\n    event RateStalePeriodUpdated(uint rateStalePeriod);\n    event RatesUpdated(bytes4[] currencyKeys, uint[] newRates);\n    event RateDeleted(bytes4 currencyKey);\n    event InversePriceConfigured(bytes4 currencyKey, uint entryPoint, uint upperLimit, uint lowerLimit);\n    event InversePriceFrozen(bytes4 currencyKey);\n}\n",
  "sourcePath": "/Users/mathew/workspace/quantal/test/test-projects/synthetix/contracts/ExchangeRates.sol",
  "compiler": {
    "name": "solc",
    "version": "0.4.25+commit.59dbf8f1.Emscripten.clang"
  },
  "schemaVersion": "3.0.6",
  "updatedAt": "2019-08-12T22:49:05.679Z",
  "devdoc": {
    "methods": {
      "deleteRate(bytes4)": {
        "params": {
          "currencyKey": "The currency key you wish to delete the rate for"
        }
      },
      "effectiveValue(bytes4,uint256,bytes4)": {
        "params": {
          "destinationCurrencyKey": "The destination currency",
          "sourceAmount": "The source amount, specified in UNIT base",
          "sourceCurrencyKey": "The currency the amount is specified in"
        }
      },
      "initiateSelfDestruct()": {
        "details": "Only the contract owner may call this."
      },
      "nominateNewOwner(address)": {
        "details": "Only the current owner may nominate a new owner."
      },
      "removeInversePricing(bytes4)": {
        "params": {
          "currencyKey": "The currency to remove inverse pricing for"
        }
      },
      "selfDestruct()": {
        "details": "Only the contract owner may call this."
      },
      "setInversePricing(bytes4,uint256,uint256,uint256)": {
        "params": {
          "currencyKey": "The currency to update",
          "entryPoint": "The entry price point of the inverted price",
          "lowerLimit": "The lower limit, at or below which the price will be frozen",
          "upperLimit": "The upper limit, at or above which the price will be frozen"
        }
      },
      "setOracle(address)": {
        "params": {
          "_oracle": "The new oracle address"
        }
      },
      "setRateStalePeriod(uint256)": {
        "params": {
          "_time": "The new rateStalePeriod"
        }
      },
      "setSelfDestructBeneficiary(address)": {
        "details": "Only the contract owner may call this. The provided beneficiary must be non-null.",
        "params": {
          "_beneficiary": "The address to pay any eth contained in this contract to upon self-destruction."
        }
      },
      "terminateSelfDestruct()": {
        "details": "Only the contract owner may call this."
      },
      "updateRates(bytes4[],uint256[],uint256)": {
        "params": {
          "currencyKeys": "The currency keys you wish to update the rates for (in order)",
          "newRates": "The rates for each currency (in order)",
          "timeSent": "The timestamp of when the update was sent, specified in seconds since epoch (e.g. the same as the now keyword in solidity).contract                This is useful because transactions can take a while to confirm, so this way we know how old the oracle's datapoint was exactly even                if it takes a long time for the transaction to confirm."
        }
      }
    },
    "title": "The repository for exchange rates"
  },
  "userdoc": {
    "methods": {
      "acceptOwnership()": {
        "notice": "Accept the nomination to be owner."
      },
      "anyRateIsStale(bytes4[])": {
        "notice": "Check if any of the currency rates passed in haven't been updated for longer than the stale period."
      },
      "deleteRate(bytes4)": {
        "notice": "Delete a rate stored in the contract"
      },
      "effectiveValue(bytes4,uint256,bytes4)": {
        "notice": "A function that lets you easily convert an amount in a source currency to an amount in the destination currency"
      },
      "initiateSelfDestruct()": {
        "notice": "Begin the self-destruction counter of this contract. Once the delay has elapsed, the contract may be self-destructed."
      },
      "lastRateUpdateTimeForCurrency(bytes4)": {
        "notice": "Retrieve a list of last update times for specific currencies"
      },
      "lastRateUpdateTimesForCurrencies(bytes4[])": {
        "notice": "Retrieve the last update time for a specific currency"
      },
      "nominateNewOwner(address)": {
        "notice": "Nominate a new owner of this contract."
      },
      "rateForCurrency(bytes4)": {
        "notice": "Retrieve the rate for a specific currency"
      },
      "rateIsFrozen(bytes4)": {
        "notice": "Check if any rate is frozen (cannot be exchanged into)"
      },
      "rateIsStale(bytes4)": {
        "notice": "Check if a specific currency's rate hasn't been updated for longer than the stale period."
      },
      "ratesForCurrencies(bytes4[])": {
        "notice": "Retrieve the rates for a list of currencies"
      },
      "removeInversePricing(bytes4)": {
        "notice": "Remove an inverse price for the currency key"
      },
      "selfDestruct()": {
        "notice": "If the self-destruction delay has elapsed, destroy this contract and remit any ether it owns to the beneficiary address."
      },
      "setInversePricing(bytes4,uint256,uint256,uint256)": {
        "notice": "Set an inverse price up for the currency key"
      },
      "setOracle(address)": {
        "notice": "Set the Oracle that pushes the rate information to this contract"
      },
      "setRateStalePeriod(uint256)": {
        "notice": "Set the stale period on the updated rate variables"
      },
      "setSelfDestructBeneficiary(address)": {
        "notice": "Set the beneficiary address of this contract."
      },
      "terminateSelfDestruct()": {
        "notice": "Terminate and reset the self-destruction timer."
      },
      "updateRates(bytes4[],uint256[],uint256)": {
        "notice": "Set the rates stored in this contract"
      }
    }
  }
}