{
  "contractName": "ExternStateToken",
  "abi": [
    {
      "constant": true,
      "inputs": [],
      "name": "name",
      "outputs": [
        {
          "name": "",
          "type": "string"
        }
      ],
      "payable": false,
      "stateMutability": "view",
      "type": "function"
    },
    {
      "constant": false,
      "inputs": [
        {
          "name": "_owner",
          "type": "address"
        }
      ],
      "name": "nominateNewOwner",
      "outputs": [],
      "payable": false,
      "stateMutability": "nonpayable",
      "type": "function"
    },
    {
      "constant": true,
      "inputs": [],
      "name": "initiationTime",
      "outputs": [
        {
          "name": "",
          "type": "uint256"
        }
      ],
      "payable": false,
      "stateMutability": "view",
      "type": "function"
    },
    {
      "constant": true,
      "inputs": [],
      "name": "totalSupply",
      "outputs": [
        {
          "name": "",
          "type": "uint256"
        }
      ],
      "payable": false,
      "stateMutability": "view",
      "type": "function"
    },
    {
      "constant": false,
      "inputs": [
        {
          "name": "_beneficiary",
          "type": "address"
        }
      ],
      "name": "setSelfDestructBeneficiary",
      "outputs": [],
      "payable": false,
      "stateMutability": "nonpayable",
      "type": "function"
    },
    {
      "constant": true,
      "inputs": [],
      "name": "decimals",
      "outputs": [
        {
          "name": "",
          "type": "uint8"
        }
      ],
      "payable": false,
      "stateMutability": "view",
      "type": "function"
    },
    {
      "constant": false,
      "inputs": [],
      "name": "terminateSelfDestruct",
      "outputs": [],
      "payable": false,
      "stateMutability": "nonpayable",
      "type": "function"
    },
    {
      "constant": true,
      "inputs": [],
      "name": "nominatedOwner",
      "outputs": [
        {
          "name": "",
          "type": "address"
        }
      ],
      "payable": false,
      "stateMutability": "view",
      "type": "function"
    },
    {
      "constant": false,
      "inputs": [],
      "name": "acceptOwnership",
      "outputs": [],
      "payable": false,
      "stateMutability": "nonpayable",
      "type": "function"
    },
    {
      "constant": true,
      "inputs": [],
      "name": "owner",
      "outputs": [
        {
          "name": "",
          "type": "address"
        }
      ],
      "payable": false,
      "stateMutability": "view",
      "type": "function"
    },
    {
      "constant": true,
      "inputs": [],
      "name": "symbol",
      "outputs": [
        {
          "name": "",
          "type": "string"
        }
      ],
      "payable": false,
      "stateMutability": "view",
      "type": "function"
    },
    {
      "constant": false,
      "inputs": [
        {
          "name": "_proxy",
          "type": "address"
        }
      ],
      "name": "setProxy",
      "outputs": [],
      "payable": false,
      "stateMutability": "nonpayable",
      "type": "function"
    },
    {
      "constant": false,
      "inputs": [],
      "name": "selfDestruct",
      "outputs": [],
      "payable": false,
      "stateMutability": "nonpayable",
      "type": "function"
    },
    {
      "constant": true,
      "inputs": [],
      "name": "SELFDESTRUCT_DELAY",
      "outputs": [
        {
          "name": "",
          "type": "uint256"
        }
      ],
      "payable": false,
      "stateMutability": "view",
      "type": "function"
    },
    {
      "constant": true,
      "inputs": [],
      "name": "selfDestructInitiated",
      "outputs": [
        {
          "name": "",
          "type": "bool"
        }
      ],
      "payable": false,
      "stateMutability": "view",
      "type": "function"
    },
    {
      "constant": false,
      "inputs": [
        {
          "name": "sender",
          "type": "address"
        }
      ],
      "name": "setMessageSender",
      "outputs": [],
      "payable": false,
      "stateMutability": "nonpayable",
      "type": "function"
    },
    {
      "constant": false,
      "inputs": [],
      "name": "initiateSelfDestruct",
      "outputs": [],
      "payable": false,
      "stateMutability": "nonpayable",
      "type": "function"
    },
    {
      "constant": true,
      "inputs": [],
      "name": "selfDestructBeneficiary",
      "outputs": [
        {
          "name": "",
          "type": "address"
        }
      ],
      "payable": false,
      "stateMutability": "view",
      "type": "function"
    },
    {
      "constant": true,
      "inputs": [],
      "name": "tokenState",
      "outputs": [
        {
          "name": "",
          "type": "address"
        }
      ],
      "payable": false,
      "stateMutability": "view",
      "type": "function"
    },
    {
      "constant": true,
      "inputs": [],
      "name": "proxy",
      "outputs": [
        {
          "name": "",
          "type": "address"
        }
      ],
      "payable": false,
      "stateMutability": "view",
      "type": "function"
    },
    {
      "inputs": [
        {
          "name": "_proxy",
          "type": "address"
        },
        {
          "name": "_tokenState",
          "type": "address"
        },
        {
          "name": "_name",
          "type": "string"
        },
        {
          "name": "_symbol",
          "type": "string"
        },
        {
          "name": "_totalSupply",
          "type": "uint256"
        },
        {
          "name": "_decimals",
          "type": "uint8"
        },
        {
          "name": "_owner",
          "type": "address"
        }
      ],
      "payable": false,
      "stateMutability": "nonpayable",
      "type": "constructor"
    },
    {
      "anonymous": false,
      "inputs": [
        {
          "indexed": true,
          "name": "from",
          "type": "address"
        },
        {
          "indexed": true,
          "name": "to",
          "type": "address"
        },
        {
          "indexed": false,
          "name": "value",
          "type": "uint256"
        }
      ],
      "name": "Transfer",
      "type": "event"
    },
    {
      "anonymous": false,
      "inputs": [
        {
          "indexed": true,
          "name": "owner",
          "type": "address"
        },
        {
          "indexed": true,
          "name": "spender",
          "type": "address"
        },
        {
          "indexed": false,
          "name": "value",
          "type": "uint256"
        }
      ],
      "name": "Approval",
      "type": "event"
    },
    {
      "anonymous": false,
      "inputs": [
        {
          "indexed": false,
          "name": "newTokenState",
          "type": "address"
        }
      ],
      "name": "TokenStateUpdated",
      "type": "event"
    },
    {
      "anonymous": false,
      "inputs": [
        {
          "indexed": false,
          "name": "proxyAddress",
          "type": "address"
        }
      ],
      "name": "ProxyUpdated",
      "type": "event"
    },
    {
      "anonymous": false,
      "inputs": [],
      "name": "SelfDestructTerminated",
      "type": "event"
    },
    {
      "anonymous": false,
      "inputs": [
        {
          "indexed": false,
          "name": "beneficiary",
          "type": "address"
        }
      ],
      "name": "SelfDestructed",
      "type": "event"
    },
    {
      "anonymous": false,
      "inputs": [
        {
          "indexed": false,
          "name": "selfDestructDelay",
          "type": "uint256"
        }
      ],
      "name": "SelfDestructInitiated",
      "type": "event"
    },
    {
      "anonymous": false,
      "inputs": [
        {
          "indexed": false,
          "name": "newBeneficiary",
          "type": "address"
        }
      ],
      "name": "SelfDestructBeneficiaryUpdated",
      "type": "event"
    },
    {
      "anonymous": false,
      "inputs": [
        {
          "indexed": false,
          "name": "newOwner",
          "type": "address"
        }
      ],
      "name": "OwnerNominated",
      "type": "event"
    },
    {
      "anonymous": false,
      "inputs": [
        {
          "indexed": false,
          "name": "oldOwner",
          "type": "address"
        },
        {
          "indexed": false,
          "name": "newOwner",
          "type": "address"
        }
      ],
      "name": "OwnerChanged",
      "type": "event"
    },
    {
      "constant": true,
      "inputs": [
        {
          "name": "owner",
          "type": "address"
        },
        {
          "name": "spender",
          "type": "address"
        }
      ],
      "name": "allowance",
      "outputs": [
        {
          "name": "",
          "type": "uint256"
        }
      ],
      "payable": false,
      "stateMutability": "view",
      "type": "function"
    },
    {
      "constant": true,
      "inputs": [
        {
          "name": "account",
          "type": "address"
        }
      ],
      "name": "balanceOf",
      "outputs": [
        {
          "name": "",
          "type": "uint256"
        }
      ],
      "payable": false,
      "stateMutability": "view",
      "type": "function"
    },
    {
      "constant": false,
      "inputs": [
        {
          "name": "_tokenState",
          "type": "address"
        }
      ],
      "name": "setTokenState",
      "outputs": [],
      "payable": false,
      "stateMutability": "nonpayable",
      "type": "function"
    },
    {
      "constant": false,
      "inputs": [
        {
          "name": "spender",
          "type": "address"
        },
        {
          "name": "value",
          "type": "uint256"
        }
      ],
      "name": "approve",
      "outputs": [
        {
          "name": "",
          "type": "bool"
        }
      ],
      "payable": false,
      "stateMutability": "nonpayable",
      "type": "function"
    }
  ],
  "bytecode": "0x60806040526005805460a060020a60ff02191690553480156200002157600080fd5b506040516200172f3803806200172f83398101604090815281516020830151918301516060840151608085015160a086015160c08701519496938401949290930192909186818080600160a060020a0381161515620000e157604080517f08c379a000000000000000000000000000000000000000000000000000000000815260206004820152601960248201527f4f776e657220616464726573732063616e6e6f74206265203000000000000000604482015290519081900360640190fd5b60008054600160a060020a031916600160a060020a038316908117825560408051928352602083019190915280517fb532073b38c83145e3e5135377a08bf9aab55bc0fd7c1179cd4fb995d2a5159c9281900390910190a150600160a060020a0381161515620001d857604080517f08c379a000000000000000000000000000000000000000000000000000000000815260206004820152602260248201527f4f776e6572206d757374206e6f7420626520746865207a65726f20616464726560448201527f7373000000000000000000000000000000000000000000000000000000000000606482015290519081900360840190fd5b60038054600160a060020a038316610100810261010060a860020a03199092169190911790915560408051918252517fd5da63a0b864b315bc04128dedbc93888c8529ee6cf47ce664dc204339228c539181900360200190a15060048054600160a060020a038416600160a060020a0319909116811790915560408051918252517ffc80377ca9c49cc11ae6982f390a42db976d5530af7c43889264b13fbbd7c57e9181900360200190a1505060068054600160a060020a031916600160a060020a0388161790558451620002b5906007906020880190620002f1565b508351620002cb906008906020870190620002f1565b5050600991909155600a805460ff191660ff909216919091179055506200039692505050565b828054600181600116156101000203166002900490600052602060002090601f016020900481019282601f106200033457805160ff191683800117855562000364565b8280016001018555821562000364579182015b828111156200036457825182559160200191906001019062000347565b506200037292915062000376565b5090565b6200039391905b808211156200037257600081556001016200037d565b90565b61138980620003a66000396000f30060806040526004361061013d5763ffffffff7c010000000000000000000000000000000000000000000000000000000060003504166306fdde038114610142578063095ea7b3146101cc5780631627540c1461020457806317c70de41461022757806318160ddd1461024e57806320714f8814610263578063313ce567146102845780633278c960146102af57806353a47bb7146102c457806370a08231146102f557806379ba5097146103165780638da5cb5b1461032b57806395d89b411461034057806397107d6d146103555780639cb8a26a146103765780639f7698071461038b578063a461fc82146103ac578063b8225dec146103c1578063bc67f832146103d6578063bd32aa44146103f7578063c58aaae61461040c578063dd62ed3e14610421578063e90dd9e214610448578063ec5568891461045d575b600080fd5b34801561014e57600080fd5b50610157610472565b6040805160208082528351818301528351919283929083019185019080838360005b83811015610191578181015183820152602001610179565b50505050905090810190601f1680156101be5780820380516001836020036101000a031916815260200191505b509250505060405180910390f35b3480156101d857600080fd5b506101f0600160a060020a0360043516602435610500565b604080519115158252519081900360200190f35b34801561021057600080fd5b50610225600160a060020a03600435166105d4565b005b34801561023357600080fd5b5061023c61068c565b60408051918252519081900360200190f35b34801561025a57600080fd5b5061023c610692565b34801561026f57600080fd5b50610225600160a060020a0360043516610698565b34801561029057600080fd5b506102996107eb565b6040805160ff9092168252519081900360200190f35b3480156102bb57600080fd5b506102256107f4565b3480156102d057600080fd5b506102d9610892565b60408051600160a060020a039092168252519081900360200190f35b34801561030157600080fd5b5061023c600160a060020a03600435166108a1565b34801561032257600080fd5b5061022561093e565b34801561033757600080fd5b506102d9610a39565b34801561034c57600080fd5b50610157610a48565b34801561036157600080fd5b50610225600160a060020a0360043516610aa3565b34801561038257600080fd5b50610225610b5b565b34801561039757600080fd5b50610225600160a060020a0360043516610d20565b3480156103b857600080fd5b5061023c610dfa565b3480156103cd57600080fd5b506101f0610e01565b3480156103e257600080fd5b50610225600160a060020a0360043516610e0a565b34801561040357600080fd5b50610225610eb4565b34801561041857600080fd5b506102d9610f61565b34801561042d57600080fd5b5061023c600160a060020a0360043581169060243516610f75565b34801561045457600080fd5b506102d961101b565b34801561046957600080fd5b506102d961102a565b6007805460408051602060026001851615610100026000190190941693909304601f810184900484028201840190925281815292918301828280156104f85780601f106104cd576101008083540402835291602001916104f8565b820191906000526020600020905b8154815290600101906020018083116104db57829003601f168201915b505050505081565b6004546000908190600160a060020a0316331461052a5760058054600160a060020a031916331790555b50600554600654604080517fda46098c000000000000000000000000000000000000000000000000000000008152600160a060020a0393841660048201819052878516602483015260448201879052915191939092169163da46098c91606480830192600092919082900301818387803b1580156105a757600080fd5b505af11580156105bb573d6000803e3d6000fd5b505050506105ca818585611039565b5060019392505050565b600054600160a060020a03163314610638576040805160e560020a62461bcd02815260206004820152602f602482015260008051602061131e833981519152604482015260008051602061133e833981519152606482015290519081900360840190fd5b60018054600160a060020a038316600160a060020a0319909116811790915560408051918252517f906a1c6bd7e3091ea86693dd029a831c19049ce77f1dce2ce0bab1cacbabce229181900360200190a150565b60025481565b60095481565b600054600160a060020a031633146106fc576040805160e560020a62461bcd02815260206004820152602f602482015260008051602061131e833981519152604482015260008051602061133e833981519152606482015290519081900360840190fd5b600160a060020a0381161515610782576040805160e560020a62461bcd02815260206004820152602860248201527f42656e6566696369617279206d757374206e6f7420626520746865207a65726f60448201527f2061646472657373000000000000000000000000000000000000000000000000606482015290519081900360840190fd5b60038054600160a060020a038316610100810274ffffffffffffffffffffffffffffffffffffffff00199092169190911790915560408051918252517fd5da63a0b864b315bc04128dedbc93888c8529ee6cf47ce664dc204339228c539181900360200190a150565b600a5460ff1681565b600054600160a060020a03163314610858576040805160e560020a62461bcd02815260206004820152602f602482015260008051602061131e833981519152604482015260008051602061133e833981519152606482015290519081900360840190fd5b600060028190556003805460ff191690556040517f6adcc7125002935e0aa31697538ebbd65cfddf20431eb6ecdcfc3e238bfd082c9190a1565b600154600160a060020a031681565b600654604080517f70a08231000000000000000000000000000000000000000000000000000000008152600160a060020a038481166004830152915160009392909216916370a082319160248082019260209290919082900301818787803b15801561090c57600080fd5b505af1158015610920573d6000803e3d6000fd5b505050506040513d602081101561093657600080fd5b505192915050565b600154600160a060020a031633146109c6576040805160e560020a62461bcd02815260206004820152603560248201527f596f75206d757374206265206e6f6d696e61746564206265666f726520796f7560448201527f2063616e20616363657074206f776e6572736869700000000000000000000000606482015290519081900360840190fd5b60005460015460408051600160a060020a03938416815292909116602083015280517fb532073b38c83145e3e5135377a08bf9aab55bc0fd7c1179cd4fb995d2a5159c9281900390910190a16001805460008054600160a060020a0319908116600160a060020a03841617909155169055565b600054600160a060020a031681565b6008805460408051602060026001851615610100026000190190941693909304601f810184900484028201840190925281815292918301828280156104f85780601f106104cd576101008083540402835291602001916104f8565b600054600160a060020a03163314610b07576040805160e560020a62461bcd02815260206004820152602f602482015260008051602061131e833981519152604482015260008051602061133e833981519152606482015290519081900360840190fd5b60048054600160a060020a038316600160a060020a0319909116811790915560408051918252517ffc80377ca9c49cc11ae6982f390a42db976d5530af7c43889264b13fbbd7c57e9181900360200190a150565b60008054600160a060020a03163314610bc0576040805160e560020a62461bcd02815260206004820152602f602482015260008051602061131e833981519152604482015260008051602061133e833981519152606482015290519081900360840190fd5b60035460ff161515610c42576040805160e560020a62461bcd02815260206004820152602860248201527f53656c6620646573747275637420686173206e6f7420796574206265656e206960448201527f6e69746961746564000000000000000000000000000000000000000000000000606482015290519081900360840190fd5b426224ea0060025401101515610cc8576040805160e560020a62461bcd02815260206004820152602760248201527f53656c662064657374727563742064656c617920686173206e6f74207965742060448201527f656c617073656400000000000000000000000000000000000000000000000000606482015290519081900360840190fd5b5060035460408051600160a060020a0361010090930492909216808352905190917f8a09e1677ced846cb537dc2b172043bd05a1a81ad7e0033a7ef8ba762df990b7919081900360200190a180600160a060020a0316ff5b600454600160a060020a03163314610d455760058054600160a060020a031916331790555b600054600554600160a060020a03908116911614610dd3576040805160e560020a62461bcd02815260206004820152602e60248201527f5468697320616374696f6e2063616e206f6e6c7920626520706572666f726d6560448201527f6420627920746865206f776e6572000000000000000000000000000000000000606482015290519081900360840190fd5b60068054600160a060020a031916600160a060020a038316179055610df7816111c0565b50565b6224ea0081565b60035460ff1681565b600454600160a060020a03163314610e92576040805160e560020a62461bcd02815260206004820152602560248201527f4f6e6c79207468652070726f78792063616e2063616c6c20746869732066756e60448201527f6374696f6e000000000000000000000000000000000000000000000000000000606482015290519081900360840190fd5b60058054600160a060020a031916600160a060020a0392909216919091179055565b600054600160a060020a03163314610f18576040805160e560020a62461bcd02815260206004820152602f602482015260008051602061131e833981519152604482015260008051602061133e833981519152606482015290519081900360840190fd5b426002556003805460ff19166001179055604080516224ea00815290517fcbd94ca75b8dc45c9d80c77e851670e78843c0d75180cb81db3e2158228fa9a69181900360200190a1565b6003546101009004600160a060020a031681565b600654604080517fdd62ed3e000000000000000000000000000000000000000000000000000000008152600160a060020a03858116600483015284811660248301529151600093929092169163dd62ed3e9160448082019260209290919082900301818787803b158015610fe857600080fd5b505af1158015610ffc573d6000803e3d6000fd5b505050506040513d602081101561101257600080fd5b50519392505050565b600654600160a060020a031681565b600454600160a060020a031681565b600480546040805160208082018690528251808303820181528284018085527f417070726f76616c28616464726573732c616464726573732c75696e7432353690527f2900000000000000000000000000000000000000000000000000000000000000606084015292519182900360610182207f907dff9700000000000000000000000000000000000000000000000000000000835260036024840181905260448401829052600160a060020a038a8116606486018190528a821660848701819052600060a4880181905260c09a88019a8b52885160c48901528851939099169963907dff97999497959692959194939092839260e40191908a0190808383885b8381101561115257818101518382015260200161113a565b50505050905090810190601f16801561117f5780820380516001836020036101000a031916815260200191505b50975050505050505050600060405180830381600087803b1580156111a357600080fd5b505af11580156111b7573d6000803e3d6000fd5b50505050505050565b6004805460408051600160a060020a038581166020808401919091528351808403820181528385018086527f546f6b656e5374617465557064617465642861646472657373290000000000009052935192839003605a0183207f907dff97000000000000000000000000000000000000000000000000000000008452600160248501819052604485018290526000606486018190526084860181905260a4860181905260c0988601988952865160c48701528651949097169763907dff979791959294919384938493839260e4909201918a0190808383885b838110156112b1578181015183820152602001611299565b50505050905090810190601f1680156112de5780820380516001836020036101000a031916815260200191505b50975050505050505050600060405180830381600087803b15801561130257600080fd5b505af1158015611316573d6000803e3d6000fd5b505050505056004f6e6c792074686520636f6e7472616374206f776e6572206d617920706572666f726d207468697320616374696f6e0000000000000000000000000000000000a165627a7a7230582002448d17c724c0d51571d2e64d45258b4d00e599baadda393e2aebcaa2d938360029",
  "source": "/*\n-----------------------------------------------------------------\nFILE INFORMATION\n-----------------------------------------------------------------\n\nfile:       ExternStateToken.sol\nversion:    1.3\nauthor:     Anton Jurisevic\n            Dominic Romanowski\n            Kevin Brown\n\ndate:       2018-05-29\n\n-----------------------------------------------------------------\nMODULE DESCRIPTION\n-----------------------------------------------------------------\n\nA partial ERC20 token contract, designed to operate with a proxy.\nTo produce a complete ERC20 token, transfer and transferFrom\ntokens must be implemented, using the provided _byProxy internal\nfunctions.\nThis contract utilises an external state for upgradeability.\n\n-----------------------------------------------------------------\n*/\n\npragma solidity 0.4.25;\n\nimport \"openzeppelin-solidity/contracts/math/SafeMath.sol\";\nimport \"./SafeDecimalMath.sol\";\nimport \"./SelfDestructible.sol\";\nimport \"./TokenState.sol\";\nimport \"./Proxyable.sol\";\nimport \"./TokenFallbackCaller.sol\";\n\n/**\n * @title ERC20 Token contract, with detached state and designed to operate behind a proxy.\n */\ncontract ExternStateToken is SelfDestructible, Proxyable, TokenFallbackCaller {\n\n    using SafeMath for uint;\n    using SafeDecimalMath for uint;\n\n    /* ========== STATE VARIABLES ========== */\n\n    /* Stores balances and allowances. */\n    TokenState public tokenState;\n\n    /* Other ERC20 fields. */\n    string public name;\n    string public symbol;\n    uint public totalSupply;\n    uint8 public decimals;\n\n    /**\n     * @dev Constructor.\n     * @param _proxy The proxy associated with this contract.\n     * @param _name Token's ERC20 name.\n     * @param _symbol Token's ERC20 symbol.\n     * @param _totalSupply The total supply of the token.\n     * @param _tokenState The TokenState contract address.\n     * @param _owner The owner of this contract.\n     */\n    constructor(address _proxy, TokenState _tokenState,\n                string _name, string _symbol, uint _totalSupply,\n                uint8 _decimals, address _owner)\n        SelfDestructible(_owner)\n        Proxyable(_proxy, _owner)\n        public\n    {\n        tokenState = _tokenState;\n\n        name = _name;\n        symbol = _symbol;\n        totalSupply = _totalSupply;\n        decimals = _decimals;\n    }\n\n    /* ========== VIEWS ========== */\n\n    /**\n     * @notice Returns the ERC20 allowance of one party to spend on behalf of another.\n     * @param owner The party authorising spending of their funds.\n     * @param spender The party spending tokenOwner's funds.\n     */\n    function allowance(address owner, address spender)\n        public\n        view\n        returns (uint)\n    {\n        return tokenState.allowance(owner, spender);\n    }\n\n    /**\n     * @notice Returns the ERC20 token balance of a given account.\n     */\n    function balanceOf(address account)\n        public\n        view\n        returns (uint)\n    {\n        return tokenState.balanceOf(account);\n    }\n\n    /* ========== MUTATIVE FUNCTIONS ========== */\n\n    /**\n     * @notice Set the address of the TokenState contract.\n     * @dev This can be used to \"pause\" transfer functionality, by pointing the tokenState at 0x000..\n     * as balances would be unreachable.\n     */ \n    function setTokenState(TokenState _tokenState)\n        external\n        optionalProxy_onlyOwner\n    {\n        tokenState = _tokenState;\n        emitTokenStateUpdated(_tokenState);\n    }\n\n    function _internalTransfer(address from, address to, uint value, bytes data) \n        internal\n        returns (bool)\n    { \n        /* Disallow transfers to irretrievable-addresses. */\n        require(to != address(0), \"Cannot transfer to the 0 address\");\n        require(to != address(this), \"Cannot transfer to the underlying contract\");\n        require(to != address(proxy), \"Cannot transfer to the proxy contract\");\n\n        // Insufficient balance will be handled by the safe subtraction.\n        tokenState.setBalanceOf(from, tokenState.balanceOf(from).sub(value));\n        tokenState.setBalanceOf(to, tokenState.balanceOf(to).add(value));\n\n        // If the recipient is a contract, we need to call tokenFallback on it so they can do ERC223\n        // actions when receiving our tokens. Unlike the standard, however, we don't revert if the\n        // recipient contract doesn't implement tokenFallback.\n        callTokenFallbackIfNeeded(from, to, value, data);\n        \n        // Emit a standard ERC20 transfer event\n        emitTransfer(from, to, value);\n\n        return true;\n    }\n\n    /**\n     * @dev Perform an ERC20 token transfer. Designed to be called by transfer functions possessing\n     * the onlyProxy or optionalProxy modifiers.\n     */\n    function _transfer_byProxy(address from, address to, uint value, bytes data)\n        internal\n        returns (bool)\n    {\n        return _internalTransfer(from, to, value, data);\n    }\n\n    /**\n     * @dev Perform an ERC20 token transferFrom. Designed to be called by transferFrom functions\n     * possessing the optionalProxy or optionalProxy modifiers.\n     */\n    function _transferFrom_byProxy(address sender, address from, address to, uint value, bytes data)\n        internal\n        returns (bool)\n    {\n        /* Insufficient allowance will be handled by the safe subtraction. */\n        tokenState.setAllowance(from, sender, tokenState.allowance(from, sender).sub(value));\n        return _internalTransfer(from, to, value, data);\n    }\n\n    /**\n     * @notice Approves spender to transfer on the message sender's behalf.\n     */\n    function approve(address spender, uint value)\n        public\n        optionalProxy\n        returns (bool)\n    {\n        address sender = messageSender;\n\n        tokenState.setAllowance(sender, spender, value);\n        emitApproval(sender, spender, value);\n        return true;\n    }\n\n    /* ========== EVENTS ========== */\n\n    event Transfer(address indexed from, address indexed to, uint value);\n    bytes32 constant TRANSFER_SIG = keccak256(\"Transfer(address,address,uint256)\");\n    function emitTransfer(address from, address to, uint value) internal {\n        proxy._emit(abi.encode(value), 3, TRANSFER_SIG, bytes32(from), bytes32(to), 0);\n    }\n\n    event Approval(address indexed owner, address indexed spender, uint value);\n    bytes32 constant APPROVAL_SIG = keccak256(\"Approval(address,address,uint256)\");\n    function emitApproval(address owner, address spender, uint value) internal {\n        proxy._emit(abi.encode(value), 3, APPROVAL_SIG, bytes32(owner), bytes32(spender), 0);\n    }\n\n    event TokenStateUpdated(address newTokenState);\n    bytes32 constant TOKENSTATEUPDATED_SIG = keccak256(\"TokenStateUpdated(address)\");\n    function emitTokenStateUpdated(address newTokenState) internal {\n        proxy._emit(abi.encode(newTokenState), 1, TOKENSTATEUPDATED_SIG, 0, 0, 0);\n    }\n}\n",
  "sourcePath": "/Users/mathew/workspace/quantal/test/test-projects/synthetix/contracts/ExternStateToken.sol",
  "compiler": {
    "name": "solc",
    "version": "0.4.25+commit.59dbf8f1.Emscripten.clang"
  },
  "schemaVersion": "3.0.6",
  "updatedAt": "2019-08-12T22:49:05.689Z",
  "devdoc": {
    "methods": {
      "allowance(address,address)": {
        "params": {
          "owner": "The party authorising spending of their funds.",
          "spender": "The party spending tokenOwner's funds."
        }
      },
      "initiateSelfDestruct()": {
        "details": "Only the contract owner may call this."
      },
      "nominateNewOwner(address)": {
        "details": "Only the current owner may nominate a new owner."
      },
      "selfDestruct()": {
        "details": "Only the contract owner may call this."
      },
      "setSelfDestructBeneficiary(address)": {
        "details": "Only the contract owner may call this. The provided beneficiary must be non-null.",
        "params": {
          "_beneficiary": "The address to pay any eth contained in this contract to upon self-destruction."
        }
      },
      "setTokenState(address)": {
        "details": "This can be used to \"pause\" transfer functionality, by pointing the tokenState at 0x000.. as balances would be unreachable."
      },
      "terminateSelfDestruct()": {
        "details": "Only the contract owner may call this."
      }
    },
    "title": "ERC20 Token contract, with detached state and designed to operate behind a proxy."
  },
  "userdoc": {
    "methods": {
      "acceptOwnership()": {
        "notice": "Accept the nomination to be owner."
      },
      "allowance(address,address)": {
        "notice": "Returns the ERC20 allowance of one party to spend on behalf of another."
      },
      "approve(address,uint256)": {
        "notice": "Approves spender to transfer on the message sender's behalf."
      },
      "balanceOf(address)": {
        "notice": "Returns the ERC20 token balance of a given account."
      },
      "initiateSelfDestruct()": {
        "notice": "Begin the self-destruction counter of this contract. Once the delay has elapsed, the contract may be self-destructed."
      },
      "nominateNewOwner(address)": {
        "notice": "Nominate a new owner of this contract."
      },
      "selfDestruct()": {
        "notice": "If the self-destruction delay has elapsed, destroy this contract and remit any ether it owns to the beneficiary address."
      },
      "setSelfDestructBeneficiary(address)": {
        "notice": "Set the beneficiary address of this contract."
      },
      "setTokenState(address)": {
        "notice": "Set the address of the TokenState contract."
      },
      "terminateSelfDestruct()": {
        "notice": "Terminate and reset the self-destruction timer."
      }
    }
  }
}