{
  "contractName": "FeePoolState",
  "abi": [
    {
      "constant": false,
      "inputs": [
        {
          "name": "_owner",
          "type": "address"
        }
      ],
      "name": "nominateNewOwner",
      "outputs": [],
      "payable": false,
      "stateMutability": "nonpayable",
      "type": "function"
    },
    {
      "constant": true,
      "inputs": [],
      "name": "initiationTime",
      "outputs": [
        {
          "name": "",
          "type": "uint256"
        }
      ],
      "payable": false,
      "stateMutability": "view",
      "type": "function"
    },
    {
      "constant": false,
      "inputs": [
        {
          "name": "_beneficiary",
          "type": "address"
        }
      ],
      "name": "setSelfDestructBeneficiary",
      "outputs": [],
      "payable": false,
      "stateMutability": "nonpayable",
      "type": "function"
    },
    {
      "constant": false,
      "inputs": [],
      "name": "terminateSelfDestruct",
      "outputs": [],
      "payable": false,
      "stateMutability": "nonpayable",
      "type": "function"
    },
    {
      "constant": true,
      "inputs": [],
      "name": "nominatedOwner",
      "outputs": [
        {
          "name": "",
          "type": "address"
        }
      ],
      "payable": false,
      "stateMutability": "view",
      "type": "function"
    },
    {
      "constant": false,
      "inputs": [],
      "name": "acceptOwnership",
      "outputs": [],
      "payable": false,
      "stateMutability": "nonpayable",
      "type": "function"
    },
    {
      "constant": true,
      "inputs": [
        {
          "name": "",
          "type": "address"
        },
        {
          "name": "",
          "type": "uint256"
        }
      ],
      "name": "accountIssuanceLedger",
      "outputs": [
        {
          "name": "debtPercentage",
          "type": "uint256"
        },
        {
          "name": "debtEntryIndex",
          "type": "uint256"
        }
      ],
      "payable": false,
      "stateMutability": "view",
      "type": "function"
    },
    {
      "constant": true,
      "inputs": [],
      "name": "owner",
      "outputs": [
        {
          "name": "",
          "type": "address"
        }
      ],
      "payable": false,
      "stateMutability": "view",
      "type": "function"
    },
    {
      "constant": false,
      "inputs": [],
      "name": "selfDestruct",
      "outputs": [],
      "payable": false,
      "stateMutability": "nonpayable",
      "type": "function"
    },
    {
      "constant": true,
      "inputs": [],
      "name": "SELFDESTRUCT_DELAY",
      "outputs": [
        {
          "name": "",
          "type": "uint256"
        }
      ],
      "payable": false,
      "stateMutability": "view",
      "type": "function"
    },
    {
      "constant": true,
      "inputs": [],
      "name": "feePool",
      "outputs": [
        {
          "name": "",
          "type": "address"
        }
      ],
      "payable": false,
      "stateMutability": "view",
      "type": "function"
    },
    {
      "constant": true,
      "inputs": [],
      "name": "selfDestructInitiated",
      "outputs": [
        {
          "name": "",
          "type": "bool"
        }
      ],
      "payable": false,
      "stateMutability": "view",
      "type": "function"
    },
    {
      "constant": false,
      "inputs": [],
      "name": "initiateSelfDestruct",
      "outputs": [],
      "payable": false,
      "stateMutability": "nonpayable",
      "type": "function"
    },
    {
      "constant": true,
      "inputs": [],
      "name": "selfDestructBeneficiary",
      "outputs": [
        {
          "name": "",
          "type": "address"
        }
      ],
      "payable": false,
      "stateMutability": "view",
      "type": "function"
    },
    {
      "constant": true,
      "inputs": [],
      "name": "FEE_PERIOD_LENGTH",
      "outputs": [
        {
          "name": "",
          "type": "uint8"
        }
      ],
      "payable": false,
      "stateMutability": "view",
      "type": "function"
    },
    {
      "inputs": [
        {
          "name": "_owner",
          "type": "address"
        },
        {
          "name": "_feePool",
          "type": "address"
        }
      ],
      "payable": false,
      "stateMutability": "nonpayable",
      "type": "constructor"
    },
    {
      "anonymous": false,
      "inputs": [
        {
          "indexed": true,
          "name": "account",
          "type": "address"
        },
        {
          "indexed": false,
          "name": "debtRatio",
          "type": "uint256"
        },
        {
          "indexed": false,
          "name": "feePeriodCloseIndex",
          "type": "uint256"
        }
      ],
      "name": "IssuanceDebtRatioEntry",
      "type": "event"
    },
    {
      "anonymous": false,
      "inputs": [],
      "name": "SelfDestructTerminated",
      "type": "event"
    },
    {
      "anonymous": false,
      "inputs": [
        {
          "indexed": false,
          "name": "beneficiary",
          "type": "address"
        }
      ],
      "name": "SelfDestructed",
      "type": "event"
    },
    {
      "anonymous": false,
      "inputs": [
        {
          "indexed": false,
          "name": "selfDestructDelay",
          "type": "uint256"
        }
      ],
      "name": "SelfDestructInitiated",
      "type": "event"
    },
    {
      "anonymous": false,
      "inputs": [
        {
          "indexed": false,
          "name": "newBeneficiary",
          "type": "address"
        }
      ],
      "name": "SelfDestructBeneficiaryUpdated",
      "type": "event"
    },
    {
      "anonymous": false,
      "inputs": [
        {
          "indexed": false,
          "name": "newOwner",
          "type": "address"
        }
      ],
      "name": "OwnerNominated",
      "type": "event"
    },
    {
      "anonymous": false,
      "inputs": [
        {
          "indexed": false,
          "name": "oldOwner",
          "type": "address"
        },
        {
          "indexed": false,
          "name": "newOwner",
          "type": "address"
        }
      ],
      "name": "OwnerChanged",
      "type": "event"
    },
    {
      "constant": false,
      "inputs": [
        {
          "name": "_feePool",
          "type": "address"
        }
      ],
      "name": "setFeePool",
      "outputs": [],
      "payable": false,
      "stateMutability": "nonpayable",
      "type": "function"
    },
    {
      "constant": true,
      "inputs": [
        {
          "name": "account",
          "type": "address"
        },
        {
          "name": "index",
          "type": "uint256"
        }
      ],
      "name": "getAccountsDebtEntry",
      "outputs": [
        {
          "name": "debtPercentage",
          "type": "uint256"
        },
        {
          "name": "debtEntryIndex",
          "type": "uint256"
        }
      ],
      "payable": false,
      "stateMutability": "view",
      "type": "function"
    },
    {
      "constant": true,
      "inputs": [
        {
          "name": "account",
          "type": "address"
        },
        {
          "name": "closingDebtIndex",
          "type": "uint256"
        }
      ],
      "name": "applicableIssuanceData",
      "outputs": [
        {
          "name": "",
          "type": "uint256"
        },
        {
          "name": "",
          "type": "uint256"
        }
      ],
      "payable": false,
      "stateMutability": "view",
      "type": "function"
    },
    {
      "constant": false,
      "inputs": [
        {
          "name": "account",
          "type": "address"
        },
        {
          "name": "debtRatio",
          "type": "uint256"
        },
        {
          "name": "debtEntryIndex",
          "type": "uint256"
        },
        {
          "name": "currentPeriodStartDebtIndex",
          "type": "uint256"
        }
      ],
      "name": "appendAccountIssuanceRecord",
      "outputs": [],
      "payable": false,
      "stateMutability": "nonpayable",
      "type": "function"
    },
    {
      "constant": false,
      "inputs": [
        {
          "name": "accounts",
          "type": "address[]"
        },
        {
          "name": "ratios",
          "type": "uint256[]"
        },
        {
          "name": "periodToInsert",
          "type": "uint256"
        },
        {
          "name": "feePeriodCloseIndex",
          "type": "uint256"
        }
      ],
      "name": "importIssuerData",
      "outputs": [],
      "payable": false,
      "stateMutability": "nonpayable",
      "type": "function"
    }
  ],
  "bytecode": "0x608060405234801561001057600080fd5b5060405160408061140583398101604052805160209091015162375f008280600160a060020a03811615156100a657604080517f08c379a000000000000000000000000000000000000000000000000000000000815260206004820152601960248201527f4f776e657220616464726573732063616e6e6f74206265203000000000000000604482015290519081900360640190fd5b60008054600160a060020a031916600160a060020a038316908117825560408051928352602083019190915280517fb532073b38c83145e3e5135377a08bf9aab55bc0fd7c1179cd4fb995d2a5159c9281900390910190a150600160a060020a038116151561019c57604080517f08c379a000000000000000000000000000000000000000000000000000000000815260206004820152602260248201527f4f776e6572206d757374206e6f7420626520746865207a65726f20616464726560448201527f7373000000000000000000000000000000000000000000000000000000000000606482015290519081900360840190fd5b60038054600160a060020a038316610100810261010060a860020a03199092169190911790915560408051918252517fd5da63a0b864b315bc04128dedbc93888c8529ee6cf47ce664dc204339228c539181900360200190a150420160045560058054600160a060020a031916600160a060020a0392909216919091179055506111da8061022b6000396000f3006080604052600436106101115763ffffffff7c01000000000000000000000000000000000000000000000000000000006000350416631627540c811461011657806317c70de41461013957806319db22281461016057806320714f88146101815780633278c960146101a257806339a3f63f146101b757806353a47bb7146101e957806379ba50971461021a5780637de655451461022f5780638da5cb5b1461026c57806394e1a448146102815780639cb8a26a146102ab578063a461fc82146102c0578063ae2e933b146102d5578063b326f84e146102ea578063b8225dec1461030e578063bd32aa4414610337578063c58aaae61461034c578063cff2ddad14610361578063d29c000a1461038c575b600080fd5b34801561012257600080fd5b50610137600160a060020a03600435166103b0565b005b34801561014557600080fd5b5061014e610475565b60408051918252519081900360200190f35b34801561016c57600080fd5b50610137600160a060020a036004351661047b565b34801561018d57600080fd5b50610137600160a060020a036004351661050e565b3480156101ae57600080fd5b50610137610661565b3480156101c357600080fd5b5061013760246004803582810192908201359181359182019101356044356064356106ff565b3480156101f557600080fd5b506101fe6109a3565b60408051600160a060020a039092168252519081900360200190f35b34801561022657600080fd5b506101376109b2565b34801561023b57600080fd5b50610253600160a060020a0360043516602435610aba565b6040805192835260208301919091528051918290030190f35b34801561027857600080fd5b506101fe610ae9565b34801561028d57600080fd5b50610137600160a060020a0360043516602435604435606435610af8565b3480156102b757600080fd5b50610137610bd0565b3480156102cc57600080fd5b5061014e610d95565b3480156102e157600080fd5b506101fe610d9c565b3480156102f657600080fd5b50610253600160a060020a0360043516602435610dab565b34801561031a57600080fd5b50610323610e90565b604080519115158252519081900360200190f35b34801561034357600080fd5b50610137610e99565b34801561035857600080fd5b506101fe610f46565b34801561036d57600080fd5b50610376610f5a565b6040805160ff9092168252519081900360200190f35b34801561039857600080fd5b50610253600160a060020a0360043516602435610f5f565b600054600160a060020a03163314610414576040805160e560020a62461bcd02815260206004820152602f602482015260008051602061116f833981519152604482015260008051602061118f833981519152606482015290519081900360840190fd5b60018054600160a060020a03831673ffffffffffffffffffffffffffffffffffffffff19909116811790915560408051918252517f906a1c6bd7e3091ea86693dd029a831c19049ce77f1dce2ce0bab1cacbabce229181900360200190a150565b60025481565b600054600160a060020a031633146104df576040805160e560020a62461bcd02815260206004820152602f602482015260008051602061116f833981519152604482015260008051602061118f833981519152606482015290519081900360840190fd5b6005805473ffffffffffffffffffffffffffffffffffffffff1916600160a060020a0392909216919091179055565b600054600160a060020a03163314610572576040805160e560020a62461bcd02815260206004820152602f602482015260008051602061116f833981519152604482015260008051602061118f833981519152606482015290519081900360840190fd5b600160a060020a03811615156105f8576040805160e560020a62461bcd02815260206004820152602860248201527f42656e6566696369617279206d757374206e6f7420626520746865207a65726f60448201527f2061646472657373000000000000000000000000000000000000000000000000606482015290519081900360840190fd5b60038054600160a060020a038316610100810274ffffffffffffffffffffffffffffffffffffffff00199092169190911790915560408051918252517fd5da63a0b864b315bc04128dedbc93888c8529ee6cf47ce664dc204339228c539181900360200190a150565b600054600160a060020a031633146106c5576040805160e560020a62461bcd02815260206004820152602f602482015260008051602061116f833981519152604482015260008051602061118f833981519152606482015290519081900360840190fd5b600060028190556003805460ff191690556040517f6adcc7125002935e0aa31697538ebbd65cfddf20431eb6ecdcfc3e238bfd082c9190a1565b60008054600160a060020a03163314610764576040805160e560020a62461bcd02815260206004820152602f602482015260008051602061116f833981519152604482015260008051602061118f833981519152606482015290519081900360840190fd5b60045442106107e3576040805160e560020a62461bcd02815260206004820152602960248201527f43616e206f6e6c7920706572666f726d207468697320616374696f6e2064757260448201527f696e672073657475700000000000000000000000000000000000000000000000606482015290519081900360840190fd5b85841461083a576040805160e560020a62461bcd02815260206004820152600f60248201527f4c656e677468206d69736d617463680000000000000000000000000000000000604482015290519081900360640190fd5b5060005b60ff811686111561099a57848460ff831681811061085857fe5b905060200201356006600089898560ff16818110151561087457fe5b90506020020135600160a060020a0316600160a060020a0316600160a060020a03168152602001908152602001600020846006811015156108b157fe5b60020201558160066000898960ff86168181106108ca57fe5b90506020020135600160a060020a0316600160a060020a0316600160a060020a031681526020019081526020016000208460068110151561090757fe5b600202016001018190555086868260ff16818110151561092357fe5b90506020020135600160a060020a0316600160a060020a03167f3846bc3c5dca9c6ef89995aa7b28d43a5a99aa2e3ea230494da474b8d4b29aea86868460ff16818110151561096e57fe5b9050602002013584604051808381526020018281526020019250505060405180910390a260010161083e565b50505050505050565b600154600160a060020a031681565b600154600160a060020a03163314610a3a576040805160e560020a62461bcd02815260206004820152603560248201527f596f75206d757374206265206e6f6d696e61746564206265666f726520796f7560448201527f2063616e20616363657074206f776e6572736869700000000000000000000000606482015290519081900360840190fd5b60005460015460408051600160a060020a03938416815292909116602083015280517fb532073b38c83145e3e5135377a08bf9aab55bc0fd7c1179cd4fb995d2a5159c9281900390910190a1600180546000805473ffffffffffffffffffffffffffffffffffffffff19908116600160a060020a03841617909155169055565b600660205281600052604060002081600681101515610ad557fe5b600202018054600190910154909250905082565b600054600160a060020a031681565b600554600160a060020a03163314610b80576040805160e560020a62461bcd02815260206004820152603160248201527f4f6e6c792074686520466565506f6f6c20636f6e74726163742063616e20706560448201527f72666f726d207468697320616374696f6e000000000000000000000000000000606482015290519081900360840190fd5b600160a060020a038416600090815260066020526040902060010154811115610bac57610bac84611041565b50600160a060020a0392909216600090815260066020526040902090815560010155565b60008054600160a060020a03163314610c35576040805160e560020a62461bcd02815260206004820152602f602482015260008051602061116f833981519152604482015260008051602061118f833981519152606482015290519081900360840190fd5b60035460ff161515610cb7576040805160e560020a62461bcd02815260206004820152602860248201527f53656c6620646573747275637420686173206e6f7420796574206265656e206960448201527f6e69746961746564000000000000000000000000000000000000000000000000606482015290519081900360840190fd5b426224ea0060025401101515610d3d576040805160e560020a62461bcd02815260206004820152602760248201527f53656c662064657374727563742064656c617920686173206e6f74207965742060448201527f656c617073656400000000000000000000000000000000000000000000000000606482015290519081900360840190fd5b5060035460408051600160a060020a0361010090930492909216808352905190917f8a09e1677ced846cb537dc2b172043bd05a1a81ad7e0033a7ef8ba762df990b7919081900360200190a180600160a060020a0316ff5b6224ea0081565b600554600160a060020a031681565b60008060068310610e2c576040805160e560020a62461bcd02815260206004820152602360248201527f696e646578206578636565647320746865204645455f504552494f445f4c454e60448201527f4754480000000000000000000000000000000000000000000000000000000000606482015290519081900360840190fd5b600160a060020a03841660009081526006602081905260409091209084908110610e5257fe5b6002020154600160a060020a038516600090815260066020819052604090912091935084908110610e7f57fe5b600202016001015490509250929050565b60035460ff1681565b600054600160a060020a03163314610efd576040805160e560020a62461bcd02815260206004820152602f602482015260008051602061116f833981519152604482015260008051602061118f833981519152606482015290519081900360840190fd5b426002556003805460ff19166001179055604080516224ea00815290517fcbd94ca75b8dc45c9d80c77e851670e78843c0d75180cb81db3e2158228fa9a69181900360200190a1565b6003546101009004600160a060020a031681565b600681565b600080610f6a611128565b600160a060020a0385166000908152600660208190526040808320815160c08101909252909183835b82821015610fcf578382600202016040805190810160405290816000820154815260200160018201548152505081526020019060010190610f93565b505050509150600090505b600681101561103857818160068110610fef57fe5b602002015160200151851015156110305781816006811061100c57fe5b60200201515182826006811061101e57fe5b60200201516020015193509350611038565b600101610fda565b50509250929050565b600460005b60068210156111235750600160a060020a038216600090815260066020819052604090912060018301918390811061107a57fe5b6002020154600160a060020a038416600090815260066020819052604090912090839081106110a557fe5b6002020155600160a060020a038316600090815260066020819052604090912090839081106110d057fe5b60020201600101546006600085600160a060020a0316600160a060020a031681526020019081526020016000208260068110151561110a57fe5b6002020160010181905550818060019003925050611046565b505050565b610180604051908101604052806006905b611141611157565b8152602001906001900390816111395790505090565b60408051808201909152600080825260208201529056004f6e6c792074686520636f6e7472616374206f776e6572206d617920706572666f726d207468697320616374696f6e0000000000000000000000000000000000a165627a7a72305820af60e0fcbe77faa792a849c938da2c0120ef7bbef0ac76f6c97709756d984a100029",
  "source": "/*\n-----------------------------------------------------------------\nFILE INFORMATION\n-----------------------------------------------------------------\n\nfile:       FeePoolState.sol\nversion:    1.0\nauthor:     Clinton Ennis\n            Jackson Chan\ndate:       2019-04-05\n\n-----------------------------------------------------------------\nMODULE DESCRIPTION\n-----------------------------------------------------------------\n\nThe FeePoolState simply stores the accounts issuance ratio for\neach fee period in the FeePool.\n\nThis is use to caclulate the correct allocation of fees/rewards\nowed to minters of the stablecoin total supply\n\n-----------------------------------------------------------------\n*/\n\npragma solidity 0.4.25;\n\nimport \"./SelfDestructible.sol\";\nimport \"./SafeDecimalMath.sol\";\nimport \"./LimitedSetup.sol\";\nimport \"./IFeePool.sol\";\n\ncontract FeePoolState is SelfDestructible, LimitedSetup {\n    using SafeMath for uint;\n    using SafeDecimalMath for uint;\n\n    /* ========== STATE VARIABLES ========== */\n\n    uint8 constant public FEE_PERIOD_LENGTH = 6;\n\n    address public feePool;\n\n    // The IssuanceData activity that's happened in a fee period.\n    struct IssuanceData {\n        uint debtPercentage;\n        uint debtEntryIndex;\n    }\n\n    // The IssuanceData activity that's happened in a fee period.\n    mapping(address => IssuanceData[FEE_PERIOD_LENGTH]) public accountIssuanceLedger;\n\n    /**\n     * @dev Constructor.\n     * @param _owner The owner of this contract.\n     */\n    constructor(address _owner, IFeePool _feePool)\n        SelfDestructible(_owner)\n        LimitedSetup(6 weeks)\n        public\n    {\n        feePool = _feePool;\n    }\n\n    /* ========== SETTERS ========== */\n\n    /**\n     * @notice set the FeePool contract as it is the only authority to be able to call\n     * appendAccountIssuanceRecord with the onlyFeePool modifer\n     * @dev Must be set by owner when FeePool logic is upgraded\n     */\n    function setFeePool(IFeePool _feePool)\n        external\n        onlyOwner\n    {\n        feePool = _feePool;\n    }\n\n    /* ========== VIEWS ========== */\n\n    /**\n     * @notice Get an accounts issuanceData for\n     * @param account users account\n     * @param index Index in the array to retrieve. Upto FEE_PERIOD_LENGTH\n     */\n    function getAccountsDebtEntry(address account, uint index)\n        public\n        view\n        returns (uint debtPercentage, uint debtEntryIndex)\n    {\n        require(index < FEE_PERIOD_LENGTH, \"index exceeds the FEE_PERIOD_LENGTH\");\n\n        debtPercentage = accountIssuanceLedger[account][index].debtPercentage;\n        debtEntryIndex = accountIssuanceLedger[account][index].debtEntryIndex;\n    }\n\n    /**\n     * @notice Find the oldest debtEntryIndex for the corresponding closingDebtIndex\n     * @param account users account\n     * @param closingDebtIndex the last periods debt index on close\n     */\n    function applicableIssuanceData(address account, uint closingDebtIndex)\n        external\n        view\n        returns (uint, uint)\n    {\n        IssuanceData[FEE_PERIOD_LENGTH] memory issuanceData = accountIssuanceLedger[account];\n        \n        // We want to use the user's debtEntryIndex at when the period closed\n        // Find the oldest debtEntryIndex for the corresponding closingDebtIndex\n        for (uint i = 0; i < FEE_PERIOD_LENGTH; i++) {\n            if (closingDebtIndex >= issuanceData[i].debtEntryIndex) {\n                return (issuanceData[i].debtPercentage, issuanceData[i].debtEntryIndex);\n            }\n        }\n    }\n\n    /* ========== MUTATIVE FUNCTIONS ========== */\n\n    /**\n     * @notice Logs an accounts issuance data in the current fee period which is then stored historically\n     * @param account Message.Senders account address\n     * @param debtRatio Debt percentage this account has locked after minting or burning their synth\n     * @param debtEntryIndex The index in the global debt ledger. synthetix.synthetixState().issuanceData(account)\n     * @param currentPeriodStartDebtIndex The startingDebtIndex of the current fee period\n     * @dev onlyFeePool to call me on synthetix.issue() & synthetix.burn() calls to store the locked SNX\n     * per fee period so we know to allocate the correct proportions of fees and rewards per period\n      accountIssuanceLedger[account][0] has the latest locked amount for the current period. This can be update as many time\n      accountIssuanceLedger[account][1-3] has the last locked amount for a previous period they minted or burned\n     */\n    function appendAccountIssuanceRecord(address account, uint debtRatio, uint debtEntryIndex, uint currentPeriodStartDebtIndex)\n        external\n        onlyFeePool\n    {\n        // Is the current debtEntryIndex within this fee period\n        if (accountIssuanceLedger[account][0].debtEntryIndex < currentPeriodStartDebtIndex) {\n             // If its older then shift the previous IssuanceData entries periods down to make room for the new one.\n            issuanceDataIndexOrder(account);\n        }\n        \n        // Always store the latest IssuanceData entry at [0]\n        accountIssuanceLedger[account][0].debtPercentage = debtRatio;\n        accountIssuanceLedger[account][0].debtEntryIndex = debtEntryIndex;\n    }\n\n    /**\n     * @notice Pushes down the entire array of debt ratios per fee period\n     */\n    function issuanceDataIndexOrder(address account)\n        private\n    {\n        for (uint i = FEE_PERIOD_LENGTH - 2; i < FEE_PERIOD_LENGTH; i--) {\n            uint next = i + 1;\n            accountIssuanceLedger[account][next].debtPercentage = accountIssuanceLedger[account][i].debtPercentage;\n            accountIssuanceLedger[account][next].debtEntryIndex = accountIssuanceLedger[account][i].debtEntryIndex;\n        }\n    }\n\n    /**\n     * @notice Import issuer data from synthetixState.issuerData on FeePeriodClose() block #\n     * @dev Only callable by the contract owner, and only for 6 weeks after deployment.\n     * @param accounts Array of issuing addresses\n     * @param ratios Array of debt ratios\n     * @param periodToInsert The Fee Period to insert the historical records into\n     * @param feePeriodCloseIndex An accounts debtEntryIndex is valid when within the fee peroid,\n     * since the input ratio will be an average of the pervious periods it just needs to be\n     * > recentFeePeriods[periodToInsert].startingDebtIndex\n     * < recentFeePeriods[periodToInsert - 1].startingDebtIndex\n     */\n    function importIssuerData(address[] accounts, uint[] ratios, uint periodToInsert, uint feePeriodCloseIndex)\n        external\n        onlyOwner\n        onlyDuringSetup\n    {\n        require(accounts.length == ratios.length, \"Length mismatch\");\n\n        for (uint8 i = 0; i < accounts.length; i++) {\n            accountIssuanceLedger[accounts[i]][periodToInsert].debtPercentage = ratios[i];\n            accountIssuanceLedger[accounts[i]][periodToInsert].debtEntryIndex = feePeriodCloseIndex;\n            emit IssuanceDebtRatioEntry(accounts[i], ratios[i], feePeriodCloseIndex);\n        }\n    }\n\n    /* ========== MODIFIERS ========== */\n\n    modifier onlyFeePool\n    {\n        require(msg.sender == address(feePool), \"Only the FeePool contract can perform this action\");\n        _;\n    }\n\n    /* ========== Events ========== */\n    event IssuanceDebtRatioEntry(address indexed account, uint debtRatio, uint feePeriodCloseIndex);\n}\n",
  "sourcePath": "/Users/mathew/workspace/quantal/test/test-projects/synthetix/contracts/FeePoolState.sol",
  "compiler": {
    "name": "solc",
    "version": "0.4.25+commit.59dbf8f1.Emscripten.clang"
  },
  "schemaVersion": "3.0.6",
  "updatedAt": "2019-08-12T22:49:05.727Z",
  "devdoc": {
    "methods": {
      "appendAccountIssuanceRecord(address,uint256,uint256,uint256)": {
        "details": "onlyFeePool to call me on synthetix.issue() & synthetix.burn() calls to store the locked SNX per fee period so we know to allocate the correct proportions of fees and rewards per period accountIssuanceLedger[account][0] has the latest locked amount for the current period. This can be update as many time accountIssuanceLedger[account][1-3] has the last locked amount for a previous period they minted or burned",
        "params": {
          "account": "Message.Senders account address",
          "currentPeriodStartDebtIndex": "The startingDebtIndex of the current fee period",
          "debtEntryIndex": "The index in the global debt ledger. synthetix.synthetixState().issuanceData(account)",
          "debtRatio": "Debt percentage this account has locked after minting or burning their synth"
        }
      },
      "applicableIssuanceData(address,uint256)": {
        "params": {
          "account": "users account",
          "closingDebtIndex": "the last periods debt index on close"
        }
      },
      "getAccountsDebtEntry(address,uint256)": {
        "params": {
          "account": "users account",
          "index": "Index in the array to retrieve. Upto FEE_PERIOD_LENGTH"
        }
      },
      "importIssuerData(address[],uint256[],uint256,uint256)": {
        "details": "Only callable by the contract owner, and only for 6 weeks after deployment.",
        "params": {
          "accounts": "Array of issuing addresses",
          "feePeriodCloseIndex": "An accounts debtEntryIndex is valid when within the fee peroid, since the input ratio will be an average of the pervious periods it just needs to be > recentFeePeriods[periodToInsert].startingDebtIndex < recentFeePeriods[periodToInsert - 1].startingDebtIndex",
          "periodToInsert": "The Fee Period to insert the historical records into",
          "ratios": "Array of debt ratios"
        }
      },
      "initiateSelfDestruct()": {
        "details": "Only the contract owner may call this."
      },
      "nominateNewOwner(address)": {
        "details": "Only the current owner may nominate a new owner."
      },
      "selfDestruct()": {
        "details": "Only the contract owner may call this."
      },
      "setFeePool(address)": {
        "details": "Must be set by owner when FeePool logic is upgraded"
      },
      "setSelfDestructBeneficiary(address)": {
        "details": "Only the contract owner may call this. The provided beneficiary must be non-null.",
        "params": {
          "_beneficiary": "The address to pay any eth contained in this contract to upon self-destruction."
        }
      },
      "terminateSelfDestruct()": {
        "details": "Only the contract owner may call this."
      }
    }
  },
  "userdoc": {
    "methods": {
      "acceptOwnership()": {
        "notice": "Accept the nomination to be owner."
      },
      "appendAccountIssuanceRecord(address,uint256,uint256,uint256)": {
        "notice": "Logs an accounts issuance data in the current fee period which is then stored historically"
      },
      "applicableIssuanceData(address,uint256)": {
        "notice": "Find the oldest debtEntryIndex for the corresponding closingDebtIndex"
      },
      "getAccountsDebtEntry(address,uint256)": {
        "notice": "Get an accounts issuanceData for"
      },
      "importIssuerData(address[],uint256[],uint256,uint256)": {
        "notice": "Import issuer data from synthetixState.issuerData on FeePeriodClose() block #"
      },
      "initiateSelfDestruct()": {
        "notice": "Begin the self-destruction counter of this contract. Once the delay has elapsed, the contract may be self-destructed."
      },
      "nominateNewOwner(address)": {
        "notice": "Nominate a new owner of this contract."
      },
      "selfDestruct()": {
        "notice": "If the self-destruction delay has elapsed, destroy this contract and remit any ether it owns to the beneficiary address."
      },
      "setFeePool(address)": {
        "notice": "set the FeePool contract as it is the only authority to be able to call appendAccountIssuanceRecord with the onlyFeePool modifer"
      },
      "setSelfDestructBeneficiary(address)": {
        "notice": "Set the beneficiary address of this contract."
      },
      "terminateSelfDestruct()": {
        "notice": "Terminate and reset the self-destruction timer."
      }
    }
  }
}