{
  "contractName": "FeePool",
  "abi": [
    {
      "constant": true,
      "inputs": [],
      "name": "exchangeFeeRate",
      "outputs": [
        {
          "name": "",
          "type": "uint256"
        }
      ],
      "payable": false,
      "stateMutability": "view",
      "type": "function"
    },
    {
      "constant": false,
      "inputs": [
        {
          "name": "_owner",
          "type": "address"
        }
      ],
      "name": "nominateNewOwner",
      "outputs": [],
      "payable": false,
      "stateMutability": "nonpayable",
      "type": "function"
    },
    {
      "constant": true,
      "inputs": [],
      "name": "initiationTime",
      "outputs": [
        {
          "name": "",
          "type": "uint256"
        }
      ],
      "payable": false,
      "stateMutability": "view",
      "type": "function"
    },
    {
      "constant": false,
      "inputs": [
        {
          "name": "_beneficiary",
          "type": "address"
        }
      ],
      "name": "setSelfDestructBeneficiary",
      "outputs": [],
      "payable": false,
      "stateMutability": "nonpayable",
      "type": "function"
    },
    {
      "constant": true,
      "inputs": [],
      "name": "feePeriodDuration",
      "outputs": [
        {
          "name": "",
          "type": "uint256"
        }
      ],
      "payable": false,
      "stateMutability": "view",
      "type": "function"
    },
    {
      "constant": true,
      "inputs": [],
      "name": "feeAuthority",
      "outputs": [
        {
          "name": "",
          "type": "address"
        }
      ],
      "payable": false,
      "stateMutability": "view",
      "type": "function"
    },
    {
      "constant": false,
      "inputs": [],
      "name": "terminateSelfDestruct",
      "outputs": [],
      "payable": false,
      "stateMutability": "nonpayable",
      "type": "function"
    },
    {
      "constant": true,
      "inputs": [],
      "name": "transferFeeRate",
      "outputs": [
        {
          "name": "",
          "type": "uint256"
        }
      ],
      "payable": false,
      "stateMutability": "view",
      "type": "function"
    },
    {
      "constant": true,
      "inputs": [
        {
          "name": "",
          "type": "uint256"
        }
      ],
      "name": "recentFeePeriods",
      "outputs": [
        {
          "name": "feePeriodId",
          "type": "uint256"
        },
        {
          "name": "startingDebtIndex",
          "type": "uint256"
        },
        {
          "name": "startTime",
          "type": "uint256"
        },
        {
          "name": "feesToDistribute",
          "type": "uint256"
        },
        {
          "name": "feesClaimed",
          "type": "uint256"
        },
        {
          "name": "rewardsToDistribute",
          "type": "uint256"
        },
        {
          "name": "rewardsClaimed",
          "type": "uint256"
        }
      ],
      "payable": false,
      "stateMutability": "view",
      "type": "function"
    },
    {
      "constant": true,
      "inputs": [],
      "name": "feePoolEternalStorage",
      "outputs": [
        {
          "name": "",
          "type": "address"
        }
      ],
      "payable": false,
      "stateMutability": "view",
      "type": "function"
    },
    {
      "constant": true,
      "inputs": [],
      "name": "nominatedOwner",
      "outputs": [
        {
          "name": "",
          "type": "address"
        }
      ],
      "payable": false,
      "stateMutability": "view",
      "type": "function"
    },
    {
      "constant": true,
      "inputs": [],
      "name": "delegates",
      "outputs": [
        {
          "name": "",
          "type": "address"
        }
      ],
      "payable": false,
      "stateMutability": "view",
      "type": "function"
    },
    {
      "constant": true,
      "inputs": [],
      "name": "synthetix",
      "outputs": [
        {
          "name": "",
          "type": "address"
        }
      ],
      "payable": false,
      "stateMutability": "view",
      "type": "function"
    },
    {
      "constant": true,
      "inputs": [],
      "name": "MAX_TRANSFER_FEE_RATE",
      "outputs": [
        {
          "name": "",
          "type": "uint256"
        }
      ],
      "payable": false,
      "stateMutability": "view",
      "type": "function"
    },
    {
      "constant": false,
      "inputs": [],
      "name": "acceptOwnership",
      "outputs": [],
      "payable": false,
      "stateMutability": "nonpayable",
      "type": "function"
    },
    {
      "constant": true,
      "inputs": [],
      "name": "owner",
      "outputs": [
        {
          "name": "",
          "type": "address"
        }
      ],
      "payable": false,
      "stateMutability": "view",
      "type": "function"
    },
    {
      "constant": false,
      "inputs": [
        {
          "name": "_proxy",
          "type": "address"
        }
      ],
      "name": "setProxy",
      "outputs": [],
      "payable": false,
      "stateMutability": "nonpayable",
      "type": "function"
    },
    {
      "constant": false,
      "inputs": [],
      "name": "selfDestruct",
      "outputs": [],
      "payable": false,
      "stateMutability": "nonpayable",
      "type": "function"
    },
    {
      "constant": true,
      "inputs": [],
      "name": "rewardEscrow",
      "outputs": [
        {
          "name": "",
          "type": "address"
        }
      ],
      "payable": false,
      "stateMutability": "view",
      "type": "function"
    },
    {
      "constant": true,
      "inputs": [],
      "name": "SELFDESTRUCT_DELAY",
      "outputs": [
        {
          "name": "",
          "type": "uint256"
        }
      ],
      "payable": false,
      "stateMutability": "view",
      "type": "function"
    },
    {
      "constant": true,
      "inputs": [],
      "name": "selfDestructInitiated",
      "outputs": [
        {
          "name": "",
          "type": "bool"
        }
      ],
      "payable": false,
      "stateMutability": "view",
      "type": "function"
    },
    {
      "constant": false,
      "inputs": [
        {
          "name": "sender",
          "type": "address"
        }
      ],
      "name": "setMessageSender",
      "outputs": [],
      "payable": false,
      "stateMutability": "nonpayable",
      "type": "function"
    },
    {
      "constant": false,
      "inputs": [],
      "name": "initiateSelfDestruct",
      "outputs": [],
      "payable": false,
      "stateMutability": "nonpayable",
      "type": "function"
    },
    {
      "constant": true,
      "inputs": [],
      "name": "selfDestructBeneficiary",
      "outputs": [
        {
          "name": "",
          "type": "address"
        }
      ],
      "payable": false,
      "stateMutability": "view",
      "type": "function"
    },
    {
      "constant": true,
      "inputs": [],
      "name": "FEE_PERIOD_LENGTH",
      "outputs": [
        {
          "name": "",
          "type": "uint8"
        }
      ],
      "payable": false,
      "stateMutability": "view",
      "type": "function"
    },
    {
      "constant": true,
      "inputs": [],
      "name": "MIN_FEE_PERIOD_DURATION",
      "outputs": [
        {
          "name": "",
          "type": "uint256"
        }
      ],
      "payable": false,
      "stateMutability": "view",
      "type": "function"
    },
    {
      "constant": true,
      "inputs": [],
      "name": "synthetixState",
      "outputs": [
        {
          "name": "",
          "type": "address"
        }
      ],
      "payable": false,
      "stateMutability": "view",
      "type": "function"
    },
    {
      "constant": true,
      "inputs": [],
      "name": "feePoolState",
      "outputs": [
        {
          "name": "",
          "type": "address"
        }
      ],
      "payable": false,
      "stateMutability": "view",
      "type": "function"
    },
    {
      "constant": true,
      "inputs": [],
      "name": "FEE_ADDRESS",
      "outputs": [
        {
          "name": "",
          "type": "address"
        }
      ],
      "payable": false,
      "stateMutability": "view",
      "type": "function"
    },
    {
      "constant": true,
      "inputs": [],
      "name": "proxy",
      "outputs": [
        {
          "name": "",
          "type": "address"
        }
      ],
      "payable": false,
      "stateMutability": "view",
      "type": "function"
    },
    {
      "constant": true,
      "inputs": [],
      "name": "MAX_FEE_PERIOD_DURATION",
      "outputs": [
        {
          "name": "",
          "type": "uint256"
        }
      ],
      "payable": false,
      "stateMutability": "view",
      "type": "function"
    },
    {
      "constant": true,
      "inputs": [],
      "name": "MAX_EXCHANGE_FEE_RATE",
      "outputs": [
        {
          "name": "",
          "type": "uint256"
        }
      ],
      "payable": false,
      "stateMutability": "view",
      "type": "function"
    },
    {
      "inputs": [
        {
          "name": "_proxy",
          "type": "address"
        },
        {
          "name": "_owner",
          "type": "address"
        },
        {
          "name": "_synthetix",
          "type": "address"
        },
        {
          "name": "_feePoolState",
          "type": "address"
        },
        {
          "name": "_feePoolEternalStorage",
          "type": "address"
        },
        {
          "name": "_synthetixState",
          "type": "address"
        },
        {
          "name": "_rewardEscrow",
          "type": "address"
        },
        {
          "name": "_feeAuthority",
          "type": "address"
        },
        {
          "name": "_transferFeeRate",
          "type": "uint256"
        },
        {
          "name": "_exchangeFeeRate",
          "type": "uint256"
        }
      ],
      "payable": false,
      "stateMutability": "nonpayable",
      "type": "constructor"
    },
    {
      "anonymous": false,
      "inputs": [
        {
          "indexed": true,
          "name": "account",
          "type": "address"
        },
        {
          "indexed": false,
          "name": "debtRatio",
          "type": "uint256"
        },
        {
          "indexed": false,
          "name": "debtEntryIndex",
          "type": "uint256"
        },
        {
          "indexed": false,
          "name": "feePeriodStartingDebtIndex",
          "type": "uint256"
        }
      ],
      "name": "IssuanceDebtRatioEntry",
      "type": "event"
    },
    {
      "anonymous": false,
      "inputs": [
        {
          "indexed": false,
          "name": "newFeeRate",
          "type": "uint256"
        }
      ],
      "name": "TransferFeeUpdated",
      "type": "event"
    },
    {
      "anonymous": false,
      "inputs": [
        {
          "indexed": false,
          "name": "newFeeRate",
          "type": "uint256"
        }
      ],
      "name": "ExchangeFeeUpdated",
      "type": "event"
    },
    {
      "anonymous": false,
      "inputs": [
        {
          "indexed": false,
          "name": "newFeePeriodDuration",
          "type": "uint256"
        }
      ],
      "name": "FeePeriodDurationUpdated",
      "type": "event"
    },
    {
      "anonymous": false,
      "inputs": [
        {
          "indexed": false,
          "name": "newFeeAuthority",
          "type": "address"
        }
      ],
      "name": "FeeAuthorityUpdated",
      "type": "event"
    },
    {
      "anonymous": false,
      "inputs": [
        {
          "indexed": false,
          "name": "newFeePoolState",
          "type": "address"
        }
      ],
      "name": "FeePoolStateUpdated",
      "type": "event"
    },
    {
      "anonymous": false,
      "inputs": [
        {
          "indexed": false,
          "name": "newDelegateApprovals",
          "type": "address"
        }
      ],
      "name": "DelegateApprovalsUpdated",
      "type": "event"
    },
    {
      "anonymous": false,
      "inputs": [
        {
          "indexed": false,
          "name": "feePeriodId",
          "type": "uint256"
        }
      ],
      "name": "FeePeriodClosed",
      "type": "event"
    },
    {
      "anonymous": false,
      "inputs": [
        {
          "indexed": false,
          "name": "account",
          "type": "address"
        },
        {
          "indexed": false,
          "name": "xdrAmount",
          "type": "uint256"
        }
      ],
      "name": "FeesClaimed",
      "type": "event"
    },
    {
      "anonymous": false,
      "inputs": [
        {
          "indexed": false,
          "name": "account",
          "type": "address"
        },
        {
          "indexed": false,
          "name": "snxAmount",
          "type": "uint256"
        }
      ],
      "name": "RewardsClaimed",
      "type": "event"
    },
    {
      "anonymous": false,
      "inputs": [
        {
          "indexed": false,
          "name": "newSynthetix",
          "type": "address"
        }
      ],
      "name": "SynthetixUpdated",
      "type": "event"
    },
    {
      "anonymous": false,
      "inputs": [],
      "name": "SelfDestructTerminated",
      "type": "event"
    },
    {
      "anonymous": false,
      "inputs": [
        {
          "indexed": false,
          "name": "beneficiary",
          "type": "address"
        }
      ],
      "name": "SelfDestructed",
      "type": "event"
    },
    {
      "anonymous": false,
      "inputs": [
        {
          "indexed": false,
          "name": "selfDestructDelay",
          "type": "uint256"
        }
      ],
      "name": "SelfDestructInitiated",
      "type": "event"
    },
    {
      "anonymous": false,
      "inputs": [
        {
          "indexed": false,
          "name": "newBeneficiary",
          "type": "address"
        }
      ],
      "name": "SelfDestructBeneficiaryUpdated",
      "type": "event"
    },
    {
      "anonymous": false,
      "inputs": [
        {
          "indexed": false,
          "name": "proxyAddress",
          "type": "address"
        }
      ],
      "name": "ProxyUpdated",
      "type": "event"
    },
    {
      "anonymous": false,
      "inputs": [
        {
          "indexed": false,
          "name": "newOwner",
          "type": "address"
        }
      ],
      "name": "OwnerNominated",
      "type": "event"
    },
    {
      "anonymous": false,
      "inputs": [
        {
          "indexed": false,
          "name": "oldOwner",
          "type": "address"
        },
        {
          "indexed": false,
          "name": "newOwner",
          "type": "address"
        }
      ],
      "name": "OwnerChanged",
      "type": "event"
    },
    {
      "constant": false,
      "inputs": [
        {
          "name": "account",
          "type": "address"
        },
        {
          "name": "debtRatio",
          "type": "uint256"
        },
        {
          "name": "debtEntryIndex",
          "type": "uint256"
        }
      ],
      "name": "appendAccountIssuanceRecord",
      "outputs": [],
      "payable": false,
      "stateMutability": "nonpayable",
      "type": "function"
    },
    {
      "constant": false,
      "inputs": [
        {
          "name": "_exchangeFeeRate",
          "type": "uint256"
        }
      ],
      "name": "setExchangeFeeRate",
      "outputs": [],
      "payable": false,
      "stateMutability": "nonpayable",
      "type": "function"
    },
    {
      "constant": false,
      "inputs": [
        {
          "name": "_transferFeeRate",
          "type": "uint256"
        }
      ],
      "name": "setTransferFeeRate",
      "outputs": [],
      "payable": false,
      "stateMutability": "nonpayable",
      "type": "function"
    },
    {
      "constant": false,
      "inputs": [
        {
          "name": "_feeAuthority",
          "type": "address"
        }
      ],
      "name": "setFeeAuthority",
      "outputs": [],
      "payable": false,
      "stateMutability": "nonpayable",
      "type": "function"
    },
    {
      "constant": false,
      "inputs": [
        {
          "name": "_feePoolState",
          "type": "address"
        }
      ],
      "name": "setFeePoolState",
      "outputs": [],
      "payable": false,
      "stateMutability": "nonpayable",
      "type": "function"
    },
    {
      "constant": false,
      "inputs": [
        {
          "name": "_delegates",
          "type": "address"
        }
      ],
      "name": "setDelegateApprovals",
      "outputs": [],
      "payable": false,
      "stateMutability": "nonpayable",
      "type": "function"
    },
    {
      "constant": false,
      "inputs": [
        {
          "name": "_feePeriodDuration",
          "type": "uint256"
        }
      ],
      "name": "setFeePeriodDuration",
      "outputs": [],
      "payable": false,
      "stateMutability": "nonpayable",
      "type": "function"
    },
    {
      "constant": false,
      "inputs": [
        {
          "name": "_synthetix",
          "type": "address"
        }
      ],
      "name": "setSynthetix",
      "outputs": [],
      "payable": false,
      "stateMutability": "nonpayable",
      "type": "function"
    },
    {
      "constant": false,
      "inputs": [
        {
          "name": "currencyKey",
          "type": "bytes4"
        },
        {
          "name": "amount",
          "type": "uint256"
        }
      ],
      "name": "feePaid",
      "outputs": [],
      "payable": false,
      "stateMutability": "nonpayable",
      "type": "function"
    },
    {
      "constant": false,
      "inputs": [
        {
          "name": "amount",
          "type": "uint256"
        }
      ],
      "name": "rewardsMinted",
      "outputs": [],
      "payable": false,
      "stateMutability": "nonpayable",
      "type": "function"
    },
    {
      "constant": false,
      "inputs": [],
      "name": "closeCurrentFeePeriod",
      "outputs": [],
      "payable": false,
      "stateMutability": "nonpayable",
      "type": "function"
    },
    {
      "constant": false,
      "inputs": [
        {
          "name": "currencyKey",
          "type": "bytes4"
        }
      ],
      "name": "claimFees",
      "outputs": [
        {
          "name": "",
          "type": "bool"
        }
      ],
      "payable": false,
      "stateMutability": "nonpayable",
      "type": "function"
    },
    {
      "constant": false,
      "inputs": [
        {
          "name": "claimingForAddress",
          "type": "address"
        },
        {
          "name": "currencyKey",
          "type": "bytes4"
        }
      ],
      "name": "claimOnBehalf",
      "outputs": [
        {
          "name": "",
          "type": "bool"
        }
      ],
      "payable": false,
      "stateMutability": "nonpayable",
      "type": "function"
    },
    {
      "constant": false,
      "inputs": [
        {
          "name": "feePeriodIndex",
          "type": "uint256"
        },
        {
          "name": "feePeriodId",
          "type": "uint256"
        },
        {
          "name": "startingDebtIndex",
          "type": "uint256"
        },
        {
          "name": "startTime",
          "type": "uint256"
        },
        {
          "name": "feesToDistribute",
          "type": "uint256"
        },
        {
          "name": "feesClaimed",
          "type": "uint256"
        },
        {
          "name": "rewardsToDistribute",
          "type": "uint256"
        },
        {
          "name": "rewardsClaimed",
          "type": "uint256"
        }
      ],
      "name": "importFeePeriod",
      "outputs": [],
      "payable": false,
      "stateMutability": "nonpayable",
      "type": "function"
    },
    {
      "constant": false,
      "inputs": [
        {
          "name": "account",
          "type": "address"
        }
      ],
      "name": "approveClaimOnBehalf",
      "outputs": [],
      "payable": false,
      "stateMutability": "nonpayable",
      "type": "function"
    },
    {
      "constant": false,
      "inputs": [
        {
          "name": "account",
          "type": "address"
        }
      ],
      "name": "removeClaimOnBehalf",
      "outputs": [],
      "payable": false,
      "stateMutability": "nonpayable",
      "type": "function"
    },
    {
      "constant": true,
      "inputs": [
        {
          "name": "value",
          "type": "uint256"
        }
      ],
      "name": "transferFeeIncurred",
      "outputs": [
        {
          "name": "",
          "type": "uint256"
        }
      ],
      "payable": false,
      "stateMutability": "view",
      "type": "function"
    },
    {
      "constant": true,
      "inputs": [
        {
          "name": "value",
          "type": "uint256"
        }
      ],
      "name": "transferredAmountToReceive",
      "outputs": [
        {
          "name": "",
          "type": "uint256"
        }
      ],
      "payable": false,
      "stateMutability": "view",
      "type": "function"
    },
    {
      "constant": true,
      "inputs": [
        {
          "name": "value",
          "type": "uint256"
        }
      ],
      "name": "amountReceivedFromTransfer",
      "outputs": [
        {
          "name": "",
          "type": "uint256"
        }
      ],
      "payable": false,
      "stateMutability": "view",
      "type": "function"
    },
    {
      "constant": true,
      "inputs": [
        {
          "name": "value",
          "type": "uint256"
        }
      ],
      "name": "exchangeFeeIncurred",
      "outputs": [
        {
          "name": "",
          "type": "uint256"
        }
      ],
      "payable": false,
      "stateMutability": "view",
      "type": "function"
    },
    {
      "constant": true,
      "inputs": [
        {
          "name": "value",
          "type": "uint256"
        }
      ],
      "name": "exchangedAmountToReceive",
      "outputs": [
        {
          "name": "",
          "type": "uint256"
        }
      ],
      "payable": false,
      "stateMutability": "view",
      "type": "function"
    },
    {
      "constant": true,
      "inputs": [
        {
          "name": "value",
          "type": "uint256"
        }
      ],
      "name": "amountReceivedFromExchange",
      "outputs": [
        {
          "name": "",
          "type": "uint256"
        }
      ],
      "payable": false,
      "stateMutability": "view",
      "type": "function"
    },
    {
      "constant": true,
      "inputs": [
        {
          "name": "currencyKey",
          "type": "bytes4"
        }
      ],
      "name": "totalFeesAvailable",
      "outputs": [
        {
          "name": "",
          "type": "uint256"
        }
      ],
      "payable": false,
      "stateMutability": "view",
      "type": "function"
    },
    {
      "constant": true,
      "inputs": [],
      "name": "totalRewardsAvailable",
      "outputs": [
        {
          "name": "",
          "type": "uint256"
        }
      ],
      "payable": false,
      "stateMutability": "view",
      "type": "function"
    },
    {
      "constant": true,
      "inputs": [
        {
          "name": "account",
          "type": "address"
        },
        {
          "name": "currencyKey",
          "type": "bytes4"
        }
      ],
      "name": "feesAvailable",
      "outputs": [
        {
          "name": "",
          "type": "uint256"
        },
        {
          "name": "",
          "type": "uint256"
        }
      ],
      "payable": false,
      "stateMutability": "view",
      "type": "function"
    },
    {
      "constant": true,
      "inputs": [
        {
          "name": "account",
          "type": "address"
        }
      ],
      "name": "currentPenalty",
      "outputs": [
        {
          "name": "",
          "type": "uint256"
        }
      ],
      "payable": false,
      "stateMutability": "view",
      "type": "function"
    },
    {
      "constant": true,
      "inputs": [
        {
          "name": "account",
          "type": "address"
        }
      ],
      "name": "feesByPeriod",
      "outputs": [
        {
          "name": "results",
          "type": "uint256[2][6]"
        }
      ],
      "payable": false,
      "stateMutability": "view",
      "type": "function"
    },
    {
      "constant": true,
      "inputs": [
        {
          "name": "account",
          "type": "address"
        },
        {
          "name": "period",
          "type": "uint256"
        }
      ],
      "name": "effectiveDebtRatioForPeriod",
      "outputs": [
        {
          "name": "",
          "type": "uint256"
        }
      ],
      "payable": false,
      "stateMutability": "view",
      "type": "function"
    },
    {
      "constant": true,
      "inputs": [
        {
          "name": "_claimingAddress",
          "type": "address"
        }
      ],
      "name": "getLastFeeWithdrawal",
      "outputs": [
        {
          "name": "",
          "type": "uint256"
        }
      ],
      "payable": false,
      "stateMutability": "view",
      "type": "function"
    }
  ],
  "bytecode": "0x608060405262093a80603a553480156200001857600080fd5b50604051610140806200603e83398101604090815281516020830151918301516060840151608085015160a086015160c087015160e088015161010089015161012090990151969895969495939492939192909190621baf80898b8180600160a060020a0381161515620000ed57604080517f08c379a000000000000000000000000000000000000000000000000000000000815260206004820152601960248201527f4f776e657220616464726573732063616e6e6f74206265203000000000000000604482015290519081900360640190fd5b60008054600160a060020a031916600160a060020a038316908117825560408051928352602083019190915280517fb532073b38c83145e3e5135377a08bf9aab55bc0fd7c1179cd4fb995d2a5159c9281900390910190a15060028054600160a060020a038416600160a060020a0319909116811790915560408051918252517ffc80377ca9c49cc11ae6982f390a42db976d5530af7c43889264b13fbbd7c57e9181900360200190a15050600160a060020a03811615156200023757604080517f08c379a000000000000000000000000000000000000000000000000000000000815260206004820152602260248201527f4f776e6572206d757374206e6f7420626520746865207a65726f20616464726560448201527f7373000000000000000000000000000000000000000000000000000000000000606482015290519081900360840190fd5b60058054600160a060020a038316610100810261010060a860020a03199092169190911790915560408051918252517fd5da63a0b864b315bc04128dedbc93888c8529ee6cf47ce664dc204339228c539181900360200190a15080420160068190555050600a73__SafeDecimalMath_______________________63907af6c06040518163ffffffff167c010000000000000000000000000000000000000000000000000000000002815260040160206040518083038186803b158015620002fe57600080fd5b505af415801562000313573d6000803e3d6000fd5b505050506040513d60208110156200032a57600080fd5b50518115156200033657fe5b04821115620003e157604080517f08c379a000000000000000000000000000000000000000000000000000000000815260206004820152604160248201527f436f6e7374727563746564207472616e7366657220666565207261746520736860448201526000805160206200601e83398151915260648201527f6500000000000000000000000000000000000000000000000000000000000000608482015290519081900360a40190fd5b600a73__SafeDecimalMath_______________________63907af6c06040518163ffffffff167c010000000000000000000000000000000000000000000000000000000002815260040160206040518083038186803b1580156200044457600080fd5b505af415801562000459573d6000803e3d6000fd5b505050506040513d60208110156200047057600080fd5b50518115156200047c57fe5b048111156200052757604080517f08c379a000000000000000000000000000000000000000000000000000000000815260206004820152604160248201527f436f6e73747275637465642065786368616e676520666565207261746520736860448201526000805160206200601e83398151915260648201527f6500000000000000000000000000000000000000000000000000000000000000608482015290519081900360a40190fd5b60078054600160a060020a0319908116600160a060020a039a8b1617909155600e80548216988a1698909817909755600a80548816968916969096179095556009805487169388169390931790925560088054861693871693909317909255600d80549094169190941617909155600b91909155600c555050600160105542601255615a6580620005b96000396000f3006080604052600436106102bb5763ffffffff60e060020a60003504166304c49f2c81146102c0578063075d2c41146102da57806307ea50cd146102fb5780630813071c1461032e5780630f5024a7146103525780630f9b49551461039457806310adda0e146103a95780631627540c146103f057806317c70de41461041157806320714f881461042657806322425fa41461044757806331dbd8a51461045c5780633278c9601461048d57806333140016146104a2578063351bf5181461051d5780633ebc457a146105325780633fcd2240146105475780634180e5b51461059757806352b9f8a2146105b857806353a47bb7146105cd578063578a791d146105e25780635b292e94146105fa5780636138b19e1461061b578063639cd59c146106305780636c8bc9fe146106525780636de813f114610673578063759b52251461068857806376d752a11461069d57806379ba5097146106b257806386645274146106c75780638a957929146106ee5780638da5cb5b1461070f57806397107d6d146107245780639cb8a26a14610745578063a3fd6d0e1461075a578063a430be6c1461077f578063a461fc8214610794578063b10090b8146107a9578063b6dc8e25146107d6578063b7fcfa69146107ee578063b8225dec14610806578063bc67f8321461081b578063bd32aa441461083c578063c58aaae614610851578063c894e1e514610866578063cc9b31c91461087e578063cd503c0b14610896578063cf427d1b146108b8578063cff2ddad146108d9578063d62ae39914610904578063da46e6c414610919578063dbd4a42214610931578063e05bac8214610946578063e3082f6a1461095e578063e3f060ae14610973578063e9d36c561461098b578063eb1edd61146109a3578063ec556889146109b8578063f344da67146109cd578063fb1b4c7e1461069d578063fec9f9da146109e2575b600080fd5b3480156102cc57600080fd5b506102d8600435610a03565b005b3480156102e657600080fd5b506102d8600160a060020a0360043516610bcb565b34801561030757600080fd5b5061031c600160a060020a0360043516610c7e565b60408051918252519081900360200190f35b34801561033a57600080fd5b5061031c600160a060020a0360043516602435610dae565b34801561035e57600080fd5b50610380600160a060020a0360043516600160e060020a031960243516610fbc565b604080519115158252519081900360200190f35b3480156103a057600080fd5b5061031c611110565b3480156103b557600080fd5b506103d7600160a060020a0360043516600160e060020a031960243516611116565b6040805192835260208301919091528051918290030190f35b3480156103fc57600080fd5b506102d8600160a060020a0360043516611240565b34801561041d57600080fd5b5061031c6112f8565b34801561043257600080fd5b506102d8600160a060020a03600435166112fe565b34801561045357600080fd5b5061031c611451565b34801561046857600080fd5b50610471611457565b60408051600160a060020a039092168252519081900360200190f35b34801561049957600080fd5b506102d8611466565b3480156104ae57600080fd5b506104c3600160a060020a0360043516611504565b6040516000826006835b8184101561050d5760208402830151604080838360005b838110156104fc5781810151838201526020016104e4565b5050505090500192600101926104cd565b9250505091505060405180910390f35b34801561052957600080fd5b5061031c61186a565b34801561053e57600080fd5b506102d8611870565b34801561055357600080fd5b5061055f600435611ce3565b604080519788526020880196909652868601949094526060860192909252608085015260a084015260c0830152519081900360e00190f35b3480156105a357600080fd5b506102d8600160a060020a0360043516611d23565b3480156105c457600080fd5b50610471611ebd565b3480156105d957600080fd5b50610471611ecc565b3480156105ee57600080fd5b506102d8600435611edb565b34801561060657600080fd5b506102d8600160a060020a0360043516612074565b34801561062757600080fd5b50610471612127565b34801561063c57600080fd5b5061031c600160e060020a031960043516612136565b34801561065e57600080fd5b506102d8600160a060020a0360043516612242565b34801561067f57600080fd5b5061031c612361565b34801561069457600080fd5b506104716123d0565b3480156106a957600080fd5b5061031c6123df565b3480156106be57600080fd5b506102d8612461565b3480156106d357600080fd5b506102d8600160a060020a036004351660243560443561255c565b3480156106fa57600080fd5b506102d8600160a060020a0360043516612693565b34801561071b57600080fd5b50610471612746565b34801561073057600080fd5b506102d8600160a060020a0360043516612755565b34801561075157600080fd5b506102d861280d565b34801561076657600080fd5b506102d8600160e060020a0319600435166024356129d2565b34801561078b57600080fd5b50610471612b37565b3480156107a057600080fd5b5061031c612b46565b3480156107b557600080fd5b506102d860043560243560443560643560843560a43560c43560e435612b4d565b3480156107e257600080fd5b5061031c600435612d18565b3480156107fa57600080fd5b5061031c600435612d39565b34801561081257600080fd5b50610380612dd0565b34801561082757600080fd5b506102d8600160a060020a0360043516612dd9565b34801561084857600080fd5b506102d8612e83565b34801561085d57600080fd5b50610471612f30565b34801561087257600080fd5b506102d8600435612f44565b34801561088a57600080fd5b5061031c6004356130dd565b3480156108a257600080fd5b50610380600160e060020a0319600435166130f4565b3480156108c457600080fd5b5061031c600160a060020a0360043516613132565b3480156108e557600080fd5b506108ee613a85565b6040805160ff9092168252519081900360200190f35b34801561091057600080fd5b5061031c613a8a565b34801561092557600080fd5b5061031c600435613a91565b34801561093d57600080fd5b50610471613aa8565b34801561095257600080fd5b5061031c600435613ab7565b34801561096a57600080fd5b50610471613b4e565b34801561097f57600080fd5b506102d8600435613b5d565b34801561099757600080fd5b5061031c600435613bfe565b3480156109af57600080fd5b50610471613c0c565b3480156109c457600080fd5b50610471613c24565b3480156109d957600080fd5b5061031c613c33565b3480156109ee57600080fd5b506102d8600160a060020a0360043516613c3a565b600254600160a060020a03163314610a285760038054600160a060020a031916331790555b600054600354600160a060020a03908116911614610a92576040805160e560020a62461bcd02815260206004820152602e60248201526000805160206159da8339815191526044820152600080516020615a1a833981519152606482015290519081900360840190fd5b62015180811015610b13576040805160e560020a62461bcd02815260206004820152603e60248201527f4e65772066656520706572696f642063616e6e6f74206265206c65737320746860448201527f616e206d696e696d756d2066656520706572696f64206475726174696f6e0000606482015290519081900360840190fd5b624f1a00811115610bba576040805160e560020a62461bcd02815260206004820152604160248201527f4e65772066656520706572696f642063616e6e6f74206265206772656174657260448201527f207468616e206d6178696d756d2066656520706572696f64206475726174696f60648201527f6e00000000000000000000000000000000000000000000000000000000000000608482015290519081900360a40190fd5b603a819055610bc881613d4d565b50565b600254600160a060020a03163314610bf05760038054600160a060020a031916331790555b600054600354600160a060020a03908116911614610c5a576040805160e560020a62461bcd02815260206004820152602e60248201526000805160206159da8339815191526044820152600080516020615a1a833981519152606482015290519081900360840190fd5b600e8054600160a060020a031916600160a060020a038316179055610bc881613e98565b600a54604080517f6c6173745f6665655f7769746864726177616c00000000000000000000000000602080830191909152600160a060020a038581166c010000000000000000000000000283850152835180840360340181526054909301938490528251600095919091169363bdc963d89392909182918401908083835b60208310610d1b5780518252601f199092019160209182019101610cfc565b51815160209384036101000a60001901801990921691161790526040805192909401829003822063ffffffff881660e060020a0283526004830152925160248083019650939450929083900301905081600087803b158015610d7c57600080fd5b505af1158015610d90573d6000803e3d6000fd5b505050506040513d6020811015610da657600080fd5b505192915050565b6000808080841515610e30576040805160e560020a62461bcd02815260206004820152602160248201527f43757272656e7420706572696f6420686173206e6f7420636c6f73656420796560448201527f7400000000000000000000000000000000000000000000000000000000000000606482015290519081900360840190fd5b60068510610ead576040805160e560020a62461bcd028152602060048201526024808201527f506572696f64206578636565647320746865204645455f504552494f445f4c4560448201527f4e47544800000000000000000000000000000000000000000000000000000000606482015290519081900360840190fd5b6010600019860160068110610ebe57fe5b600702016001015460001415610ed357610fb3565b610eff60016010600019880160068110610ee957fe5b6007020160010154613f7490919063ffffffff16565b600e54604080517fd29c000a000000000000000000000000000000000000000000000000000000008152600160a060020a038a811660048301526024820185905282519497509092169263d29c000a9260448082019392918290030181600087803b158015610f6d57600080fd5b505af1158015610f81573d6000803e3d6000fd5b505050506040513d6040811015610f9757600080fd5b5080516020909101519092509050610fb0838383613f92565b93505b50505092915050565b600254600090600160a060020a03163314610fe45760038054600160a060020a031916331790555b600f54600354604080517fe1270b6e000000000000000000000000000000000000000000000000000000008152600160a060020a03878116600483015292831660248201529051919092169163e1270b6e9160448083019260209291908290030181600087803b15801561105757600080fd5b505af115801561106b573d6000803e3d6000fd5b505050506040513d602081101561108157600080fd5b505115156110ff576040805160e560020a62461bcd02815260206004820152602c60248201527f4e6f7420617070726f76656420746f20636c61696d206f6e20626568616c662060448201527f7468697320616464726573730000000000000000000000000000000000000000606482015290519081900360840190fd5b611109838361417a565b9392505050565b600c5481565b600080611121615931565b600080600061112f88611504565b93506000925060009150600190505b60068110156111975761116384826006811061115657fe5b6020020151518490614291565b925061118d84826006811061117457fe5b602002015160016020020151839063ffffffff61429116565b915060010161113e565b6007546040805160e660020a62e759bf02815260e960020a622c222902600482015260248101869052600160e060020a03198a1660448201529051600160a060020a03909216916339d66fc0916064808201926020929091908290030181600087803b15801561120657600080fd5b505af115801561121a573d6000803e3d6000fd5b505050506040513d602081101561123057600080fd5b5051989197509095505050505050565b600054600160a060020a031633146112a4576040805160e560020a62461bcd02815260206004820152602f60248201526000805160206159ba83398151915260448201526000805160206159fa833981519152606482015290519081900360840190fd5b60018054600160a060020a038316600160a060020a0319909116811790915560408051918252517f906a1c6bd7e3091ea86693dd029a831c19049ce77f1dce2ce0bab1cacbabce229181900360200190a150565b60045481565b600054600160a060020a03163314611362576040805160e560020a62461bcd02815260206004820152602f60248201526000805160206159ba83398151915260448201526000805160206159fa833981519152606482015290519081900360840190fd5b600160a060020a03811615156113e8576040805160e560020a62461bcd02815260206004820152602860248201527f42656e6566696369617279206d757374206e6f7420626520746865207a65726f60448201527f2061646472657373000000000000000000000000000000000000000000000000606482015290519081900360840190fd5b60058054600160a060020a038316610100810274ffffffffffffffffffffffffffffffffffffffff00199092169190911790915560408051918252517fd5da63a0b864b315bc04128dedbc93888c8529ee6cf47ce664dc204339228c539181900360200190a150565b603a5481565b600d54600160a060020a031681565b600054600160a060020a031633146114ca576040805160e560020a62461bcd02815260206004820152602f60248201526000805160206159ba83398151915260448201526000805160206159fa833981519152606482015290519081900360840190fd5b600060048190556005805460ff191690556040517f6adcc7125002935e0aa31697538ebbd65cfddf20431eb6ecdcfc3e238bfd082c9190a1565b61150c615931565b600080600080600080600061151f615960565b600e54604080517fb326f84e000000000000000000000000000000000000000000000000000000008152600160a060020a038d8116600483015260006024830181905283519094919091169263b326f84e926044808201939182900301818787803b15801561158d57600080fd5b505af11580156115a1573d6000803e3d6000fd5b505050506040513d60408110156115b757600080fd5b5080516020909101519099509750871580156115d1575088155b156115db5761185c565b600754604080517f403dca5500000000000000000000000000000000000000000000000000000000815260e960020a622c22290260048201529051600160a060020a039092169163403dca55916024808201926020929091908290030181600087803b15801561164a57600080fd5b505af115801561165e573d6000803e3d6000fd5b505050506040513d602081101561167457600080fd5b505115156116815761185c565b61168a8b613132565b965061169960008a8a8a6142a3565b8b518290528b516020018190529096509450600593505b600084111561185c5760001984019250601083600681106116cd57fe5b6007020160e0604051908101604052908160008201548152602001600182015481526020016002820154815260200160038201548152602001600482015481526020016005820154815260200160068201548152505091506000826020015111801561175157506010846006811061174157fe5b600702015461174f8c610c7e565b105b1561185057602082015161176c90600163ffffffff613f7416565b600e54604080517fd29c000a000000000000000000000000000000000000000000000000000000008152600160a060020a038f811660048301526024820185905282519495509092169263d29c000a9260448082019392918290030181600087803b1580156117da57600080fd5b505af11580156117ee573d6000803e3d6000fd5b505050506040513d604081101561180457600080fd5b508051602090910151909950975061181e848a8a8a6142a3565b9096509450858a856006811061183057fe5b602002015152848a856006811061184357fe5b6020020151600160200201525b600019909301926116b0565b505050505050505050919050565b600b5481565b611878615960565b611880615960565b6002546000908190600160a060020a031633146118aa5760038054600160a060020a031916331790555b600d54600160a060020a03163314611932576040805160e560020a62461bcd02815260206004820152602e60248201527f4f6e6c79207468652066656520617574686f726974792063616e20706572666f60448201527f726d207468697320616374696f6e000000000000000000000000000000000000606482015290519081900360840190fd5b603a54601254429190910310156119b9576040805160e560020a62461bcd02815260206004820152602f60248201527f497420697320746f6f206561726c7920746f20636c6f7365207468652063757260448201527f72656e742066656520706572696f640000000000000000000000000000000000606482015290519081900360840190fd5b6040805160e08082018352602c548252602d54602080840191909152602e5483850152602f54606080850191825260305460808087019190915260315460a08088019190915260325460c0808901919091528851968701895260335487526034549587019590955260355497860197909752603654918501829052603754908501819052603854968501969096526039549284019290925251929750909550611a7892611a6c919063ffffffff613f7416565b9063ffffffff61429116565b602f5560a08085015160c085015191850151611a9e92611a6c919063ffffffff613f7416565b603155600491505b6006821015611c0a57506001810160108260068110611ac157fe5b600702015460108260068110611ad357fe5b600702015560108260068110611ae557fe5b6007020160010154601082600681101515611afc57fe5b6007020160010181905550601082600681101515611b1657fe5b6007020160020154601082600681101515611b2d57fe5b6007020160020181905550601082600681101515611b4757fe5b6007020160030154601082600681101515611b5e57fe5b6007020160030181905550601082600681101515611b7857fe5b6007020160040154601082600681101515611b8f57fe5b6007020160040181905550601082600681101515611ba957fe5b6007020160050154601082600681101515611bc057fe5b6007020160050181905550601082600681101515611bda57fe5b6007020160060154601082600681101515611bf157fe5b6007020160060181905550818060019003925050611aa6565b6000601081905560118190556012819055601381905560148190556015819055601655601754611c3b906001614291565b601055600854604080517fcd92eba90000000000000000000000000000000000000000000000000000000081529051600160a060020a039092169163cd92eba9916004808201926020929091908290030181600087803b158015611c9e57600080fd5b505af1158015611cb2573d6000803e3d6000fd5b505050506040513d6020811015611cc857600080fd5b505160115542601255601754611cdd906143ad565b50505050565b60108160068110611cf057fe5b60070201805460018201546002830154600384015460048501546005860154600690960154949650929491939092919087565b600254600160a060020a03163314611d485760038054600160a060020a031916331790555b600f54600160a060020a03161515611dd0576040805160e560020a62461bcd02815260206004820152602660248201527f44656c65676174657320417070726f76616c2064657374696e6174696f6e206d60448201527f697373696e670000000000000000000000000000000000000000000000000000606482015290519081900360840190fd5b600160a060020a0381161515611e30576040805160e560020a62461bcd02815260206004820152601c60248201527f43616e27742064656c656761746520746f206164647265737328302900000000604482015290519081900360640190fd5b600f54600354604080517fb3c12354000000000000000000000000000000000000000000000000000000008152600160a060020a03928316600482015284831660248201529051919092169163b3c1235491604480830192600092919082900301818387803b158015611ea257600080fd5b505af1158015611eb6573d6000803e3d6000fd5b5050505050565b600a54600160a060020a031681565b600154600160a060020a031681565b600254600160a060020a03163314611f005760038054600160a060020a031916331790555b600054600354600160a060020a03908116911614611f6a576040805160e560020a62461bcd02815260206004820152602e60248201526000805160206159da8339815191526044820152600080516020615a1a833981519152606482015290519081900360840190fd5b600a73__SafeDecimalMath_______________________63907af6c06040518163ffffffff1660e060020a02815260040160206040518083038186803b158015611fb357600080fd5b505af4158015611fc7573d6000803e3d6000fd5b505050506040513d6020811015611fdd57600080fd5b5051811515611fe857fe5b04811115612066576040805160e560020a62461bcd02815260206004820152603560248201527f45786368616e6765206665652072617465206d7573742062652062656c6f772060448201527f4d41585f45584348414e47455f4645455f524154450000000000000000000000606482015290519081900360840190fd5b600c819055610bc881614480565b600254600160a060020a031633146120995760038054600160a060020a031916331790555b600054600354600160a060020a03908116911614612103576040805160e560020a62461bcd02815260206004820152602e60248201526000805160206159da8339815191526044820152600080516020615a1a833981519152606482015290519081900360840190fd5b600f8054600160a060020a031916600160a060020a038316179055610bc881614553565b600f54600160a060020a031681565b60008060015b600681101561219f5761216c6010826006811061215557fe5b60070201600301548361429190919063ffffffff16565b91506121956010826006811061217e57fe5b600702016004015483613f7490919063ffffffff16565b915060010161213c565b6007546040805160e660020a62e759bf02815260e960020a622c222902600482015260248101859052600160e060020a0319871660448201529051600160a060020a03909216916339d66fc0916064808201926020929091908290030181600087803b15801561220e57600080fd5b505af1158015612222573d6000803e3d6000fd5b505050506040513d602081101561223857600080fd5b5051949350505050565b600254600160a060020a031633146122675760038054600160a060020a031916331790555b600f54600160a060020a031615156122ef576040805160e560020a62461bcd02815260206004820152602660248201527f44656c65676174657320417070726f76616c2064657374696e6174696f6e206d60448201527f697373696e670000000000000000000000000000000000000000000000000000606482015290519081900360840190fd5b600f54600354604080517f5f0736a1000000000000000000000000000000000000000000000000000000008152600160a060020a039283166004820152848316602482015290519190921691635f0736a191604480830192600092919082900301818387803b158015611ea257600080fd5b60008060015b60068110156123ca576123976010826006811061238057fe5b60070201600501548361429190919063ffffffff16565b91506123c0601082600681106123a957fe5b600702016006015483613f7490919063ffffffff16565b9150600101612367565b50919050565b600754600160a060020a031681565b600a73__SafeDecimalMath_______________________63907af6c06040518163ffffffff1660e060020a02815260040160206040518083038186803b15801561242857600080fd5b505af415801561243c573d6000803e3d6000fd5b505050506040513d602081101561245257600080fd5b505181151561245d57fe5b0481565b600154600160a060020a031633146124e9576040805160e560020a62461bcd02815260206004820152603560248201527f596f75206d757374206265206e6f6d696e61746564206265666f726520796f7560448201527f2063616e20616363657074206f776e6572736869700000000000000000000000606482015290519081900360840190fd5b60005460015460408051600160a060020a03938416815292909116602083015280517fb532073b38c83145e3e5135377a08bf9aab55bc0fd7c1179cd4fb995d2a5159c9281900390910190a16001805460008054600160a060020a0319908116600160a060020a03841617909155169055565b600754600160a060020a031633146125e4576040805160e560020a62461bcd02815260206004820152603360248201527f4f6e6c79207468652073796e74686574697820636f6e74726163742063616e2060448201527f706572666f726d207468697320616374696f6e00000000000000000000000000606482015290519081900360840190fd5b600e54601154604080517f94e1a448000000000000000000000000000000000000000000000000000000008152600160a060020a03878116600483015260248201879052604482018690526064820193909352905191909216916394e1a44891608480830192600092919082900301818387803b15801561266457600080fd5b505af1158015612678573d6000803e3d6000fd5b505060115461268e925085915084908490614655565b505050565b600254600160a060020a031633146126b85760038054600160a060020a031916331790555b600054600354600160a060020a03908116911614612722576040805160e560020a62461bcd02815260206004820152602e60248201526000805160206159da8339815191526044820152600080516020615a1a833981519152606482015290519081900360840190fd5b600d8054600160a060020a031916600160a060020a038316179055610bc8816147d6565b600054600160a060020a031681565b600054600160a060020a031633146127b9576040805160e560020a62461bcd02815260206004820152602f60248201526000805160206159ba83398151915260448201526000805160206159fa833981519152606482015290519081900360840190fd5b60028054600160a060020a038316600160a060020a0319909116811790915560408051918252517ffc80377ca9c49cc11ae6982f390a42db976d5530af7c43889264b13fbbd7c57e9181900360200190a150565b60008054600160a060020a03163314612872576040805160e560020a62461bcd02815260206004820152602f60248201526000805160206159ba83398151915260448201526000805160206159fa833981519152606482015290519081900360840190fd5b60055460ff1615156128f4576040805160e560020a62461bcd02815260206004820152602860248201527f53656c6620646573747275637420686173206e6f7420796574206265656e206960448201527f6e69746961746564000000000000000000000000000000000000000000000000606482015290519081900360840190fd5b426224ea006004540110151561297a576040805160e560020a62461bcd02815260206004820152602760248201527f53656c662064657374727563742064656c617920686173206e6f74207965742060448201527f656c617073656400000000000000000000000000000000000000000000000000606482015290519081900360840190fd5b5060055460408051600160a060020a0361010090930492909216808352905190917f8a09e1677ced846cb537dc2b172043bd05a1a81ad7e0033a7ef8ba762df990b7919081900360200190a180600160a060020a0316ff5b600754600090600160a060020a03163314612a5d576040805160e560020a62461bcd02815260206004820152603360248201527f4f6e6c79207468652073796e74686574697820636f6e74726163742063616e2060448201527f706572666f726d207468697320616374696f6e00000000000000000000000000606482015290519081900360840190fd5b60e960020a622c222902600160e060020a0319841614612b19576007546040805160e660020a62e759bf028152600160e060020a0319861660048201526024810185905260e960020a622c22290260448201529051600160a060020a03909216916339d66fc0916064808201926020929091908290030181600087803b158015612ae657600080fd5b505af1158015612afa573d6000803e3d6000fd5b505050506040513d6020811015612b1057600080fd5b50519050612b1c565b50805b601354612b2f908263ffffffff61429116565b601355505050565b600954600160a060020a031681565b6224ea0081565b600254600160a060020a03163314612b725760038054600160a060020a031916331790555b600054600354600160a060020a03908116911614612bdc576040805160e560020a62461bcd02815260206004820152602e60248201526000805160206159da8339815191526044820152600080516020615a1a833981519152606482015290519081900360840190fd5b6006544210612c5b576040805160e560020a62461bcd02815260206004820152602960248201527f43616e206f6e6c7920706572666f726d207468697320616374696f6e2064757260448201527f696e672073657475700000000000000000000000000000000000000000000000606482015290519081900360840190fd5b8660108960068110612c6957fe5b60070201558560108960068110612c7c57fe5b600702016001018190555084601089600681101515612c9757fe5b600702016002018190555083601089600681101515612cb257fe5b600702016003018190555082601089600681101515612ccd57fe5b600702016004018190555081601089600681101515612ce857fe5b600702016005018190555080601089600681101515612d0357fe5b60070201600601819055505050505050505050565b6000612d33612d26836130dd565b839063ffffffff61429116565b92915050565b6000612d33612dc373__SafeDecimalMath_______________________63907af6c06040518163ffffffff1660e060020a02815260040160206040518083038186803b158015612d8857600080fd5b505af4158015612d9c573d6000803e3d6000fd5b505050506040513d6020811015612db257600080fd5b5051600b549063ffffffff61429116565b839063ffffffff6148b216565b60055460ff1681565b600254600160a060020a03163314612e61576040805160e560020a62461bcd02815260206004820152602560248201527f4f6e6c79207468652070726f78792063616e2063616c6c20746869732066756e60448201527f6374696f6e000000000000000000000000000000000000000000000000000000606482015290519081900360840190fd5b60038054600160a060020a031916600160a060020a0392909216919091179055565b600054600160a060020a03163314612ee7576040805160e560020a62461bcd02815260206004820152602f60248201526000805160206159ba83398151915260448201526000805160206159fa833981519152606482015290519081900360840190fd5b426004556005805460ff19166001179055604080516224ea00815290517fcbd94ca75b8dc45c9d80c77e851670e78843c0d75180cb81db3e2158228fa9a69181900360200190a1565b6005546101009004600160a060020a031681565b600254600160a060020a03163314612f695760038054600160a060020a031916331790555b600054600354600160a060020a03908116911614612fd3576040805160e560020a62461bcd02815260206004820152602e60248201526000805160206159da8339815191526044820152600080516020615a1a833981519152606482015290519081900360840190fd5b600a73__SafeDecimalMath_______________________63907af6c06040518163ffffffff1660e060020a02815260040160206040518083038186803b15801561301c57600080fd5b505af4158015613030573d6000803e3d6000fd5b505050506040513d602081101561304657600080fd5b505181151561305157fe5b048111156130cf576040805160e560020a62461bcd02815260206004820152603560248201527f5472616e73666572206665652072617465206d7573742062652062656c6f772060448201527f4d41585f5452414e534645525f4645455f524154450000000000000000000000606482015290519081900360840190fd5b600b819055610bc8816148dc565b6000612d33600c54836149af90919063ffffffff16565b600254600090600160a060020a0316331461311c5760038054600160a060020a031916331790555b600354612d3390600160a060020a03168361417a565b600754604080517fa311c7c2000000000000000000000000000000000000000000000000000000008152600160a060020a03848116600483015291516000938493169163a311c7c291602480830192602092919082900301818787803b15801561319b57600080fd5b505af11580156131af573d6000803e3d6000fd5b505050506040513d60208110156131c557600080fd5b5051604080517f907af6c0000000000000000000000000000000000000000000000000000000008152905191925060649173__SafeDecimalMath_______________________9163907af6c0916004808301926020929190829003018186803b15801561323157600080fd5b505af4158015613245573d6000803e3d6000fd5b505050506040513d602081101561325b57600080fd5b505160140281151561326957fe5b04811161327957600091506123ca565b606473__SafeDecimalMath_______________________63907af6c06040518163ffffffff1660e060020a02815260040160206040518083038186803b1580156132c257600080fd5b505af41580156132d6573d6000803e3d6000fd5b505050506040513d60208110156132ec57600080fd5b50516014028115156132fa57fe5b048111801561338a5750606473__SafeDecimalMath_______________________63907af6c06040518163ffffffff1660e060020a02815260040160206040518083038186803b15801561334d57600080fd5b505af4158015613361573d6000803e3d6000fd5b505050506040513d602081101561337757600080fd5b505160160281151561338557fe5b048111155b1561339857600091506123ca565b606473__SafeDecimalMath_______________________63907af6c06040518163ffffffff1660e060020a02815260040160206040518083038186803b1580156133e157600080fd5b505af41580156133f5573d6000803e3d6000fd5b505050506040513d602081101561340b57600080fd5b505160160281151561341957fe5b04811180156134a95750606473__SafeDecimalMath_______________________63907af6c06040518163ffffffff1660e060020a02815260040160206040518083038186803b15801561346c57600080fd5b505af4158015613480573d6000803e3d6000fd5b505050506040513d602081101561349657600080fd5b5051601e028115156134a457fe5b048111155b1561353757606473__SafeDecimalMath_______________________63907af6c06040518163ffffffff1660e060020a02815260040160206040518083038186803b1580156134f757600080fd5b505af415801561350b573d6000803e3d6000fd5b505050506040513d602081101561352157600080fd5b505160190281151561352f57fe5b0491506123ca565b606473__SafeDecimalMath_______________________63907af6c06040518163ffffffff1660e060020a02815260040160206040518083038186803b15801561358057600080fd5b505af4158015613594573d6000803e3d6000fd5b505050506040513d60208110156135aa57600080fd5b5051601e028115156135b857fe5b04811180156136485750606473__SafeDecimalMath_______________________63907af6c06040518163ffffffff1660e060020a02815260040160206040518083038186803b15801561360b57600080fd5b505af415801561361f573d6000803e3d6000fd5b505050506040513d602081101561363557600080fd5b505160280281151561364357fe5b048111155b156136ce57606473__SafeDecimalMath_______________________63907af6c06040518163ffffffff1660e060020a02815260040160206040518083038186803b15801561369657600080fd5b505af41580156136aa573d6000803e3d6000fd5b505050506040513d60208110156136c057600080fd5b505160320281151561352f57fe5b606473__SafeDecimalMath_______________________63907af6c06040518163ffffffff1660e060020a02815260040160206040518083038186803b15801561371757600080fd5b505af415801561372b573d6000803e3d6000fd5b505050506040513d602081101561374157600080fd5b505160280281151561374f57fe5b04811180156137df5750606473__SafeDecimalMath_______________________63907af6c06040518163ffffffff1660e060020a02815260040160206040518083038186803b1580156137a257600080fd5b505af41580156137b6573d6000803e3d6000fd5b505050506040513d60208110156137cc57600080fd5b50516032028115156137da57fe5b048111155b1561386557606473__SafeDecimalMath_______________________63907af6c06040518163ffffffff1660e060020a02815260040160206040518083038186803b15801561382d57600080fd5b505af4158015613841573d6000803e3d6000fd5b505050506040513d602081101561385757600080fd5b5051604b0281151561352f57fe5b606473__SafeDecimalMath_______________________63907af6c06040518163ffffffff1660e060020a02815260040160206040518083038186803b1580156138ae57600080fd5b505af41580156138c2573d6000803e3d6000fd5b505050506040513d60208110156138d857600080fd5b50516032028115156138e657fe5b04811180156139765750606473__SafeDecimalMath_______________________63907af6c06040518163ffffffff1660e060020a02815260040160206040518083038186803b15801561393957600080fd5b505af415801561394d573d6000803e3d6000fd5b505050506040513d602081101561396357600080fd5b505160640281151561397157fe5b048111155b156139fc57606473__SafeDecimalMath_______________________63907af6c06040518163ffffffff1660e060020a02815260040160206040518083038186803b1580156139c457600080fd5b505af41580156139d8573d6000803e3d6000fd5b505050506040513d60208110156139ee57600080fd5b5051605a0281151561352f57fe5b606473__SafeDecimalMath_______________________63907af6c06040518163ffffffff1660e060020a02815260040160206040518083038186803b158015613a4557600080fd5b505af4158015613a59573d6000803e3d6000fd5b505050506040513d6020811015613a6f57600080fd5b5051606402811515613a7d57fe5b049392505050565b600681565b6201518081565b6000612d33600b54836149af90919063ffffffff16565b600854600160a060020a031681565b6000612d33613b41600c5473__SafeDecimalMath_______________________63907af6c06040518163ffffffff1660e060020a02815260040160206040518083038186803b158015613b0957600080fd5b505af4158015613b1d573d6000803e3d6000fd5b505050506040513d6020811015613b3357600080fd5b50519063ffffffff613f7416565b839063ffffffff6149af16565b600e54600160a060020a031681565b600754600160a060020a03163314613be5576040805160e560020a62461bcd02815260206004820152603360248201527f4f6e6c79207468652073796e74686574697820636f6e74726163742063616e2060448201527f706572666f726d207468697320616374696f6e00000000000000000000000000606482015290519081900360840190fd5b601554613bf8908263ffffffff61429116565b60155550565b6000612d33612d2683613a91565b73feefeefeefeefeefeefeefeefeefeefeefeefeef81565b600254600160a060020a031681565b624f1a0081565b600254600160a060020a03163314613c5f5760038054600160a060020a031916331790555b600054600354600160a060020a03908116911614613cc9576040805160e560020a62461bcd02815260206004820152602e60248201526000805160206159da8339815191526044820152600080516020615a1a833981519152606482015290519081900360840190fd5b600160a060020a0381161515613d29576040805160e560020a62461bcd02815260206004820152601e60248201527f4e65772053796e746865746978206d757374206265206e6f6e2d7a65726f0000604482015290519081900360640190fd5b60078054600160a060020a031916600160a060020a038316179055610bc8816149d3565b6002546040805160208082018590528251808303820181528284018085527f466565506572696f644475726174696f6e557064617465642875696e7432353690527f29000000000000000000000000000000000000000000000000000000000000006060840152925191829003606101822060e060020a63907dff97028352600160248401819052604484018290526000606485018190526084850181905260a4850181905260c060048601908152865160c48701528651600160a060020a039098169763907dff979796939592938493849392839260e401918a0190808383885b83811015613e47578181015183820152602001613e2f565b50505050905090810190601f168015613e745780820380516001836020036101000a031916815260200191505b50975050505050505050600060405180830381600087803b158015611ea257600080fd5b60025460408051600160a060020a038481166020808401919091528351808403820181528385018086527f466565506f6f6c537461746555706461746564286164647265737329000000009052935192839003605c01832060e060020a63907dff97028452600160248501819052604485018290526000606486018190526084860181905260a4860181905260c060048701908152875160c48801528751959098169763907dff97979692959394919384938493839260e490920191908a01908083838883811015613e47578181015183820152602001613e2f565b60008083831115613f8457600080fd5b5050808203805b5092915050565b600080600860009054906101000a9004600160a060020a0316600160a060020a031663cd92eba96040518163ffffffff1660e060020a028152600401602060405180830381600087803b158015613fe857600080fd5b505af1158015613ffc573d6000803e3d6000fd5b505050506040513d602081101561401257600080fd5b50518511156140245760009150614172565b600854604080517f08d95cd500000000000000000000000000000000000000000000000000000000815260048101869052905161416c92879261416092600160a060020a03909216916308d95cd5916024808201926020929091908290030181600087803b15801561409557600080fd5b505af11580156140a9573d6000803e3d6000fd5b505050506040513d60208110156140bf57600080fd5b5051600854604080517f08d95cd5000000000000000000000000000000000000000000000000000000008152600481018c90529051600160a060020a03909216916308d95cd5916024808201926020929091908290030181600087803b15801561412857600080fd5b505af115801561413c573d6000803e3d6000fd5b505050506040513d602081101561415257600080fd5b50519063ffffffff614aaf16565b9063ffffffff614ac816565b90508091505b509392505050565b60008060008060006141958760e960020a622c222902611116565b909450925060008411806141a95750600083115b1515614225576040805160e560020a62461bcd02815260206004820152602481018290527f4e6f2066656573206f72207265776172647320617661696c61626c6520666f7260448201527f20706572696f642c206f72206665657320616c726561647920636c61696d6564606482015290519081900360840190fd5b601754614233908890614ae1565b600084111561425c5761424584614c00565b9150614252878388614d12565b61425c87836152b1565b60008311156142845761426e836153e6565b905061427a87826154ea565b6142848782615778565b5060019695505050505050565b60008282018381101561110957600080fd5b6000808080808080808a15156142bf576000975087965061439e565b8a955060008c11156142f1576142e1600160106000198f0160068110610ee957fe5b94506142ee858c8c613f92565b95505b6143188660108e6006811061430257fe5b60070201600301546149af90919063ffffffff16565b93506143418660108e6006811061432b57fe5b60070201600501546149af90919063ffffffff16565b9250614363614356858b63ffffffff6149af16565b859063ffffffff613f7416565b9150614385614378848b63ffffffff6149af16565b849063ffffffff613f7416565b90506143908261585b565b6143998261585b565b975097505b50505050505094509492505050565b6002546040805160208082018590528251808303820181528284018085527f466565506572696f64436c6f7365642875696e743235362900000000000000009052925191829003605801822060e060020a63907dff97028352600160248401819052604484018290526000606485018190526084850181905260a4850181905260c060048601908152865160c48701528651600160a060020a039098169763907dff979796939592938493849392839260e401918a01908083838883811015613e47578181015183820152602001613e2f565b6002546040805160208082018590528251808303820181528284018085527f45786368616e6765466565557064617465642875696e743235362900000000009052925191829003605b01822060e060020a63907dff97028352600160248401819052604484018290526000606485018190526084850181905260a4850181905260c060048601908152865160c48701528651600160a060020a039098169763907dff979796939592938493849392839260e401918a01908083838883811015613e47578181015183820152602001613e2f565b60025460408051600160a060020a038481166020808401919091528351808403820181528385018086527f44656c6567617465417070726f76616c7355706461746564286164647265737390527f29000000000000000000000000000000000000000000000000000000000000006060850152935192839003606101832060e060020a63907dff97028452600160248501819052604485018290526000606486018190526084860181905260a4860181905260c060048701908152875160c48801528751959098169763907dff97979692959394919384938493839260e490920191908a01908083838883811015613e47578181015183820152602001613e2f565b60028054604080516020808201889052818301879052606080830187905283518084039091018152608083018085527f49737375616e636544656274526174696f456e74727928616464726573732c7590527f696e743235362c75696e743235362c75696e743235362900000000000000000060a084015292519182900360b701822060e060020a63907dff970283526024830186905260448301819052600160a060020a038a81166064850181905260006084860181905260a4860181905260c060048701908152875160c48801528751939098169863907dff9798909694959294919384939192839260e490910191908a0190808383885b8381101561476757818101518382015260200161474f565b50505050905090810190601f1680156147945780820380516001836020036101000a031916815260200191505b50975050505050505050600060405180830381600087803b1580156147b857600080fd5b505af11580156147cc573d6000803e3d6000fd5b5050505050505050565b60025460408051600160a060020a038481166020808401919091528351808403820181528385018086527f466565417574686f7269747955706461746564286164647265737329000000009052935192839003605c01832060e060020a63907dff97028452600160248501819052604485018290526000606486018190526084860181905260a4860181905260c060048701908152875160c48801528751959098169763907dff97979692959394919384938493839260e490920191908a01908083838883811015613e47578181015183820152602001613e2f565b6000611109826148d085670de0b6b3a764000063ffffffff61587b16565b9063ffffffff6158a916565b6002546040805160208082018590528251808303820181528284018085527f5472616e73666572466565557064617465642875696e743235362900000000009052925191829003605b01822060e060020a63907dff97028352600160248401819052604484018290526000606485018190526084850181905260a4850181905260c060048601908152865160c48701528651600160a060020a039098169763907dff979796939592938493849392839260e401918a01908083838883811015613e47578181015183820152602001613e2f565b6000670de0b6b3a76400006149ca848463ffffffff61587b16565b811515613a7d57fe5b60025460408051600160a060020a038481166020808401919091528351808403820181528385018086527f53796e74686574697855706461746564286164647265737329000000000000009052935192839003605901832060e060020a63907dff97028452600160248501819052604485018290526000606486018190526084860181905260a4860181905260c060048701908152875160c48801528751959098169763907dff97979692959394919384938493839260e490920191908a01908083838883811015613e47578181015183820152602001613e2f565b600061110983836b033b2e3c9fd0803ce80000006158cc565b600061110983836b033b2e3c9fd0803ce8000000615904565b600a54604080517f6c6173745f6665655f7769746864726177616c00000000000000000000000000602080830191909152600160a060020a038681166c010000000000000000000000000283850152835180840360340181526054909301938490528251941693633562fd2093918291908401908083835b60208310614b785780518252601f199092019160209182019101614b59565b5181516020939093036101000a60001901801990911692169190911790526040805191909301819003812063ffffffff871660e060020a028252600482015260248101889052915160448084019550600094509092839003019050818387803b158015614be457600080fd5b505af1158015614bf8573d6000803e3d6000fd5b505050505050565b60008181600581805b6006831015614d0457614c4f60108460068110614c2257fe5b6007020160040154601085600681101515614c3957fe5b6007020160030154613f7490919063ffffffff16565b91506000821115614cf857848210614c675784614c69565b815b9050614c928160108560068110614c7c57fe5b600702016004015461429190919063ffffffff16565b60108460068110614c9f57fe5b6007020160040181905550614cbd8186613f7490919063ffffffff16565b9450614ccf848263ffffffff61429116565b9350841515614ce057839550614d08565b82158015614cee5750600085115b15614cf857600094505b60001990920191614c09565b8395505b5050505050919050565b6000808085600160a060020a03811673feefeefeefeefeefeefeefeefeefeefeefeefeef1415614d8c576040805160e560020a62461bcd02815260206004820152601760248201527f4665652061646472657373206e6f7420616c6c6f776564000000000000000000604482015290519081900360640190fd5b600160a060020a0387161515614dec576040805160e560020a62461bcd02815260206004820152601260248201527f4163636f756e742063616e277420626520300000000000000000000000000000604482015290519081900360640190fd5b600160a060020a038716301415614e4d576040805160e560020a62461bcd02815260206004820152601b60248201527f43616e27742073656e64206665657320746f2066656520706f6f6c0000000000604482015290519081900360640190fd5b600254600160a060020a0388811691161415614eb3576040805160e560020a62461bcd02815260206004820152601860248201527f43616e27742073656e64206665657320746f2070726f78790000000000000000604482015290519081900360640190fd5b600754600160a060020a0388811691161415614f19576040805160e560020a62461bcd02815260206004820152601c60248201527f43616e27742073656e64206665657320746f2073796e74686574697800000000604482015290519081900360640190fd5b600754604080517f502b8bda00000000000000000000000000000000000000000000000000000000815260e960020a622c22290260048201529051600160a060020a039092169163502b8bda916024808201926020929091908290030181600087803b158015614f8857600080fd5b505af1158015614f9c573d6000803e3d6000fd5b505050506040513d6020811015614fb257600080fd5b5051600754604080517f502b8bda000000000000000000000000000000000000000000000000000000008152600160e060020a0319891660048201529051929650600160a060020a039091169163502b8bda916024808201926020929091908290030181600087803b15801561502757600080fd5b505af115801561503b573d6000803e3d6000fd5b505050506040513d602081101561505157600080fd5b5051604080517f9dc29fac00000000000000000000000000000000000000000000000000000000815273feefeefeefeefeefeefeefeefeefeefeefeefeef6004820152602481018990529051919450600160a060020a03861691639dc29fac9160448082019260009290919082900301818387803b1580156150d257600080fd5b505af11580156150e6573d6000803e3d6000fd5b50506007546040805160e660020a62e759bf02815260e960020a622c2229026004820152602481018b9052600160e060020a03198a1660448201529051600160a060020a0390921693506339d66fc092506064808201926020929091908290030181600087803b15801561515957600080fd5b505af115801561516d573d6000803e3d6000fd5b505050506040513d602081101561518357600080fd5b5051604080517f867904b4000000000000000000000000000000000000000000000000000000008152600160a060020a038a811660048301526024820184905291519294509085169163867904b49160448082019260009290919082900301818387803b1580156151f357600080fd5b505af1158015615207573d6000803e3d6000fd5b5050604080517feb6ecc0300000000000000000000000000000000000000000000000000000000815273feefeefeefeefeefeefeefeefeefeefeefeefeef6004820152600160a060020a038b81166024830152604482018790529151918716935063eb6ecc03925060648082019260009290919082900301818387803b15801561529057600080fd5b505af11580156152a4573d6000803e3d6000fd5b5050505050505050505050565b60025460408051600160a060020a03858116602080840191909152828401869052835180840385018152606084018086527f46656573436c61696d656428616464726573732c75696e7432353629000000009052935192839003607c01832060e060020a63907dff97028452600160248501819052604485018290526000606486018190526084860181905260a4860181905260c060048701908152875160c48801528751959098169763907dff97979692959394919384938493839260e490920191908a0190808383885b8381101561539557818101518382015260200161537d565b50505050905090810190601f1680156153c25780820380516001836020036101000a031916815260200191505b50975050505050505050600060405180830381600087803b158015614be457600080fd5b60008181600581805b6006831015614d04576154356010846006811061540857fe5b600702016006015460108560068110151561541f57fe5b6007020160050154613f7490919063ffffffff16565b915060008211156154de5784821061544d578461544f565b815b9050615478816010856006811061546257fe5b600702016006015461429190919063ffffffff16565b6010846006811061548557fe5b60070201600601819055506154a38186613f7490919063ffffffff16565b94506154b5848263ffffffff61429116565b93508415156154c657839550614d08565b821580156154d45750600085115b156154de57600094505b600019909201916153ef565b81600160a060020a03811673feefeefeefeefeefeefeefeefeefeefeefeefeef1415615560576040805160e560020a62461bcd02815260206004820152601760248201527f4665652061646472657373206e6f7420616c6c6f776564000000000000000000604482015290519081900360640190fd5b600160a060020a03831615156155c0576040805160e560020a62461bcd02815260206004820152601260248201527f4163636f756e742063616e277420626520300000000000000000000000000000604482015290519081900360640190fd5b600160a060020a038316301415615621576040805160e560020a62461bcd02815260206004820152601e60248201527f43616e27742073656e64207265776172647320746f2066656520706f6f6c0000604482015290519081900360640190fd5b600254600160a060020a0384811691161415615687576040805160e560020a62461bcd02815260206004820152601b60248201527f43616e27742073656e64207265776172647320746f2070726f78790000000000604482015290519081900360640190fd5b600754600160a060020a03848116911614156156ed576040805160e560020a62461bcd02815260206004820152601f60248201527f43616e27742073656e64207265776172647320746f2073796e74686574697800604482015290519081900360640190fd5b600954604080517fb5ddb9c7000000000000000000000000000000000000000000000000000000008152600160a060020a038681166004830152602482018690529151919092169163b5ddb9c791604480830192600092919082900301818387803b15801561575b57600080fd5b505af115801561576f573d6000803e3d6000fd5b50505050505050565b60025460408051600160a060020a03858116602080840191909152828401869052835180840385018152606084018086527f52657761726473436c61696d656428616464726573732c75696e7432353629009052935192839003607f01832060e060020a63907dff97028452600160248501819052604485018290526000606486018190526084860181905260a4860181905260c060048701908152875160c48801528751959098169763907dff97979692959394919384938493839260e490920191908a0190808383888381101561539557818101518382015260200161537d565b60006305f5e10082046005600a82061061587357600a015b600a81613a7d565b60008083151561588e5760009150613f8b565b5082820282848281151561589e57fe5b041461110957600080fd5b6000808083116158b857600080fd5b82848115156158c357fe5b04949350505050565b6000806158e6846148d087600a870263ffffffff61587b16565b90506005600a825b06106158f857600a015b600a9004949350505050565b600080600a830461591b868663ffffffff61587b16565b81151561592457fe5b0490506005600a826158ee565b610180604051908101604052806006905b61594a61599e565b8152602001906001900390816159425790505090565b60e060405190810160405280600081526020016000815260200160008152602001600081526020016000815260200160008152602001600081525090565b6040805180820182529060029082908038833950919291505056004f6e6c792074686520636f6e7472616374206f776e6572206d617920706572665468697320616374696f6e2063616e206f6e6c7920626520706572666f726d656f726d207468697320616374696f6e00000000000000000000000000000000006420627920746865206f776e6572000000000000000000000000000000000000a165627a7a7230582093eb49ead845d549b80a876c46ca82383cfd962ae5ffa00630e2e7c1d74a4c6d00296f756c64207265737065637420746865206d6178696d756d2066656520726174",
  "source": "/*\n-----------------------------------------------------------------\nFILE INFORMATION\n-----------------------------------------------------------------\n\nfile:       FeePool.sol\nversion:    1.0\nauthor:     Kevin Brown\ndate:       2018-10-15\n\n-----------------------------------------------------------------\nMODULE DESCRIPTION\n-----------------------------------------------------------------\n\nThe FeePool is a place for users to interact with the fees that\nhave been generated from the Synthetix system if they've helped\nto create the economy.\n\nUsers stake Synthetix to create Synths. As Synth users transact,\na small fee is deducted from exchange transactions, which collects\nin the fee pool. Fees are immediately converted to XDRs, a type\nof reserve currency similar to SDRs used by the IMF:\nhttps://www.imf.org/en/About/Factsheets/Sheets/2016/08/01/14/51/Special-Drawing-Right-SDR\n\nUsers are entitled to withdraw fees from periods that they participated\nin fully, e.g. they have to stake before the period starts. They\ncan withdraw fees for the last 6 periods as a single lump sum.\nCurrently fee periods are 7 days long, meaning it's assumed\nusers will withdraw their fees approximately once a month. Fees\nwhich are not withdrawn are redistributed to the whole pool,\nenabling these non-claimed fees to go back to the rest of the commmunity.\n\nFees can be withdrawn in any synth currency.\n\n-----------------------------------------------------------------\n*/\n\npragma solidity 0.4.25;\n\nimport \"./Proxyable.sol\";\nimport \"./SelfDestructible.sol\";\nimport \"./SafeDecimalMath.sol\";\nimport \"./Synthetix.sol\";\nimport \"./ISynthetixEscrow.sol\";\nimport \"./ISynthetixState.sol\";\nimport \"./Synth.sol\";\nimport \"./FeePoolState.sol\";\nimport \"./FeePoolEternalStorage.sol\";\nimport \"./DelegateApprovals.sol\";\n\ncontract FeePool is Proxyable, SelfDestructible, LimitedSetup {\n\n    using SafeMath for uint;\n    using SafeDecimalMath for uint;\n\n    Synthetix public synthetix;\n    ISynthetixState public synthetixState;\n    ISynthetixEscrow public rewardEscrow;\n    FeePoolEternalStorage public feePoolEternalStorage;\n\n    // A percentage fee charged on each transfer.\n    uint public transferFeeRate;\n\n    // Transfer fee may not exceed 10%.\n    uint constant public MAX_TRANSFER_FEE_RATE = SafeDecimalMath.unit() / 10;\n\n    // A percentage fee charged on each exchange between currencies.\n    uint public exchangeFeeRate;\n\n    // Exchange fee may not exceed 10%.\n    uint constant public MAX_EXCHANGE_FEE_RATE = SafeDecimalMath.unit() / 10;\n\n    // The address with the authority to distribute fees.\n    address public feeAuthority;\n\n    // The address to the FeePoolState Contract.\n    FeePoolState public feePoolState;\n\n    // The address to the DelegateApproval contract.\n    DelegateApprovals public delegates;\n\n    // Where fees are pooled in XDRs.\n    address public constant FEE_ADDRESS = 0xfeEFEEfeefEeFeefEEFEEfEeFeefEEFeeFEEFEeF;\n\n    // This struct represents the issuance activity that's happened in a fee period.\n    struct FeePeriod {\n        uint feePeriodId;\n        uint startingDebtIndex;\n        uint startTime;\n        uint feesToDistribute;\n        uint feesClaimed;\n        uint rewardsToDistribute;\n        uint rewardsClaimed;\n    }\n\n    // The last 6 fee periods are all that you can claim from.\n    // These are stored and managed from [0], such that [0] is always\n    // the most recent fee period, and [5] is always the oldest fee\n    // period that users can claim for.\n    uint8 constant public FEE_PERIOD_LENGTH = 6;\n\n    FeePeriod[FEE_PERIOD_LENGTH] public recentFeePeriods;\n\n    // How long a fee period lasts at a minimum. It is required for the\n    // fee authority to roll over the periods, so they are not guaranteed\n    // to roll over at exactly this duration, but the contract enforces\n    // that they cannot roll over any quicker than this duration.\n    uint public feePeriodDuration = 1 weeks;\n    // The fee period must be between 1 day and 60 days.\n    uint public constant MIN_FEE_PERIOD_DURATION = 1 days;\n    uint public constant MAX_FEE_PERIOD_DURATION = 60 days;\n\n    // Users receive penalties if their collateralisation ratio drifts out of our desired brackets\n    // We precompute the brackets and penalties to save gas.\n    uint constant TWENTY_PERCENT = (20 * SafeDecimalMath.unit()) / 100;\n    uint constant TWENTY_TWO_PERCENT = (22 * SafeDecimalMath.unit()) / 100;\n    uint constant TWENTY_FIVE_PERCENT = (25 * SafeDecimalMath.unit()) / 100;\n    uint constant THIRTY_PERCENT = (30 * SafeDecimalMath.unit()) / 100;\n    uint constant FOURTY_PERCENT = (40 * SafeDecimalMath.unit()) / 100;\n    uint constant FIFTY_PERCENT = (50 * SafeDecimalMath.unit()) / 100;\n    uint constant SEVENTY_FIVE_PERCENT = (75 * SafeDecimalMath.unit()) / 100;\n    uint constant NINETY_PERCENT = (90 * SafeDecimalMath.unit()) / 100;\n    uint constant ONE_HUNDRED_PERCENT = (100 * SafeDecimalMath.unit()) / 100;\n\n    /* ========== ETERNAL STORAGE CONSTANTS ========== */\n\n    bytes32 constant LAST_FEE_WITHDRAWAL = \"last_fee_withdrawal\";\n\n    constructor(\n        address _proxy,\n        address _owner,\n        Synthetix _synthetix,\n        FeePoolState _feePoolState,\n        FeePoolEternalStorage _feePoolEternalStorage,\n        ISynthetixState _synthetixState,\n        ISynthetixEscrow _rewardEscrow,\n        address _feeAuthority,\n        uint _transferFeeRate,\n        uint _exchangeFeeRate)\n        SelfDestructible(_owner)\n        Proxyable(_proxy, _owner)\n        LimitedSetup(3 weeks)\n        public\n    {\n        // Constructed fee rates should respect the maximum fee rates.\n        require(_transferFeeRate <= MAX_TRANSFER_FEE_RATE, \"Constructed transfer fee rate should respect the maximum fee rate\");\n        require(_exchangeFeeRate <= MAX_EXCHANGE_FEE_RATE, \"Constructed exchange fee rate should respect the maximum fee rate\");\n\n        synthetix = _synthetix;\n        feePoolState = _feePoolState;\n        feePoolEternalStorage = _feePoolEternalStorage;\n        rewardEscrow = _rewardEscrow;\n        synthetixState = _synthetixState;\n        feeAuthority = _feeAuthority;\n        transferFeeRate = _transferFeeRate;\n        exchangeFeeRate = _exchangeFeeRate;\n\n        // Set our initial fee period\n        recentFeePeriods[0].feePeriodId = 1;\n        recentFeePeriods[0].startTime = now;\n    }\n\n    /**\n     * @notice Logs an accounts issuance data per fee period\n     * @param account Message.Senders account address\n     * @param debtRatio Debt percentage this account has locked after minting or burning their synth\n     * @param debtEntryIndex The index in the global debt ledger. synthetix.synthetixState().issuanceData(account)\n     * @dev onlySynthetix to call me on synthetix.issue() & synthetix.burn() calls to store the locked SNX\n     * per fee period so we know to allocate the correct proportions of fees and rewards per period\n     */\n    function appendAccountIssuanceRecord(address account, uint debtRatio, uint debtEntryIndex)\n        external\n        onlySynthetix\n    {\n        feePoolState.appendAccountIssuanceRecord(account, debtRatio, debtEntryIndex, recentFeePeriods[0].startingDebtIndex);\n\n        emitIssuanceDebtRatioEntry(account, debtRatio, debtEntryIndex, recentFeePeriods[0].startingDebtIndex);\n    }\n\n    /**\n     * @notice Set the exchange fee, anywhere within the range 0-10%.\n     * @dev The fee rate is in decimal format, with UNIT being the value of 100%.\n     */\n    function setExchangeFeeRate(uint _exchangeFeeRate)\n        external\n        optionalProxy_onlyOwner\n    {\n        require(_exchangeFeeRate <= MAX_EXCHANGE_FEE_RATE, \"Exchange fee rate must be below MAX_EXCHANGE_FEE_RATE\");\n\n        exchangeFeeRate = _exchangeFeeRate;\n\n        emitExchangeFeeUpdated(_exchangeFeeRate);\n    }\n\n    /**\n     * @notice Set the transfer fee, anywhere within the range 0-10%.\n     * @dev The fee rate is in decimal format, with UNIT being the value of 100%.\n     */\n    function setTransferFeeRate(uint _transferFeeRate)\n        external\n        optionalProxy_onlyOwner\n    {\n        require(_transferFeeRate <= MAX_TRANSFER_FEE_RATE, \"Transfer fee rate must be below MAX_TRANSFER_FEE_RATE\");\n\n        transferFeeRate = _transferFeeRate;\n\n        emitTransferFeeUpdated(_transferFeeRate);\n    }\n\n    /**\n     * @notice Set the address of the user/contract responsible for collecting or\n     * distributing fees.\n     */\n    function setFeeAuthority(address _feeAuthority)\n        external\n        optionalProxy_onlyOwner\n    {\n        feeAuthority = _feeAuthority;\n\n        emitFeeAuthorityUpdated(_feeAuthority);\n    }\n\n    /**\n     * @notice Set the address of the contract for feePool state\n     */\n    function setFeePoolState(FeePoolState _feePoolState)\n        external\n        optionalProxy_onlyOwner\n    {\n        feePoolState = _feePoolState;\n\n        emitFeePoolStateUpdated(_feePoolState);\n    }\n\n    /**\n     * @notice Set the address of the contract for delegate approvals\n     */\n    function setDelegateApprovals(DelegateApprovals _delegates)\n        external\n        optionalProxy_onlyOwner\n    {\n        delegates = _delegates;\n\n        emitDelegateApprovalsUpdated(_delegates);\n    }\n\n    /**\n     * @notice Set the fee period duration\n     */\n    function setFeePeriodDuration(uint _feePeriodDuration)\n        external\n        optionalProxy_onlyOwner\n    {\n        require(_feePeriodDuration >= MIN_FEE_PERIOD_DURATION, \"New fee period cannot be less than minimum fee period duration\");\n        require(_feePeriodDuration <= MAX_FEE_PERIOD_DURATION, \"New fee period cannot be greater than maximum fee period duration\");\n\n        feePeriodDuration = _feePeriodDuration;\n\n        emitFeePeriodDurationUpdated(_feePeriodDuration);\n    }\n\n    /**\n     * @notice Set the synthetix contract\n     */\n    function setSynthetix(Synthetix _synthetix)\n        external\n        optionalProxy_onlyOwner\n    {\n        require(address(_synthetix) != address(0), \"New Synthetix must be non-zero\");\n\n        synthetix = _synthetix;\n\n        emitSynthetixUpdated(_synthetix);\n    }\n\n    /**\n     * @notice The Synthetix contract informs us when fees are paid.\n     */\n    function feePaid(bytes4 currencyKey, uint amount)\n        external\n        onlySynthetix\n    {\n        uint xdrAmount;\n\n        if (currencyKey != \"XDR\") {\n            xdrAmount = synthetix.effectiveValue(currencyKey, amount, \"XDR\");\n        } else {\n            xdrAmount = amount;\n        }\n\n        // Keep track of in XDRs in our fee pool.\n        recentFeePeriods[0].feesToDistribute = recentFeePeriods[0].feesToDistribute.add(xdrAmount);\n    }\n\n    /**\n     * @notice The Synthetix contract informs us when SNX Rewards are minted to RewardEscrow to be claimed.\n     */\n    function rewardsMinted(uint amount)\n        external\n        onlySynthetix\n    {\n        // Add the newly minted SNX rewards on top of the rolling unclaimed amount\n        recentFeePeriods[0].rewardsToDistribute = recentFeePeriods[0].rewardsToDistribute.add(amount);\n    }\n\n    /**\n     * @notice Close the current fee period and start a new one. Only callable by the fee authority.\n     */\n    function closeCurrentFeePeriod()\n        external\n        optionalProxy_onlyFeeAuthority\n    {\n        require(recentFeePeriods[0].startTime <= (now - feePeriodDuration), \"It is too early to close the current fee period\");\n\n        FeePeriod memory secondLastFeePeriod = recentFeePeriods[FEE_PERIOD_LENGTH - 2];\n        FeePeriod memory lastFeePeriod = recentFeePeriods[FEE_PERIOD_LENGTH - 1];\n\n        // Any unclaimed fees from the last period in the array roll back one period.\n        // Because of the subtraction here, they're effectively proportionally redistributed to those who\n        // have already claimed from the old period, available in the new period.\n        // The subtraction is important so we don't create a ticking time bomb of an ever growing\n        // number of fees that can never decrease and will eventually overflow at the end of the fee pool.\n        recentFeePeriods[FEE_PERIOD_LENGTH - 2].feesToDistribute = lastFeePeriod.feesToDistribute\n            .sub(lastFeePeriod.feesClaimed)\n            .add(secondLastFeePeriod.feesToDistribute);\n        recentFeePeriods[FEE_PERIOD_LENGTH - 2].rewardsToDistribute = lastFeePeriod.rewardsToDistribute\n            .sub(lastFeePeriod.rewardsClaimed)\n            .add(secondLastFeePeriod.rewardsToDistribute);\n\n        // Shift the previous fee periods across to make room for the new one.\n        // Condition checks for overflow when uint subtracts one from zero\n        // Could be written with int instead of uint, but then we have to convert everywhere\n        // so it felt better from a gas perspective to just change the condition to check\n        // for overflow after subtracting one from zero.\n        for (uint i = FEE_PERIOD_LENGTH - 2; i < FEE_PERIOD_LENGTH; i--) {\n            uint next = i + 1;\n            recentFeePeriods[next].feePeriodId = recentFeePeriods[i].feePeriodId;\n            recentFeePeriods[next].startingDebtIndex = recentFeePeriods[i].startingDebtIndex;\n            recentFeePeriods[next].startTime = recentFeePeriods[i].startTime;\n            recentFeePeriods[next].feesToDistribute = recentFeePeriods[i].feesToDistribute;\n            recentFeePeriods[next].feesClaimed = recentFeePeriods[i].feesClaimed;\n            recentFeePeriods[next].rewardsToDistribute = recentFeePeriods[i].rewardsToDistribute;\n            recentFeePeriods[next].rewardsClaimed = recentFeePeriods[i].rewardsClaimed;\n        }\n\n        // Clear the first element of the array to make sure we don't have any stale values.\n        delete recentFeePeriods[0];\n\n        // Open up the new fee period. Take a snapshot of the total value of the system.\n        // Increment periodId from the recent closed period feePeriodId\n        recentFeePeriods[0].feePeriodId = recentFeePeriods[1].feePeriodId.add(1);\n        recentFeePeriods[0].startingDebtIndex = synthetixState.debtLedgerLength();\n        recentFeePeriods[0].startTime = now;\n\n        emitFeePeriodClosed(recentFeePeriods[1].feePeriodId);\n    }\n\n    /**\n    * @notice Claim fees for last period when available or not already withdrawn.\n    * @param currencyKey Synth currency you wish to receive the fees in.\n    */\n    function claimFees(bytes4 currencyKey)\n        external\n        optionalProxy\n        returns (bool)\n    {\n        return _claimFees(messageSender, currencyKey);\n    }\n\n    function claimOnBehalf(address claimingForAddress, bytes4 currencyKey)\n        external\n        optionalProxy\n        returns (bool)\n    {\n        require(delegates.approval(claimingForAddress, messageSender), \"Not approved to claim on behalf this address\");\n\n        return _claimFees(claimingForAddress, currencyKey);\n    }\n\n    function _claimFees(address claimingAddress, bytes4 currencyKey)\n        internal\n        returns (bool)\n    {\n        uint availableFees;\n        uint availableRewards;\n        (availableFees, availableRewards) = feesAvailable(claimingAddress, \"XDR\");\n\n        require(availableFees > 0 || availableRewards > 0, \"No fees or rewards available for period, or fees already claimed\");\n\n        _setLastFeeWithdrawal(claimingAddress, recentFeePeriods[1].feePeriodId);\n\n        if (availableFees > 0) {\n            // Record the fee payment in our recentFeePeriods\n            uint feesPaid = _recordFeePayment(availableFees);\n\n            // Send them their fees\n            _payFees(claimingAddress, feesPaid, currencyKey);\n\n            emitFeesClaimed(claimingAddress, feesPaid);\n        }\n\n        if (availableRewards > 0) {\n            // Record the reward payment in our recentFeePeriods\n            uint rewardPaid = _recordRewardPayment(availableRewards);\n\n            // Send them their rewards\n            _payRewards(claimingAddress, rewardPaid);\n\n            emitRewardsClaimed(claimingAddress, rewardPaid);\n        }\n\n        return true;\n    }\n\n    function importFeePeriod(\n        uint feePeriodIndex, uint feePeriodId, uint startingDebtIndex, uint startTime,\n        uint feesToDistribute, uint feesClaimed, uint rewardsToDistribute, uint rewardsClaimed)\n        public\n        optionalProxy_onlyOwner\n        onlyDuringSetup\n    {\n        recentFeePeriods[feePeriodIndex].feePeriodId = feePeriodId;\n        recentFeePeriods[feePeriodIndex].startingDebtIndex = startingDebtIndex;\n        recentFeePeriods[feePeriodIndex].startTime = startTime;\n        recentFeePeriods[feePeriodIndex].feesToDistribute = feesToDistribute;\n        recentFeePeriods[feePeriodIndex].feesClaimed = feesClaimed;\n        recentFeePeriods[feePeriodIndex].rewardsToDistribute = rewardsToDistribute;\n        recentFeePeriods[feePeriodIndex].rewardsClaimed = rewardsClaimed;\n    }\n\n    function approveClaimOnBehalf(address account)\n        public\n        optionalProxy\n    {\n        require(delegates != address(0), \"Delegates Approval destination missing\");\n        require(account != address(0), \"Can't delegate to address(0)\");\n        delegates.setApproval(messageSender, account);\n    }\n\n    function removeClaimOnBehalf(address account)\n        public\n        optionalProxy\n    {\n        require(delegates != address(0), \"Delegates Approval destination missing\");\n        delegates.withdrawApproval(messageSender, account);\n    }\n\n    /**\n     * @notice Record the fee payment in our recentFeePeriods.\n     * @param xdrAmount The amount of fees priced in XDRs.\n     */\n    function _recordFeePayment(uint xdrAmount)\n        internal\n        returns (uint)\n    {\n        // Don't assign to the parameter\n        uint remainingToAllocate = xdrAmount;\n\n        uint feesPaid;\n        // Start at the oldest period and record the amount, moving to newer periods\n        // until we've exhausted the amount.\n        // The condition checks for overflow because we're going to 0 with an unsigned int.\n        for (uint i = FEE_PERIOD_LENGTH - 1; i < FEE_PERIOD_LENGTH; i--) {\n            uint delta = recentFeePeriods[i].feesToDistribute.sub(recentFeePeriods[i].feesClaimed);\n\n            if (delta > 0) {\n                // Take the smaller of the amount left to claim in the period and the amount we need to allocate\n                uint amountInPeriod = delta < remainingToAllocate ? delta : remainingToAllocate;\n\n                recentFeePeriods[i].feesClaimed = recentFeePeriods[i].feesClaimed.add(amountInPeriod);\n                remainingToAllocate = remainingToAllocate.sub(amountInPeriod);\n                feesPaid = feesPaid.add(amountInPeriod);\n\n                // No need to continue iterating if we've recorded the whole amount;\n                if (remainingToAllocate == 0) return feesPaid;\n\n                // We've exhausted feePeriods to distribute and no fees remain in last period\n                // User last to claim would in this scenario have their remainder slashed\n                if (i == 0 && remainingToAllocate > 0) {\n                    remainingToAllocate = 0;\n                }\n            }\n        }\n\n        return feesPaid;\n    }\n\n    /**\n     * @notice Record the reward payment in our recentFeePeriods.\n     * @param snxAmount The amount of SNX tokens.\n     */\n    function _recordRewardPayment(uint snxAmount)\n        internal\n        returns (uint)\n    {\n        // Don't assign to the parameter\n        uint remainingToAllocate = snxAmount;\n\n        uint rewardPaid;\n\n        // Start at the oldest period and record the amount, moving to newer periods\n        // until we've exhausted the amount.\n        // The condition checks for overflow because we're going to 0 with an unsigned int.\n        for (uint i = FEE_PERIOD_LENGTH - 1; i < FEE_PERIOD_LENGTH; i--) {\n            uint toDistribute = recentFeePeriods[i].rewardsToDistribute.sub(recentFeePeriods[i].rewardsClaimed);\n\n            if (toDistribute > 0) {\n                // Take the smaller of the amount left to claim in the period and the amount we need to allocate\n                uint amountInPeriod = toDistribute < remainingToAllocate ? toDistribute : remainingToAllocate;\n\n                recentFeePeriods[i].rewardsClaimed = recentFeePeriods[i].rewardsClaimed.add(amountInPeriod);\n                remainingToAllocate = remainingToAllocate.sub(amountInPeriod);\n                rewardPaid = rewardPaid.add(amountInPeriod);\n\n                // No need to continue iterating if we've recorded the whole amount;\n                if (remainingToAllocate == 0) return rewardPaid;\n\n                // We've exhausted feePeriods to distribute and no rewards remain in last period\n                // User last to claim would in this scenario have their remainder slashed\n                // due to rounding up of PreciseDecimal\n                if (i == 0 && remainingToAllocate > 0) {\n                    remainingToAllocate = 0;\n                }\n            }\n        }\n        return rewardPaid;\n    }\n\n    /**\n    * @notice Send the fees to claiming address.\n    * @param account The address to send the fees to.\n    * @param xdrAmount The amount of fees priced in XDRs.\n    * @param destinationCurrencyKey The synth currency the user wishes to receive their fees in (convert to this currency).\n    */\n    function _payFees(address account, uint xdrAmount, bytes4 destinationCurrencyKey)\n        internal\n        notFeeAddress(account)\n    {\n        require(account != address(0), \"Account can't be 0\");\n        require(account != address(this), \"Can't send fees to fee pool\");\n        require(account != address(proxy), \"Can't send fees to proxy\");\n        require(account != address(synthetix), \"Can't send fees to synthetix\");\n\n        Synth xdrSynth = synthetix.synths(\"XDR\");\n        Synth destinationSynth = synthetix.synths(destinationCurrencyKey);\n\n        // Note: We don't need to check the fee pool balance as the burn() below will do a safe subtraction which requires\n        // the subtraction to not overflow, which would happen if the balance is not sufficient.\n\n        // Burn the source amount\n        xdrSynth.burn(FEE_ADDRESS, xdrAmount);\n\n        // How much should they get in the destination currency?\n        uint destinationAmount = synthetix.effectiveValue(\"XDR\", xdrAmount, destinationCurrencyKey);\n\n        // There's no fee on withdrawing fees, as that'd be way too meta.\n\n        // Mint their new synths\n        destinationSynth.issue(account, destinationAmount);\n\n        // Nothing changes as far as issuance data goes because the total value in the system hasn't changed.\n\n        // Call the ERC223 transfer callback if needed\n        destinationSynth.triggerTokenFallbackIfNeeded(FEE_ADDRESS, account, destinationAmount);\n    }\n\n    /**\n    * @notice Send the rewards to claiming address - will be locked in rewardEscrow.\n    * @param account The address to send the fees to.\n    * @param snxAmount The amount of SNX.\n    */\n    function _payRewards(address account, uint snxAmount)\n        internal\n        notFeeAddress(account)\n    {\n        require(account != address(0), \"Account can't be 0\");\n        require(account != address(this), \"Can't send rewards to fee pool\");\n        require(account != address(proxy), \"Can't send rewards to proxy\");\n        require(account != address(synthetix), \"Can't send rewards to synthetix\");\n\n        // Record vesting entry for claiming address and amount\n        // SNX already minted to rewardEscrow balance\n        rewardEscrow.appendVestingEntry(account, snxAmount);\n    }\n\n    /**\n     * @notice Calculate the Fee charged on top of a value being sent\n     * @return Return the fee charged\n     */\n    function transferFeeIncurred(uint value)\n        public\n        view\n        returns (uint)\n    {\n        return value.multiplyDecimal(transferFeeRate);\n\n        // Transfers less than the reciprocal of transferFeeRate should be completely eaten up by fees.\n        // This is on the basis that transfers less than this value will result in a nil fee.\n        // Probably too insignificant to worry about, but the following code will achieve it.\n        //      if (fee == 0 && transferFeeRate != 0) {\n        //          return _value;\n        //      }\n        //      return fee;\n    }\n\n    /**\n     * @notice The value that you would need to send so that the recipient receives\n     * a specified value.\n     * @param value The value you want the recipient to receive\n     */\n    function transferredAmountToReceive(uint value)\n        external\n        view\n        returns (uint)\n    {\n        return value.add(transferFeeIncurred(value));\n    }\n\n    /**\n     * @notice The amount the recipient will receive if you send a certain number of tokens.\n     * @param value The amount of tokens you intend to send.\n     */\n    function amountReceivedFromTransfer(uint value)\n        external\n        view\n        returns (uint)\n    {\n        return value.divideDecimal(transferFeeRate.add(SafeDecimalMath.unit()));\n    }\n\n    /**\n     * @notice Calculate the fee charged on top of a value being sent via an exchange\n     * @return Return the fee charged\n     */\n    function exchangeFeeIncurred(uint value)\n        public\n        view\n        returns (uint)\n    {\n        return value.multiplyDecimal(exchangeFeeRate);\n\n        // Exchanges less than the reciprocal of exchangeFeeRate should be completely eaten up by fees.\n        // This is on the basis that exchanges less than this value will result in a nil fee.\n        // Probably too insignificant to worry about, but the following code will achieve it.\n        //      if (fee == 0 && exchangeFeeRate != 0) {\n        //          return _value;\n        //      }\n        //      return fee;\n    }\n\n    /**\n     * @notice The value that you would need to get after currency exchange so that the recipient receives\n     * a specified value.\n     * @param value The value you want the recipient to receive\n     */\n    function exchangedAmountToReceive(uint value)\n        external\n        view\n        returns (uint)\n    {\n        return value.add(exchangeFeeIncurred(value));\n    }\n\n    /**\n     * @notice The amount the recipient will receive if you are performing an exchange and the\n     * destination currency will be worth a certain number of tokens.\n     * @param value The amount of destination currency tokens they received after the exchange.\n     */\n    function amountReceivedFromExchange(uint value)\n        external\n        view\n        returns (uint)\n    {\n        return value.multiplyDecimal(SafeDecimalMath.unit().sub(exchangeFeeRate));\n    }\n\n    /**\n     * @notice The total fees available in the system to be withdrawn, priced in currencyKey currency\n     * @param currencyKey The currency you want to price the fees in\n     */\n    function totalFeesAvailable(bytes4 currencyKey)\n        external\n        view\n        returns (uint)\n    {\n        uint totalFees = 0;\n\n        // Fees in fee period [0] are not yet available for withdrawal\n        for (uint i = 1; i < FEE_PERIOD_LENGTH; i++) {\n            totalFees = totalFees.add(recentFeePeriods[i].feesToDistribute);\n            totalFees = totalFees.sub(recentFeePeriods[i].feesClaimed);\n        }\n\n        return synthetix.effectiveValue(\"XDR\", totalFees, currencyKey);\n    }\n\n    /**\n     * @notice The total SNX rewards available in the system to be withdrawn\n     */\n    function totalRewardsAvailable()\n        external\n        view\n        returns (uint)\n    {\n        uint totalRewards = 0;\n\n        // Rewards in fee period [0] are not yet available for withdrawal\n        for (uint i = 1; i < FEE_PERIOD_LENGTH; i++) {\n            totalRewards = totalRewards.add(recentFeePeriods[i].rewardsToDistribute);\n            totalRewards = totalRewards.sub(recentFeePeriods[i].rewardsClaimed);\n        }\n\n        return totalRewards;\n    }\n\n    /**\n     * @notice The fees available to be withdrawn by a specific account, priced in currencyKey currency\n     * @dev Returns two amounts, one for fees and one for SNX rewards\n     * @param currencyKey The currency you want to price the fees in\n     */\n    function feesAvailable(address account, bytes4 currencyKey)\n        public\n        view\n        returns (uint, uint)\n    {\n        // Add up the fees\n        uint[2][FEE_PERIOD_LENGTH] memory userFees = feesByPeriod(account);\n\n        uint totalFees = 0;\n        uint totalRewards = 0;\n\n        // Fees & Rewards in fee period [0] are not yet available for withdrawal\n        for (uint i = 1; i < FEE_PERIOD_LENGTH; i++) {\n            totalFees = totalFees.add(userFees[i][0]);\n            totalRewards = totalRewards.add(userFees[i][1]);\n        }\n\n        // And convert totalFees to their desired currency\n        // Return totalRewards as is in SNX amount\n        return (\n            synthetix.effectiveValue(\"XDR\", totalFees, currencyKey),\n            totalRewards\n        );\n    }\n\n    /**\n     * @notice The penalty a particular address would incur if its fees were withdrawn right now\n     * @param account The address you want to query the penalty for\n     */\n    function currentPenalty(address account)\n        public\n        view\n        returns (uint)\n    {\n        uint ratio = synthetix.collateralisationRatio(account);\n\n        // Users receive a different amount of fees depending on how their collateralisation ratio looks right now.\n        //  0% < 20% ( - 500%):    Fee is calculated based on percentage of economy issued.\n        // 20% - 22% (500% - 454%):  0% reduction in fees\n        // 22% - 30% (454% - 333%): 25% reduction in fees\n        // 30% - 40% (333% - 250%): 50% reduction in fees\n        // 40% - 50% (250% - 200%): 75% reduction in fees\n        //     > 50% (200% - 100%): 90% reduction in fees\n        //     > 100%(100% -   0%):100% reduction in fees\n        if (ratio <= TWENTY_PERCENT) {\n            return 0;\n        } else if (ratio > TWENTY_PERCENT && ratio <= TWENTY_TWO_PERCENT) {\n            return 0;\n        } else if (ratio > TWENTY_TWO_PERCENT && ratio <= THIRTY_PERCENT) {\n            return TWENTY_FIVE_PERCENT;\n        } else if (ratio > THIRTY_PERCENT && ratio <= FOURTY_PERCENT) {\n            return FIFTY_PERCENT;\n        } else if (ratio > FOURTY_PERCENT && ratio <= FIFTY_PERCENT) {\n            return SEVENTY_FIVE_PERCENT;\n        } else if (ratio > FIFTY_PERCENT && ratio <= ONE_HUNDRED_PERCENT) {\n            return NINETY_PERCENT;\n        }\n        return ONE_HUNDRED_PERCENT;\n    }\n\n    /**\n     * @notice Calculates fees by period for an account, priced in XDRs\n     * @param account The address you want to query the fees by penalty for\n     */\n    function feesByPeriod(address account)\n        public\n        view\n        returns (uint[2][FEE_PERIOD_LENGTH] memory results)\n    {\n        // What's the user's debt entry index and the debt they owe to the system at current feePeriod\n        uint userOwnershipPercentage;\n        uint debtEntryIndex;\n        (userOwnershipPercentage, debtEntryIndex) = feePoolState.getAccountsDebtEntry(account, 0);\n\n        // If they don't have any debt ownership and they haven't minted, they don't have any fees\n        if (debtEntryIndex == 0 && userOwnershipPercentage == 0) return;\n\n        // If there are no XDR synths, then they don't have any fees\n        if (synthetix.totalIssuedSynths(\"XDR\") == 0) return;\n\n        uint penalty = currentPenalty(account);\n\n        // The [0] fee period is not yet ready to claim, but it is a fee period that they can have\n        // fees owing for, so we need to report on it anyway.\n        uint feesFromPeriod;\n        uint rewardsFromPeriod;\n        (feesFromPeriod, rewardsFromPeriod) = _feesAndRewardsFromPeriod(0, userOwnershipPercentage, debtEntryIndex, penalty);\n\n        results[0][0] = feesFromPeriod;\n        results[0][1] = rewardsFromPeriod;\n\n        // Go through our fee periods from the oldest feePeriod[FEE_PERIOD_LENGTH - 1] and figure out what we owe them.\n        // Condition checks for periods > 0\n        for (uint i = FEE_PERIOD_LENGTH - 1; i > 0; i--) {\n            uint next = i - 1;\n            FeePeriod memory nextPeriod = recentFeePeriods[next];\n\n            // We can skip period if no debt minted during period\n            if (nextPeriod.startingDebtIndex > 0 &&\n            getLastFeeWithdrawal(account) < recentFeePeriods[i].feePeriodId) {\n\n                // We calculate a feePeriod's closingDebtIndex by looking at the next feePeriod's startingDebtIndex\n                // we can use the most recent issuanceData[0] for the current feePeriod\n                // else find the applicableIssuanceData for the feePeriod based on the StartingDebtIndex of the period\n                uint closingDebtIndex = nextPeriod.startingDebtIndex.sub(1);\n\n                // Gas optimisation - to reuse debtEntryIndex if found new applicable one\n                // if applicable is 0,0 (none found) we keep most recent one from issuanceData[0]\n                // return if userOwnershipPercentage = 0)\n                (userOwnershipPercentage, debtEntryIndex) = feePoolState.applicableIssuanceData(account, closingDebtIndex);\n\n                (feesFromPeriod, rewardsFromPeriod) = _feesAndRewardsFromPeriod(i, userOwnershipPercentage, debtEntryIndex, penalty);\n\n                results[i][0] = feesFromPeriod;\n                results[i][1] = rewardsFromPeriod;\n            }\n        }\n    }\n\n    /**\n     * @notice ownershipPercentage is a high precision decimals uint based on\n     * wallet's debtPercentage. Gives a precise amount of the feesToDistribute\n     * for fees in the period. Precision factor is removed before results are\n     * returned.\n     */\n    function _feesAndRewardsFromPeriod(uint period, uint ownershipPercentage, uint debtEntryIndex, uint penalty)\n        internal\n        returns (uint, uint)\n    {\n        // If it's zero, they haven't issued, and they have no fees OR rewards.\n        if (ownershipPercentage == 0) return (0, 0);\n\n        uint debtOwnershipForPeriod = ownershipPercentage;\n\n        // If period has closed we want to calculate debtPercentage for the period\n        if (period > 0) {\n            uint closingDebtIndex = recentFeePeriods[period - 1].startingDebtIndex.sub(1);\n            debtOwnershipForPeriod = _effectiveDebtRatioForPeriod(closingDebtIndex, ownershipPercentage, debtEntryIndex);\n        }\n\n        // Calculate their percentage of the fees / rewards in this period\n        // This is a high precision integer.\n        uint feesFromPeriodWithoutPenalty = recentFeePeriods[period].feesToDistribute\n            .multiplyDecimal(debtOwnershipForPeriod);\n\n        uint rewardsFromPeriodWithoutPenalty = recentFeePeriods[period].rewardsToDistribute\n            .multiplyDecimal(debtOwnershipForPeriod);\n\n        // Less their penalty if they have one.\n        uint feesFromPeriod = feesFromPeriodWithoutPenalty.sub(feesFromPeriodWithoutPenalty.multiplyDecimal(penalty));\n\n        uint rewardsFromPeriod = rewardsFromPeriodWithoutPenalty.sub(rewardsFromPeriodWithoutPenalty.multiplyDecimal(penalty));\n\n        return (\n            feesFromPeriod.preciseDecimalToDecimal(),\n            rewardsFromPeriod.preciseDecimalToDecimal()\n        );\n    }\n\n    function _effectiveDebtRatioForPeriod(uint closingDebtIndex, uint ownershipPercentage, uint debtEntryIndex)\n        internal\n        view\n        returns (uint)\n    {\n        // Condition to check if debtLedger[] has value otherwise return 0\n        if (closingDebtIndex > synthetixState.debtLedgerLength()) return 0;\n\n        // Figure out their global debt percentage delta at end of fee Period.\n        // This is a high precision integer.\n        uint feePeriodDebtOwnership = synthetixState.debtLedger(closingDebtIndex)\n            .divideDecimalRoundPrecise(synthetixState.debtLedger(debtEntryIndex))\n            .multiplyDecimalRoundPrecise(ownershipPercentage);\n\n        return feePeriodDebtOwnership;\n    }\n\n    function effectiveDebtRatioForPeriod(address account, uint period)\n        external\n        view\n        returns (uint)\n    {\n        require(period != 0, \"Current period has not closed yet\");\n        require(period < FEE_PERIOD_LENGTH, \"Period exceeds the FEE_PERIOD_LENGTH\");\n\n        // No debt minted during period as next period starts at 0\n        if (recentFeePeriods[period - 1].startingDebtIndex == 0) return;\n\n        uint closingDebtIndex = recentFeePeriods[period - 1].startingDebtIndex.sub(1);\n\n        uint ownershipPercentage;\n        uint debtEntryIndex;\n        (ownershipPercentage, debtEntryIndex) = feePoolState.applicableIssuanceData(account, closingDebtIndex);\n\n        // internal function will check closingDebtIndex has corresponding debtLedger entry\n        return _effectiveDebtRatioForPeriod(closingDebtIndex, ownershipPercentage, debtEntryIndex);\n    }\n\n    /**\n     * @notice Get the feePeriodID of the last claim this account made\n     * @param _claimingAddress account to check the last fee period ID claim for\n     * @return uint of the feePeriodID this account last claimed\n     */\n    function getLastFeeWithdrawal(address _claimingAddress)\n        public\n        view\n        returns (uint)\n    {\n        return feePoolEternalStorage.getUIntValue(keccak256(abi.encodePacked(LAST_FEE_WITHDRAWAL, _claimingAddress)));\n    }\n\n    /**\n     * @notice Set the feePeriodID of the last claim this account made\n     * @param _claimingAddress account to set the last feePeriodID claim for\n     * @param _feePeriodID the feePeriodID this account claimed fees for\n     */\n    function _setLastFeeWithdrawal(address _claimingAddress, uint _feePeriodID)\n        internal\n    {\n        feePoolEternalStorage.setUIntValue(keccak256(abi.encodePacked(LAST_FEE_WITHDRAWAL, _claimingAddress)), _feePeriodID);\n    }\n\n    /* ========== Modifiers ========== */\n\n    modifier optionalProxy_onlyFeeAuthority\n    {\n        if (Proxy(msg.sender) != proxy) {\n            messageSender = msg.sender;\n        }\n        require(msg.sender == feeAuthority, \"Only the fee authority can perform this action\");\n        _;\n    }\n\n    modifier onlySynthetix\n    {\n        require(msg.sender == address(synthetix), \"Only the synthetix contract can perform this action\");\n        _;\n    }\n\n    modifier notFeeAddress(address account) {\n        require(account != FEE_ADDRESS, \"Fee address not allowed\");\n        _;\n    }\n\n    /* ========== Events ========== */\n\n    event IssuanceDebtRatioEntry(address indexed account, uint debtRatio, uint debtEntryIndex, uint feePeriodStartingDebtIndex);\n    bytes32 constant ISSUANCEDEBTRATIOENTRY_SIG = keccak256(\"IssuanceDebtRatioEntry(address,uint256,uint256,uint256)\");\n    function emitIssuanceDebtRatioEntry(address account, uint debtRatio, uint debtEntryIndex, uint feePeriodStartingDebtIndex) internal {\n        proxy._emit(abi.encode(debtRatio, debtEntryIndex, feePeriodStartingDebtIndex), 2, ISSUANCEDEBTRATIOENTRY_SIG, bytes32(account), 0, 0);\n    }\n\n    event TransferFeeUpdated(uint newFeeRate);\n    bytes32 constant TRANSFERFEEUPDATED_SIG = keccak256(\"TransferFeeUpdated(uint256)\");\n    function emitTransferFeeUpdated(uint newFeeRate) internal {\n        proxy._emit(abi.encode(newFeeRate), 1, TRANSFERFEEUPDATED_SIG, 0, 0, 0);\n    }\n\n    event ExchangeFeeUpdated(uint newFeeRate);\n    bytes32 constant EXCHANGEFEEUPDATED_SIG = keccak256(\"ExchangeFeeUpdated(uint256)\");\n    function emitExchangeFeeUpdated(uint newFeeRate) internal {\n        proxy._emit(abi.encode(newFeeRate), 1, EXCHANGEFEEUPDATED_SIG, 0, 0, 0);\n    }\n\n    event FeePeriodDurationUpdated(uint newFeePeriodDuration);\n    bytes32 constant FEEPERIODDURATIONUPDATED_SIG = keccak256(\"FeePeriodDurationUpdated(uint256)\");\n    function emitFeePeriodDurationUpdated(uint newFeePeriodDuration) internal {\n        proxy._emit(abi.encode(newFeePeriodDuration), 1, FEEPERIODDURATIONUPDATED_SIG, 0, 0, 0);\n    }\n\n    event FeeAuthorityUpdated(address newFeeAuthority);\n    bytes32 constant FEEAUTHORITYUPDATED_SIG = keccak256(\"FeeAuthorityUpdated(address)\");\n    function emitFeeAuthorityUpdated(address newFeeAuthority) internal {\n        proxy._emit(abi.encode(newFeeAuthority), 1, FEEAUTHORITYUPDATED_SIG, 0, 0, 0);\n    }\n\n    event FeePoolStateUpdated(address newFeePoolState);\n    bytes32 constant FEEPOOLSTATEUPDATED_SIG = keccak256(\"FeePoolStateUpdated(address)\");\n    function emitFeePoolStateUpdated(address newFeePoolState) internal {\n        proxy._emit(abi.encode(newFeePoolState), 1, FEEPOOLSTATEUPDATED_SIG, 0, 0, 0);\n    }\n\n    event DelegateApprovalsUpdated(address newDelegateApprovals);\n    bytes32 constant DELEGATEAPPROVALSUPDATED_SIG = keccak256(\"DelegateApprovalsUpdated(address)\");\n    function emitDelegateApprovalsUpdated(address newDelegateApprovals) internal {\n        proxy._emit(abi.encode(newDelegateApprovals), 1, DELEGATEAPPROVALSUPDATED_SIG, 0, 0, 0);\n    }\n\n    event FeePeriodClosed(uint feePeriodId);\n    bytes32 constant FEEPERIODCLOSED_SIG = keccak256(\"FeePeriodClosed(uint256)\");\n    function emitFeePeriodClosed(uint feePeriodId) internal {\n        proxy._emit(abi.encode(feePeriodId), 1, FEEPERIODCLOSED_SIG, 0, 0, 0);\n    }\n\n    event FeesClaimed(address account, uint xdrAmount);\n    bytes32 constant FEESCLAIMED_SIG = keccak256(\"FeesClaimed(address,uint256)\");\n    function emitFeesClaimed(address account, uint xdrAmount) internal {\n        proxy._emit(abi.encode(account, xdrAmount), 1, FEESCLAIMED_SIG, 0, 0, 0);\n    }\n\n    event RewardsClaimed(address account, uint snxAmount);\n    bytes32 constant REWARDSCLAIMED_SIG = keccak256(\"RewardsClaimed(address,uint256)\");\n    function emitRewardsClaimed(address account, uint snxAmount) internal {\n        proxy._emit(abi.encode(account, snxAmount), 1, REWARDSCLAIMED_SIG, 0, 0, 0);\n    }\n\n    event SynthetixUpdated(address newSynthetix);\n    bytes32 constant SYNTHETIXUPDATED_SIG = keccak256(\"SynthetixUpdated(address)\");\n    function emitSynthetixUpdated(address newSynthetix) internal {\n        proxy._emit(abi.encode(newSynthetix), 1, SYNTHETIXUPDATED_SIG, 0, 0, 0);\n    }\n}\n",
  "sourcePath": "/Users/mathew/workspace/quantal/test/test-projects/synthetix/contracts/FeePool.sol",
  "compiler": {
    "name": "solc",
    "version": "0.4.25+commit.59dbf8f1.Emscripten.clang"
  },
  "schemaVersion": "3.0.6",
  "updatedAt": "2019-08-12T22:49:05.693Z",
  "devdoc": {
    "methods": {
      "amountReceivedFromExchange(uint256)": {
        "params": {
          "value": "The amount of destination currency tokens they received after the exchange."
        }
      },
      "amountReceivedFromTransfer(uint256)": {
        "params": {
          "value": "The amount of tokens you intend to send."
        }
      },
      "appendAccountIssuanceRecord(address,uint256,uint256)": {
        "details": "onlySynthetix to call me on synthetix.issue() & synthetix.burn() calls to store the locked SNX per fee period so we know to allocate the correct proportions of fees and rewards per period",
        "params": {
          "account": "Message.Senders account address",
          "debtEntryIndex": "The index in the global debt ledger. synthetix.synthetixState().issuanceData(account)",
          "debtRatio": "Debt percentage this account has locked after minting or burning their synth"
        }
      },
      "claimFees(bytes4)": {
        "params": {
          "currencyKey": "Synth currency you wish to receive the fees in."
        }
      },
      "currentPenalty(address)": {
        "params": {
          "account": "The address you want to query the penalty for"
        }
      },
      "exchangeFeeIncurred(uint256)": {
        "return": "Return the fee charged"
      },
      "exchangedAmountToReceive(uint256)": {
        "params": {
          "value": "The value you want the recipient to receive"
        }
      },
      "feesAvailable(address,bytes4)": {
        "details": "Returns two amounts, one for fees and one for SNX rewards",
        "params": {
          "currencyKey": "The currency you want to price the fees in"
        }
      },
      "feesByPeriod(address)": {
        "params": {
          "account": "The address you want to query the fees by penalty for"
        }
      },
      "getLastFeeWithdrawal(address)": {
        "params": {
          "_claimingAddress": "account to check the last fee period ID claim for"
        },
        "return": "uint of the feePeriodID this account last claimed"
      },
      "initiateSelfDestruct()": {
        "details": "Only the contract owner may call this."
      },
      "nominateNewOwner(address)": {
        "details": "Only the current owner may nominate a new owner."
      },
      "selfDestruct()": {
        "details": "Only the contract owner may call this."
      },
      "setExchangeFeeRate(uint256)": {
        "details": "The fee rate is in decimal format, with UNIT being the value of 100%."
      },
      "setSelfDestructBeneficiary(address)": {
        "details": "Only the contract owner may call this. The provided beneficiary must be non-null.",
        "params": {
          "_beneficiary": "The address to pay any eth contained in this contract to upon self-destruction."
        }
      },
      "setTransferFeeRate(uint256)": {
        "details": "The fee rate is in decimal format, with UNIT being the value of 100%."
      },
      "terminateSelfDestruct()": {
        "details": "Only the contract owner may call this."
      },
      "totalFeesAvailable(bytes4)": {
        "params": {
          "currencyKey": "The currency you want to price the fees in"
        }
      },
      "transferFeeIncurred(uint256)": {
        "return": "Return the fee charged"
      },
      "transferredAmountToReceive(uint256)": {
        "params": {
          "value": "The value you want the recipient to receive"
        }
      }
    }
  },
  "userdoc": {
    "methods": {
      "acceptOwnership()": {
        "notice": "Accept the nomination to be owner."
      },
      "amountReceivedFromExchange(uint256)": {
        "notice": "The amount the recipient will receive if you are performing an exchange and the destination currency will be worth a certain number of tokens."
      },
      "amountReceivedFromTransfer(uint256)": {
        "notice": "The amount the recipient will receive if you send a certain number of tokens."
      },
      "appendAccountIssuanceRecord(address,uint256,uint256)": {
        "notice": "Logs an accounts issuance data per fee period"
      },
      "claimFees(bytes4)": {
        "notice": "Claim fees for last period when available or not already withdrawn."
      },
      "closeCurrentFeePeriod()": {
        "notice": "Close the current fee period and start a new one. Only callable by the fee authority."
      },
      "currentPenalty(address)": {
        "notice": "The penalty a particular address would incur if its fees were withdrawn right now"
      },
      "exchangeFeeIncurred(uint256)": {
        "notice": "Calculate the fee charged on top of a value being sent via an exchange"
      },
      "exchangedAmountToReceive(uint256)": {
        "notice": "The value that you would need to get after currency exchange so that the recipient receives a specified value."
      },
      "feePaid(bytes4,uint256)": {
        "notice": "The Synthetix contract informs us when fees are paid."
      },
      "feesAvailable(address,bytes4)": {
        "notice": "The fees available to be withdrawn by a specific account, priced in currencyKey currency"
      },
      "feesByPeriod(address)": {
        "notice": "Calculates fees by period for an account, priced in XDRs"
      },
      "getLastFeeWithdrawal(address)": {
        "notice": "Get the feePeriodID of the last claim this account made"
      },
      "initiateSelfDestruct()": {
        "notice": "Begin the self-destruction counter of this contract. Once the delay has elapsed, the contract may be self-destructed."
      },
      "nominateNewOwner(address)": {
        "notice": "Nominate a new owner of this contract."
      },
      "rewardsMinted(uint256)": {
        "notice": "The Synthetix contract informs us when SNX Rewards are minted to RewardEscrow to be claimed."
      },
      "selfDestruct()": {
        "notice": "If the self-destruction delay has elapsed, destroy this contract and remit any ether it owns to the beneficiary address."
      },
      "setDelegateApprovals(address)": {
        "notice": "Set the address of the contract for delegate approvals"
      },
      "setExchangeFeeRate(uint256)": {
        "notice": "Set the exchange fee, anywhere within the range 0-10%."
      },
      "setFeeAuthority(address)": {
        "notice": "Set the address of the user/contract responsible for collecting or distributing fees."
      },
      "setFeePeriodDuration(uint256)": {
        "notice": "Set the fee period duration"
      },
      "setFeePoolState(address)": {
        "notice": "Set the address of the contract for feePool state"
      },
      "setSelfDestructBeneficiary(address)": {
        "notice": "Set the beneficiary address of this contract."
      },
      "setSynthetix(address)": {
        "notice": "Set the synthetix contract"
      },
      "setTransferFeeRate(uint256)": {
        "notice": "Set the transfer fee, anywhere within the range 0-10%."
      },
      "terminateSelfDestruct()": {
        "notice": "Terminate and reset the self-destruction timer."
      },
      "totalFeesAvailable(bytes4)": {
        "notice": "The total fees available in the system to be withdrawn, priced in currencyKey currency"
      },
      "totalRewardsAvailable()": {
        "notice": "The total SNX rewards available in the system to be withdrawn"
      },
      "transferFeeIncurred(uint256)": {
        "notice": "Calculate the Fee charged on top of a value being sent"
      },
      "transferredAmountToReceive(uint256)": {
        "notice": "The value that you would need to send so that the recipient receives a specified value."
      }
    }
  }
}