{
  "contractName": "FeePoolEternalStorage",
  "abi": [
    {
      "constant": true,
      "inputs": [
        {
          "name": "record",
          "type": "bytes32"
        }
      ],
      "name": "getBytes32Value",
      "outputs": [
        {
          "name": "",
          "type": "bytes32"
        }
      ],
      "payable": false,
      "stateMutability": "view",
      "type": "function"
    },
    {
      "constant": false,
      "inputs": [
        {
          "name": "record",
          "type": "bytes32"
        }
      ],
      "name": "deleteAddressValue",
      "outputs": [],
      "payable": false,
      "stateMutability": "nonpayable",
      "type": "function"
    },
    {
      "constant": false,
      "inputs": [
        {
          "name": "record",
          "type": "bytes32"
        }
      ],
      "name": "deleteBytesValue",
      "outputs": [],
      "payable": false,
      "stateMutability": "nonpayable",
      "type": "function"
    },
    {
      "constant": false,
      "inputs": [
        {
          "name": "record",
          "type": "bytes32"
        }
      ],
      "name": "deleteBytes32Value",
      "outputs": [],
      "payable": false,
      "stateMutability": "nonpayable",
      "type": "function"
    },
    {
      "constant": false,
      "inputs": [
        {
          "name": "_owner",
          "type": "address"
        }
      ],
      "name": "nominateNewOwner",
      "outputs": [],
      "payable": false,
      "stateMutability": "nonpayable",
      "type": "function"
    },
    {
      "constant": true,
      "inputs": [
        {
          "name": "record",
          "type": "bytes32"
        }
      ],
      "name": "getBooleanValue",
      "outputs": [
        {
          "name": "",
          "type": "bool"
        }
      ],
      "payable": false,
      "stateMutability": "view",
      "type": "function"
    },
    {
      "constant": false,
      "inputs": [
        {
          "name": "record",
          "type": "bytes32"
        },
        {
          "name": "value",
          "type": "bytes32"
        }
      ],
      "name": "setBytes32Value",
      "outputs": [],
      "payable": false,
      "stateMutability": "nonpayable",
      "type": "function"
    },
    {
      "constant": false,
      "inputs": [
        {
          "name": "record",
          "type": "bytes32"
        },
        {
          "name": "value",
          "type": "uint256"
        }
      ],
      "name": "setUIntValue",
      "outputs": [],
      "payable": false,
      "stateMutability": "nonpayable",
      "type": "function"
    },
    {
      "constant": false,
      "inputs": [
        {
          "name": "record",
          "type": "bytes32"
        }
      ],
      "name": "deleteBooleanValue",
      "outputs": [],
      "payable": false,
      "stateMutability": "nonpayable",
      "type": "function"
    },
    {
      "constant": false,
      "inputs": [
        {
          "name": "record",
          "type": "bytes32"
        },
        {
          "name": "value",
          "type": "bool"
        }
      ],
      "name": "setBooleanValue",
      "outputs": [],
      "payable": false,
      "stateMutability": "nonpayable",
      "type": "function"
    },
    {
      "constant": true,
      "inputs": [
        {
          "name": "record",
          "type": "bytes32"
        }
      ],
      "name": "getBytesValue",
      "outputs": [
        {
          "name": "",
          "type": "bytes"
        }
      ],
      "payable": false,
      "stateMutability": "view",
      "type": "function"
    },
    {
      "constant": true,
      "inputs": [
        {
          "name": "record",
          "type": "bytes32"
        }
      ],
      "name": "getAddressValue",
      "outputs": [
        {
          "name": "",
          "type": "address"
        }
      ],
      "payable": false,
      "stateMutability": "view",
      "type": "function"
    },
    {
      "constant": false,
      "inputs": [
        {
          "name": "_associatedContract",
          "type": "address"
        }
      ],
      "name": "setAssociatedContract",
      "outputs": [],
      "payable": false,
      "stateMutability": "nonpayable",
      "type": "function"
    },
    {
      "constant": true,
      "inputs": [],
      "name": "nominatedOwner",
      "outputs": [
        {
          "name": "",
          "type": "address"
        }
      ],
      "payable": false,
      "stateMutability": "view",
      "type": "function"
    },
    {
      "constant": false,
      "inputs": [
        {
          "name": "record",
          "type": "bytes32"
        },
        {
          "name": "value",
          "type": "address"
        }
      ],
      "name": "setAddressValue",
      "outputs": [],
      "payable": false,
      "stateMutability": "nonpayable",
      "type": "function"
    },
    {
      "constant": false,
      "inputs": [],
      "name": "acceptOwnership",
      "outputs": [],
      "payable": false,
      "stateMutability": "nonpayable",
      "type": "function"
    },
    {
      "constant": false,
      "inputs": [
        {
          "name": "record",
          "type": "bytes32"
        }
      ],
      "name": "deleteIntValue",
      "outputs": [],
      "payable": false,
      "stateMutability": "nonpayable",
      "type": "function"
    },
    {
      "constant": true,
      "inputs": [],
      "name": "owner",
      "outputs": [
        {
          "name": "",
          "type": "address"
        }
      ],
      "payable": false,
      "stateMutability": "view",
      "type": "function"
    },
    {
      "constant": true,
      "inputs": [
        {
          "name": "record",
          "type": "bytes32"
        }
      ],
      "name": "getIntValue",
      "outputs": [
        {
          "name": "",
          "type": "int256"
        }
      ],
      "payable": false,
      "stateMutability": "view",
      "type": "function"
    },
    {
      "constant": false,
      "inputs": [
        {
          "name": "record",
          "type": "bytes32"
        }
      ],
      "name": "deleteUIntValue",
      "outputs": [],
      "payable": false,
      "stateMutability": "nonpayable",
      "type": "function"
    },
    {
      "constant": true,
      "inputs": [
        {
          "name": "record",
          "type": "bytes32"
        }
      ],
      "name": "getStringValue",
      "outputs": [
        {
          "name": "",
          "type": "string"
        }
      ],
      "payable": false,
      "stateMutability": "view",
      "type": "function"
    },
    {
      "constant": false,
      "inputs": [
        {
          "name": "record",
          "type": "bytes32"
        },
        {
          "name": "value",
          "type": "int256"
        }
      ],
      "name": "setIntValue",
      "outputs": [],
      "payable": false,
      "stateMutability": "nonpayable",
      "type": "function"
    },
    {
      "constant": true,
      "inputs": [],
      "name": "associatedContract",
      "outputs": [
        {
          "name": "",
          "type": "address"
        }
      ],
      "payable": false,
      "stateMutability": "view",
      "type": "function"
    },
    {
      "constant": false,
      "inputs": [
        {
          "name": "record",
          "type": "bytes32"
        }
      ],
      "name": "deleteStringValue",
      "outputs": [],
      "payable": false,
      "stateMutability": "nonpayable",
      "type": "function"
    },
    {
      "constant": true,
      "inputs": [
        {
          "name": "record",
          "type": "bytes32"
        }
      ],
      "name": "getUIntValue",
      "outputs": [
        {
          "name": "",
          "type": "uint256"
        }
      ],
      "payable": false,
      "stateMutability": "view",
      "type": "function"
    },
    {
      "constant": false,
      "inputs": [
        {
          "name": "record",
          "type": "bytes32"
        },
        {
          "name": "value",
          "type": "bytes"
        }
      ],
      "name": "setBytesValue",
      "outputs": [],
      "payable": false,
      "stateMutability": "nonpayable",
      "type": "function"
    },
    {
      "constant": false,
      "inputs": [
        {
          "name": "record",
          "type": "bytes32"
        },
        {
          "name": "value",
          "type": "string"
        }
      ],
      "name": "setStringValue",
      "outputs": [],
      "payable": false,
      "stateMutability": "nonpayable",
      "type": "function"
    },
    {
      "inputs": [
        {
          "name": "_owner",
          "type": "address"
        },
        {
          "name": "_feePool",
          "type": "address"
        }
      ],
      "payable": false,
      "stateMutability": "nonpayable",
      "type": "constructor"
    },
    {
      "anonymous": false,
      "inputs": [
        {
          "indexed": false,
          "name": "associatedContract",
          "type": "address"
        }
      ],
      "name": "AssociatedContractUpdated",
      "type": "event"
    },
    {
      "anonymous": false,
      "inputs": [
        {
          "indexed": false,
          "name": "newOwner",
          "type": "address"
        }
      ],
      "name": "OwnerNominated",
      "type": "event"
    },
    {
      "anonymous": false,
      "inputs": [
        {
          "indexed": false,
          "name": "oldOwner",
          "type": "address"
        },
        {
          "indexed": false,
          "name": "newOwner",
          "type": "address"
        }
      ],
      "name": "OwnerChanged",
      "type": "event"
    },
    {
      "constant": false,
      "inputs": [
        {
          "name": "accounts",
          "type": "address[]"
        },
        {
          "name": "feePeriodIDs",
          "type": "uint256[]"
        }
      ],
      "name": "importFeeWithdrawalData",
      "outputs": [],
      "payable": false,
      "stateMutability": "nonpayable",
      "type": "function"
    }
  ],
  "bytecode": "0x608060405234801561001057600080fd5b5060405160408061161283398101604052805160209091015162375f008282818181600160a060020a03811615156100a957604080517f08c379a000000000000000000000000000000000000000000000000000000000815260206004820152601960248201527f4f776e657220616464726573732063616e6e6f74206265203000000000000000604482015290519081900360640190fd5b60008054600160a060020a031916600160a060020a038316908117825560408051928352602083019190915280517fb532073b38c83145e3e5135377a08bf9aab55bc0fd7c1179cd4fb995d2a5159c9281900390910190a15060028054600160a060020a038316600160a060020a0319909116811790915560408051918252517f73f20cff579e8a4086fa607db83867595f1b6a798e718c0bfa0b94a404128e039181900360200190a1505050504201600a55506114a490508061016e6000396000f3006080604052600436106101695763ffffffff7c0100000000000000000000000000000000000000000000000000000000600035041663025ec81a811461016e578063043106c0146101985780630c55d925146101b2578063124f2418146101ca5780631627540c146101e257806317e7dd221461020357806325cf512d1461022f5780633562fd201461024a5780633cc1635c146102655780633eba9ed21461027d57806344bfa56e1461029a5780634c77e5ba1461032757806352f445ca1461035b57806353a47bb71461037c5780635a2bf25a1461039157806379ba5097146103b55780638267a9ee146103ca5780638da5cb5b146103e25780639007127b146103f757806393fe42481461040f578063a209a29c14610427578063a77aa49e1461043f578063aefc4ccb1461045a578063b3ffbd9e1461046f578063ba69fcaa1461049b578063bdc963d8146104b3578063c9a52d2c146104cb578063f5866066146104ef575b600080fd5b34801561017a57600080fd5b50610186600435610513565b60408051918252519081900360200190f35b3480156101a457600080fd5b506101b0600435610525565b005b3480156101be57600080fd5b506101b06004356105b4565b3480156101d657600080fd5b506101b0600435610632565b3480156101ee57600080fd5b506101b0600160a060020a03600435166106a7565b34801561020f57600080fd5b5061021b600435610790565b604080519115158252519081900360200190f35b34801561023b57600080fd5b506101b06004356024356107a5565b34801561025657600080fd5b506101b060043560243561081b565b34801561027157600080fd5b506101b0600435610891565b34801561028957600080fd5b506101b0600435602435151561090d565b3480156102a657600080fd5b506102b2600435610991565b6040805160208082528351818301528351919283929083019185019080838360005b838110156102ec5781810151838201526020016102d4565b50505050905090810190601f1680156103195780820380516001836020036101000a031916815260200191505b509250505060405180910390f35b34801561033357600080fd5b5061033f600435610a32565b60408051600160a060020a039092168252519081900360200190f35b34801561036757600080fd5b506101b0600160a060020a0360043516610a4d565b34801561038857600080fd5b5061033f610b36565b34801561039d57600080fd5b506101b0600435600160a060020a0360243516610b45565b3480156103c157600080fd5b506101b0610be4565b3480156103d657600080fd5b506101b0600435610cec565b3480156103ee57600080fd5b5061033f610d61565b34801561040357600080fd5b50610186600435610d70565b34801561041b57600080fd5b506101b0600435610d82565b34801561043357600080fd5b506102b2600435610df7565b34801561044b57600080fd5b506101b0600435602435610e61565b34801561046657600080fd5b5061033f610ed7565b34801561047b57600080fd5b506101b06024600480358281019290820135918135918201910135610ee6565b3480156104a757600080fd5b506101b06004356111cc565b3480156104bf57600080fd5b50610186600435611247565b3480156104d757600080fd5b506101b0600480359060248035908101910135611259565b3480156104fb57600080fd5b506101b06004803590602480359081019101356112dc565b60009081526007602052604090205490565b600254600160a060020a03163314610589576040805160e560020a62461bcd02815260206004820152603460248201526000805160206114398339815191526044820152600080516020611459833981519152606482015290519081900360840190fd5b6000908152600560205260409020805473ffffffffffffffffffffffffffffffffffffffff19169055565b600254600160a060020a03163314610618576040805160e560020a62461bcd02815260206004820152603460248201526000805160206114398339815191526044820152600080516020611459833981519152606482015290519081900360840190fd5b600081815260066020526040812061062f91611359565b50565b600254600160a060020a03163314610696576040805160e560020a62461bcd02815260206004820152603460248201526000805160206114398339815191526044820152600080516020611459833981519152606482015290519081900360840190fd5b600090815260076020526040812055565b600054600160a060020a0316331461072f576040805160e560020a62461bcd02815260206004820152602f60248201527f4f6e6c792074686520636f6e7472616374206f776e6572206d6179207065726660448201527f6f726d207468697320616374696f6e0000000000000000000000000000000000606482015290519081900360840190fd5b60018054600160a060020a03831673ffffffffffffffffffffffffffffffffffffffff19909116811790915560408051918252517f906a1c6bd7e3091ea86693dd029a831c19049ce77f1dce2ce0bab1cacbabce229181900360200190a150565b60009081526008602052604090205460ff1690565b600254600160a060020a03163314610809576040805160e560020a62461bcd02815260206004820152603460248201526000805160206114398339815191526044820152600080516020611459833981519152606482015290519081900360840190fd5b60009182526007602052604090912055565b600254600160a060020a0316331461087f576040805160e560020a62461bcd02815260206004820152603460248201526000805160206114398339815191526044820152600080516020611459833981519152606482015290519081900360840190fd5b60009182526003602052604090912055565b600254600160a060020a031633146108f5576040805160e560020a62461bcd02815260206004820152603460248201526000805160206114398339815191526044820152600080516020611459833981519152606482015290519081900360840190fd5b6000908152600860205260409020805460ff19169055565b600254600160a060020a03163314610971576040805160e560020a62461bcd02815260206004820152603460248201526000805160206114398339815191526044820152600080516020611459833981519152606482015290519081900360840190fd5b600091825260086020526040909120805460ff1916911515919091179055565b60008181526006602090815260409182902080548351601f6002610100600185161502600019019093169290920491820184900484028101840190945280845260609392830182828015610a265780601f106109fb57610100808354040283529160200191610a26565b820191906000526020600020905b815481529060010190602001808311610a0957829003601f168201915b50505050509050919050565b600090815260056020526040902054600160a060020a031690565b600054600160a060020a03163314610ad5576040805160e560020a62461bcd02815260206004820152602f60248201527f4f6e6c792074686520636f6e7472616374206f776e6572206d6179207065726660448201527f6f726d207468697320616374696f6e0000000000000000000000000000000000606482015290519081900360840190fd5b60028054600160a060020a03831673ffffffffffffffffffffffffffffffffffffffff19909116811790915560408051918252517f73f20cff579e8a4086fa607db83867595f1b6a798e718c0bfa0b94a404128e039181900360200190a150565b600154600160a060020a031681565b600254600160a060020a03163314610ba9576040805160e560020a62461bcd02815260206004820152603460248201526000805160206114398339815191526044820152600080516020611459833981519152606482015290519081900360840190fd5b600091825260056020526040909120805473ffffffffffffffffffffffffffffffffffffffff1916600160a060020a03909216919091179055565b600154600160a060020a03163314610c6c576040805160e560020a62461bcd02815260206004820152603560248201527f596f75206d757374206265206e6f6d696e61746564206265666f726520796f7560448201527f2063616e20616363657074206f776e6572736869700000000000000000000000606482015290519081900360840190fd5b60005460015460408051600160a060020a03938416815292909116602083015280517fb532073b38c83145e3e5135377a08bf9aab55bc0fd7c1179cd4fb995d2a5159c9281900390910190a1600180546000805473ffffffffffffffffffffffffffffffffffffffff19908116600160a060020a03841617909155169055565b600254600160a060020a03163314610d50576040805160e560020a62461bcd02815260206004820152603460248201526000805160206114398339815191526044820152600080516020611459833981519152606482015290519081900360840190fd5b600090815260096020526040812055565b600054600160a060020a031681565b60009081526009602052604090205490565b600254600160a060020a03163314610de6576040805160e560020a62461bcd02815260206004820152603460248201526000805160206114398339815191526044820152600080516020611459833981519152606482015290519081900360840190fd5b600090815260036020526040812055565b60008181526004602090815260409182902080548351601f6002610100600185161502600019019093169290920491820184900484028101840190945280845260609392830182828015610a265780601f106109fb57610100808354040283529160200191610a26565b600254600160a060020a03163314610ec5576040805160e560020a62461bcd02815260206004820152603460248201526000805160206114398339815191526044820152600080516020611459833981519152606482015290519081900360840190fd5b60009182526009602052604090912055565b600254600160a060020a031681565b60008054600160a060020a03163314610f6f576040805160e560020a62461bcd02815260206004820152602f60248201527f4f6e6c792074686520636f6e7472616374206f776e6572206d6179207065726660448201527f6f726d207468697320616374696f6e0000000000000000000000000000000000606482015290519081900360840190fd5b600a544210610fee576040805160e560020a62461bcd02815260206004820152602960248201527f43616e206f6e6c7920706572666f726d207468697320616374696f6e2064757260448201527f696e672073657475700000000000000000000000000000000000000000000000606482015290519081900360840190fd5b838214611045576040805160e560020a62461bcd02815260206004820152600f60248201527f4c656e677468206d69736d617463680000000000000000000000000000000000604482015290519081900360640190fd5b5060005b60ff81168411156111c55730633562fd207f6c6173745f6665655f7769746864726177616c00000000000000000000000000878760ff861681811061108a57fe5b604080516020808201969096529185029390930135600160a060020a03166c01000000000000000000000000028184015282518082036034018152605490910192839052805190938392508401908083835b602083106110fb5780518252601f1990920191602091820191016110dc565b6001836020036101000a038019825116818451168082178552505050505050905001915050604051809103902085858560ff16818110151561113957fe5b905060200201356040518363ffffffff167c010000000000000000000000000000000000000000000000000000000002815260040180836000191660001916815260200182815260200192505050600060405180830381600087803b1580156111a157600080fd5b505af11580156111b5573d6000803e3d6000fd5b5050600190920191506110499050565b5050505050565b600254600160a060020a03163314611230576040805160e560020a62461bcd02815260206004820152603460248201526000805160206114398339815191526044820152600080516020611459833981519152606482015290519081900360840190fd5b600081815260046020526040812061062f91611359565b60009081526003602052604090205490565b600254600160a060020a031633146112bd576040805160e560020a62461bcd02815260206004820152603460248201526000805160206114398339815191526044820152600080516020611459833981519152606482015290519081900360840190fd5b60008381526006602052604090206112d690838361139d565b50505050565b600254600160a060020a03163314611340576040805160e560020a62461bcd02815260206004820152603460248201526000805160206114398339815191526044820152600080516020611459833981519152606482015290519081900360840190fd5b60008381526004602052604090206112d690838361139d565b50805460018160011615610100020316600290046000825580601f1061137f575061062f565b601f01602090049060005260206000209081019061062f919061141b565b828054600181600116156101000203166002900490600052602060002090601f016020900481019282601f106113de5782800160ff1982351617855561140b565b8280016001018555821561140b579182015b8281111561140b5782358255916020019190600101906113f0565b5061141792915061141b565b5090565b61143591905b808211156114175760008155600101611421565b9056004f6e6c7920746865206173736f63696174656420636f6e74726163742063616e20706572666f726d207468697320616374696f6e000000000000000000000000a165627a7a72305820080020952d620b60552c7002bd260be52d00132c234b861063877ef7c6fe78f30029",
  "source": "/*\n-----------------------------------------------------------------\nFILE INFORMATION\n-----------------------------------------------------------------\n\nfile:       FeePoolEternalStorage.sol\nversion:    1.0\nauthor:     Clinton Ennis\n            Jackson Chan\ndate:       2019-04-05\n\n-----------------------------------------------------------------\nMODULE DESCRIPTION\n-----------------------------------------------------------------\n\nThe FeePoolEternalStorage is for any state the FeePool contract\nneeds to persist between upgrades to the FeePool logic.\n\nPlease see EternalStorage.sol\n\n-----------------------------------------------------------------\n*/\n\npragma solidity 0.4.25;\n\nimport \"./LimitedSetup.sol\";\nimport \"./EternalStorage.sol\";\n\ncontract FeePoolEternalStorage is EternalStorage, LimitedSetup {\n\n    bytes32 constant LAST_FEE_WITHDRAWAL = \"last_fee_withdrawal\";\n\n    /**\n     * @dev Constructor.\n     * @param _owner The owner of this contract.\n     */\n    constructor(address _owner, address _feePool)\n        EternalStorage(_owner, _feePool)\n        LimitedSetup(6 weeks)\n        public\n    {\n    }\n\n    /**\n     * @notice Import data from FeePool.lastFeeWithdrawal\n     * @dev Only callable by the contract owner, and only for 6 weeks after deployment.\n     * @param accounts Array of addresses that have claimed\n     * @param feePeriodIDs Array feePeriodIDs with the accounts last claim\n     */\n    function importFeeWithdrawalData(address[] accounts, uint[] feePeriodIDs)\n        external\n        onlyOwner\n        onlyDuringSetup\n    {\n        require(accounts.length == feePeriodIDs.length, \"Length mismatch\");\n\n        for (uint8 i = 0; i < accounts.length; i++) {\n            this.setUIntValue(keccak256(abi.encodePacked(LAST_FEE_WITHDRAWAL, accounts[i])), feePeriodIDs[i]);\n        }\n    }\n}",
  "sourcePath": "/Users/mathew/workspace/quantal/test/test-projects/synthetix/contracts/FeePoolEternalStorage.sol",
  "compiler": {
    "name": "solc",
    "version": "0.4.25+commit.59dbf8f1.Emscripten.clang"
  },
  "schemaVersion": "3.0.6",
  "updatedAt": "2019-08-12T22:49:05.725Z",
  "devdoc": {
    "methods": {
      "importFeeWithdrawalData(address[],uint256[])": {
        "details": "Only callable by the contract owner, and only for 6 weeks after deployment.",
        "params": {
          "accounts": "Array of addresses that have claimed",
          "feePeriodIDs": "Array feePeriodIDs with the accounts last claim"
        }
      },
      "nominateNewOwner(address)": {
        "details": "Only the current owner may nominate a new owner."
      }
    }
  },
  "userdoc": {
    "methods": {
      "acceptOwnership()": {
        "notice": "Accept the nomination to be owner."
      },
      "importFeeWithdrawalData(address[],uint256[])": {
        "notice": "Import data from FeePool.lastFeeWithdrawal"
      },
      "nominateNewOwner(address)": {
        "notice": "Nominate a new owner of this contract."
      }
    }
  }
}