{
  "contractName": "SupplySchedule",
  "abi": [
    {
      "constant": true,
      "inputs": [],
      "name": "YEAR_FIVE",
      "outputs": [
        {
          "name": "",
          "type": "uint256"
        }
      ],
      "payable": false,
      "stateMutability": "view",
      "type": "function"
    },
    {
      "constant": false,
      "inputs": [
        {
          "name": "_owner",
          "type": "address"
        }
      ],
      "name": "nominateNewOwner",
      "outputs": [],
      "payable": false,
      "stateMutability": "nonpayable",
      "type": "function"
    },
    {
      "constant": true,
      "inputs": [],
      "name": "YEAR_SEVEN",
      "outputs": [
        {
          "name": "",
          "type": "uint256"
        }
      ],
      "payable": false,
      "stateMutability": "view",
      "type": "function"
    },
    {
      "constant": true,
      "inputs": [],
      "name": "START_DATE",
      "outputs": [
        {
          "name": "",
          "type": "uint256"
        }
      ],
      "payable": false,
      "stateMutability": "view",
      "type": "function"
    },
    {
      "constant": true,
      "inputs": [],
      "name": "YEAR_FOUR",
      "outputs": [
        {
          "name": "",
          "type": "uint256"
        }
      ],
      "payable": false,
      "stateMutability": "view",
      "type": "function"
    },
    {
      "constant": true,
      "inputs": [],
      "name": "nominatedOwner",
      "outputs": [
        {
          "name": "",
          "type": "address"
        }
      ],
      "payable": false,
      "stateMutability": "view",
      "type": "function"
    },
    {
      "constant": true,
      "inputs": [],
      "name": "synthetix",
      "outputs": [
        {
          "name": "",
          "type": "address"
        }
      ],
      "payable": false,
      "stateMutability": "view",
      "type": "function"
    },
    {
      "constant": true,
      "inputs": [],
      "name": "INFLATION_SCHEDULES_LENGTH",
      "outputs": [
        {
          "name": "",
          "type": "uint8"
        }
      ],
      "payable": false,
      "stateMutability": "view",
      "type": "function"
    },
    {
      "constant": false,
      "inputs": [],
      "name": "acceptOwnership",
      "outputs": [],
      "payable": false,
      "stateMutability": "nonpayable",
      "type": "function"
    },
    {
      "constant": true,
      "inputs": [],
      "name": "owner",
      "outputs": [
        {
          "name": "",
          "type": "address"
        }
      ],
      "payable": false,
      "stateMutability": "view",
      "type": "function"
    },
    {
      "constant": true,
      "inputs": [],
      "name": "mintPeriodDuration",
      "outputs": [
        {
          "name": "",
          "type": "uint256"
        }
      ],
      "payable": false,
      "stateMutability": "view",
      "type": "function"
    },
    {
      "constant": true,
      "inputs": [],
      "name": "minterReward",
      "outputs": [
        {
          "name": "",
          "type": "uint256"
        }
      ],
      "payable": false,
      "stateMutability": "view",
      "type": "function"
    },
    {
      "constant": true,
      "inputs": [],
      "name": "YEAR_TWO",
      "outputs": [
        {
          "name": "",
          "type": "uint256"
        }
      ],
      "payable": false,
      "stateMutability": "view",
      "type": "function"
    },
    {
      "constant": true,
      "inputs": [
        {
          "name": "",
          "type": "uint256"
        }
      ],
      "name": "schedules",
      "outputs": [
        {
          "name": "totalSupply",
          "type": "uint256"
        },
        {
          "name": "startPeriod",
          "type": "uint256"
        },
        {
          "name": "endPeriod",
          "type": "uint256"
        },
        {
          "name": "totalSupplyMinted",
          "type": "uint256"
        }
      ],
      "payable": false,
      "stateMutability": "view",
      "type": "function"
    },
    {
      "constant": true,
      "inputs": [],
      "name": "lastMintEvent",
      "outputs": [
        {
          "name": "",
          "type": "uint256"
        }
      ],
      "payable": false,
      "stateMutability": "view",
      "type": "function"
    },
    {
      "constant": true,
      "inputs": [],
      "name": "YEAR_THREE",
      "outputs": [
        {
          "name": "",
          "type": "uint256"
        }
      ],
      "payable": false,
      "stateMutability": "view",
      "type": "function"
    },
    {
      "constant": true,
      "inputs": [],
      "name": "YEAR_SIX",
      "outputs": [
        {
          "name": "",
          "type": "uint256"
        }
      ],
      "payable": false,
      "stateMutability": "view",
      "type": "function"
    },
    {
      "constant": true,
      "inputs": [],
      "name": "YEAR_ONE",
      "outputs": [
        {
          "name": "",
          "type": "uint256"
        }
      ],
      "payable": false,
      "stateMutability": "view",
      "type": "function"
    },
    {
      "inputs": [
        {
          "name": "_owner",
          "type": "address"
        }
      ],
      "payable": false,
      "stateMutability": "nonpayable",
      "type": "constructor"
    },
    {
      "anonymous": false,
      "inputs": [
        {
          "indexed": false,
          "name": "previousPeriodAmount",
          "type": "uint256"
        },
        {
          "indexed": false,
          "name": "currentAmount",
          "type": "uint256"
        },
        {
          "indexed": true,
          "name": "schedule",
          "type": "uint256"
        },
        {
          "indexed": false,
          "name": "timestamp",
          "type": "uint256"
        }
      ],
      "name": "SupplyMinted",
      "type": "event"
    },
    {
      "anonymous": false,
      "inputs": [
        {
          "indexed": false,
          "name": "newRewardAmount",
          "type": "uint256"
        }
      ],
      "name": "MinterRewardUpdated",
      "type": "event"
    },
    {
      "anonymous": false,
      "inputs": [
        {
          "indexed": false,
          "name": "newOwner",
          "type": "address"
        }
      ],
      "name": "OwnerNominated",
      "type": "event"
    },
    {
      "anonymous": false,
      "inputs": [
        {
          "indexed": false,
          "name": "oldOwner",
          "type": "address"
        },
        {
          "indexed": false,
          "name": "newOwner",
          "type": "address"
        }
      ],
      "name": "OwnerChanged",
      "type": "event"
    },
    {
      "constant": false,
      "inputs": [
        {
          "name": "_synthetix",
          "type": "address"
        }
      ],
      "name": "setSynthetix",
      "outputs": [],
      "payable": false,
      "stateMutability": "nonpayable",
      "type": "function"
    },
    {
      "constant": true,
      "inputs": [],
      "name": "mintableSupply",
      "outputs": [
        {
          "name": "",
          "type": "uint256"
        }
      ],
      "payable": false,
      "stateMutability": "view",
      "type": "function"
    },
    {
      "constant": true,
      "inputs": [
        {
          "name": "_timeDiff",
          "type": "uint256"
        }
      ],
      "name": "_numWeeksRoundedDown",
      "outputs": [
        {
          "name": "",
          "type": "uint256"
        }
      ],
      "payable": false,
      "stateMutability": "view",
      "type": "function"
    },
    {
      "constant": true,
      "inputs": [],
      "name": "isMintable",
      "outputs": [
        {
          "name": "",
          "type": "bool"
        }
      ],
      "payable": false,
      "stateMutability": "view",
      "type": "function"
    },
    {
      "constant": true,
      "inputs": [],
      "name": "getCurrentSchedule",
      "outputs": [
        {
          "name": "",
          "type": "uint256"
        }
      ],
      "payable": false,
      "stateMutability": "view",
      "type": "function"
    },
    {
      "constant": false,
      "inputs": [],
      "name": "updateMintValues",
      "outputs": [
        {
          "name": "",
          "type": "bool"
        }
      ],
      "payable": false,
      "stateMutability": "nonpayable",
      "type": "function"
    },
    {
      "constant": false,
      "inputs": [
        {
          "name": "_amount",
          "type": "uint256"
        }
      ],
      "name": "setMinterReward",
      "outputs": [],
      "payable": false,
      "stateMutability": "nonpayable",
      "type": "function"
    }
  ],
  "bytecode": "0x6080604081905262093a806002557f907af6c000000000000000000000000000000000000000000000000000000000815273__SafeDecimalMath_______________________9063907af6c09060849060209060048186803b1580156200006557600080fd5b505af41580156200007a573d6000803e3d6000fd5b505050506040513d60208110156200009157600080fd5b505160c802602155348015620000a657600080fd5b5060405160208062001787833981016040525180600160a060020a03811615156200013257604080517f08c379a000000000000000000000000000000000000000000000000000000000815260206004820152601960248201527f4f776e657220616464726573732063616e6e6f74206265203000000000000000604482015290519081900360640190fd5b60008054600160a060020a031916600160a060020a038316908117825560408051928352602083019190915280517fb532073b38c83145e3e5135377a08bf9aab55bc0fd7c1179cd4fb995d2a5159c9281900390910190a15060806040519081016040528073__SafeDecimalMath_______________________63907af6c06040518163ffffffff167c010000000000000000000000000000000000000000000000000000000002815260040160206040518083038186803b158015620001f857600080fd5b505af41580156200020d573d6000803e3d6000fd5b505050506040513d60208110156200022457600080fd5b50516305f5e100028152635a9dda00602082015260400160016200025b6301e133808264010000000062000c3e6200093182021704565b635a9dda000103815260200173__SafeDecimalMath_______________________63907af6c06040518163ffffffff167c010000000000000000000000000000000000000000000000000000000002815260040160206040518083038186803b158015620002c857600080fd5b505af4158015620002dd573d6000803e3d6000fd5b505050506040513d6020811015620002f457600080fd5b50516305f5e10002905280516005556020808201516006556040808301516007556060909201516008558151608081018084527f907af6c00000000000000000000000000000000000000000000000000000000090529151829173__SafeDecimalMath_______________________9163907af6c09160848086019290818703018186803b1580156200038657600080fd5b505af41580156200039b573d6000803e3d6000fd5b505050506040513d6020811015620003b257600080fd5b505163047868c0028152602001620003de6301e13380600164010000000062000c3e6200093182021704565b635a9dda0001815260200160016200040a6301e13380600264010000000062000c3e6200093182021704565b03635a9dda000181526000602091820152815160095581810151600a55604080830151600b55606090920151600c558151608081018084527f907af6c00000000000000000000000000000000000000000000000000000000090529151829173__SafeDecimalMath_______________________9163907af6c09160848086019290818703018186803b158015620004a157600080fd5b505af4158015620004b6573d6000803e3d6000fd5b505050506040513d6020811015620004cd57600080fd5b505163023c3460028152602001620004f96301e13380600264010000000062000c3e6200093182021704565b635a9dda000181526020016001620005256301e13380600364010000000062000c3e6200093182021704565b03635a9dda0001815260006020918201528151600d5581810151600e55604080830151600f556060909201516010558151608081018084527f907af6c00000000000000000000000000000000000000000000000000000000090529151829173__SafeDecimalMath_______________________9163907af6c09160848086019290818703018186803b158015620005bc57600080fd5b505af4158015620005d1573d6000803e3d6000fd5b505050506040513d6020811015620005e857600080fd5b505163011e1a30028152602001620006146301e13380600364010000000062000c3e6200093182021704565b635a9dda000181526020016001620006406301e13380600464010000000062000c3e6200093182021704565b03635a9dda0001815260006020918201528151601155818101516012556040808301516013556060909201516014558151608081018084527f907af6c00000000000000000000000000000000000000000000000000000000090529151829173__SafeDecimalMath_______________________9163907af6c09160848086019290818703018186803b158015620006d757600080fd5b505af4158015620006ec573d6000803e3d6000fd5b505050506040513d60208110156200070357600080fd5b5051628f0d180281526020016200072e6301e13380600464010000000062000c3e6200093182021704565b635a9dda0001815260200160016200075a6301e13380600564010000000062000c3e6200093182021704565b03635a9dda0001815260006020918201528151601555818101516016556040808301516017556060909201516018558151608081018084527f907af6c00000000000000000000000000000000000000000000000000000000090529151829173__SafeDecimalMath_______________________9163907af6c09160848086019290818703018186803b158015620007f157600080fd5b505af415801562000806573d6000803e3d6000fd5b505050506040513d60208110156200081d57600080fd5b50516247868c028152602001620008486301e13380600564010000000062000c3e6200093182021704565b635a9dda000181526020016001620008746301e13380600664010000000062000c3e6200093182021704565b03635a9dda0001815260006020918201819052825160195582820151601a55604080840151601b55606090930151601c5582516080810190935282528101620008d16301e13380600664010000000062000931810262000c3e1704565b635a9dda000181526020016001620008fd6301e13380600764010000000062000c3e6200093182021704565b03635a9dda0001815260006020918201528151601d5581810151601e556040820151601f556060909101519055506200096e565b60008083151562000946576000915062000967565b508282028284828115156200095757fe5b04146200096357600080fd5b8091505b5092915050565b610e09806200097e6000396000f3006080604052600436106101485763ffffffff7c010000000000000000000000000000000000000000000000000000000060003504166307abcd9a811461014d57806311b92f80146101745780631627540c1461018c57806335ecdf1f146101af578063372c6533146101c45780633dbf6ea2146101d957806346b45af7146101ee57806349e70159146102175780634ae265211461022c57806353a47bb714610244578063759b5225146102755780637838096d1461028a57806379ba5097146102b55780638a1a5f3f146102ca5780638da5cb5b146102df5780638f3a7a49146102f45780639bdd7ac714610309578063b8da6bd51461031e578063bdc6d9ab14610333578063be801f0114610371578063bfd7277f14610386578063cc5c095c1461039b578063cdf3c270146103b0578063e4cde889146103c5578063fec9f9da146103da575b600080fd5b34801561015957600080fd5b506101626103fb565b60408051918252519081900360200190f35b34801561018057600080fd5b50610162600435610419565b34801561019857600080fd5b506101ad600160a060020a0360043516610436565b005b3480156101bb57600080fd5b5061016261051f565b3480156101d057600080fd5b50610162610534565b3480156101e557600080fd5b5061016261053c565b3480156101fa57600080fd5b50610203610551565b604080519115158252519081900360200190f35b34801561022357600080fd5b5061020361057e565b34801561023857600080fd5b506101ad600435610711565b34801561025057600080fd5b506102596107d4565b60408051600160a060020a039092168252519081900360200190f35b34801561028157600080fd5b506102596107e3565b34801561029657600080fd5b5061029f6107f2565b6040805160ff9092168252519081900360200190f35b3480156102c157600080fd5b506101ad6107f7565b3480156102d657600080fd5b506101626108ff565b3480156102eb57600080fd5b506102596109b8565b34801561030057600080fd5b506101626109c7565b34801561031557600080fd5b506101626109cd565b34801561032a57600080fd5b506101626109d3565b34801561033f57600080fd5b5061034b6004356109e8565b604080519485526020850193909352838301919091526060830152519081900360800190f35b34801561037d57600080fd5b50610162610a13565b34801561039257600080fd5b50610162610a19565b3480156103a757600080fd5b50610162610a2e565b3480156103bc57600080fd5b50610162610b5d565b3480156103d157600080fd5b50610162610b72565b3480156103e657600080fd5b506101ad600160a060020a0360043516610b87565b6104106301e13380600563ffffffff610c3e16565b635a9dda000181565b600061043060025483610c7790919063ffffffff16565b92915050565b600054600160a060020a031633146104be576040805160e560020a62461bcd02815260206004820152602f60248201527f4f6e6c792074686520636f6e7472616374206f776e6572206d6179207065726660448201527f6f726d207468697320616374696f6e0000000000000000000000000000000000606482015290519081900360840190fd5b60018054600160a060020a03831673ffffffffffffffffffffffffffffffffffffffff19909116811790915560408051918252517f906a1c6bd7e3091ea86693dd029a831c19049ce77f1dce2ce0bab1cacbabce229181900360200190a150565b6104106301e13380600763ffffffff610c3e16565b635a9dda0081565b6104106301e13380600463ffffffff610c3e16565b6002546003546000918291420311801561056d5750601f544211155b15610576575060015b8091505b5090565b600454600090819081908190600160a060020a0316331461060f576040805160e560020a62461bcd02815260206004820152603360248201527f4f6e6c79207468652073796e74686574697820636f6e74726163742063616e2060448201527f706572666f726d207468697320616374696f6e00000000000000000000000000606482015290519081900360840190fd5b6106176108ff565b925061062283610c9a565b915061063c82610630610a2e565b9063ffffffff610d2e16565b9050600082111561068f5761067282600560001986016007811061065c57fe5b6004020160030154610d4590919063ffffffff16565b600560001985016007811061068357fe5b60040201600301819055505b6106a0816005856007811061065c57fe5b600584600781106106ad57fe5b600402016003018190555042600381905550827f601e517d4811033fed8290c79b7823ce1ab70258da45400fe2391a3c7432edab83834260405180848152602001838152602001828152602001935050505060405180910390a26001935050505090565b600054600160a060020a03163314610799576040805160e560020a62461bcd02815260206004820152602f60248201527f4f6e6c792074686520636f6e7472616374206f776e6572206d6179207065726660448201527f6f726d207468697320616374696f6e0000000000000000000000000000000000606482015290519081900360840190fd5b60218190556040805182815290517f036e0c635f8b7d9314bb6f2a577046108ef0f8b5e3869fbd29fd5a448ed99d309181900360200190a150565b600154600160a060020a031681565b600454600160a060020a031681565b600781565b600154600160a060020a0316331461087f576040805160e560020a62461bcd02815260206004820152603560248201527f596f75206d757374206265206e6f6d696e61746564206265666f726520796f7560448201527f2063616e20616363657074206f776e6572736869700000000000000000000000606482015290519081900360840190fd5b60005460015460408051600160a060020a03938416815292909116602083015280517fb532073b38c83145e3e5135377a08bf9aab55bc0fd7c1179cd4fb995d2a5159c9281900390910190a1600180546000805473ffffffffffffffffffffffffffffffffffffffff19908116600160a060020a03841617909155169055565b601f54600090819042111561095e576040805160e560020a62461bcd02815260206004820152601b60248201527f4d696e7461626c6520706572696f6473206861766520656e6465640000000000604482015290519081900360640190fd5b5060005b600781101561057a57426005826007811061097957fe5b6004020160010154111580156109a35750426005826007811061099857fe5b600402016002015410155b156109b05780915061057a565b600101610962565b600054600160a060020a031681565b60025481565b60215481565b6104106301e13380600263ffffffff610c3e16565b600581600781106109f557fe5b60040201805460018201546002830154600390930154919350919084565b60035481565b6104106301e13380600363ffffffff610c3e16565b6000806000610a3b610db4565b600080600080610a49610551565b1515610a585760009750610b53565b610a606108ff565b9650610a6b87610c9a565b955060058760078110610a7a57fe5b60408051608081018252600492909202929092018054825260018101546020830181905260028083015494840185905260039092015460608401529054919750610acb92039063ffffffff610c7716565b8551909450610ae0908563ffffffff610d5716565b925084602001516003541015610b1457610b0f610b0a866020015142610d2e90919063ffffffff16565b610419565b610b2c565b610b2c610b0a60035442610d2e90919063ffffffff16565b9150610b3e838363ffffffff610d8816565b9050610b50818763ffffffff610d4516565b97505b5050505050505090565b6104106301e13380600663ffffffff610c3e16565b6104106301e13380600163ffffffff610c3e16565b600054600160a060020a03163314610c0f576040805160e560020a62461bcd02815260206004820152602f60248201527f4f6e6c792074686520636f6e7472616374206f776e6572206d6179207065726660448201527f6f726d207468697320616374696f6e0000000000000000000000000000000000606482015290519081900360840190fd5b6004805473ffffffffffffffffffffffffffffffffffffffff1916600160a060020a0392909216919091179055565b600080831515610c515760009150610c70565b50828202828482811515610c6157fe5b0414610c6c57600080fd5b8091505b5092915050565b600080808311610c8657600080fd5b8284811515610c9157fe5b04949350505050565b600080821580610cc357506005600019840160078110610cb657fe5b6004020160020154600354115b15610cd15760009150610d28565b610d106005600019850160078110610ce557fe5b6004020160030154600560018603600781101515610cff57fe5b60040201549063ffffffff610d2e16565b90506000811015610d245760009150610d28565b8091505b50919050565b60008083831115610d3e57600080fd5b5050900390565b600082820183811015610c6c57600080fd5b6000610d8182610d7585670de0b6b3a764000063ffffffff610c3e16565b9063ffffffff610c7716565b9392505050565b6000670de0b6b3a7640000610da3848463ffffffff610c3e16565b811515610dac57fe5b049392505050565b6080604051908101604052806000815260200160008152602001600081526020016000815250905600a165627a7a7230582047ff1d932f6ea3500374e656fbbe3f114c9fce797a5f443d46e5bc891afd8bf80029",
  "deployedBytecode": "0x6080604052600436106101485763ffffffff7c010000000000000000000000000000000000000000000000000000000060003504166307abcd9a811461014d57806311b92f80146101745780631627540c1461018c57806335ecdf1f146101af578063372c6533146101c45780633dbf6ea2146101d957806346b45af7146101ee57806349e70159146102175780634ae265211461022c57806353a47bb714610244578063759b5225146102755780637838096d1461028a57806379ba5097146102b55780638a1a5f3f146102ca5780638da5cb5b146102df5780638f3a7a49146102f45780639bdd7ac714610309578063b8da6bd51461031e578063bdc6d9ab14610333578063be801f0114610371578063bfd7277f14610386578063cc5c095c1461039b578063cdf3c270146103b0578063e4cde889146103c5578063fec9f9da146103da575b600080fd5b34801561015957600080fd5b506101626103fb565b60408051918252519081900360200190f35b34801561018057600080fd5b50610162600435610419565b34801561019857600080fd5b506101ad600160a060020a0360043516610436565b005b3480156101bb57600080fd5b5061016261051f565b3480156101d057600080fd5b50610162610534565b3480156101e557600080fd5b5061016261053c565b3480156101fa57600080fd5b50610203610551565b604080519115158252519081900360200190f35b34801561022357600080fd5b5061020361057e565b34801561023857600080fd5b506101ad600435610711565b34801561025057600080fd5b506102596107d4565b60408051600160a060020a039092168252519081900360200190f35b34801561028157600080fd5b506102596107e3565b34801561029657600080fd5b5061029f6107f2565b6040805160ff9092168252519081900360200190f35b3480156102c157600080fd5b506101ad6107f7565b3480156102d657600080fd5b506101626108ff565b3480156102eb57600080fd5b506102596109b8565b34801561030057600080fd5b506101626109c7565b34801561031557600080fd5b506101626109cd565b34801561032a57600080fd5b506101626109d3565b34801561033f57600080fd5b5061034b6004356109e8565b604080519485526020850193909352838301919091526060830152519081900360800190f35b34801561037d57600080fd5b50610162610a13565b34801561039257600080fd5b50610162610a19565b3480156103a757600080fd5b50610162610a2e565b3480156103bc57600080fd5b50610162610b5d565b3480156103d157600080fd5b50610162610b72565b3480156103e657600080fd5b506101ad600160a060020a0360043516610b87565b6104106301e13380600563ffffffff610c3e16565b635a9dda000181565b600061043060025483610c7790919063ffffffff16565b92915050565b600054600160a060020a031633146104be576040805160e560020a62461bcd02815260206004820152602f60248201527f4f6e6c792074686520636f6e7472616374206f776e6572206d6179207065726660448201527f6f726d207468697320616374696f6e0000000000000000000000000000000000606482015290519081900360840190fd5b60018054600160a060020a03831673ffffffffffffffffffffffffffffffffffffffff19909116811790915560408051918252517f906a1c6bd7e3091ea86693dd029a831c19049ce77f1dce2ce0bab1cacbabce229181900360200190a150565b6104106301e13380600763ffffffff610c3e16565b635a9dda0081565b6104106301e13380600463ffffffff610c3e16565b6002546003546000918291420311801561056d5750601f544211155b15610576575060015b8091505b5090565b600454600090819081908190600160a060020a0316331461060f576040805160e560020a62461bcd02815260206004820152603360248201527f4f6e6c79207468652073796e74686574697820636f6e74726163742063616e2060448201527f706572666f726d207468697320616374696f6e00000000000000000000000000606482015290519081900360840190fd5b6106176108ff565b925061062283610c9a565b915061063c82610630610a2e565b9063ffffffff610d2e16565b9050600082111561068f5761067282600560001986016007811061065c57fe5b6004020160030154610d4590919063ffffffff16565b600560001985016007811061068357fe5b60040201600301819055505b6106a0816005856007811061065c57fe5b600584600781106106ad57fe5b600402016003018190555042600381905550827f601e517d4811033fed8290c79b7823ce1ab70258da45400fe2391a3c7432edab83834260405180848152602001838152602001828152602001935050505060405180910390a26001935050505090565b600054600160a060020a03163314610799576040805160e560020a62461bcd02815260206004820152602f60248201527f4f6e6c792074686520636f6e7472616374206f776e6572206d6179207065726660448201527f6f726d207468697320616374696f6e0000000000000000000000000000000000606482015290519081900360840190fd5b60218190556040805182815290517f036e0c635f8b7d9314bb6f2a577046108ef0f8b5e3869fbd29fd5a448ed99d309181900360200190a150565b600154600160a060020a031681565b600454600160a060020a031681565b600781565b600154600160a060020a0316331461087f576040805160e560020a62461bcd02815260206004820152603560248201527f596f75206d757374206265206e6f6d696e61746564206265666f726520796f7560448201527f2063616e20616363657074206f776e6572736869700000000000000000000000606482015290519081900360840190fd5b60005460015460408051600160a060020a03938416815292909116602083015280517fb532073b38c83145e3e5135377a08bf9aab55bc0fd7c1179cd4fb995d2a5159c9281900390910190a1600180546000805473ffffffffffffffffffffffffffffffffffffffff19908116600160a060020a03841617909155169055565b601f54600090819042111561095e576040805160e560020a62461bcd02815260206004820152601b60248201527f4d696e7461626c6520706572696f6473206861766520656e6465640000000000604482015290519081900360640190fd5b5060005b600781101561057a57426005826007811061097957fe5b6004020160010154111580156109a35750426005826007811061099857fe5b600402016002015410155b156109b05780915061057a565b600101610962565b600054600160a060020a031681565b60025481565b60215481565b6104106301e13380600263ffffffff610c3e16565b600581600781106109f557fe5b60040201805460018201546002830154600390930154919350919084565b60035481565b6104106301e13380600363ffffffff610c3e16565b6000806000610a3b610db4565b600080600080610a49610551565b1515610a585760009750610b53565b610a606108ff565b9650610a6b87610c9a565b955060058760078110610a7a57fe5b60408051608081018252600492909202929092018054825260018101546020830181905260028083015494840185905260039092015460608401529054919750610acb92039063ffffffff610c7716565b8551909450610ae0908563ffffffff610d5716565b925084602001516003541015610b1457610b0f610b0a866020015142610d2e90919063ffffffff16565b610419565b610b2c565b610b2c610b0a60035442610d2e90919063ffffffff16565b9150610b3e838363ffffffff610d8816565b9050610b50818763ffffffff610d4516565b97505b5050505050505090565b6104106301e13380600663ffffffff610c3e16565b6104106301e13380600163ffffffff610c3e16565b600054600160a060020a03163314610c0f576040805160e560020a62461bcd02815260206004820152602f60248201527f4f6e6c792074686520636f6e7472616374206f776e6572206d6179207065726660448201527f6f726d207468697320616374696f6e0000000000000000000000000000000000606482015290519081900360840190fd5b6004805473ffffffffffffffffffffffffffffffffffffffff1916600160a060020a0392909216919091179055565b600080831515610c515760009150610c70565b50828202828482811515610c6157fe5b0414610c6c57600080fd5b8091505b5092915050565b600080808311610c8657600080fd5b8284811515610c9157fe5b04949350505050565b600080821580610cc357506005600019840160078110610cb657fe5b6004020160020154600354115b15610cd15760009150610d28565b610d106005600019850160078110610ce557fe5b6004020160030154600560018603600781101515610cff57fe5b60040201549063ffffffff610d2e16565b90506000811015610d245760009150610d28565b8091505b50919050565b60008083831115610d3e57600080fd5b5050900390565b600082820183811015610c6c57600080fd5b6000610d8182610d7585670de0b6b3a764000063ffffffff610c3e16565b9063ffffffff610c7716565b9392505050565b6000670de0b6b3a7640000610da3848463ffffffff610c3e16565b811515610dac57fe5b049392505050565b6080604051908101604052806000815260200160008152602001600081526020016000815250905600a165627a7a7230582047ff1d932f6ea3500374e656fbbe3f114c9fce797a5f443d46e5bc891afd8bf80029",
  "source": "/*\n-----------------------------------------------------------------\nFILE INFORMATION\n-----------------------------------------------------------------\n\nfile:       SupplySchedule.sol\nversion:    1.0\nauthor:     Jackson Chan\n            Clinton Ennis\ndate:       2019-03-01\n\n-----------------------------------------------------------------\nMODULE DESCRIPTION\n-----------------------------------------------------------------\n\nSupply Schedule contract. SNX is a transferable ERC20 token.\n\nUser's get staking rewards as part of the incentives of\n+------+-------------+--------------+----------+\n| Year |  Increase   | Total Supply | Increase |\n+------+-------------+--------------+----------+\n|    1 |           0 |  100,000,000 |          |\n|    2 |  75,000,000 |  175,000,000 | 75%      |\n|    3 |  37,500,000 |  212,500,000 | 21%      |\n|    4 |  18,750,000 |  231,250,000 | 9%       |\n|    5 |   9,375,000 |  240,625,000 | 4%       |\n|    6 |   4,687,500 |  245,312,500 | 2%       |\n+------+-------------+--------------+----------+\n\n\n-----------------------------------------------------------------\n*/\n\npragma solidity 0.4.25;\n\nimport \"./SafeDecimalMath.sol\";\nimport \"./Owned.sol\";\nimport \"./Synthetix.sol\";\n\n/**\n * @title SupplySchedule contract\n */\ncontract SupplySchedule is Owned {\n    using SafeMath for uint;\n    using SafeDecimalMath for uint;\n\n    /* Storage */\n    struct ScheduleData {\n        // Total supply issuable during period\n        uint totalSupply;\n\n        // UTC Time - Start of the schedule\n        uint startPeriod;\n\n        // UTC Time - End of the schedule\n        uint endPeriod;\n\n        // UTC Time - Total of supply minted\n        uint totalSupplyMinted;\n    }\n\n    // How long each mint period is\n    uint public mintPeriodDuration = 1 weeks;\n\n    // time supply last minted\n    uint public lastMintEvent;\n\n    Synthetix public synthetix;\n\n    uint constant SECONDS_IN_YEAR = 60 * 60 * 24 * 365;\n\n    uint public constant START_DATE = 1520294400; // 2018-03-06T00:00:00+00:00\n    uint public constant YEAR_ONE = START_DATE + SECONDS_IN_YEAR.mul(1);\n    uint public constant YEAR_TWO = START_DATE + SECONDS_IN_YEAR.mul(2);\n    uint public constant YEAR_THREE = START_DATE + SECONDS_IN_YEAR.mul(3);\n    uint public constant YEAR_FOUR = START_DATE + SECONDS_IN_YEAR.mul(4);\n    uint public constant YEAR_FIVE = START_DATE + SECONDS_IN_YEAR.mul(5);\n    uint public constant YEAR_SIX = START_DATE + SECONDS_IN_YEAR.mul(6);\n    uint public constant YEAR_SEVEN = START_DATE + SECONDS_IN_YEAR.mul(7);\n\n    uint8 constant public INFLATION_SCHEDULES_LENGTH = 7;\n    ScheduleData[INFLATION_SCHEDULES_LENGTH] public schedules;\n\n    uint public minterReward = 200 * SafeDecimalMath.unit();\n\n    constructor(address _owner)\n        Owned(_owner)\n        public\n    {\n        // ScheduleData(totalSupply, startPeriod, endPeriod, totalSupplyMinted)\n        // Year 1 - Total supply 100,000,000\n        schedules[0] = ScheduleData(1e8 * SafeDecimalMath.unit(), START_DATE, YEAR_ONE - 1, 1e8 * SafeDecimalMath.unit());\n        schedules[1] = ScheduleData(75e6 * SafeDecimalMath.unit(), YEAR_ONE, YEAR_TWO - 1, 0); // Year 2 - Total supply 175,000,000\n        schedules[2] = ScheduleData(37.5e6 * SafeDecimalMath.unit(), YEAR_TWO, YEAR_THREE - 1, 0); // Year 3 - Total supply 212,500,000\n        schedules[3] = ScheduleData(18.75e6 * SafeDecimalMath.unit(), YEAR_THREE, YEAR_FOUR - 1, 0); // Year 4 - Total supply 231,250,000\n        schedules[4] = ScheduleData(9.375e6 * SafeDecimalMath.unit(), YEAR_FOUR, YEAR_FIVE - 1, 0); // Year 5 - Total supply 240,625,000\n        schedules[5] = ScheduleData(4.6875e6 * SafeDecimalMath.unit(), YEAR_FIVE, YEAR_SIX - 1, 0); // Year 6 - Total supply 245,312,500\n        schedules[6] = ScheduleData(0, YEAR_SIX, YEAR_SEVEN - 1, 0); // Year 7 - Total supply 245,312,500\n    }\n\n    // ========== SETTERS ========== */\n    function setSynthetix(Synthetix _synthetix)\n        external\n        onlyOwner\n    {\n        synthetix = _synthetix;\n        // emit event\n    }\n\n    // ========== VIEWS ==========\n    function mintableSupply()\n        public\n        view\n        returns (uint)\n    {\n        if (!isMintable()) {\n            return 0;\n        }\n\n        uint index = getCurrentSchedule();\n\n        // Calculate previous year's mintable supply\n        uint amountPreviousPeriod = _remainingSupplyFromPreviousYear(index);\n\n        /* solium-disable */\n\n        // Last mint event within current period will use difference in (now - lastMintEvent)\n        // Last mint event not set (0) / outside of current Period will use current Period\n        // start time resolved in (now - schedule.startPeriod)\n        ScheduleData memory schedule = schedules[index];\n\n        uint weeksInPeriod = (schedule.endPeriod - schedule.startPeriod).div(mintPeriodDuration);\n\n        uint supplyPerWeek = schedule.totalSupply.divideDecimal(weeksInPeriod);\n\n        uint weeksToMint = lastMintEvent >= schedule.startPeriod ? _numWeeksRoundedDown(now.sub(lastMintEvent)) : _numWeeksRoundedDown(now.sub(schedule.startPeriod));\n        // /* solium-enable */\n\n        uint amountInPeriod = supplyPerWeek.multiplyDecimal(weeksToMint);\n        return amountInPeriod.add(amountPreviousPeriod);\n    }\n\n    function _numWeeksRoundedDown(uint _timeDiff)\n        public\n        view\n        returns (uint)\n    {\n        // Take timeDiff in seconds (Dividend) and mintPeriodDuration as (Divisor)\n        // Calculate the numberOfWeeks since last mint rounded down to 1 week\n        // Fraction of a week will return 0\n        return _timeDiff.div(mintPeriodDuration);\n    }\n\n    function isMintable()\n        public\n        view\n        returns (bool)\n    {\n        bool mintable = false;\n        if (now - lastMintEvent > mintPeriodDuration && now <= schedules[6].endPeriod) // Ensure time is not after end of Year 7\n        {\n            mintable = true;\n        }\n        return mintable;\n    }\n\n    // Return the current schedule based on the timestamp\n    // applicable based on startPeriod and endPeriod\n    function getCurrentSchedule()\n        public\n        view\n        returns (uint)\n    {\n        require(now <= schedules[6].endPeriod, \"Mintable periods have ended\");\n\n        for (uint i = 0; i < INFLATION_SCHEDULES_LENGTH; i++) {\n            if (schedules[i].startPeriod <= now && schedules[i].endPeriod >= now) {\n                return i;\n            }\n        }\n    }\n\n    function _remainingSupplyFromPreviousYear(uint currentSchedule)\n        internal\n        view\n        returns (uint)\n    {\n        // All supply has been minted for previous period if last minting event is after\n        // the endPeriod for last year\n        if (currentSchedule == 0 || lastMintEvent > schedules[currentSchedule - 1].endPeriod) {\n            return 0;\n        }\n\n        // return the remaining supply to be minted for previous period missed\n        uint amountInPeriod = schedules[currentSchedule - 1].totalSupply.sub(schedules[currentSchedule - 1].totalSupplyMinted);\n\n        // Ensure previous period remaining amount is not less than 0\n        if (amountInPeriod < 0) {\n            return 0;\n        }\n\n        return amountInPeriod;\n    }\n\n    // ========== MUTATIVE FUNCTIONS ==========\n    function updateMintValues()\n        external\n        onlySynthetix\n        returns (bool)\n    {\n        // Will fail if the time is outside of schedules\n        uint currentIndex = getCurrentSchedule();\n        uint lastPeriodAmount = _remainingSupplyFromPreviousYear(currentIndex);\n        uint currentPeriodAmount = mintableSupply().sub(lastPeriodAmount);\n\n        // Update schedule[n - 1].totalSupplyMinted\n        if (lastPeriodAmount > 0) {\n            schedules[currentIndex - 1].totalSupplyMinted = schedules[currentIndex - 1].totalSupplyMinted.add(lastPeriodAmount);\n        }\n\n        // Update schedule.totalSupplyMinted for currentSchedule\n        schedules[currentIndex].totalSupplyMinted = schedules[currentIndex].totalSupplyMinted.add(currentPeriodAmount);\n        // Update mint event to now\n        lastMintEvent = now;\n\n        emit SupplyMinted(lastPeriodAmount, currentPeriodAmount, currentIndex, now);\n        return true;\n    }\n\n    function setMinterReward(uint _amount)\n        external\n        onlyOwner\n    {\n        minterReward = _amount;\n        emit MinterRewardUpdated(_amount);\n    }\n\n    // ========== MODIFIERS ==========\n\n    modifier onlySynthetix() {\n        require(msg.sender == address(synthetix), \"Only the synthetix contract can perform this action\");\n        _;\n    }\n\n    /* ========== EVENTS ========== */\n\n    event SupplyMinted(uint previousPeriodAmount, uint currentAmount, uint indexed schedule, uint timestamp);\n    event MinterRewardUpdated(uint newRewardAmount);\n}\n",
  "sourcePath": "/Users/mathew/workspace/quantal/test/test-projects/synthetix/contracts/SupplySchedule.sol",
  "compiler": {
    "name": "solc",
    "version": "0.4.25+commit.59dbf8f1.Emscripten.clang"
  },
  "schemaVersion": "3.0.6",
  "updatedAt": "2019-08-12T22:49:05.752Z",
  "devdoc": {
    "methods": {
      "nominateNewOwner(address)": {
        "details": "Only the current owner may nominate a new owner."
      }
    },
    "title": "SupplySchedule contract"
  },
  "userdoc": {
    "methods": {
      "acceptOwnership()": {
        "notice": "Accept the nomination to be owner."
      },
      "nominateNewOwner(address)": {
        "notice": "Nominate a new owner of this contract."
      }
    }
  }
}