{
  "contractName": "Synth",
  "abi": [
    {
      "constant": true,
      "inputs": [],
      "name": "name",
      "outputs": [
        {
          "name": "",
          "type": "string"
        }
      ],
      "payable": false,
      "stateMutability": "view",
      "type": "function"
    },
    {
      "constant": false,
      "inputs": [
        {
          "name": "spender",
          "type": "address"
        },
        {
          "name": "value",
          "type": "uint256"
        }
      ],
      "name": "approve",
      "outputs": [
        {
          "name": "",
          "type": "bool"
        }
      ],
      "payable": false,
      "stateMutability": "nonpayable",
      "type": "function"
    },
    {
      "constant": false,
      "inputs": [
        {
          "name": "_owner",
          "type": "address"
        }
      ],
      "name": "nominateNewOwner",
      "outputs": [],
      "payable": false,
      "stateMutability": "nonpayable",
      "type": "function"
    },
    {
      "constant": true,
      "inputs": [],
      "name": "initiationTime",
      "outputs": [
        {
          "name": "",
          "type": "uint256"
        }
      ],
      "payable": false,
      "stateMutability": "view",
      "type": "function"
    },
    {
      "constant": true,
      "inputs": [],
      "name": "totalSupply",
      "outputs": [
        {
          "name": "",
          "type": "uint256"
        }
      ],
      "payable": false,
      "stateMutability": "view",
      "type": "function"
    },
    {
      "constant": false,
      "inputs": [
        {
          "name": "_beneficiary",
          "type": "address"
        }
      ],
      "name": "setSelfDestructBeneficiary",
      "outputs": [],
      "payable": false,
      "stateMutability": "nonpayable",
      "type": "function"
    },
    {
      "constant": true,
      "inputs": [],
      "name": "decimals",
      "outputs": [
        {
          "name": "",
          "type": "uint8"
        }
      ],
      "payable": false,
      "stateMutability": "view",
      "type": "function"
    },
    {
      "constant": false,
      "inputs": [],
      "name": "terminateSelfDestruct",
      "outputs": [],
      "payable": false,
      "stateMutability": "nonpayable",
      "type": "function"
    },
    {
      "constant": true,
      "inputs": [],
      "name": "nominatedOwner",
      "outputs": [
        {
          "name": "",
          "type": "address"
        }
      ],
      "payable": false,
      "stateMutability": "view",
      "type": "function"
    },
    {
      "constant": true,
      "inputs": [
        {
          "name": "account",
          "type": "address"
        }
      ],
      "name": "balanceOf",
      "outputs": [
        {
          "name": "",
          "type": "uint256"
        }
      ],
      "payable": false,
      "stateMutability": "view",
      "type": "function"
    },
    {
      "constant": true,
      "inputs": [],
      "name": "synthetix",
      "outputs": [
        {
          "name": "",
          "type": "address"
        }
      ],
      "payable": false,
      "stateMutability": "view",
      "type": "function"
    },
    {
      "constant": false,
      "inputs": [],
      "name": "acceptOwnership",
      "outputs": [],
      "payable": false,
      "stateMutability": "nonpayable",
      "type": "function"
    },
    {
      "constant": true,
      "inputs": [],
      "name": "owner",
      "outputs": [
        {
          "name": "",
          "type": "address"
        }
      ],
      "payable": false,
      "stateMutability": "view",
      "type": "function"
    },
    {
      "constant": true,
      "inputs": [],
      "name": "symbol",
      "outputs": [
        {
          "name": "",
          "type": "string"
        }
      ],
      "payable": false,
      "stateMutability": "view",
      "type": "function"
    },
    {
      "constant": false,
      "inputs": [
        {
          "name": "_proxy",
          "type": "address"
        }
      ],
      "name": "setProxy",
      "outputs": [],
      "payable": false,
      "stateMutability": "nonpayable",
      "type": "function"
    },
    {
      "constant": false,
      "inputs": [],
      "name": "selfDestruct",
      "outputs": [],
      "payable": false,
      "stateMutability": "nonpayable",
      "type": "function"
    },
    {
      "constant": false,
      "inputs": [
        {
          "name": "_tokenState",
          "type": "address"
        }
      ],
      "name": "setTokenState",
      "outputs": [],
      "payable": false,
      "stateMutability": "nonpayable",
      "type": "function"
    },
    {
      "constant": true,
      "inputs": [],
      "name": "SELFDESTRUCT_DELAY",
      "outputs": [
        {
          "name": "",
          "type": "uint256"
        }
      ],
      "payable": false,
      "stateMutability": "view",
      "type": "function"
    },
    {
      "constant": true,
      "inputs": [],
      "name": "feePool",
      "outputs": [
        {
          "name": "",
          "type": "address"
        }
      ],
      "payable": false,
      "stateMutability": "view",
      "type": "function"
    },
    {
      "constant": true,
      "inputs": [],
      "name": "selfDestructInitiated",
      "outputs": [
        {
          "name": "",
          "type": "bool"
        }
      ],
      "payable": false,
      "stateMutability": "view",
      "type": "function"
    },
    {
      "constant": false,
      "inputs": [
        {
          "name": "sender",
          "type": "address"
        }
      ],
      "name": "setMessageSender",
      "outputs": [],
      "payable": false,
      "stateMutability": "nonpayable",
      "type": "function"
    },
    {
      "constant": false,
      "inputs": [],
      "name": "initiateSelfDestruct",
      "outputs": [],
      "payable": false,
      "stateMutability": "nonpayable",
      "type": "function"
    },
    {
      "constant": true,
      "inputs": [],
      "name": "selfDestructBeneficiary",
      "outputs": [
        {
          "name": "",
          "type": "address"
        }
      ],
      "payable": false,
      "stateMutability": "view",
      "type": "function"
    },
    {
      "constant": true,
      "inputs": [],
      "name": "currencyKey",
      "outputs": [
        {
          "name": "",
          "type": "bytes4"
        }
      ],
      "payable": false,
      "stateMutability": "view",
      "type": "function"
    },
    {
      "constant": true,
      "inputs": [
        {
          "name": "owner",
          "type": "address"
        },
        {
          "name": "spender",
          "type": "address"
        }
      ],
      "name": "allowance",
      "outputs": [
        {
          "name": "",
          "type": "uint256"
        }
      ],
      "payable": false,
      "stateMutability": "view",
      "type": "function"
    },
    {
      "constant": true,
      "inputs": [],
      "name": "tokenState",
      "outputs": [
        {
          "name": "",
          "type": "address"
        }
      ],
      "payable": false,
      "stateMutability": "view",
      "type": "function"
    },
    {
      "constant": true,
      "inputs": [],
      "name": "proxy",
      "outputs": [
        {
          "name": "",
          "type": "address"
        }
      ],
      "payable": false,
      "stateMutability": "view",
      "type": "function"
    },
    {
      "inputs": [
        {
          "name": "_proxy",
          "type": "address"
        },
        {
          "name": "_tokenState",
          "type": "address"
        },
        {
          "name": "_synthetix",
          "type": "address"
        },
        {
          "name": "_feePool",
          "type": "address"
        },
        {
          "name": "_tokenName",
          "type": "string"
        },
        {
          "name": "_tokenSymbol",
          "type": "string"
        },
        {
          "name": "_owner",
          "type": "address"
        },
        {
          "name": "_currencyKey",
          "type": "bytes4"
        }
      ],
      "payable": false,
      "stateMutability": "nonpayable",
      "type": "constructor"
    },
    {
      "anonymous": false,
      "inputs": [
        {
          "indexed": false,
          "name": "newSynthetix",
          "type": "address"
        }
      ],
      "name": "SynthetixUpdated",
      "type": "event"
    },
    {
      "anonymous": false,
      "inputs": [
        {
          "indexed": false,
          "name": "newFeePool",
          "type": "address"
        }
      ],
      "name": "FeePoolUpdated",
      "type": "event"
    },
    {
      "anonymous": false,
      "inputs": [
        {
          "indexed": true,
          "name": "account",
          "type": "address"
        },
        {
          "indexed": false,
          "name": "value",
          "type": "uint256"
        }
      ],
      "name": "Issued",
      "type": "event"
    },
    {
      "anonymous": false,
      "inputs": [
        {
          "indexed": true,
          "name": "account",
          "type": "address"
        },
        {
          "indexed": false,
          "name": "value",
          "type": "uint256"
        }
      ],
      "name": "Burned",
      "type": "event"
    },
    {
      "anonymous": false,
      "inputs": [
        {
          "indexed": true,
          "name": "from",
          "type": "address"
        },
        {
          "indexed": true,
          "name": "to",
          "type": "address"
        },
        {
          "indexed": false,
          "name": "value",
          "type": "uint256"
        }
      ],
      "name": "Transfer",
      "type": "event"
    },
    {
      "anonymous": false,
      "inputs": [
        {
          "indexed": true,
          "name": "owner",
          "type": "address"
        },
        {
          "indexed": true,
          "name": "spender",
          "type": "address"
        },
        {
          "indexed": false,
          "name": "value",
          "type": "uint256"
        }
      ],
      "name": "Approval",
      "type": "event"
    },
    {
      "anonymous": false,
      "inputs": [
        {
          "indexed": false,
          "name": "newTokenState",
          "type": "address"
        }
      ],
      "name": "TokenStateUpdated",
      "type": "event"
    },
    {
      "anonymous": false,
      "inputs": [
        {
          "indexed": false,
          "name": "proxyAddress",
          "type": "address"
        }
      ],
      "name": "ProxyUpdated",
      "type": "event"
    },
    {
      "anonymous": false,
      "inputs": [],
      "name": "SelfDestructTerminated",
      "type": "event"
    },
    {
      "anonymous": false,
      "inputs": [
        {
          "indexed": false,
          "name": "beneficiary",
          "type": "address"
        }
      ],
      "name": "SelfDestructed",
      "type": "event"
    },
    {
      "anonymous": false,
      "inputs": [
        {
          "indexed": false,
          "name": "selfDestructDelay",
          "type": "uint256"
        }
      ],
      "name": "SelfDestructInitiated",
      "type": "event"
    },
    {
      "anonymous": false,
      "inputs": [
        {
          "indexed": false,
          "name": "newBeneficiary",
          "type": "address"
        }
      ],
      "name": "SelfDestructBeneficiaryUpdated",
      "type": "event"
    },
    {
      "anonymous": false,
      "inputs": [
        {
          "indexed": false,
          "name": "newOwner",
          "type": "address"
        }
      ],
      "name": "OwnerNominated",
      "type": "event"
    },
    {
      "anonymous": false,
      "inputs": [
        {
          "indexed": false,
          "name": "oldOwner",
          "type": "address"
        },
        {
          "indexed": false,
          "name": "newOwner",
          "type": "address"
        }
      ],
      "name": "OwnerChanged",
      "type": "event"
    },
    {
      "constant": false,
      "inputs": [
        {
          "name": "_synthetix",
          "type": "address"
        }
      ],
      "name": "setSynthetix",
      "outputs": [],
      "payable": false,
      "stateMutability": "nonpayable",
      "type": "function"
    },
    {
      "constant": false,
      "inputs": [
        {
          "name": "_feePool",
          "type": "address"
        }
      ],
      "name": "setFeePool",
      "outputs": [],
      "payable": false,
      "stateMutability": "nonpayable",
      "type": "function"
    },
    {
      "constant": false,
      "inputs": [
        {
          "name": "to",
          "type": "address"
        },
        {
          "name": "value",
          "type": "uint256"
        },
        {
          "name": "data",
          "type": "bytes"
        }
      ],
      "name": "transfer",
      "outputs": [
        {
          "name": "",
          "type": "bool"
        }
      ],
      "payable": false,
      "stateMutability": "nonpayable",
      "type": "function"
    },
    {
      "constant": false,
      "inputs": [
        {
          "name": "to",
          "type": "address"
        },
        {
          "name": "value",
          "type": "uint256"
        }
      ],
      "name": "transfer",
      "outputs": [
        {
          "name": "",
          "type": "bool"
        }
      ],
      "payable": false,
      "stateMutability": "nonpayable",
      "type": "function"
    },
    {
      "constant": false,
      "inputs": [
        {
          "name": "from",
          "type": "address"
        },
        {
          "name": "to",
          "type": "address"
        },
        {
          "name": "value",
          "type": "uint256"
        },
        {
          "name": "data",
          "type": "bytes"
        }
      ],
      "name": "transferFrom",
      "outputs": [
        {
          "name": "",
          "type": "bool"
        }
      ],
      "payable": false,
      "stateMutability": "nonpayable",
      "type": "function"
    },
    {
      "constant": false,
      "inputs": [
        {
          "name": "from",
          "type": "address"
        },
        {
          "name": "to",
          "type": "address"
        },
        {
          "name": "value",
          "type": "uint256"
        }
      ],
      "name": "transferFrom",
      "outputs": [
        {
          "name": "",
          "type": "bool"
        }
      ],
      "payable": false,
      "stateMutability": "nonpayable",
      "type": "function"
    },
    {
      "constant": false,
      "inputs": [
        {
          "name": "to",
          "type": "address"
        },
        {
          "name": "value",
          "type": "uint256"
        }
      ],
      "name": "transferSenderPaysFee",
      "outputs": [
        {
          "name": "",
          "type": "bool"
        }
      ],
      "payable": false,
      "stateMutability": "nonpayable",
      "type": "function"
    },
    {
      "constant": false,
      "inputs": [
        {
          "name": "to",
          "type": "address"
        },
        {
          "name": "value",
          "type": "uint256"
        },
        {
          "name": "data",
          "type": "bytes"
        }
      ],
      "name": "transferSenderPaysFee",
      "outputs": [
        {
          "name": "",
          "type": "bool"
        }
      ],
      "payable": false,
      "stateMutability": "nonpayable",
      "type": "function"
    },
    {
      "constant": false,
      "inputs": [
        {
          "name": "from",
          "type": "address"
        },
        {
          "name": "to",
          "type": "address"
        },
        {
          "name": "value",
          "type": "uint256"
        }
      ],
      "name": "transferFromSenderPaysFee",
      "outputs": [
        {
          "name": "",
          "type": "bool"
        }
      ],
      "payable": false,
      "stateMutability": "nonpayable",
      "type": "function"
    },
    {
      "constant": false,
      "inputs": [
        {
          "name": "from",
          "type": "address"
        },
        {
          "name": "to",
          "type": "address"
        },
        {
          "name": "value",
          "type": "uint256"
        },
        {
          "name": "data",
          "type": "bytes"
        }
      ],
      "name": "transferFromSenderPaysFee",
      "outputs": [
        {
          "name": "",
          "type": "bool"
        }
      ],
      "payable": false,
      "stateMutability": "nonpayable",
      "type": "function"
    },
    {
      "constant": false,
      "inputs": [
        {
          "name": "account",
          "type": "address"
        },
        {
          "name": "amount",
          "type": "uint256"
        }
      ],
      "name": "issue",
      "outputs": [],
      "payable": false,
      "stateMutability": "nonpayable",
      "type": "function"
    },
    {
      "constant": false,
      "inputs": [
        {
          "name": "account",
          "type": "address"
        },
        {
          "name": "amount",
          "type": "uint256"
        }
      ],
      "name": "burn",
      "outputs": [],
      "payable": false,
      "stateMutability": "nonpayable",
      "type": "function"
    },
    {
      "constant": false,
      "inputs": [
        {
          "name": "amount",
          "type": "uint256"
        }
      ],
      "name": "setTotalSupply",
      "outputs": [],
      "payable": false,
      "stateMutability": "nonpayable",
      "type": "function"
    },
    {
      "constant": false,
      "inputs": [
        {
          "name": "sender",
          "type": "address"
        },
        {
          "name": "recipient",
          "type": "address"
        },
        {
          "name": "amount",
          "type": "uint256"
        }
      ],
      "name": "triggerTokenFallbackIfNeeded",
      "outputs": [],
      "payable": false,
      "stateMutability": "nonpayable",
      "type": "function"
    }
  ],
  "bytecode": "0x60806040526005805460a060020a60ff02191690553480156200002157600080fd5b50604051620048f9380380620048f983398101604090815281516020830151918301516060840151608085015160a086015160c087015160e08801519597949593949283019391909201919087878585600060128786818080600160a060020a0381161515620000f257604080517f08c379a000000000000000000000000000000000000000000000000000000000815260206004820152601960248201527f4f776e657220616464726573732063616e6e6f74206265203000000000000000604482015290519081900360640190fd5b60008054600160a060020a031916600160a060020a038316908117825560408051928352602083019190915280517fb532073b38c83145e3e5135377a08bf9aab55bc0fd7c1179cd4fb995d2a5159c9281900390910190a150600160a060020a0381161515620001e957604080517f08c379a000000000000000000000000000000000000000000000000000000000815260206004820152602260248201527f4f776e6572206d757374206e6f7420626520746865207a65726f20616464726560448201527f7373000000000000000000000000000000000000000000000000000000000000606482015290519081900360840190fd5b60038054600160a060020a038316610100810261010060a860020a03199092169190911790915560408051918252517fd5da63a0b864b315bc04128dedbc93888c8529ee6cf47ce664dc204339228c539181900360200190a15060048054600160a060020a038416600160a060020a0319909116811790915560408051918252517ffc80377ca9c49cc11ae6982f390a42db976d5530af7c43889264b13fbbd7c57e9181900360200190a1505060068054600160a060020a031916600160a060020a0388161790558451620002c690600790602088019062000698565b508351620002dc90600890602087019062000698565b5050600991909155600a805460ff191660ff90921691909117905550505050600160a060020a03881615156200037357604080517f08c379a000000000000000000000000000000000000000000000000000000000815260206004820152601260248201527f5f70726f78792063616e6e6f7420626520300000000000000000000000000000604482015290519081900360640190fd5b600160a060020a0386161515620003eb57604080517f08c379a000000000000000000000000000000000000000000000000000000000815260206004820152601660248201527f5f73796e7468657469782063616e6e6f74206265203000000000000000000000604482015290519081900360640190fd5b600160a060020a03851615156200046357604080517f08c379a000000000000000000000000000000000000000000000000000000000815260206004820152601460248201527f5f666565506f6f6c2063616e6e6f742062652030000000000000000000000000604482015290519081900360640190fd5b600160a060020a0382161515620004db57604080517f08c379a000000000000000000000000000000000000000000000000000000000815260206004820152601260248201527f5f6f776e65722063616e6e6f7420626520300000000000000000000000000000604482015290519081900360640190fd5b604080517f502b8bda0000000000000000000000000000000000000000000000000000000081527fffffffff00000000000000000000000000000000000000000000000000000000831660048201529051600091600160a060020a0389169163502b8bda9160248082019260209290919082900301818787803b1580156200056257600080fd5b505af115801562000577573d6000803e3d6000fd5b505050506040513d60208110156200058e57600080fd5b5051600160a060020a0316146200060657604080517f08c379a000000000000000000000000000000000000000000000000000000000815260206004820152601e60248201527f43757272656e6379206b657920697320616c726561647920696e207573650000604482015290519081900360640190fd5b600a805461010060a860020a031916610100600160a060020a0397881602179055600b8054600160a060020a031916969095169590951760a060020a63ffffffff021916740100000000000000000000000000000000000000007c01000000000000000000000000000000000000000000000000000000009096049590950294909417909255506200073d9350505050565b828054600181600116156101000203166002900490600052602060002090601f016020900481019282601f10620006db57805160ff19168380011785556200070b565b828001600101855582156200070b579182015b828111156200070b578251825591602001919060010190620006ee565b50620007199291506200071d565b5090565b6200073a91905b8082111562000719576000815560010162000724565b90565b6141ac806200074d6000396000f3006080604052600436106101df5763ffffffff60e060020a60003504166306fdde0381146101e4578063095ea7b31461026e5780631627540c146102a657806317c70de4146102c957806318160ddd146102f057806319db22281461030557806320714f881461032657806323b872dd14610347578063313ce567146103715780633278c9601461039c5780633c960be9146103b157806353a47bb71461042057806370a0823114610451578063759b52251461047257806379ba509714610487578063867904b41461049c5780638da5cb5b146104c057806395d89b41146104d557806397107d6d146104ea5780639cb8a26a1461050b5780639dc29fac146105205780639f76980714610544578063a461fc8214610565578063a9059cbb1461057a578063ab67aa581461059e578063ae2e933b1461060d578063b4bede8514610622578063b8225dec1461068b578063bc67f832146106a0578063bd32aa44146106c1578063be45fd62146106d6578063c58aaae61461073f578063d66c9cc214610754578063dbd06c8514610778578063dd62ed3e146107aa578063e6fbf441146107d1578063e90dd9e2146107fb578063eb6ecc0314610810578063ec5568891461083a578063f7ea7a3d1461084f578063fec9f9da14610867575b600080fd5b3480156101f057600080fd5b506101f9610888565b6040805160208082528351818301528351919283929083019185019080838360005b8381101561023357818101518382015260200161021b565b50505050905090810190601f1680156102605780820380516001836020036101000a031916815260200191505b509250505060405180910390f35b34801561027a57600080fd5b50610292600160a060020a0360043516602435610916565b604080519115158252519081900360200190f35b3480156102b257600080fd5b506102c7600160a060020a03600435166109ea565b005b3480156102d557600080fd5b506102de610aa2565b60408051918252519081900360200190f35b3480156102fc57600080fd5b506102de610aa8565b34801561031157600080fd5b506102c7600160a060020a0360043516610aae565b34801561033257600080fd5b506102c7600160a060020a0360043516610b76565b34801561035357600080fd5b50610292600160a060020a0360043581169060243516604435610cc9565b34801561037d57600080fd5b50610386611060565b6040805160ff9092168252519081900360200190f35b3480156103a857600080fd5b506102c7611069565b3480156103bd57600080fd5b50604080516020601f60643560048181013592830184900484028501840190955281845261029294600160a060020a0381358116956024803590921695604435953695608494019181908401838280828437509497506111079650505050505050565b34801561042c57600080fd5b50610435611494565b60408051600160a060020a039092168252519081900360200190f35b34801561045d57600080fd5b506102de600160a060020a03600435166114a3565b34801561047e57600080fd5b5061043561152a565b34801561049357600080fd5b506102c7611539565b3480156104a857600080fd5b506102c7600160a060020a0360043516602435611634565b3480156104cc57600080fd5b50610435611810565b3480156104e157600080fd5b506101f961181f565b3480156104f657600080fd5b506102c7600160a060020a036004351661187a565b34801561051757600080fd5b506102c7611932565b34801561052c57600080fd5b506102c7600160a060020a0360043516602435611af7565b34801561055057600080fd5b506102c7600160a060020a0360043516611c95565b34801561057157600080fd5b506102de611d48565b34801561058657600080fd5b50610292600160a060020a0360043516602435611d4f565b3480156105aa57600080fd5b50604080516020601f60643560048181013592830184900484028501840190955281845261029294600160a060020a038135811695602480359092169560443595369560849401918190840183828082843750949750611fc09650505050505050565b34801561061957600080fd5b50610435612310565b34801561062e57600080fd5b50604080516020600460443581810135601f8101849004840285018401909552848452610292948235600160a060020a03169460248035953695946064949201919081908401838280828437509497506123249650505050505050565b34801561069757600080fd5b50610292612588565b3480156106ac57600080fd5b506102c7600160a060020a0360043516612591565b3480156106cd57600080fd5b506102c761263b565b3480156106e257600080fd5b50604080516020600460443581810135601f8101849004840285018401909552848452610292948235600160a060020a03169460248035953695946064949201919081908401838280828437509497506126e89650505050505050565b34801561074b57600080fd5b50610435612956565b34801561076057600080fd5b50610292600160a060020a036004351660243561296a565b34801561078457600080fd5b5061078d612bc7565b60408051600160e060020a03199092168252519081900360200190f35b3480156107b657600080fd5b506102de600160a060020a0360043581169060243516612bda565b3480156107dd57600080fd5b50610292600160a060020a0360043581169060243516604435612c80565b34801561080757600080fd5b50610435612f66565b34801561081c57600080fd5b506102c7600160a060020a0360043581169060243516604435612f75565b34801561084657600080fd5b5061043561302f565b34801561085b57600080fd5b506102c760043561303e565b34801561087357600080fd5b506102c7600160a060020a03600435166130d2565b6007805460408051602060026001851615610100026000190190941693909304601f8101849004840282018401909252818152929183018282801561090e5780601f106108e35761010080835404028352916020019161090e565b820191906000526020600020905b8154815290600101906020018083116108f157829003601f168201915b505050505081565b6004546000908190600160a060020a031633146109405760058054600160a060020a031916331790555b50600554600654604080517fda46098c000000000000000000000000000000000000000000000000000000008152600160a060020a0393841660048201819052878516602483015260448201879052915191939092169163da46098c91606480830192600092919082900301818387803b1580156109bd57600080fd5b505af11580156109d1573d6000803e3d6000fd5b505050506109e0818585613185565b5060019392505050565b600054600160a060020a03163314610a4e576040805160e560020a62461bcd02815260206004820152602f60248201526000805160206140c18339815191526044820152600080516020614101833981519152606482015290519081900360840190fd5b60018054600160a060020a038316600160a060020a0319909116811790915560408051918252517f906a1c6bd7e3091ea86693dd029a831c19049ce77f1dce2ce0bab1cacbabce229181900360200190a150565b60025481565b60095481565b600454600160a060020a03163314610ad35760058054600160a060020a031916331790555b600054600554600160a060020a03908116911614610b3d576040805160e560020a62461bcd02815260206004820152602e60248201526000805160206140e18339815191526044820152600080516020614161833981519152606482015290519081900360840190fd5b600a805474ffffffffffffffffffffffffffffffffffffffff001916610100600160a060020a03841602179055610b73816132f6565b50565b600054600160a060020a03163314610bda576040805160e560020a62461bcd02815260206004820152602f60248201526000805160206140c18339815191526044820152600080516020614101833981519152606482015290519081900360840190fd5b600160a060020a0381161515610c60576040805160e560020a62461bcd02815260206004820152602860248201527f42656e6566696369617279206d757374206e6f7420626520746865207a65726f60448201527f2061646472657373000000000000000000000000000000000000000000000000606482015290519081900360840190fd5b60038054600160a060020a038316610100810274ffffffffffffffffffffffffffffffffffffffff00199092169190911790915560408051918252517fd5da63a0b864b315bc04128dedbc93888c8529ee6cf47ce664dc204339228c539181900360200190a150565b60045460009081908190606090600160a060020a03163314610cf85760058054600160a060020a031916331790555b86600a60019054906101000a9004600160a060020a0316600160a060020a031663eb1edd616040518163ffffffff1660e060020a028152600401602060405180830381600087803b158015610d4c57600080fd5b505af1158015610d60573d6000803e3d6000fd5b505050506040513d6020811015610d7657600080fd5b5051600160a060020a0382811691161415610ddd576040805160e560020a62461bcd02815260206004820152602f60248201526000805160206141418339815191526044820152600080516020614121833981519152606482015290519081900360840190fd5b600a60019054906101000a9004600160a060020a0316600160a060020a031663b7fcfa69876040518263ffffffff1660e060020a02815260040180828152602001915050602060405180830381600087803b158015610e3b57600080fd5b505af1158015610e4f573d6000803e3d6000fd5b505050506040513d6020811015610e6557600080fd5b50519350610e79868563ffffffff61343d16565b600654600554604080517fdd62ed3e000000000000000000000000000000000000000000000000000000008152600160a060020a038d81166004830152928316602482018190529151949750919092169263da46098c928c929091610f3b918c91879163dd62ed3e9160448083019260209291908290030181600087803b158015610f0357600080fd5b505af1158015610f17573d6000803e3d6000fd5b505050506040513d6020811015610f2d57600080fd5b50519063ffffffff61343d16565b6040805160e060020a63ffffffff8716028152600160a060020a03948516600482015292909316602483015260448201529051606480830192600092919082900301818387803b158015610f8e57600080fd5b505af1158015610fa2573d6000803e3d6000fd5b5050600b546040805160e260020a632f95d8d9028152600160a060020a038d81166004830152600160e060020a031960e060020a60a060020a86040216602483015260448201899052915191909216935063be576364925060648083019260209291908290030181600087803b15801561101b57600080fd5b505af115801561102f573d6000803e3d6000fd5b505050506040513d602081101561104557600080fd5b50611054905088888685613454565b98975050505050505050565b600a5460ff1681565b600054600160a060020a031633146110cd576040805160e560020a62461bcd02815260206004820152602f60248201526000805160206140c18339815191526044820152600080516020614101833981519152606482015290519081900360840190fd5b600060028190556003805460ff191690556040517f6adcc7125002935e0aa31697538ebbd65cfddf20431eb6ecdcfc3e238bfd082c9190a1565b6004546000908190600160a060020a031633146111315760058054600160a060020a031916331790555b85600a60019054906101000a9004600160a060020a0316600160a060020a031663eb1edd616040518163ffffffff1660e060020a028152600401602060405180830381600087803b15801561118557600080fd5b505af1158015611199573d6000803e3d6000fd5b505050506040513d60208110156111af57600080fd5b5051600160a060020a0382811691161415611216576040805160e560020a62461bcd02815260206004820152602f60248201526000805160206141418339815191526044820152600080516020614121833981519152606482015290519081900360840190fd5b600a60019054906101000a9004600160a060020a0316600160a060020a031663da46e6c4866040518263ffffffff1660e060020a02815260040180828152602001915050602060405180830381600087803b15801561127457600080fd5b505af1158015611288573d6000803e3d6000fd5b505050506040513d602081101561129e57600080fd5b5051600654600554919350600160a060020a039081169163da46098c918a91166113706112d18a8863ffffffff61368a16565b600660009054906101000a9004600160a060020a0316600160a060020a031663dd62ed3e8e600560009054906101000a9004600160a060020a03166040518363ffffffff1660e060020a0281526004018083600160a060020a0316600160a060020a0316815260200182600160a060020a0316600160a060020a0316815260200192505050602060405180830381600087803b158015610f0357600080fd5b6040805160e060020a63ffffffff8716028152600160a060020a03948516600482015292909316602483015260448201529051606480830192600092919082900301818387803b1580156113c357600080fd5b505af11580156113d7573d6000803e3d6000fd5b5050600b546040805160e260020a632f95d8d9028152600160a060020a038c81166004830152600160e060020a031960e060020a60a060020a86040216602483015260448201889052915191909216935063be576364925060648083019260209291908290030181600087803b15801561145057600080fd5b505af1158015611464573d6000803e3d6000fd5b505050506040513d602081101561147a57600080fd5b50611489905087878787613454565b979650505050505050565b600154600160a060020a031681565b6006546040805160e060020a6370a08231028152600160a060020a038481166004830152915160009392909216916370a082319160248082019260209290919082900301818787803b1580156114f857600080fd5b505af115801561150c573d6000803e3d6000fd5b505050506040513d602081101561152257600080fd5b505192915050565b600b54600160a060020a031681565b600154600160a060020a031633146115c1576040805160e560020a62461bcd02815260206004820152603560248201527f596f75206d757374206265206e6f6d696e61746564206265666f726520796f7560448201527f2063616e20616363657074206f776e6572736869700000000000000000000000606482015290519081900360840190fd5b60005460015460408051600160a060020a03938416815292909116602083015280517fb532073b38c83145e3e5135377a08bf9aab55bc0fd7c1179cd4fb995d2a5159c9281900390910190a16001805460008054600160a060020a0319908116600160a060020a03841617909155169055565b600b54600a5433600160a060020a0392831681149261010090920490911614818061165c5750805b15156116d8576040805160e560020a62461bcd02815260206004820152603f60248201527f4f6e6c79207468652053796e746865746978206f7220466565506f6f6c20636f60448201527f6e7472616374732063616e20706572666f726d207468697320616374696f6e00606482015290519081900360840190fd5b6006546040805160e060020a6370a08231028152600160a060020a0387811660048301529151919092169163b46310f691879161177391889186916370a08231916024808201926020929091908290030181600087803b15801561173b57600080fd5b505af115801561174f573d6000803e3d6000fd5b505050506040513d602081101561176557600080fd5b50519063ffffffff61368a16565b6040518363ffffffff1660e060020a0281526004018083600160a060020a0316600160a060020a0316815260200182815260200192505050600060405180830381600087803b1580156117c557600080fd5b505af11580156117d9573d6000803e3d6000fd5b50506009546117f1925090508463ffffffff61368a16565b600955611800600085856136a3565b61180a84846137a5565b50505050565b600054600160a060020a031681565b6008805460408051602060026001851615610100026000190190941693909304601f8101849004840282018401909252818152929183018282801561090e5780601f106108e35761010080835404028352916020019161090e565b600054600160a060020a031633146118de576040805160e560020a62461bcd02815260206004820152602f60248201526000805160206140c18339815191526044820152600080516020614101833981519152606482015290519081900360840190fd5b60048054600160a060020a038316600160a060020a0319909116811790915560408051918252517ffc80377ca9c49cc11ae6982f390a42db976d5530af7c43889264b13fbbd7c57e9181900360200190a150565b60008054600160a060020a03163314611997576040805160e560020a62461bcd02815260206004820152602f60248201526000805160206140c18339815191526044820152600080516020614101833981519152606482015290519081900360840190fd5b60035460ff161515611a19576040805160e560020a62461bcd02815260206004820152602860248201527f53656c6620646573747275637420686173206e6f7420796574206265656e206960448201527f6e69746961746564000000000000000000000000000000000000000000000000606482015290519081900360840190fd5b426224ea0060025401101515611a9f576040805160e560020a62461bcd02815260206004820152602760248201527f53656c662064657374727563742064656c617920686173206e6f74207965742060448201527f656c617073656400000000000000000000000000000000000000000000000000606482015290519081900360840190fd5b5060035460408051600160a060020a0361010090930492909216808352905190917f8a09e1677ced846cb537dc2b172043bd05a1a81ad7e0033a7ef8ba762df990b7919081900360200190a180600160a060020a0316ff5b600b54600a5433600160a060020a03928316811492610100909204909116148180611b1f5750805b1515611b9b576040805160e560020a62461bcd02815260206004820152603f60248201527f4f6e6c79207468652053796e746865746978206f7220466565506f6f6c20636f60448201527f6e7472616374732063616e20706572666f726d207468697320616374696f6e00606482015290519081900360840190fd5b6006546040805160e060020a6370a08231028152600160a060020a0387811660048301529151919092169163b46310f6918791611bfe91889186916370a08231916024808201926020929091908290030181600087803b158015610f0357600080fd5b6040518363ffffffff1660e060020a0281526004018083600160a060020a0316600160a060020a0316815260200182815260200192505050600060405180830381600087803b158015611c5057600080fd5b505af1158015611c64573d6000803e3d6000fd5b5050600954611c7c925090508463ffffffff61343d16565b600955611c8b846000856136a3565b61180a84846138e5565b600454600160a060020a03163314611cba5760058054600160a060020a031916331790555b600054600554600160a060020a03908116911614611d24576040805160e560020a62461bcd02815260206004820152602e60248201526000805160206140e18339815191526044820152600080516020614161833981519152606482015290519081900360840190fd5b60068054600160a060020a031916600160a060020a038316179055610b73816139bf565b6224ea0081565b60045460009081908190606090600160a060020a03163314611d7e5760058054600160a060020a031916331790555b600554600a546040805160e060020a63eb1edd610281529051600160a060020a03938416936101009093049092169163eb1edd61916004808201926020929091908290030181600087803b158015611dd557600080fd5b505af1158015611de9573d6000803e3d6000fd5b505050506040513d6020811015611dff57600080fd5b5051600160a060020a0382811691161415611e66576040805160e560020a62461bcd02815260206004820152602f60248201526000805160206141418339815191526044820152600080516020614121833981519152606482015290519081900360840190fd5b600a60019054906101000a9004600160a060020a0316600160a060020a031663b7fcfa69876040518263ffffffff1660e060020a02815260040180828152602001915050602060405180830381600087803b158015611ec457600080fd5b505af1158015611ed8573d6000803e3d6000fd5b505050506040513d6020811015611eee57600080fd5b50519350611f02868563ffffffff61343d16565b600b546005546040805160e260020a632f95d8d9028152600160a060020a039283166004820152600160e060020a031960e060020a60a060020a86040216602482015260448101859052905193965091169163be576364916064808201926020929091908290030181600087803b158015611f7c57600080fd5b505af1158015611f90573d6000803e3d6000fd5b505050506040513d6020811015611fa657600080fd5b505060055461148990600160a060020a0316888685613454565b60045460009081908190600160a060020a03163314611fec5760058054600160a060020a031916331790555b86600a60019054906101000a9004600160a060020a0316600160a060020a031663eb1edd616040518163ffffffff1660e060020a028152600401602060405180830381600087803b15801561204057600080fd5b505af1158015612054573d6000803e3d6000fd5b505050506040513d602081101561206a57600080fd5b5051600160a060020a03828116911614156120d1576040805160e560020a62461bcd02815260206004820152602f60248201526000805160206141418339815191526044820152600080516020614121833981519152606482015290519081900360840190fd5b600a60019054906101000a9004600160a060020a0316600160a060020a031663b7fcfa69876040518263ffffffff1660e060020a02815260040180828152602001915050602060405180830381600087803b15801561212f57600080fd5b505af1158015612143573d6000803e3d6000fd5b505050506040513d602081101561215957600080fd5b5051925061216d868463ffffffff61343d16565b600654600554604080517fdd62ed3e000000000000000000000000000000000000000000000000000000008152600160a060020a038d81166004830152928316602482018190529151949650919092169263da46098c928c9290916121f7918c91879163dd62ed3e9160448083019260209291908290030181600087803b158015610f0357600080fd5b6040805160e060020a63ffffffff8716028152600160a060020a03948516600482015292909316602483015260448201529051606480830192600092919082900301818387803b15801561224a57600080fd5b505af115801561225e573d6000803e3d6000fd5b5050600b546040805160e260020a632f95d8d9028152600160a060020a038d81166004830152600160e060020a031960e060020a60a060020a86040216602483015260448201889052915191909216935063be576364925060648083019260209291908290030181600087803b1580156122d757600080fd5b505af11580156122eb573d6000803e3d6000fd5b505050506040513d602081101561230157600080fd5b50611054905088888588613454565b600a546101009004600160a060020a031681565b6004546000908190600160a060020a0316331461234e5760058054600160a060020a031916331790555b600554600a546040805160e060020a63eb1edd610281529051600160a060020a03938416936101009093049092169163eb1edd61916004808201926020929091908290030181600087803b1580156123a557600080fd5b505af11580156123b9573d6000803e3d6000fd5b505050506040513d60208110156123cf57600080fd5b5051600160a060020a0382811691161415612436576040805160e560020a62461bcd02815260206004820152602f60248201526000805160206141418339815191526044820152600080516020614121833981519152606482015290519081900360840190fd5b600a60019054906101000a9004600160a060020a0316600160a060020a031663da46e6c4866040518263ffffffff1660e060020a02815260040180828152602001915050602060405180830381600087803b15801561249457600080fd5b505af11580156124a8573d6000803e3d6000fd5b505050506040513d60208110156124be57600080fd5b5051600b546005546040805160e260020a632f95d8d9028152600160a060020a039283166004820152600160e060020a031960e060020a60a060020a86040216602482015260448101859052905193955091169163be576364916064808201926020929091908290030181600087803b15801561253a57600080fd5b505af115801561254e573d6000803e3d6000fd5b505050506040513d602081101561256457600080fd5b505060055461257e90600160a060020a0316878787613454565b9695505050505050565b60035460ff1681565b600454600160a060020a03163314612619576040805160e560020a62461bcd02815260206004820152602560248201527f4f6e6c79207468652070726f78792063616e2063616c6c20746869732066756e60448201527f6374696f6e000000000000000000000000000000000000000000000000000000606482015290519081900360840190fd5b60058054600160a060020a031916600160a060020a0392909216919091179055565b600054600160a060020a0316331461269f576040805160e560020a62461bcd02815260206004820152602f60248201526000805160206140c18339815191526044820152600080516020614101833981519152606482015290519081900360840190fd5b426002556003805460ff19166001179055604080516224ea00815290517fcbd94ca75b8dc45c9d80c77e851670e78843c0d75180cb81db3e2158228fa9a69181900360200190a1565b60045460009081908190600160a060020a031633146127145760058054600160a060020a031916331790555b600554600a546040805160e060020a63eb1edd610281529051600160a060020a03938416936101009093049092169163eb1edd61916004808201926020929091908290030181600087803b15801561276b57600080fd5b505af115801561277f573d6000803e3d6000fd5b505050506040513d602081101561279557600080fd5b5051600160a060020a03828116911614156127fc576040805160e560020a62461bcd02815260206004820152602f60248201526000805160206141418339815191526044820152600080516020614121833981519152606482015290519081900360840190fd5b600a60019054906101000a9004600160a060020a0316600160a060020a031663b7fcfa69876040518263ffffffff1660e060020a02815260040180828152602001915050602060405180830381600087803b15801561285a57600080fd5b505af115801561286e573d6000803e3d6000fd5b505050506040513d602081101561288457600080fd5b50519250612898868463ffffffff61343d16565b600b546005546040805160e260020a632f95d8d9028152600160a060020a039283166004820152600160e060020a031960e060020a60a060020a86040216602482015260448101859052905193955091169163be576364916064808201926020929091908290030181600087803b15801561291257600080fd5b505af1158015612926573d6000803e3d6000fd5b505050506040513d602081101561293c57600080fd5b505060055461148990600160a060020a0316888588613454565b6003546101009004600160a060020a031681565b6004546000908190606090600160a060020a031633146129975760058054600160a060020a031916331790555b600554600a546040805160e060020a63eb1edd610281529051600160a060020a03938416936101009093049092169163eb1edd61916004808201926020929091908290030181600087803b1580156129ee57600080fd5b505af1158015612a02573d6000803e3d6000fd5b505050506040513d6020811015612a1857600080fd5b5051600160a060020a0382811691161415612a7f576040805160e560020a62461bcd02815260206004820152602f60248201526000805160206141418339815191526044820152600080516020614121833981519152606482015290519081900360840190fd5b600a60019054906101000a9004600160a060020a0316600160a060020a031663da46e6c4866040518263ffffffff1660e060020a02815260040180828152602001915050602060405180830381600087803b158015612add57600080fd5b505af1158015612af1573d6000803e3d6000fd5b505050506040513d6020811015612b0757600080fd5b5051600b546005546040805160e260020a632f95d8d9028152600160a060020a039283166004820152600160e060020a031960e060020a60a060020a86040216602482015260448101859052905193965091169163be576364916064808201926020929091908290030181600087803b158015612b8357600080fd5b505af1158015612b97573d6000803e3d6000fd5b505050506040513d6020811015612bad57600080fd5b505060055461257e90600160a060020a0316878785613454565b600b5460a060020a900460e060020a0281565b600654604080517fdd62ed3e000000000000000000000000000000000000000000000000000000008152600160a060020a03858116600483015284811660248301529151600093929092169163dd62ed3e9160448082019260209290919082900301818787803b158015612c4d57600080fd5b505af1158015612c61573d6000803e3d6000fd5b505050506040513d6020811015612c7757600080fd5b50519392505050565b6004546000908190606090600160a060020a03163314612cad5760058054600160a060020a031916331790555b85600a60019054906101000a9004600160a060020a0316600160a060020a031663eb1edd616040518163ffffffff1660e060020a028152600401602060405180830381600087803b158015612d0157600080fd5b505af1158015612d15573d6000803e3d6000fd5b505050506040513d6020811015612d2b57600080fd5b5051600160a060020a0382811691161415612d92576040805160e560020a62461bcd02815260206004820152602f60248201526000805160206141418339815191526044820152600080516020614121833981519152606482015290519081900360840190fd5b600a60019054906101000a9004600160a060020a0316600160a060020a031663da46e6c4866040518263ffffffff1660e060020a02815260040180828152602001915050602060405180830381600087803b158015612df057600080fd5b505af1158015612e04573d6000803e3d6000fd5b505050506040513d6020811015612e1a57600080fd5b5051600654600554919450600160a060020a039081169163da46098c918a9116612e4d6112d18a8963ffffffff61368a16565b6040805160e060020a63ffffffff8716028152600160a060020a03948516600482015292909316602483015260448201529051606480830192600092919082900301818387803b158015612ea057600080fd5b505af1158015612eb4573d6000803e3d6000fd5b5050600b546040805160e260020a632f95d8d9028152600160a060020a038c81166004830152600160e060020a031960e060020a60a060020a86040216602483015260448201899052915191909216935063be576364925060648083019260209291908290030181600087803b158015612f2d57600080fd5b505af1158015612f41573d6000803e3d6000fd5b505050506040513d6020811015612f5757600080fd5b50611489905087878785613454565b600654600160a060020a031681565b600b54600a5460609133600160a060020a039182168114926101009004909116148180612f9f5750805b151561301b576040805160e560020a62461bcd02815260206004820152603f60248201527f4f6e6c79207468652053796e746865746978206f7220466565506f6f6c20636f60448201527f6e7472616374732063616e20706572666f726d207468697320616374696f6e00606482015290519081900360840190fd5b61302786868686613a99565b505050505050565b600454600160a060020a031681565b600454600160a060020a031633146130635760058054600160a060020a031916331790555b600054600554600160a060020a039081169116146130cd576040805160e560020a62461bcd02815260206004820152602e60248201526000805160206140e18339815191526044820152600080516020614161833981519152606482015290519081900360840190fd5b600955565b600454600160a060020a031633146130f75760058054600160a060020a031916331790555b600054600554600160a060020a03908116911614613161576040805160e560020a62461bcd02815260206004820152602e60248201526000805160206140e18339815191526044820152600080516020614161833981519152606482015290519081900360840190fd5b600b8054600160a060020a031916600160a060020a038316179055610b7381613cb5565b600480546040805160208082018690528251808303820181528284018085527f417070726f76616c28616464726573732c616464726573732c75696e7432353690527f29000000000000000000000000000000000000000000000000000000000000006060840152925191829003606101822060e060020a63907dff9702835260036024840181905260448401829052600160a060020a038a8116606486018190528a821660848701819052600060a4880181905260c09a88019a8b52885160c48901528851939099169963907dff97999497959692959194939092839260e40191908a0190808383885b83811015613288578181015183820152602001613270565b50505050905090810190601f1680156132b55780820380516001836020036101000a031916815260200191505b50975050505050505050600060405180830381600087803b1580156132d957600080fd5b505af11580156132ed573d6000803e3d6000fd5b50505050505050565b6004805460408051600160a060020a038581166020808401919091528351808403820181528385018086527f466565506f6f6c557064617465642861646472657373290000000000000000009052935192839003605701832060e060020a63907dff97028452600160248501819052604485018290526000606486018190526084860181905260a4860181905260c0988601988952865160c48701528651949097169763907dff979791959294919384938493839260e4909201918a0190808383885b838110156133d15781810151838201526020016133b9565b50505050905090810190601f1680156133fe5780820380516001836020036101000a031916815260200191505b50975050505050505050600060405180830381600087803b15801561342257600080fd5b505af1158015613436573d6000803e3d6000fd5b5050505050565b6000808383111561344d57600080fd5b5050900390565b600080600b60009054906101000a9004600160a060020a0316600160a060020a031663dbd4a4226040518163ffffffff1660e060020a028152600401602060405180830381600087803b1580156134aa57600080fd5b505af11580156134be573d6000803e3d6000fd5b505050506040513d60208110156134d457600080fd5b5051604080517fcaca2516000000000000000000000000000000000000000000000000000000008152600160a060020a0388811660048301529151919092169163caca25169160248083019260209291908290030181600087803b15801561353b57600080fd5b505af115801561354f573d6000803e3d6000fd5b505050506040513d602081101561356557600080fd5b50519050600160e060020a031981161580159061359f5750600b5460a060020a900460e060020a02600160e060020a031990811690821614155b1561367257600b54604080517fbe0ecd32000000000000000000000000000000000000000000000000000000008152600160a060020a038981166004830152600160e060020a031960e060020a60a060020a86040281166024840152604483018990528516606483015288811660848301529151919092169163be0ecd329160a48083019260209291908290030181600087803b15801561363f57600080fd5b505af1158015613653573d6000803e3d6000fd5b505050506040513d602081101561366957600080fd5b50519150613681565b61367e86868686613d8f565b91505b50949350505050565b60008282018381101561369c57600080fd5b9392505050565b600480546040805160208082018690528251808303820181528284018085527f5472616e7366657228616464726573732c616464726573732c75696e7432353690527f29000000000000000000000000000000000000000000000000000000000000006060840152925191829003606101822060e060020a63907dff9702835260036024840181905260448401829052600160a060020a038a8116606486018190528a821660848701819052600060a4880181905260c09a88019a8b52885160c48901528851939099169963907dff97999497959692959194939092839260e40191908a01908083838883811015613288578181015183820152602001613270565b600480546040805160208082018690528251808303820181528284018085527f49737375656428616464726573732c75696e74323536290000000000000000009052925191829003605701822060e060020a63907dff9702835260026024840181905260448401829052600160a060020a038981166064860181905260006084870181905260a4870181905260c0998701998a52875160c48801528751929098169863907dff979893969495919484939192839260e490920191908a0190808383885b83811015613880578181015183820152602001613868565b50505050905090810190601f1680156138ad5780820380516001836020036101000a031916815260200191505b50975050505050505050600060405180830381600087803b1580156138d157600080fd5b505af1158015613027573d6000803e3d6000fd5b600480546040805160208082018690528251808303820181528284018085527f4275726e656428616464726573732c75696e74323536290000000000000000009052925191829003605701822060e060020a63907dff9702835260026024840181905260448401829052600160a060020a038981166064860181905260006084870181905260a4870181905260c0998701998a52875160c48801528751929098169863907dff979893969495919484939192839260e490920191908a01908083838883811015613880578181015183820152602001613868565b6004805460408051600160a060020a038581166020808401919091528351808403820181528385018086527f546f6b656e5374617465557064617465642861646472657373290000000000009052935192839003605a01832060e060020a63907dff97028452600160248501819052604485018290526000606486018190526084860181905260a4860181905260c0988601988952865160c48701528651949097169763907dff979791959294919384938493839260e4909201918a019080838388838110156133d15781810151838201526020016133b9565b60055460009060a060020a900460ff1615613afe576040805160e560020a62461bcd02815260206004820152601e60248201527f526576657274656420746f2070726576656e74207265656e7472616e63790000604482015290519081900360640190fd5b506005805474ff0000000000000000000000000000000000000000191660a060020a179055823b6000811115613c905783600160a060020a03168584846040516024018084600160a060020a0316600160a060020a0316815260200183815260200180602001828103825283818151815260200191508051906020019080838360005b83811015613b99578181015183820152602001613b81565b50505050905090810190601f168015613bc65780820380516001836020036101000a031916815260200191505b5060408051601f198184030181529181526020820180517bffffffffffffffffffffffffffffffffffffffffffffffffffffffff167fc0ee0b8a000000000000000000000000000000000000000000000000000000001781529051825192975095508594509250905080838360005b83811015613c4d578181015183820152602001613c35565b50505050905090810190601f168015613c7a5780820380516001836020036101000a031916815260200191505b509150506000604051808303816000865af15050505b50506005805474ff000000000000000000000000000000000000000019169055505050565b6004805460408051600160a060020a038581166020808401919091528351808403820181528385018086527f53796e74686574697855706461746564286164647265737329000000000000009052935192839003605901832060e060020a63907dff97028452600160248501819052604485018290526000606486018190526084860181905260a4860181905260c0988601988952865160c48701528651949097169763907dff979791959294919384938493839260e4909201918a019080838388838110156133d15781810151838201526020016133b9565b6000600160a060020a0384161515613df1576040805160e560020a62461bcd02815260206004820181905260248201527f43616e6e6f74207472616e7366657220746f2074686520302061646472657373604482015290519081900360640190fd5b600160a060020a038416301415613e78576040805160e560020a62461bcd02815260206004820152602a60248201527f43616e6e6f74207472616e7366657220746f2074686520756e6465726c79696e60448201527f6720636f6e747261637400000000000000000000000000000000000000000000606482015290519081900360840190fd5b600454600160a060020a0385811691161415613f04576040805160e560020a62461bcd02815260206004820152602560248201527f43616e6e6f74207472616e7366657220746f207468652070726f787920636f6e60448201527f7472616374000000000000000000000000000000000000000000000000000000606482015290519081900360840190fd5b6006546040805160e060020a6370a08231028152600160a060020a0388811660048301529151919092169163b46310f6918891613f6791889186916370a08231916024808201926020929091908290030181600087803b158015610f0357600080fd5b6040518363ffffffff1660e060020a0281526004018083600160a060020a0316600160a060020a0316815260200182815260200192505050600060405180830381600087803b158015613fb957600080fd5b505af1158015613fcd573d6000803e3d6000fd5b50506006546040805160e060020a6370a08231028152600160a060020a038981166004830152915191909216935063b46310f69250879161403491889186916370a08231916024808201926020929091908290030181600087803b15801561173b57600080fd5b6040518363ffffffff1660e060020a0281526004018083600160a060020a0316600160a060020a0316815260200182815260200192505050600060405180830381600087803b15801561408657600080fd5b505af115801561409a573d6000803e3d6000fd5b505050506140aa85858585613a99565b6140b58585856136a3565b50600194935050505056004f6e6c792074686520636f6e7472616374206f776e6572206d617920706572665468697320616374696f6e2063616e206f6e6c7920626520706572666f726d656f726d207468697320616374696f6e0000000000000000000000000000000000746865206665652061646472657373000000000000000000000000000000000043616e6e6f7420706572666f726d207468697320616374696f6e2077697468206420627920746865206f776e6572000000000000000000000000000000000000a165627a7a723058201bda8b7082dd6f4573e51a3047ba96b16379a7ea014b4a6c91d42da1ccebf2b30029",
  "source": "/*\n-----------------------------------------------------------------\nFILE INFORMATION\n-----------------------------------------------------------------\n\nfile:       Synth.sol\nversion:    2.0\nauthor:     Kevin Brown\ndate:       2018-09-13\n\n-----------------------------------------------------------------\nMODULE DESCRIPTION\n-----------------------------------------------------------------\n\nSynthetix-backed stablecoin contract.\n\nThis contract issues synths, which are tokens that mirror various\nflavours of fiat currency.\n\nSynths are issuable by Synthetix Network Token (SNX) holders who\nhave to lock up some value of their SNX to issue S * Cmax synths.\nWhere Cmax issome value less than 1.\n\nA configurable fee is charged on synth transfers and deposited\ninto a common pot, which Synthetix holders may withdraw from once\nper fee period.\n\n-----------------------------------------------------------------\n*/\n\npragma solidity 0.4.25;\n\nimport \"./ExternStateToken.sol\";\nimport \"./IFeePool.sol\";\nimport \"./Synthetix.sol\";\n\ncontract Synth is ExternStateToken {\n\n    /* ========== STATE VARIABLES ========== */\n\n    IFeePool public feePool;\n    Synthetix public synthetix;\n\n    // Currency key which identifies this Synth to the Synthetix system\n    bytes4 public currencyKey;\n\n    uint8 constant DECIMALS = 18;\n\n    /* ========== CONSTRUCTOR ========== */\n\n    constructor(address _proxy, TokenState _tokenState, Synthetix _synthetix, IFeePool _feePool,\n        string _tokenName, string _tokenSymbol, address _owner, bytes4 _currencyKey\n    )\n        ExternStateToken(_proxy, _tokenState, _tokenName, _tokenSymbol, 0, DECIMALS, _owner)\n        public\n    {\n        require(_proxy != 0, \"_proxy cannot be 0\");\n        require(address(_synthetix) != 0, \"_synthetix cannot be 0\");\n        require(address(_feePool) != 0, \"_feePool cannot be 0\");\n        require(_owner != 0, \"_owner cannot be 0\");\n        require(_synthetix.synths(_currencyKey) == Synth(0), \"Currency key is already in use\");\n\n        feePool = _feePool;\n        synthetix = _synthetix;\n        currencyKey = _currencyKey;\n    }\n\n    /* ========== SETTERS ========== */\n\n    function setSynthetix(Synthetix _synthetix)\n        external\n        optionalProxy_onlyOwner\n    {\n        synthetix = _synthetix;\n        emitSynthetixUpdated(_synthetix);\n    }\n\n    function setFeePool(IFeePool _feePool)\n        external\n        optionalProxy_onlyOwner\n    {\n        feePool = _feePool;\n        emitFeePoolUpdated(_feePool);\n    }\n\n    /* ========== MUTATIVE FUNCTIONS ========== */\n\n    /**\n     * @notice Override ERC20 transfer function in order to\n     * subtract the transaction fee and send it to the fee pool\n     * for SNX holders to claim. */\n    function transfer(address to, uint value)\n        public\n        optionalProxy\n        notFeeAddress(messageSender)\n        returns (bool)\n    {\n        uint amountReceived = feePool.amountReceivedFromTransfer(value);\n        uint fee = value.sub(amountReceived);\n\n        // Send the fee off to the fee pool.\n        synthetix.synthInitiatedFeePayment(messageSender, currencyKey, fee);\n\n        // And send their result off to the destination address\n        bytes memory empty;\n        return _internalTransfer(messageSender, to, amountReceived, empty);\n    }\n\n    /**\n     * @notice Override ERC223 transfer function in order to\n     * subtract the transaction fee and send it to the fee pool\n     * for SNX holders to claim. */\n    function transfer(address to, uint value, bytes data)\n        public\n        optionalProxy\n        notFeeAddress(messageSender)\n        returns (bool)\n    {\n        uint amountReceived = feePool.amountReceivedFromTransfer(value);\n        uint fee = value.sub(amountReceived);\n\n        // Send the fee off to the fee pool, which we don't want to charge an additional fee on\n        synthetix.synthInitiatedFeePayment(messageSender, currencyKey, fee);\n\n        // And send their result off to the destination address\n        return _internalTransfer(messageSender, to, amountReceived, data);\n    }\n\n    /**\n     * @notice Override ERC20 transferFrom function in order to\n     * subtract the transaction fee and send it to the fee pool\n     * for SNX holders to claim. */\n    function transferFrom(address from, address to, uint value)\n        public\n        optionalProxy\n        notFeeAddress(from)\n        returns (bool)\n    {\n        // The fee is deducted from the amount sent.\n        uint amountReceived = feePool.amountReceivedFromTransfer(value);\n        uint fee = value.sub(amountReceived);\n\n        // Reduce the allowance by the amount we're transferring.\n        // The safeSub call will handle an insufficient allowance.\n        tokenState.setAllowance(from, messageSender, tokenState.allowance(from, messageSender).sub(value));\n\n        // Send the fee off to the fee pool.\n        synthetix.synthInitiatedFeePayment(from, currencyKey, fee);\n\n        bytes memory empty;\n        return _internalTransfer(from, to, amountReceived, empty);\n    }\n\n    /**\n     * @notice Override ERC223 transferFrom function in order to\n     * subtract the transaction fee and send it to the fee pool\n     * for SNX holders to claim. */\n    function transferFrom(address from, address to, uint value, bytes data)\n        public\n        optionalProxy\n        notFeeAddress(from)\n        returns (bool)\n    {\n        // The fee is deducted from the amount sent.\n        uint amountReceived = feePool.amountReceivedFromTransfer(value);\n        uint fee = value.sub(amountReceived);\n\n        // Reduce the allowance by the amount we're transferring.\n        // The safeSub call will handle an insufficient allowance.\n        tokenState.setAllowance(from, messageSender, tokenState.allowance(from, messageSender).sub(value));\n\n        // Send the fee off to the fee pool, which we don't want to charge an additional fee on\n        synthetix.synthInitiatedFeePayment(from, currencyKey, fee);\n\n        return _internalTransfer(from, to, amountReceived, data);\n    }\n\n    /* Subtract the transfer fee from the senders account so the\n     * receiver gets the exact amount specified to send. */\n    function transferSenderPaysFee(address to, uint value)\n        public\n        optionalProxy\n        notFeeAddress(messageSender)\n        returns (bool)\n    {\n        uint fee = feePool.transferFeeIncurred(value);\n\n        // Send the fee off to the fee pool, which we don't want to charge an additional fee on\n        synthetix.synthInitiatedFeePayment(messageSender, currencyKey, fee);\n\n        // And send their transfer amount off to the destination address\n        bytes memory empty;\n        return _internalTransfer(messageSender, to, value, empty);\n    }\n\n    /* Subtract the transfer fee from the senders account so the\n     * receiver gets the exact amount specified to send. */\n    function transferSenderPaysFee(address to, uint value, bytes data)\n        public\n        optionalProxy\n        notFeeAddress(messageSender)\n        returns (bool)\n    {\n        uint fee = feePool.transferFeeIncurred(value);\n\n        // Send the fee off to the fee pool, which we don't want to charge an additional fee on\n        synthetix.synthInitiatedFeePayment(messageSender, currencyKey, fee);\n\n        // And send their transfer amount off to the destination address\n        return _internalTransfer(messageSender, to, value, data);\n    }\n\n    /* Subtract the transfer fee from the senders account so the\n     * to address receives the exact amount specified to send. */\n    function transferFromSenderPaysFee(address from, address to, uint value)\n        public\n        optionalProxy\n        notFeeAddress(from)\n        returns (bool)\n    {\n        uint fee = feePool.transferFeeIncurred(value);\n\n        // Reduce the allowance by the amount we're transferring.\n        // The safeSub call will handle an insufficient allowance.\n        tokenState.setAllowance(from, messageSender, tokenState.allowance(from, messageSender).sub(value.add(fee)));\n\n        // Send the fee off to the fee pool, which we don't want to charge an additional fee on\n        synthetix.synthInitiatedFeePayment(from, currencyKey, fee);\n\n        bytes memory empty;\n        return _internalTransfer(from, to, value, empty);\n    }\n\n    /* Subtract the transfer fee from the senders account so the\n     * to address receives the exact amount specified to send. */\n    function transferFromSenderPaysFee(address from, address to, uint value, bytes data)\n        public\n        optionalProxy\n        notFeeAddress(from)\n        returns (bool)\n    {\n        uint fee = feePool.transferFeeIncurred(value);\n\n        // Reduce the allowance by the amount we're transferring.\n        // The safeSub call will handle an insufficient allowance.\n        tokenState.setAllowance(from, messageSender, tokenState.allowance(from, messageSender).sub(value.add(fee)));\n\n        // Send the fee off to the fee pool, which we don't want to charge an additional fee on\n        synthetix.synthInitiatedFeePayment(from, currencyKey, fee);\n\n        return _internalTransfer(from, to, value, data);\n    }\n\n    // Override our internal transfer to inject preferred currency support\n    function _internalTransfer(address from, address to, uint value, bytes data)\n        internal\n        returns (bool)\n    {\n        bytes4 preferredCurrencyKey = synthetix.synthetixState().preferredCurrency(to);\n\n        // Do they have a preferred currency that's not us? If so we need to exchange\n        if (preferredCurrencyKey != 0 && preferredCurrencyKey != currencyKey) {\n            return synthetix.synthInitiatedExchange(from, currencyKey, value, preferredCurrencyKey, to);\n        } else {\n            // Otherwise we just transfer\n            return super._internalTransfer(from, to, value, data);\n        }\n    }\n\n    // Allow synthetix to issue a certain number of synths from an account.\n    function issue(address account, uint amount)\n        external\n        onlySynthetixOrFeePool\n    {\n        tokenState.setBalanceOf(account, tokenState.balanceOf(account).add(amount));\n        totalSupply = totalSupply.add(amount);\n        emitTransfer(address(0), account, amount);\n        emitIssued(account, amount);\n    }\n\n    // Allow synthetix or another synth contract to burn a certain number of synths from an account.\n    function burn(address account, uint amount)\n        external\n        onlySynthetixOrFeePool\n    {\n        tokenState.setBalanceOf(account, tokenState.balanceOf(account).sub(amount));\n        totalSupply = totalSupply.sub(amount);\n        emitTransfer(account, address(0), amount);\n        emitBurned(account, amount);\n    }\n\n    // Allow owner to set the total supply on import.\n    function setTotalSupply(uint amount)\n        external\n        optionalProxy_onlyOwner\n    {\n        totalSupply = amount;\n    }\n\n    // Allow synthetix to trigger a token fallback call from our synths so users get notified on\n    // exchange as well as transfer\n    function triggerTokenFallbackIfNeeded(address sender, address recipient, uint amount)\n        external\n        onlySynthetixOrFeePool\n    {\n        bytes memory empty;\n        callTokenFallbackIfNeeded(sender, recipient, amount, empty);\n    }\n\n    /* ========== MODIFIERS ========== */\n\n    modifier onlySynthetixOrFeePool() {\n        bool isSynthetix = msg.sender == address(synthetix);\n        bool isFeePool = msg.sender == address(feePool);\n\n        require(isSynthetix || isFeePool, \"Only the Synthetix or FeePool contracts can perform this action\");\n        _;\n    }\n\n    modifier notFeeAddress(address account) {\n        require(account != feePool.FEE_ADDRESS(), \"Cannot perform this action with the fee address\");\n        _;\n    }\n\n    /* ========== EVENTS ========== */\n\n    event SynthetixUpdated(address newSynthetix);\n    bytes32 constant SYNTHETIXUPDATED_SIG = keccak256(\"SynthetixUpdated(address)\");\n    function emitSynthetixUpdated(address newSynthetix) internal {\n        proxy._emit(abi.encode(newSynthetix), 1, SYNTHETIXUPDATED_SIG, 0, 0, 0);\n    }\n\n    event FeePoolUpdated(address newFeePool);\n    bytes32 constant FEEPOOLUPDATED_SIG = keccak256(\"FeePoolUpdated(address)\");\n    function emitFeePoolUpdated(address newFeePool) internal {\n        proxy._emit(abi.encode(newFeePool), 1, FEEPOOLUPDATED_SIG, 0, 0, 0);\n    }\n\n    event Issued(address indexed account, uint value);\n    bytes32 constant ISSUED_SIG = keccak256(\"Issued(address,uint256)\");\n    function emitIssued(address account, uint value) internal {\n        proxy._emit(abi.encode(value), 2, ISSUED_SIG, bytes32(account), 0, 0);\n    }\n\n    event Burned(address indexed account, uint value);\n    bytes32 constant BURNED_SIG = keccak256(\"Burned(address,uint256)\");\n    function emitBurned(address account, uint value) internal {\n        proxy._emit(abi.encode(value), 2, BURNED_SIG, bytes32(account), 0, 0);\n    }\n}\n",
  "sourcePath": "/Users/mathew/workspace/quantal/test/test-projects/synthetix/contracts/Synth.sol",
  "compiler": {
    "name": "solc",
    "version": "0.4.25+commit.59dbf8f1.Emscripten.clang"
  },
  "schemaVersion": "3.0.6",
  "updatedAt": "2019-08-12T22:49:05.758Z",
  "devdoc": {
    "methods": {
      "allowance(address,address)": {
        "params": {
          "owner": "The party authorising spending of their funds.",
          "spender": "The party spending tokenOwner's funds."
        }
      },
      "initiateSelfDestruct()": {
        "details": "Only the contract owner may call this."
      },
      "nominateNewOwner(address)": {
        "details": "Only the current owner may nominate a new owner."
      },
      "selfDestruct()": {
        "details": "Only the contract owner may call this."
      },
      "setSelfDestructBeneficiary(address)": {
        "details": "Only the contract owner may call this. The provided beneficiary must be non-null.",
        "params": {
          "_beneficiary": "The address to pay any eth contained in this contract to upon self-destruction."
        }
      },
      "setTokenState(address)": {
        "details": "This can be used to \"pause\" transfer functionality, by pointing the tokenState at 0x000.. as balances would be unreachable."
      },
      "terminateSelfDestruct()": {
        "details": "Only the contract owner may call this."
      }
    }
  },
  "userdoc": {
    "methods": {
      "acceptOwnership()": {
        "notice": "Accept the nomination to be owner."
      },
      "allowance(address,address)": {
        "notice": "Returns the ERC20 allowance of one party to spend on behalf of another."
      },
      "approve(address,uint256)": {
        "notice": "Approves spender to transfer on the message sender's behalf."
      },
      "balanceOf(address)": {
        "notice": "Returns the ERC20 token balance of a given account."
      },
      "initiateSelfDestruct()": {
        "notice": "Begin the self-destruction counter of this contract. Once the delay has elapsed, the contract may be self-destructed."
      },
      "nominateNewOwner(address)": {
        "notice": "Nominate a new owner of this contract."
      },
      "selfDestruct()": {
        "notice": "If the self-destruction delay has elapsed, destroy this contract and remit any ether it owns to the beneficiary address."
      },
      "setSelfDestructBeneficiary(address)": {
        "notice": "Set the beneficiary address of this contract."
      },
      "setTokenState(address)": {
        "notice": "Set the address of the TokenState contract."
      },
      "terminateSelfDestruct()": {
        "notice": "Terminate and reset the self-destruction timer."
      },
      "transfer(address,uint256)": {
        "notice": "Override ERC20 transfer function in order to subtract the transaction fee and send it to the fee pool for SNX holders to claim. "
      },
      "transfer(address,uint256,bytes)": {
        "notice": "Override ERC223 transfer function in order to subtract the transaction fee and send it to the fee pool for SNX holders to claim. "
      },
      "transferFrom(address,address,uint256)": {
        "notice": "Override ERC20 transferFrom function in order to subtract the transaction fee and send it to the fee pool for SNX holders to claim. "
      },
      "transferFrom(address,address,uint256,bytes)": {
        "notice": "Override ERC223 transferFrom function in order to subtract the transaction fee and send it to the fee pool for SNX holders to claim. "
      }
    }
  }
}