{
  "contractName": "SynthetixEscrow",
  "abi": [
    {
      "constant": false,
      "inputs": [
        {
          "name": "_owner",
          "type": "address"
        }
      ],
      "name": "nominateNewOwner",
      "outputs": [],
      "payable": false,
      "stateMutability": "nonpayable",
      "type": "function"
    },
    {
      "constant": true,
      "inputs": [
        {
          "name": "",
          "type": "address"
        }
      ],
      "name": "totalVestedAccountBalance",
      "outputs": [
        {
          "name": "",
          "type": "uint256"
        }
      ],
      "payable": false,
      "stateMutability": "view",
      "type": "function"
    },
    {
      "constant": true,
      "inputs": [
        {
          "name": "",
          "type": "address"
        },
        {
          "name": "",
          "type": "uint256"
        },
        {
          "name": "",
          "type": "uint256"
        }
      ],
      "name": "vestingSchedules",
      "outputs": [
        {
          "name": "",
          "type": "uint256"
        }
      ],
      "payable": false,
      "stateMutability": "view",
      "type": "function"
    },
    {
      "constant": true,
      "inputs": [],
      "name": "nominatedOwner",
      "outputs": [
        {
          "name": "",
          "type": "address"
        }
      ],
      "payable": false,
      "stateMutability": "view",
      "type": "function"
    },
    {
      "constant": true,
      "inputs": [],
      "name": "synthetix",
      "outputs": [
        {
          "name": "",
          "type": "address"
        }
      ],
      "payable": false,
      "stateMutability": "view",
      "type": "function"
    },
    {
      "constant": false,
      "inputs": [],
      "name": "acceptOwnership",
      "outputs": [],
      "payable": false,
      "stateMutability": "nonpayable",
      "type": "function"
    },
    {
      "constant": true,
      "inputs": [],
      "name": "owner",
      "outputs": [
        {
          "name": "",
          "type": "address"
        }
      ],
      "payable": false,
      "stateMutability": "view",
      "type": "function"
    },
    {
      "constant": true,
      "inputs": [],
      "name": "totalVestedBalance",
      "outputs": [
        {
          "name": "",
          "type": "uint256"
        }
      ],
      "payable": false,
      "stateMutability": "view",
      "type": "function"
    },
    {
      "inputs": [
        {
          "name": "_owner",
          "type": "address"
        },
        {
          "name": "_synthetix",
          "type": "address"
        }
      ],
      "payable": false,
      "stateMutability": "nonpayable",
      "type": "constructor"
    },
    {
      "anonymous": false,
      "inputs": [
        {
          "indexed": false,
          "name": "newSynthetix",
          "type": "address"
        }
      ],
      "name": "SynthetixUpdated",
      "type": "event"
    },
    {
      "anonymous": false,
      "inputs": [
        {
          "indexed": true,
          "name": "beneficiary",
          "type": "address"
        },
        {
          "indexed": false,
          "name": "time",
          "type": "uint256"
        },
        {
          "indexed": false,
          "name": "value",
          "type": "uint256"
        }
      ],
      "name": "Vested",
      "type": "event"
    },
    {
      "anonymous": false,
      "inputs": [
        {
          "indexed": false,
          "name": "newOwner",
          "type": "address"
        }
      ],
      "name": "OwnerNominated",
      "type": "event"
    },
    {
      "anonymous": false,
      "inputs": [
        {
          "indexed": false,
          "name": "oldOwner",
          "type": "address"
        },
        {
          "indexed": false,
          "name": "newOwner",
          "type": "address"
        }
      ],
      "name": "OwnerChanged",
      "type": "event"
    },
    {
      "constant": false,
      "inputs": [
        {
          "name": "_synthetix",
          "type": "address"
        }
      ],
      "name": "setSynthetix",
      "outputs": [],
      "payable": false,
      "stateMutability": "nonpayable",
      "type": "function"
    },
    {
      "constant": true,
      "inputs": [
        {
          "name": "account",
          "type": "address"
        }
      ],
      "name": "balanceOf",
      "outputs": [
        {
          "name": "",
          "type": "uint256"
        }
      ],
      "payable": false,
      "stateMutability": "view",
      "type": "function"
    },
    {
      "constant": true,
      "inputs": [
        {
          "name": "account",
          "type": "address"
        }
      ],
      "name": "numVestingEntries",
      "outputs": [
        {
          "name": "",
          "type": "uint256"
        }
      ],
      "payable": false,
      "stateMutability": "view",
      "type": "function"
    },
    {
      "constant": true,
      "inputs": [
        {
          "name": "account",
          "type": "address"
        },
        {
          "name": "index",
          "type": "uint256"
        }
      ],
      "name": "getVestingScheduleEntry",
      "outputs": [
        {
          "name": "",
          "type": "uint256[2]"
        }
      ],
      "payable": false,
      "stateMutability": "view",
      "type": "function"
    },
    {
      "constant": true,
      "inputs": [
        {
          "name": "account",
          "type": "address"
        },
        {
          "name": "index",
          "type": "uint256"
        }
      ],
      "name": "getVestingTime",
      "outputs": [
        {
          "name": "",
          "type": "uint256"
        }
      ],
      "payable": false,
      "stateMutability": "view",
      "type": "function"
    },
    {
      "constant": true,
      "inputs": [
        {
          "name": "account",
          "type": "address"
        },
        {
          "name": "index",
          "type": "uint256"
        }
      ],
      "name": "getVestingQuantity",
      "outputs": [
        {
          "name": "",
          "type": "uint256"
        }
      ],
      "payable": false,
      "stateMutability": "view",
      "type": "function"
    },
    {
      "constant": true,
      "inputs": [
        {
          "name": "account",
          "type": "address"
        }
      ],
      "name": "getNextVestingIndex",
      "outputs": [
        {
          "name": "",
          "type": "uint256"
        }
      ],
      "payable": false,
      "stateMutability": "view",
      "type": "function"
    },
    {
      "constant": true,
      "inputs": [
        {
          "name": "account",
          "type": "address"
        }
      ],
      "name": "getNextVestingEntry",
      "outputs": [
        {
          "name": "",
          "type": "uint256[2]"
        }
      ],
      "payable": false,
      "stateMutability": "view",
      "type": "function"
    },
    {
      "constant": true,
      "inputs": [
        {
          "name": "account",
          "type": "address"
        }
      ],
      "name": "getNextVestingTime",
      "outputs": [
        {
          "name": "",
          "type": "uint256"
        }
      ],
      "payable": false,
      "stateMutability": "view",
      "type": "function"
    },
    {
      "constant": true,
      "inputs": [
        {
          "name": "account",
          "type": "address"
        }
      ],
      "name": "getNextVestingQuantity",
      "outputs": [
        {
          "name": "",
          "type": "uint256"
        }
      ],
      "payable": false,
      "stateMutability": "view",
      "type": "function"
    },
    {
      "constant": false,
      "inputs": [
        {
          "name": "quantity",
          "type": "uint256"
        }
      ],
      "name": "withdrawSynthetix",
      "outputs": [],
      "payable": false,
      "stateMutability": "nonpayable",
      "type": "function"
    },
    {
      "constant": false,
      "inputs": [
        {
          "name": "account",
          "type": "address"
        }
      ],
      "name": "purgeAccount",
      "outputs": [],
      "payable": false,
      "stateMutability": "nonpayable",
      "type": "function"
    },
    {
      "constant": false,
      "inputs": [
        {
          "name": "account",
          "type": "address"
        },
        {
          "name": "time",
          "type": "uint256"
        },
        {
          "name": "quantity",
          "type": "uint256"
        }
      ],
      "name": "appendVestingEntry",
      "outputs": [],
      "payable": false,
      "stateMutability": "nonpayable",
      "type": "function"
    },
    {
      "constant": false,
      "inputs": [
        {
          "name": "account",
          "type": "address"
        },
        {
          "name": "times",
          "type": "uint256[]"
        },
        {
          "name": "quantities",
          "type": "uint256[]"
        }
      ],
      "name": "addVestingSchedule",
      "outputs": [],
      "payable": false,
      "stateMutability": "nonpayable",
      "type": "function"
    },
    {
      "constant": false,
      "inputs": [],
      "name": "vest",
      "outputs": [],
      "payable": false,
      "stateMutability": "nonpayable",
      "type": "function"
    }
  ],
  "bytecode": "0x608060405234801561001057600080fd5b5060405160408061161b8339810160405280516020909101516249d40082600160a060020a03811615156100a557604080517f08c379a000000000000000000000000000000000000000000000000000000000815260206004820152601960248201527f4f776e657220616464726573732063616e6e6f74206265203000000000000000604482015290519081900360640190fd5b60008054600160a060020a031916600160a060020a038316908117825560408051928352602083019190915280517fb532073b38c83145e3e5135377a08bf9aab55bc0fd7c1179cd4fb995d2a5159c9281900390910190a150420160025560038054600160a060020a031916600160a060020a0392909216919091179055506114e8806101336000396000f3006080604052600436106101325763ffffffff7c0100000000000000000000000000000000000000000000000000000000600035041663135c070181146101375780631627540c1461015a57806319e740c01461017b5780631bb47b44146101ae578063204b676a146101d5578063227d517a146101f65780632f5bb66114610217578063458efde31461027357806345e5441f1461028857806353a47bb7146102af5780636b3905c4146102e057806370a0823114610301578063759b52251461032257806379ba5097146103375780638da5cb5b1461034c57806397f46527146103615780639b217f9014610382578063a15d59ce146103a6578063bb2a7d0c146103bb578063da7bd3e9146103f4578063e6d76a7614610418578063ee1d036c14610430578063fec9f9da14610454575b600080fd5b34801561014357600080fd5b50610158600160a060020a0360043516610475565b005b34801561016657600080fd5b50610158600160a060020a036004351661059d565b34801561018757600080fd5b5061019c600160a060020a0360043516610662565b60408051918252519081900360200190f35b3480156101ba57600080fd5b50610158600160a060020a03600435166024356044356106a9565b3480156101e157600080fd5b5061019c600160a060020a0360043516610b29565b34801561020257600080fd5b5061019c600160a060020a0360043516610b44565b34801561022357600080fd5b50610238600160a060020a0360043516610b56565b6040518082600260200280838360005b83811015610260578181015183820152602001610248565b5050505090500191505060405180910390f35b34801561027f57600080fd5b50610158610ba9565b34801561029457600080fd5b5061019c600160a060020a0360043516602435604435610d8a565b3480156102bb57600080fd5b506102c4610dca565b60408051600160a060020a039092168252519081900360200190f35b3480156102ec57600080fd5b5061019c600160a060020a0360043516610dd9565b34801561030d57600080fd5b5061019c600160a060020a0360043516610df2565b34801561032e57600080fd5b506102c4610e0d565b34801561034357600080fd5b50610158610e1c565b34801561035857600080fd5b506102c4610f24565b34801561036d57600080fd5b5061019c600160a060020a0360043516610f33565b34801561038e57600080fd5b5061019c600160a060020a0360043516602435610f45565b3480156103b257600080fd5b5061019c610f60565b3480156103c757600080fd5b5061015860048035600160a060020a03169060248035808201929081013591604435908101910135610f66565b34801561040057600080fd5b50610238600160a060020a036004351660243561106b565b34801561042457600080fd5b506101586004356110da565b34801561043c57600080fd5b5061019c600160a060020a0360043516602435611236565b34801561046057600080fd5b50610158600160a060020a0360043516611249565b600054600160a060020a031633146104d9576040805160e560020a62461bcd02815260206004820152602f602482015260008051602061143d833981519152604482015260008051602061147d833981519152606482015290519081900360840190fd5b6002544210610534576040805160e560020a62461bcd028152602060048201526029602482015260008051602061149d833981519152604482015260008051602061145d833981519152606482015290519081900360840190fd5b600160a060020a03811660009081526004602052604081206105559161133e565b600160a060020a0381166000908152600560205260409020546006546105809163ffffffff61130e16565b600655600160a060020a0316600090815260056020526040812055565b600054600160a060020a03163314610601576040805160e560020a62461bcd02815260206004820152602f602482015260008051602061143d833981519152604482015260008051602061147d833981519152606482015290519081900360840190fd5b60018054600160a060020a03831673ffffffffffffffffffffffffffffffffffffffff19909116811790915560408051918252517f906a1c6bd7e3091ea86693dd029a831c19049ce77f1dce2ce0bab1cacbabce229181900360200190a150565b600080600061067084610b29565b9150600090505b8181101561069e576106898482610f45565b15610696578092506106a2565b600101610677565b8192505b5050919050565b60008054600160a060020a0316331461070e576040805160e560020a62461bcd02815260206004820152602f602482015260008051602061143d833981519152604482015260008051602061147d833981519152606482015290519081900360840190fd5b6002544210610769576040805160e560020a62461bcd028152602060048201526029602482015260008051602061149d833981519152604482015260008051602061145d833981519152606482015290519081900360840190fd5b4283116107c0576040805160e560020a62461bcd02815260206004820152601a60248201527f54696d65206d75737420626520696e2074686520667574757265000000000000604482015290519081900360640190fd5b811515610817576040805160e560020a62461bcd02815260206004820152601760248201527f5175616e746974792063616e6e6f74206265207a65726f000000000000000000604482015290519081900360640190fd5b60065461082a908363ffffffff61132516565b600655600354604080517f70a082310000000000000000000000000000000000000000000000000000000081523060048201529051600160a060020a03909216916370a08231916024808201926020929091908290030181600087803b15801561089357600080fd5b505af11580156108a7573d6000803e3d6000fd5b505050506040513d60208110156108bd57600080fd5b50516006541115610964576040805160e560020a62461bcd02815260206004820152604760248201527f4d75737420626520656e6f7567682062616c616e636520696e2074686520636f60448201527f6e747261637420746f2070726f7669646520666f72207468652076657374696e60648201527f6720656e74727900000000000000000000000000000000000000000000000000608482015290519081900360a40190fd5b50600160a060020a03831660009081526004602052604090205460148111156109d7576040805160e560020a62461bcd02815260206004820152601c60248201527f56657374696e67207363686564756c6520697320746f6f206c6f6e6700000000604482015290519081900360640190fd5b8015156109fe57600160a060020a0384166000908152600560205260409020829055610ad2565b82610a14856001610a0e88610b29565b03610f45565b10610a8f576040805160e560020a62461bcd02815260206004820152603760248201527f43616e6e6f7420616464206e65772076657374656420656e747269657320656160448201527f726c696572207468616e20746865206c617374206f6e65000000000000000000606482015290519081900360840190fd5b600160a060020a038416600090815260056020526040902054610ab8908363ffffffff61132516565b600160a060020a0385166000908152600560205260409020555b600160a060020a0384166000908152600460209081526040808320815180830190925286825281830186905280546001810180835591855292909320610b219260029081029091019190611362565b505050505050565b600160a060020a031660009081526004602052604090205490565b60056020526000908152604090205481565b610b5e6113a0565b6000610b6983610662565b9050610b7483610b29565b811415610b965760408051808201909152600080825260208201529150610ba3565b610ba0838261106b565b91505b50919050565b6000806000806000610bba33610b29565b9450600092505b84831015610c6257610bd33384610f45565b915042821115610be257610c62565b610bec3384611236565b9050801515610bfa57610c57565b604080518082018252600080825260208083018290523382526004905291909120805485908110610c2757fe5b9060005260206000209060020201906002610c439291906113bb565b50610c54848263ffffffff61132516565b93505b600190920191610bc1565b8315610d8357600654610c7b908563ffffffff61130e16565b60065533600090815260056020526040902054610c9e908563ffffffff61130e16565b3360008181526005602090815260408083209490945560035484517fa9059cbb0000000000000000000000000000000000000000000000000000000081526004810194909452602484018990529351600160a060020a039094169363a9059cbb93604480820194918390030190829087803b158015610d1c57600080fd5b505af1158015610d30573d6000803e3d6000fd5b505050506040513d6020811015610d4657600080fd5b50506040805142815260208101869052815133927ffbeff59d2bfda0d79ea8a29f8c57c66d48c7a13eabbdb90908d9115ec41c9dc6928290030190a25b5050505050565b600460205282600052604060002082815481101515610da557fe5b906000526020600020906002020181600281101515610dc057fe5b0154925083915050565b600154600160a060020a031681565b6000610de482610b56565b60005b602002015192915050565b600160a060020a031660009081526005602052604090205490565b600354600160a060020a031681565b600154600160a060020a03163314610ea4576040805160e560020a62461bcd02815260206004820152603560248201527f596f75206d757374206265206e6f6d696e61746564206265666f726520796f7560448201527f2063616e20616363657074206f776e6572736869700000000000000000000000606482015290519081900360840190fd5b60005460015460408051600160a060020a03938416815292909116602083015280517fb532073b38c83145e3e5135377a08bf9aab55bc0fd7c1179cd4fb995d2a5159c9281900390910190a1600180546000805473ffffffffffffffffffffffffffffffffffffffff19908116600160a060020a03841617909155169055565b600054600160a060020a031681565b6000610f3e82610b56565b6001610de7565b6000610f51838361106b565b60005b60200201519392505050565b60065481565b60008054600160a060020a03163314610fcb576040805160e560020a62461bcd02815260206004820152602f602482015260008051602061143d833981519152604482015260008051602061147d833981519152606482015290519081900360840190fd5b6002544210611026576040805160e560020a62461bcd028152602060048201526029602482015260008051602061149d833981519152604482015260008051602061145d833981519152606482015290519081900360840190fd5b5060005b83811015610b21576110638686868481811061104257fe5b90506020020135858585818110151561105757fe5b905060200201356106a9565b60010161102a565b6110736113a0565b600160a060020a038316600090815260046020526040902080548390811061109757fe5b600091825260209091206040805180820191829052926002908102909201919082845b8154815260200190600101908083116110ba575050505050905092915050565b600054600160a060020a0316331461113e576040805160e560020a62461bcd02815260206004820152602f602482015260008051602061143d833981519152604482015260008051602061147d833981519152606482015290519081900360840190fd5b6002544210611199576040805160e560020a62461bcd028152602060048201526029602482015260008051602061149d833981519152604482015260008051602061145d833981519152606482015290519081900360840190fd5b600354604080517fa9059cbb000000000000000000000000000000000000000000000000000000008152600160a060020a0390921660048301819052602483018490529051909163a9059cbb9160448083019260209291908290030181600087803b15801561120757600080fd5b505af115801561121b573d6000803e3d6000fd5b505050506040513d602081101561123157600080fd5b505050565b6000611242838361106b565b6001610f54565b600054600160a060020a031633146112ad576040805160e560020a62461bcd02815260206004820152602f602482015260008051602061143d833981519152604482015260008051602061147d833981519152606482015290519081900360840190fd5b60038054600160a060020a03831673ffffffffffffffffffffffffffffffffffffffff19909116811790915560408051918252517f46e9c68bd7831071bdd478f1ae4c4a52463961a9d620383a0a121dbfc0e0f06d9181900360200190a150565b6000808383111561131e57600080fd5b5050900390565b60008282018381101561133757600080fd5b9392505050565b508054600082556002029060005260206000209081019061135f91906113ee565b50565b8260028101928215611390579160200282015b82811115611390578251825591602001919060010190611375565b5061139c929150611414565b5090565b60408051808201825290600290829080388339509192915050565b8260028101928215611390579160200282015b82811115611390578251829060ff169055916020019190600101906113ce565b61141191905b8082111561139c576000611408828261142e565b506002016113f4565b90565b61141191905b8082111561139c576000815560010161141a565b50600081556001016000905556004f6e6c792074686520636f6e7472616374206f776e6572206d61792070657266696e6720736574757000000000000000000000000000000000000000000000006f726d207468697320616374696f6e000000000000000000000000000000000043616e206f6e6c7920706572666f726d207468697320616374696f6e20647572a165627a7a7230582039b2b48b1ff699147e89e4e90ba90042940c36e604c0e687941b89fd87b4fffd0029",
  "source": "/*\n-----------------------------------------------------------------\nFILE INFORMATION\n-----------------------------------------------------------------\n\nfile:       SynthetixEscrow.sol\nversion:    1.1\nauthor:     Anton Jurisevic\n            Dominic Romanowski\n            Mike Spain\n\ndate:       2018-05-29\n\n-----------------------------------------------------------------\nMODULE DESCRIPTION\n-----------------------------------------------------------------\n\nThis contract allows the foundation to apply unique vesting\nschedules to synthetix funds sold at various discounts in the token\nsale. SynthetixEscrow gives users the ability to inspect their\nvested funds, their quantities and vesting dates, and to withdraw\nthe fees that accrue on those funds.\n\nThe fees are handled by withdrawing the entire fee allocation\nfor all SNX inside the escrow contract, and then allowing\nthe contract itself to subdivide that pool up proportionally within\nitself. Every time the fee period rolls over in the main Synthetix\ncontract, the SynthetixEscrow fee pool is remitted back into the\nmain fee pool to be redistributed in the next fee period.\n\n-----------------------------------------------------------------\n*/\n\npragma solidity 0.4.25;\n\n\nimport \"./SafeDecimalMath.sol\";\nimport \"./Owned.sol\";\nimport \"./ISynthetix.sol\";\nimport \"./LimitedSetup.sol\";\n\n/**\n * @title A contract to hold escrowed SNX and free them at given schedules.\n */\ncontract SynthetixEscrow is Owned, LimitedSetup(8 weeks) {\n\n    using SafeMath for uint;\n\n    /* The corresponding Synthetix contract. */\n    ISynthetix public synthetix;\n\n    /* Lists of (timestamp, quantity) pairs per account, sorted in ascending time order.\n     * These are the times at which each given quantity of SNX vests. */\n    mapping(address => uint[2][]) public vestingSchedules;\n\n    /* An account's total vested synthetix balance to save recomputing this for fee extraction purposes. */\n    mapping(address => uint) public totalVestedAccountBalance;\n\n    /* The total remaining vested balance, for verifying the actual synthetix balance of this contract against. */\n    uint public totalVestedBalance;\n\n    uint constant TIME_INDEX = 0;\n    uint constant QUANTITY_INDEX = 1;\n\n    /* Limit vesting entries to disallow unbounded iteration over vesting schedules. */\n    uint constant MAX_VESTING_ENTRIES = 20;\n\n\n    /* ========== CONSTRUCTOR ========== */\n\n    constructor(address _owner, ISynthetix _synthetix)\n        Owned(_owner)\n        public\n    {\n        synthetix = _synthetix;\n    }\n\n\n    /* ========== SETTERS ========== */\n\n    function setSynthetix(ISynthetix _synthetix)\n        external\n        onlyOwner\n    {\n        synthetix = _synthetix;\n        emit SynthetixUpdated(_synthetix);\n    }\n\n\n    /* ========== VIEW FUNCTIONS ========== */\n\n    /**\n     * @notice A simple alias to totalVestedAccountBalance: provides ERC20 balance integration.\n     */\n    function balanceOf(address account)\n        public\n        view\n        returns (uint)\n    {\n        return totalVestedAccountBalance[account];\n    }\n\n    /**\n     * @notice The number of vesting dates in an account's schedule.\n     */\n    function numVestingEntries(address account)\n        public\n        view\n        returns (uint)\n    {\n        return vestingSchedules[account].length;\n    }\n\n    /**\n     * @notice Get a particular schedule entry for an account.\n     * @return A pair of uints: (timestamp, synthetix quantity).\n     */\n    function getVestingScheduleEntry(address account, uint index)\n        public\n        view\n        returns (uint[2])\n    {\n        return vestingSchedules[account][index];\n    }\n\n    /**\n     * @notice Get the time at which a given schedule entry will vest.\n     */\n    function getVestingTime(address account, uint index)\n        public\n        view\n        returns (uint)\n    {\n        return getVestingScheduleEntry(account,index)[TIME_INDEX];\n    }\n\n    /**\n     * @notice Get the quantity of SNX associated with a given schedule entry.\n     */\n    function getVestingQuantity(address account, uint index)\n        public\n        view\n        returns (uint)\n    {\n        return getVestingScheduleEntry(account,index)[QUANTITY_INDEX];\n    }\n\n    /**\n     * @notice Obtain the index of the next schedule entry that will vest for a given user.\n     */\n    function getNextVestingIndex(address account)\n        public\n        view\n        returns (uint)\n    {\n        uint len = numVestingEntries(account);\n        for (uint i = 0; i < len; i++) {\n            if (getVestingTime(account, i) != 0) {\n                return i;\n            }\n        }\n        return len;\n    }\n\n    /**\n     * @notice Obtain the next schedule entry that will vest for a given user.\n     * @return A pair of uints: (timestamp, synthetix quantity). */\n    function getNextVestingEntry(address account)\n        public\n        view\n        returns (uint[2])\n    {\n        uint index = getNextVestingIndex(account);\n        if (index == numVestingEntries(account)) {\n            return [uint(0), 0];\n        }\n        return getVestingScheduleEntry(account, index);\n    }\n\n    /**\n     * @notice Obtain the time at which the next schedule entry will vest for a given user.\n     */\n    function getNextVestingTime(address account)\n        external\n        view\n        returns (uint)\n    {\n        return getNextVestingEntry(account)[TIME_INDEX];\n    }\n\n    /**\n     * @notice Obtain the quantity which the next schedule entry will vest for a given user.\n     */\n    function getNextVestingQuantity(address account)\n        external\n        view\n        returns (uint)\n    {\n        return getNextVestingEntry(account)[QUANTITY_INDEX];\n    }\n\n\n    /* ========== MUTATIVE FUNCTIONS ========== */\n\n    /**\n     * @notice Withdraws a quantity of SNX back to the synthetix contract.\n     * @dev This may only be called by the owner during the contract's setup period.\n     */\n    function withdrawSynthetix(uint quantity)\n        external\n        onlyOwner\n        onlyDuringSetup\n    {\n        synthetix.transfer(synthetix, quantity);\n    }\n\n    /**\n     * @notice Destroy the vesting information associated with an account.\n     */\n    function purgeAccount(address account)\n        external\n        onlyOwner\n        onlyDuringSetup\n    {\n        delete vestingSchedules[account];\n        totalVestedBalance = totalVestedBalance.sub(totalVestedAccountBalance[account]);\n        delete totalVestedAccountBalance[account];\n    }\n\n    /**\n     * @notice Add a new vesting entry at a given time and quantity to an account's schedule.\n     * @dev A call to this should be accompanied by either enough balance already available\n     * in this contract, or a corresponding call to synthetix.endow(), to ensure that when\n     * the funds are withdrawn, there is enough balance, as well as correctly calculating\n     * the fees.\n     * This may only be called by the owner during the contract's setup period.\n     * Note; although this function could technically be used to produce unbounded\n     * arrays, it's only in the foundation's command to add to these lists.\n     * @param account The account to append a new vesting entry to.\n     * @param time The absolute unix timestamp after which the vested quantity may be withdrawn.\n     * @param quantity The quantity of SNX that will vest.\n     */\n    function appendVestingEntry(address account, uint time, uint quantity)\n        public\n        onlyOwner\n        onlyDuringSetup\n    {\n        /* No empty or already-passed vesting entries allowed. */\n        require(now < time, \"Time must be in the future\");\n        require(quantity != 0, \"Quantity cannot be zero\");\n\n        /* There must be enough balance in the contract to provide for the vesting entry. */\n        totalVestedBalance = totalVestedBalance.add(quantity);\n        require(totalVestedBalance <= synthetix.balanceOf(this), \"Must be enough balance in the contract to provide for the vesting entry\");\n\n        /* Disallow arbitrarily long vesting schedules in light of the gas limit. */\n        uint scheduleLength = vestingSchedules[account].length;\n        require(scheduleLength <= MAX_VESTING_ENTRIES, \"Vesting schedule is too long\");\n\n        if (scheduleLength == 0) {\n            totalVestedAccountBalance[account] = quantity;\n        } else {\n            /* Disallow adding new vested SNX earlier than the last one.\n             * Since entries are only appended, this means that no vesting date can be repeated. */\n            require(getVestingTime(account, numVestingEntries(account) - 1) < time, \"Cannot add new vested entries earlier than the last one\");\n            totalVestedAccountBalance[account] = totalVestedAccountBalance[account].add(quantity);\n        }\n\n        vestingSchedules[account].push([time, quantity]);\n    }\n\n    /**\n     * @notice Construct a vesting schedule to release a quantities of SNX\n     * over a series of intervals.\n     * @dev Assumes that the quantities are nonzero\n     * and that the sequence of timestamps is strictly increasing.\n     * This may only be called by the owner during the contract's setup period.\n     */\n    function addVestingSchedule(address account, uint[] times, uint[] quantities)\n        external\n        onlyOwner\n        onlyDuringSetup\n    {\n        for (uint i = 0; i < times.length; i++) {\n            appendVestingEntry(account, times[i], quantities[i]);\n        }\n\n    }\n\n    /**\n     * @notice Allow a user to withdraw any SNX in their schedule that have vested.\n     */\n    function vest()\n        external\n    {\n        uint numEntries = numVestingEntries(msg.sender);\n        uint total;\n        for (uint i = 0; i < numEntries; i++) {\n            uint time = getVestingTime(msg.sender, i);\n            /* The list is sorted; when we reach the first future time, bail out. */\n            if (time > now) {\n                break;\n            }\n            uint qty = getVestingQuantity(msg.sender, i);\n            if (qty == 0) {\n                continue;\n            }\n\n            vestingSchedules[msg.sender][i] = [0, 0];\n            total = total.add(qty);\n        }\n\n        if (total != 0) {\n            totalVestedBalance = totalVestedBalance.sub(total);\n            totalVestedAccountBalance[msg.sender] = totalVestedAccountBalance[msg.sender].sub(total);\n            synthetix.transfer(msg.sender, total);\n            emit Vested(msg.sender, now, total);\n        }\n    }\n\n\n    /* ========== EVENTS ========== */\n\n    event SynthetixUpdated(address newSynthetix);\n\n    event Vested(address indexed beneficiary, uint time, uint value);\n}\n",
  "sourcePath": "/Users/mathew/workspace/quantal/test/test-projects/synthetix/contracts/SynthetixEscrow.sol",
  "compiler": {
    "name": "solc",
    "version": "0.4.25+commit.59dbf8f1.Emscripten.clang"
  },
  "schemaVersion": "3.0.6",
  "updatedAt": "2019-08-12T22:49:05.670Z",
  "devdoc": {
    "methods": {
      "addVestingSchedule(address,uint256[],uint256[])": {
        "details": "Assumes that the quantities are nonzero and that the sequence of timestamps is strictly increasing. This may only be called by the owner during the contract's setup period."
      },
      "appendVestingEntry(address,uint256,uint256)": {
        "details": "A call to this should be accompanied by either enough balance already available in this contract, or a corresponding call to synthetix.endow(), to ensure that when the funds are withdrawn, there is enough balance, as well as correctly calculating the fees. This may only be called by the owner during the contract's setup period. Note; although this function could technically be used to produce unbounded arrays, it's only in the foundation's command to add to these lists.",
        "params": {
          "account": "The account to append a new vesting entry to.",
          "quantity": "The quantity of SNX that will vest.",
          "time": "The absolute unix timestamp after which the vested quantity may be withdrawn."
        }
      },
      "getNextVestingEntry(address)": {
        "return": "A pair of uints: (timestamp, synthetix quantity). "
      },
      "getVestingScheduleEntry(address,uint256)": {
        "return": "A pair of uints: (timestamp, synthetix quantity)."
      },
      "nominateNewOwner(address)": {
        "details": "Only the current owner may nominate a new owner."
      },
      "withdrawSynthetix(uint256)": {
        "details": "This may only be called by the owner during the contract's setup period."
      }
    },
    "title": "A contract to hold escrowed SNX and free them at given schedules."
  },
  "userdoc": {
    "methods": {
      "acceptOwnership()": {
        "notice": "Accept the nomination to be owner."
      },
      "addVestingSchedule(address,uint256[],uint256[])": {
        "notice": "Construct a vesting schedule to release a quantities of SNX over a series of intervals."
      },
      "appendVestingEntry(address,uint256,uint256)": {
        "notice": "Add a new vesting entry at a given time and quantity to an account's schedule."
      },
      "balanceOf(address)": {
        "notice": "A simple alias to totalVestedAccountBalance: provides ERC20 balance integration."
      },
      "getNextVestingEntry(address)": {
        "notice": "Obtain the next schedule entry that will vest for a given user."
      },
      "getNextVestingIndex(address)": {
        "notice": "Obtain the index of the next schedule entry that will vest for a given user."
      },
      "getNextVestingQuantity(address)": {
        "notice": "Obtain the quantity which the next schedule entry will vest for a given user."
      },
      "getNextVestingTime(address)": {
        "notice": "Obtain the time at which the next schedule entry will vest for a given user."
      },
      "getVestingQuantity(address,uint256)": {
        "notice": "Get the quantity of SNX associated with a given schedule entry."
      },
      "getVestingScheduleEntry(address,uint256)": {
        "notice": "Get a particular schedule entry for an account."
      },
      "getVestingTime(address,uint256)": {
        "notice": "Get the time at which a given schedule entry will vest."
      },
      "nominateNewOwner(address)": {
        "notice": "Nominate a new owner of this contract."
      },
      "numVestingEntries(address)": {
        "notice": "The number of vesting dates in an account's schedule."
      },
      "purgeAccount(address)": {
        "notice": "Destroy the vesting information associated with an account."
      },
      "vest()": {
        "notice": "Allow a user to withdraw any SNX in their schedule that have vested."
      },
      "withdrawSynthetix(uint256)": {
        "notice": "Withdraws a quantity of SNX back to the synthetix contract."
      }
    }
  }
}