{
  "contractName": "SynthetixState",
  "abi": [
    {
      "constant": true,
      "inputs": [
        {
          "name": "",
          "type": "uint256"
        }
      ],
      "name": "debtLedger",
      "outputs": [
        {
          "name": "",
          "type": "uint256"
        }
      ],
      "payable": false,
      "stateMutability": "view",
      "type": "function"
    },
    {
      "constant": false,
      "inputs": [
        {
          "name": "_owner",
          "type": "address"
        }
      ],
      "name": "nominateNewOwner",
      "outputs": [],
      "payable": false,
      "stateMutability": "nonpayable",
      "type": "function"
    },
    {
      "constant": true,
      "inputs": [],
      "name": "importedXDRAmount",
      "outputs": [
        {
          "name": "",
          "type": "uint256"
        }
      ],
      "payable": false,
      "stateMutability": "view",
      "type": "function"
    },
    {
      "constant": false,
      "inputs": [
        {
          "name": "_associatedContract",
          "type": "address"
        }
      ],
      "name": "setAssociatedContract",
      "outputs": [],
      "payable": false,
      "stateMutability": "nonpayable",
      "type": "function"
    },
    {
      "constant": true,
      "inputs": [],
      "name": "nominatedOwner",
      "outputs": [
        {
          "name": "",
          "type": "address"
        }
      ],
      "payable": false,
      "stateMutability": "view",
      "type": "function"
    },
    {
      "constant": false,
      "inputs": [],
      "name": "acceptOwnership",
      "outputs": [],
      "payable": false,
      "stateMutability": "nonpayable",
      "type": "function"
    },
    {
      "constant": true,
      "inputs": [
        {
          "name": "",
          "type": "address"
        }
      ],
      "name": "issuanceData",
      "outputs": [
        {
          "name": "initialDebtOwnership",
          "type": "uint256"
        },
        {
          "name": "debtEntryIndex",
          "type": "uint256"
        }
      ],
      "payable": false,
      "stateMutability": "view",
      "type": "function"
    },
    {
      "constant": true,
      "inputs": [],
      "name": "owner",
      "outputs": [
        {
          "name": "",
          "type": "address"
        }
      ],
      "payable": false,
      "stateMutability": "view",
      "type": "function"
    },
    {
      "constant": true,
      "inputs": [],
      "name": "totalIssuerCount",
      "outputs": [
        {
          "name": "",
          "type": "uint256"
        }
      ],
      "payable": false,
      "stateMutability": "view",
      "type": "function"
    },
    {
      "constant": true,
      "inputs": [],
      "name": "associatedContract",
      "outputs": [
        {
          "name": "",
          "type": "address"
        }
      ],
      "payable": false,
      "stateMutability": "view",
      "type": "function"
    },
    {
      "constant": true,
      "inputs": [],
      "name": "issuanceRatio",
      "outputs": [
        {
          "name": "",
          "type": "uint256"
        }
      ],
      "payable": false,
      "stateMutability": "view",
      "type": "function"
    },
    {
      "constant": true,
      "inputs": [
        {
          "name": "",
          "type": "address"
        }
      ],
      "name": "preferredCurrency",
      "outputs": [
        {
          "name": "",
          "type": "bytes4"
        }
      ],
      "payable": false,
      "stateMutability": "view",
      "type": "function"
    },
    {
      "inputs": [
        {
          "name": "_owner",
          "type": "address"
        },
        {
          "name": "_associatedContract",
          "type": "address"
        }
      ],
      "payable": false,
      "stateMutability": "nonpayable",
      "type": "constructor"
    },
    {
      "anonymous": false,
      "inputs": [
        {
          "indexed": false,
          "name": "newRatio",
          "type": "uint256"
        }
      ],
      "name": "IssuanceRatioUpdated",
      "type": "event"
    },
    {
      "anonymous": false,
      "inputs": [
        {
          "indexed": false,
          "name": "associatedContract",
          "type": "address"
        }
      ],
      "name": "AssociatedContractUpdated",
      "type": "event"
    },
    {
      "anonymous": false,
      "inputs": [
        {
          "indexed": false,
          "name": "newOwner",
          "type": "address"
        }
      ],
      "name": "OwnerNominated",
      "type": "event"
    },
    {
      "anonymous": false,
      "inputs": [
        {
          "indexed": false,
          "name": "oldOwner",
          "type": "address"
        },
        {
          "indexed": false,
          "name": "newOwner",
          "type": "address"
        }
      ],
      "name": "OwnerChanged",
      "type": "event"
    },
    {
      "constant": false,
      "inputs": [
        {
          "name": "account",
          "type": "address"
        },
        {
          "name": "initialDebtOwnership",
          "type": "uint256"
        }
      ],
      "name": "setCurrentIssuanceData",
      "outputs": [],
      "payable": false,
      "stateMutability": "nonpayable",
      "type": "function"
    },
    {
      "constant": false,
      "inputs": [
        {
          "name": "account",
          "type": "address"
        }
      ],
      "name": "clearIssuanceData",
      "outputs": [],
      "payable": false,
      "stateMutability": "nonpayable",
      "type": "function"
    },
    {
      "constant": false,
      "inputs": [],
      "name": "incrementTotalIssuerCount",
      "outputs": [],
      "payable": false,
      "stateMutability": "nonpayable",
      "type": "function"
    },
    {
      "constant": false,
      "inputs": [],
      "name": "decrementTotalIssuerCount",
      "outputs": [],
      "payable": false,
      "stateMutability": "nonpayable",
      "type": "function"
    },
    {
      "constant": false,
      "inputs": [
        {
          "name": "value",
          "type": "uint256"
        }
      ],
      "name": "appendDebtLedgerValue",
      "outputs": [],
      "payable": false,
      "stateMutability": "nonpayable",
      "type": "function"
    },
    {
      "constant": false,
      "inputs": [
        {
          "name": "account",
          "type": "address"
        },
        {
          "name": "currencyKey",
          "type": "bytes4"
        }
      ],
      "name": "setPreferredCurrency",
      "outputs": [],
      "payable": false,
      "stateMutability": "nonpayable",
      "type": "function"
    },
    {
      "constant": false,
      "inputs": [
        {
          "name": "_issuanceRatio",
          "type": "uint256"
        }
      ],
      "name": "setIssuanceRatio",
      "outputs": [],
      "payable": false,
      "stateMutability": "nonpayable",
      "type": "function"
    },
    {
      "constant": false,
      "inputs": [
        {
          "name": "accounts",
          "type": "address[]"
        },
        {
          "name": "sUSDAmounts",
          "type": "uint256[]"
        }
      ],
      "name": "importIssuerData",
      "outputs": [],
      "payable": false,
      "stateMutability": "nonpayable",
      "type": "function"
    },
    {
      "constant": true,
      "inputs": [],
      "name": "debtLedgerLength",
      "outputs": [
        {
          "name": "",
          "type": "uint256"
        }
      ],
      "payable": false,
      "stateMutability": "view",
      "type": "function"
    },
    {
      "constant": true,
      "inputs": [],
      "name": "lastDebtLedgerEntry",
      "outputs": [
        {
          "name": "",
          "type": "uint256"
        }
      ],
      "payable": false,
      "stateMutability": "view",
      "type": "function"
    },
    {
      "constant": true,
      "inputs": [
        {
          "name": "account",
          "type": "address"
        }
      ],
      "name": "hasIssued",
      "outputs": [
        {
          "name": "",
          "type": "bool"
        }
      ],
      "payable": false,
      "stateMutability": "view",
      "type": "function"
    }
  ],
  "bytecode": "0x608060408190527f907af6c000000000000000000000000000000000000000000000000000000000815260059073__SafeDecimalMath_______________________9063907af6c09060849060209060048186803b15801561006057600080fd5b505af4158015610074573d6000803e3d6000fd5b505050506040513d602081101561008a57600080fd5b505181151561009557fe5b04600b553480156100a557600080fd5b5060405160408061159d83398101604052805160209091015162093a80828281600160a060020a038116151561013c57604080517f08c379a000000000000000000000000000000000000000000000000000000000815260206004820152601960248201527f4f776e657220616464726573732063616e6e6f74206265203000000000000000604482015290519081900360640190fd5b60038054600160a060020a031916600160a060020a0383169081179091556040805160008152602081019290925280517fb532073b38c83145e3e5135377a08bf9aab55bc0fd7c1179cd4fb995d2a5159c9281900390910190a15060058054600160a060020a038316600160a060020a0319909116811790915560408051918252517f73f20cff579e8a4086fa607db83867595f1b6a798e718c0bfa0b94a404128e039181900360200190a150504201600655505061139d806102006000396000f3006080604052600436106101195763ffffffff60e060020a600035041663054be0b7811461011e57806308d95cd5146101385780631627540c1461016257806316b29c57146101835780631bfba595146101985780633d31e97b146101ad57806346317712146101c557806351dc7f7d146101da57806352f445ca1461021d57806353a47bb71461023e57806379ba50971461026f5780638b3f8088146102845780638da5cb5b146102be5780639371bede146102d35780639e49e976146102e8578063a764eb4514610314578063aefc4ccb14610338578063b16c09f01461034d578063b410a0341461036e578063b992812e14610383578063ba08f299146103b8578063caca2516146103cd578063cd92eba914610420575b600080fd5b34801561012a57600080fd5b50610136600435610435565b005b34801561014457600080fd5b506101506004356105c4565b60408051918252519081900360200190f35b34801561016e57600080fd5b50610136600160a060020a03600435166105e3565b34801561018f57600080fd5b506101506106a8565b3480156101a457600080fd5b506101366106ae565b3480156101b957600080fd5b5061013660043561072b565b3480156101d157600080fd5b506101506107c4565b3480156101e657600080fd5b50610136600160a060020a03600435167bffffffffffffffffffffffffffffffffffffffffffffffffffffffff19602435166107ea565b34801561022957600080fd5b50610136600160a060020a0360043516610881565b34801561024a57600080fd5b50610253610946565b60408051600160a060020a039092168252519081900360200190f35b34801561027b57600080fd5b50610136610955565b34801561029057600080fd5b506102a5600160a060020a0360043516610a5d565b6040805192835260208301919091528051918290030190f35b3480156102ca57600080fd5b50610253610a76565b3480156102df57600080fd5b50610150610a85565b3480156102f457600080fd5b506101366024600480358281019290820135918135918201910135610a8b565b34801561032057600080fd5b50610136600160a060020a0360043516602435610c25565b34801561034457600080fd5b50610253610cb0565b34801561035957600080fd5b50610136600160a060020a0360043516610cbf565b34801561037a57600080fd5b50610150610d43565b34801561038f57600080fd5b506103a4600160a060020a0360043516610d49565b604080519115158252519081900360200190f35b3480156103c457600080fd5b50610136610d65565b3480156103d957600080fd5b506103ee600160a060020a0360043516610ddd565b604080517bffffffffffffffffffffffffffffffffffffffffffffffffffffffff199092168252519081900360200190f35b34801561042c57600080fd5b50610150610df5565b600354600160a060020a03163314610499576040805160e560020a62461bcd02815260206004820152602f60248201526000805160206112f28339815191526044820152600080516020611312833981519152606482015290519081900360840190fd5b73__SafeDecimalMath_______________________63907af6c06040518163ffffffff1660e060020a02815260040160206040518083038186803b1580156104e057600080fd5b505af41580156104f4573d6000803e3d6000fd5b505050506040513d602081101561050a57600080fd5b5051811115610589576040805160e560020a62461bcd02815260206004820152603360248201527f4e65772069737375616e636520726174696f2063616e6e6f742065786365656460448201527f204d41585f49535355414e43455f524154494f00000000000000000000000000606482015290519081900360840190fd5b600b8190556040805182815290517f63b22e09cc3a33e847c063e35f887bd4ea96bc8c0f93f1f8c311e4fa6d8854529181900360200190a150565b60098054829081106105d257fe5b600091825260209091200154905081565b600354600160a060020a03163314610647576040805160e560020a62461bcd02815260206004820152602f60248201526000805160206112f28339815191526044820152600080516020611312833981519152606482015290519081900360840190fd5b60048054600160a060020a03831673ffffffffffffffffffffffffffffffffffffffff19909116811790915560408051918252517f906a1c6bd7e3091ea86693dd029a831c19049ce77f1dce2ce0bab1cacbabce229181900360200190a150565b600a5481565b600554600160a060020a03163314610712576040805160e560020a62461bcd02815260206004820152603460248201526000805160206113328339815191526044820152600080516020611352833981519152606482015290519081900360840190fd5b60085461072690600163ffffffff610dfb16565b600855565b600554600160a060020a0316331461078f576040805160e560020a62461bcd02815260206004820152603460248201526000805160206113328339815191526044820152600080516020611352833981519152606482015290519081900360840190fd5b600980546001810182556000919091527f6e1540171b6c0c960b71a7020d9f60077f6af931a8bbf590da0223dacf75c7af0155565b600980546000919060001981019081106107da57fe5b9060005260206000200154905090565b600554600160a060020a0316331461084e576040805160e560020a62461bcd02815260206004820152603460248201526000805160206113328339815191526044820152600080516020611352833981519152606482015290519081900360840190fd5b600160a060020a03919091166000908152600c60205260409020805463ffffffff191660e060020a909204919091179055565b600354600160a060020a031633146108e5576040805160e560020a62461bcd02815260206004820152602f60248201526000805160206112f28339815191526044820152600080516020611312833981519152606482015290519081900360840190fd5b60058054600160a060020a03831673ffffffffffffffffffffffffffffffffffffffff19909116811790915560408051918252517f73f20cff579e8a4086fa607db83867595f1b6a798e718c0bfa0b94a404128e039181900360200190a150565b600454600160a060020a031681565b600454600160a060020a031633146109dd576040805160e560020a62461bcd02815260206004820152603560248201527f596f75206d757374206265206e6f6d696e61746564206265666f726520796f7560448201527f2063616e20616363657074206f776e6572736869700000000000000000000000606482015290519081900360840190fd5b60035460045460408051600160a060020a03938416815292909116602083015280517fb532073b38c83145e3e5135377a08bf9aab55bc0fd7c1179cd4fb995d2a5159c9281900390910190a1600480546003805473ffffffffffffffffffffffffffffffffffffffff19908116600160a060020a03841617909155169055565b6007602052600090815260409020805460019091015482565b600354600160a060020a031681565b60085481565b600354600090600160a060020a03163314610af2576040805160e560020a62461bcd02815260206004820152602f60248201526000805160206112f28339815191526044820152600080516020611312833981519152606482015290519081900360840190fd5b6006544210610b71576040805160e560020a62461bcd02815260206004820152602960248201527f43616e206f6e6c7920706572666f726d207468697320616374696f6e2064757260448201527f696e672073657475700000000000000000000000000000000000000000000000606482015290519081900360840190fd5b838214610bc8576040805160e560020a62461bcd02815260206004820152600f60248201527f4c656e677468206d69736d617463680000000000000000000000000000000000604482015290519081900360640190fd5b5060005b60ff8116841115610c1e57610c16858560ff8416818110610be957fe5b90506020020135600160a060020a031684848460ff168181101515610c0a57fe5b90506020020135610e18565b600101610bcc565b5050505050565b600554600160a060020a03163314610c89576040805160e560020a62461bcd02815260206004820152603460248201526000805160206113328339815191526044820152600080516020611352833981519152606482015290519081900360840190fd5b600160a060020a039091166000908152600760205260409020908155600954600190910155565b600554600160a060020a031681565b600554600160a060020a03163314610d23576040805160e560020a62461bcd02815260206004820152603460248201526000805160206113328339815191526044820152600080516020611352833981519152606482015290519081900360840190fd5b600160a060020a0316600090815260076020526040812081815560010155565b600b5481565b600160a060020a03166000908152600760205260408120541190565b600554600160a060020a03163314610dc9576040805160e560020a62461bcd02815260206004820152603460248201526000805160206113328339815191526044820152600080516020611352833981519152606482015290519081900360840190fd5b60085461072690600163ffffffff6111df16565b600c6020526000908152604090205460e060020a0281565b60095490565b600082820183811015610e0d57600080fd5b8091505b5092915050565b600554604080517f39d66fc00000000000000000000000000000000000000000000000000000000081527f73555344000000000000000000000000000000000000000000000000000000006004820152602481018490527f584452000000000000000000000000000000000000000000000000000000000060448201529051600160a060020a03909216916000918291829182918291829188916339d66fc091606480830192602092919082900301818787803b158015610ed857600080fd5b505af1158015610eec573d6000803e3d6000fd5b505050506040513d6020811015610f0257600080fd5b5051600a549096509450610f1c868663ffffffff610dfb16565b600a8190559350610f33868563ffffffff6111f616565b9250610fb88373__SafeDecimalMath_______________________63d5e5e6e66040518163ffffffff1660e060020a02815260040160206040518083038186803b158015610f8057600080fd5b505af4158015610f94573d6000803e3d6000fd5b505050506040513d6020811015610faa57600080fd5b50519063ffffffff6111df16565b915086600160a060020a031663274ed2888a6040518263ffffffff1660e060020a0281526004018082600160a060020a0316600160a060020a03168152602001807f5844520000000000000000000000000000000000000000000000000000000000815250602001915050602060405180830381600087803b15801561103d57600080fd5b505af1158015611051573d6000803e3d6000fd5b505050506040513d602081101561106757600080fd5b5051905060008111156110975761109484611088888463ffffffff610dfb16565b9063ffffffff6111f616565b92505b600160a060020a03891660009081526007602052604090205415156110ce576008546110ca90600163ffffffff610dfb16565b6008555b600160a060020a038916600090815260076020526040812084815560095460019091018190551115611148576009805461112d9084908390600019810190811061111457fe5b906000526020600020015461121690919063ffffffff16565b815460018101835560009283526020909220909101556111d4565b600973__SafeDecimalMath_______________________63d5e5e6e66040518163ffffffff1660e060020a02815260040160206040518083038186803b15801561119157600080fd5b505af41580156111a5573d6000803e3d6000fd5b505050506040513d60208110156111bb57600080fd5b5051815460018101835560009283526020909220909101555b505050505050505050565b600080838311156111ef57600080fd5b5050900390565b600061120f83836b033b2e3c9fd0803ce800000061122f565b9392505050565b600061120f83836b033b2e3c9fd0803ce8000000611273565b6000806112558461124987600a870263ffffffff6112a016565b9063ffffffff6112ce16565b90506005600a825b061061126757600a015b600a9004949350505050565b600080600a830461128a868663ffffffff6112a016565b81151561129357fe5b0490506005600a8261125d565b6000808315156112b35760009150610e11565b508282028284828115156112c357fe5b0414610e0d57600080fd5b6000808083116112dd57600080fd5b82848115156112e857fe5b0494935050505056004f6e6c792074686520636f6e7472616374206f776e6572206d617920706572666f726d207468697320616374696f6e00000000000000000000000000000000004f6e6c7920746865206173736f63696174656420636f6e74726163742063616e20706572666f726d207468697320616374696f6e000000000000000000000000a165627a7a72305820c3c6c18a70ba8081b505bb344ddfbd6dd0c22c5a6f42cd954d9c43b37aa752640029",
  "deployedBytecode": "0x6080604052600436106101195763ffffffff60e060020a600035041663054be0b7811461011e57806308d95cd5146101385780631627540c1461016257806316b29c57146101835780631bfba595146101985780633d31e97b146101ad57806346317712146101c557806351dc7f7d146101da57806352f445ca1461021d57806353a47bb71461023e57806379ba50971461026f5780638b3f8088146102845780638da5cb5b146102be5780639371bede146102d35780639e49e976146102e8578063a764eb4514610314578063aefc4ccb14610338578063b16c09f01461034d578063b410a0341461036e578063b992812e14610383578063ba08f299146103b8578063caca2516146103cd578063cd92eba914610420575b600080fd5b34801561012a57600080fd5b50610136600435610435565b005b34801561014457600080fd5b506101506004356105c4565b60408051918252519081900360200190f35b34801561016e57600080fd5b50610136600160a060020a03600435166105e3565b34801561018f57600080fd5b506101506106a8565b3480156101a457600080fd5b506101366106ae565b3480156101b957600080fd5b5061013660043561072b565b3480156101d157600080fd5b506101506107c4565b3480156101e657600080fd5b50610136600160a060020a03600435167bffffffffffffffffffffffffffffffffffffffffffffffffffffffff19602435166107ea565b34801561022957600080fd5b50610136600160a060020a0360043516610881565b34801561024a57600080fd5b50610253610946565b60408051600160a060020a039092168252519081900360200190f35b34801561027b57600080fd5b50610136610955565b34801561029057600080fd5b506102a5600160a060020a0360043516610a5d565b6040805192835260208301919091528051918290030190f35b3480156102ca57600080fd5b50610253610a76565b3480156102df57600080fd5b50610150610a85565b3480156102f457600080fd5b506101366024600480358281019290820135918135918201910135610a8b565b34801561032057600080fd5b50610136600160a060020a0360043516602435610c25565b34801561034457600080fd5b50610253610cb0565b34801561035957600080fd5b50610136600160a060020a0360043516610cbf565b34801561037a57600080fd5b50610150610d43565b34801561038f57600080fd5b506103a4600160a060020a0360043516610d49565b604080519115158252519081900360200190f35b3480156103c457600080fd5b50610136610d65565b3480156103d957600080fd5b506103ee600160a060020a0360043516610ddd565b604080517bffffffffffffffffffffffffffffffffffffffffffffffffffffffff199092168252519081900360200190f35b34801561042c57600080fd5b50610150610df5565b600354600160a060020a03163314610499576040805160e560020a62461bcd02815260206004820152602f60248201526000805160206112f28339815191526044820152600080516020611312833981519152606482015290519081900360840190fd5b73__SafeDecimalMath_______________________63907af6c06040518163ffffffff1660e060020a02815260040160206040518083038186803b1580156104e057600080fd5b505af41580156104f4573d6000803e3d6000fd5b505050506040513d602081101561050a57600080fd5b5051811115610589576040805160e560020a62461bcd02815260206004820152603360248201527f4e65772069737375616e636520726174696f2063616e6e6f742065786365656460448201527f204d41585f49535355414e43455f524154494f00000000000000000000000000606482015290519081900360840190fd5b600b8190556040805182815290517f63b22e09cc3a33e847c063e35f887bd4ea96bc8c0f93f1f8c311e4fa6d8854529181900360200190a150565b60098054829081106105d257fe5b600091825260209091200154905081565b600354600160a060020a03163314610647576040805160e560020a62461bcd02815260206004820152602f60248201526000805160206112f28339815191526044820152600080516020611312833981519152606482015290519081900360840190fd5b60048054600160a060020a03831673ffffffffffffffffffffffffffffffffffffffff19909116811790915560408051918252517f906a1c6bd7e3091ea86693dd029a831c19049ce77f1dce2ce0bab1cacbabce229181900360200190a150565b600a5481565b600554600160a060020a03163314610712576040805160e560020a62461bcd02815260206004820152603460248201526000805160206113328339815191526044820152600080516020611352833981519152606482015290519081900360840190fd5b60085461072690600163ffffffff610dfb16565b600855565b600554600160a060020a0316331461078f576040805160e560020a62461bcd02815260206004820152603460248201526000805160206113328339815191526044820152600080516020611352833981519152606482015290519081900360840190fd5b600980546001810182556000919091527f6e1540171b6c0c960b71a7020d9f60077f6af931a8bbf590da0223dacf75c7af0155565b600980546000919060001981019081106107da57fe5b9060005260206000200154905090565b600554600160a060020a0316331461084e576040805160e560020a62461bcd02815260206004820152603460248201526000805160206113328339815191526044820152600080516020611352833981519152606482015290519081900360840190fd5b600160a060020a03919091166000908152600c60205260409020805463ffffffff191660e060020a909204919091179055565b600354600160a060020a031633146108e5576040805160e560020a62461bcd02815260206004820152602f60248201526000805160206112f28339815191526044820152600080516020611312833981519152606482015290519081900360840190fd5b60058054600160a060020a03831673ffffffffffffffffffffffffffffffffffffffff19909116811790915560408051918252517f73f20cff579e8a4086fa607db83867595f1b6a798e718c0bfa0b94a404128e039181900360200190a150565b600454600160a060020a031681565b600454600160a060020a031633146109dd576040805160e560020a62461bcd02815260206004820152603560248201527f596f75206d757374206265206e6f6d696e61746564206265666f726520796f7560448201527f2063616e20616363657074206f776e6572736869700000000000000000000000606482015290519081900360840190fd5b60035460045460408051600160a060020a03938416815292909116602083015280517fb532073b38c83145e3e5135377a08bf9aab55bc0fd7c1179cd4fb995d2a5159c9281900390910190a1600480546003805473ffffffffffffffffffffffffffffffffffffffff19908116600160a060020a03841617909155169055565b6007602052600090815260409020805460019091015482565b600354600160a060020a031681565b60085481565b600354600090600160a060020a03163314610af2576040805160e560020a62461bcd02815260206004820152602f60248201526000805160206112f28339815191526044820152600080516020611312833981519152606482015290519081900360840190fd5b6006544210610b71576040805160e560020a62461bcd02815260206004820152602960248201527f43616e206f6e6c7920706572666f726d207468697320616374696f6e2064757260448201527f696e672073657475700000000000000000000000000000000000000000000000606482015290519081900360840190fd5b838214610bc8576040805160e560020a62461bcd02815260206004820152600f60248201527f4c656e677468206d69736d617463680000000000000000000000000000000000604482015290519081900360640190fd5b5060005b60ff8116841115610c1e57610c16858560ff8416818110610be957fe5b90506020020135600160a060020a031684848460ff168181101515610c0a57fe5b90506020020135610e18565b600101610bcc565b5050505050565b600554600160a060020a03163314610c89576040805160e560020a62461bcd02815260206004820152603460248201526000805160206113328339815191526044820152600080516020611352833981519152606482015290519081900360840190fd5b600160a060020a039091166000908152600760205260409020908155600954600190910155565b600554600160a060020a031681565b600554600160a060020a03163314610d23576040805160e560020a62461bcd02815260206004820152603460248201526000805160206113328339815191526044820152600080516020611352833981519152606482015290519081900360840190fd5b600160a060020a0316600090815260076020526040812081815560010155565b600b5481565b600160a060020a03166000908152600760205260408120541190565b600554600160a060020a03163314610dc9576040805160e560020a62461bcd02815260206004820152603460248201526000805160206113328339815191526044820152600080516020611352833981519152606482015290519081900360840190fd5b60085461072690600163ffffffff6111df16565b600c6020526000908152604090205460e060020a0281565b60095490565b600082820183811015610e0d57600080fd5b8091505b5092915050565b600554604080517f39d66fc00000000000000000000000000000000000000000000000000000000081527f73555344000000000000000000000000000000000000000000000000000000006004820152602481018490527f584452000000000000000000000000000000000000000000000000000000000060448201529051600160a060020a03909216916000918291829182918291829188916339d66fc091606480830192602092919082900301818787803b158015610ed857600080fd5b505af1158015610eec573d6000803e3d6000fd5b505050506040513d6020811015610f0257600080fd5b5051600a549096509450610f1c868663ffffffff610dfb16565b600a8190559350610f33868563ffffffff6111f616565b9250610fb88373__SafeDecimalMath_______________________63d5e5e6e66040518163ffffffff1660e060020a02815260040160206040518083038186803b158015610f8057600080fd5b505af4158015610f94573d6000803e3d6000fd5b505050506040513d6020811015610faa57600080fd5b50519063ffffffff6111df16565b915086600160a060020a031663274ed2888a6040518263ffffffff1660e060020a0281526004018082600160a060020a0316600160a060020a03168152602001807f5844520000000000000000000000000000000000000000000000000000000000815250602001915050602060405180830381600087803b15801561103d57600080fd5b505af1158015611051573d6000803e3d6000fd5b505050506040513d602081101561106757600080fd5b5051905060008111156110975761109484611088888463ffffffff610dfb16565b9063ffffffff6111f616565b92505b600160a060020a03891660009081526007602052604090205415156110ce576008546110ca90600163ffffffff610dfb16565b6008555b600160a060020a038916600090815260076020526040812084815560095460019091018190551115611148576009805461112d9084908390600019810190811061111457fe5b906000526020600020015461121690919063ffffffff16565b815460018101835560009283526020909220909101556111d4565b600973__SafeDecimalMath_______________________63d5e5e6e66040518163ffffffff1660e060020a02815260040160206040518083038186803b15801561119157600080fd5b505af41580156111a5573d6000803e3d6000fd5b505050506040513d60208110156111bb57600080fd5b5051815460018101835560009283526020909220909101555b505050505050505050565b600080838311156111ef57600080fd5b5050900390565b600061120f83836b033b2e3c9fd0803ce800000061122f565b9392505050565b600061120f83836b033b2e3c9fd0803ce8000000611273565b6000806112558461124987600a870263ffffffff6112a016565b9063ffffffff6112ce16565b90506005600a825b061061126757600a015b600a9004949350505050565b600080600a830461128a868663ffffffff6112a016565b81151561129357fe5b0490506005600a8261125d565b6000808315156112b35760009150610e11565b508282028284828115156112c357fe5b0414610e0d57600080fd5b6000808083116112dd57600080fd5b82848115156112e857fe5b0494935050505056004f6e6c792074686520636f6e7472616374206f776e6572206d617920706572666f726d207468697320616374696f6e00000000000000000000000000000000004f6e6c7920746865206173736f63696174656420636f6e74726163742063616e20706572666f726d207468697320616374696f6e000000000000000000000000a165627a7a72305820c3c6c18a70ba8081b505bb344ddfbd6dd0c22c5a6f42cd954d9c43b37aa752640029",
  "source": "/*\n-----------------------------------------------------------------\nFILE INFORMATION\n-----------------------------------------------------------------\n\nfile:       SynthetixState.sol\nversion:    1.0\nauthor:     Kevin Brown\ndate:       2018-10-19\n\n-----------------------------------------------------------------\nMODULE DESCRIPTION\n-----------------------------------------------------------------\n\nA contract that holds issuance state and preferred currency of\nusers in the Synthetix system.\n\nThis contract is used side by side with the Synthetix contract\nto make it easier to upgrade the contract logic while maintaining\nissuance state.\n\nThe Synthetix contract is also quite large and on the edge of\nbeing beyond the contract size limit without moving this information\nout to another contract.\n\nThe first deployed contract would create this state contract,\nusing it as its store of issuance data.\n\nWhen a new contract is deployed, it links to the existing\nstate contract, whose owner would then change its associated\ncontract to the new one.\n\n-----------------------------------------------------------------\n*/\n\npragma solidity 0.4.25;\n\nimport \"./Synthetix.sol\";\nimport \"./LimitedSetup.sol\";\nimport \"./SafeDecimalMath.sol\";\nimport \"./State.sol\";\nimport \"./ISynthetixState.sol\";\n\n/**\\\n * @title Synthetix State\n * @notice Stores issuance information and preferred currency information of the Synthetix contract.\n */\ncontract SynthetixState is ISynthetixState, State, LimitedSetup {\n\n\n    using SafeMath for uint;\n    using SafeDecimalMath for uint;\n\n    // Issued synth balances for individual fee entitlements and exit price calculations\n    mapping(address => IssuanceData) public issuanceData;\n\n    // The total count of people that have outstanding issued synths in any flavour\n    uint public totalIssuerCount;\n\n    // Global debt pool tracking\n    uint[] public debtLedger;\n\n    // Import state\n    uint public importedXDRAmount;\n\n    // A quantity of synths greater than this ratio\n    // may not be issued against a given value of SNX.\n    uint public issuanceRatio = SafeDecimalMath.unit() / 5;\n    // No more synths may be issued than the value of SNX backing them.\n    uint constant MAX_ISSUANCE_RATIO = SafeDecimalMath.unit();\n\n    // Users can specify their preferred currency, in which case all synths they receive\n    // will automatically exchange to that preferred currency upon receipt in their wallet\n    mapping(address => bytes4) public preferredCurrency;\n\n    /**\n     * @dev Constructor\n     * @param _owner The address which controls this contract.\n     * @param _associatedContract The ERC20 contract whose state this composes.\n     */\n    constructor(address _owner, address _associatedContract)\n        State(_owner, _associatedContract)\n        LimitedSetup(1 weeks)\n        public\n    {}\n\n    /* ========== SETTERS ========== */\n\n    /**\n     * @notice Set issuance data for an address\n     * @dev Only the associated contract may call this.\n     * @param account The address to set the data for.\n     * @param initialDebtOwnership The initial debt ownership for this address.\n     */\n    function setCurrentIssuanceData(address account, uint initialDebtOwnership)\n        external\n        onlyAssociatedContract\n    {\n        issuanceData[account].initialDebtOwnership = initialDebtOwnership;\n        issuanceData[account].debtEntryIndex = debtLedger.length;\n    }\n\n    /**\n     * @notice Clear issuance data for an address\n     * @dev Only the associated contract may call this.\n     * @param account The address to clear the data for.\n     */\n    function clearIssuanceData(address account)\n        external\n        onlyAssociatedContract\n    {\n        delete issuanceData[account];\n    }\n\n    /**\n     * @notice Increment the total issuer count\n     * @dev Only the associated contract may call this.\n     */\n    function incrementTotalIssuerCount()\n        external\n        onlyAssociatedContract\n    {\n        totalIssuerCount = totalIssuerCount.add(1);\n    }\n\n    /**\n     * @notice Decrement the total issuer count\n     * @dev Only the associated contract may call this.\n     */\n    function decrementTotalIssuerCount()\n        external\n        onlyAssociatedContract\n    {\n        totalIssuerCount = totalIssuerCount.sub(1);\n    }\n\n    /**\n     * @notice Append a value to the debt ledger\n     * @dev Only the associated contract may call this.\n     * @param value The new value to be added to the debt ledger.\n     */\n    function appendDebtLedgerValue(uint value)\n        external\n        onlyAssociatedContract\n    {\n        debtLedger.push(value);\n    }\n\n    /**\n     * @notice Set preferred currency for a user\n     * @dev Only the associated contract may call this.\n     * @param account The account to set the preferred currency for\n     * @param currencyKey The new preferred currency\n     */\n    function setPreferredCurrency(address account, bytes4 currencyKey)\n        external\n        onlyAssociatedContract\n    {\n        preferredCurrency[account] = currencyKey;\n    }\n\n    /**\n     * @notice Set the issuanceRatio for issuance calculations.\n     * @dev Only callable by the contract owner.\n     */\n    function setIssuanceRatio(uint _issuanceRatio)\n        external\n        onlyOwner\n    {\n        require(_issuanceRatio <= MAX_ISSUANCE_RATIO, \"New issuance ratio cannot exceed MAX_ISSUANCE_RATIO\");\n        issuanceRatio = _issuanceRatio;\n        emit IssuanceRatioUpdated(_issuanceRatio);\n    }\n\n    /**\n     * @notice Import issuer data from the old Synthetix contract before multicurrency\n     * @dev Only callable by the contract owner, and only for 1 week after deployment.\n     */\n    function importIssuerData(address[] accounts, uint[] sUSDAmounts)\n        external\n        onlyOwner\n        onlyDuringSetup\n    {\n        require(accounts.length == sUSDAmounts.length, \"Length mismatch\");\n\n        for (uint8 i = 0; i < accounts.length; i++) {\n            _addToDebtRegister(accounts[i], sUSDAmounts[i]);\n        }\n    }\n\n    /**\n     * @notice Import issuer data from the old Synthetix contract before multicurrency\n     * @dev Only used from importIssuerData above, meant to be disposable\n     */\n    function _addToDebtRegister(address account, uint amount)\n        internal\n    {\n        // This code is duplicated from Synthetix so that we can call it directly here\n        // during setup only.\n        Synthetix synthetix = Synthetix(associatedContract);\n\n        // What is the value of the requested debt in XDRs?\n        uint xdrValue = synthetix.effectiveValue(\"sUSD\", amount, \"XDR\");\n\n        // What is the value that we've previously imported?\n        uint totalDebtIssued = importedXDRAmount;\n\n        // What will the new total be including the new value?\n        uint newTotalDebtIssued = xdrValue.add(totalDebtIssued);\n\n        // Save that for the next import.\n        importedXDRAmount = newTotalDebtIssued;\n\n        // What is their percentage (as a high precision int) of the total debt?\n        uint debtPercentage = xdrValue.divideDecimalRoundPrecise(newTotalDebtIssued);\n\n        // And what effect does this percentage have on the global debt holding of other issuers?\n        // The delta specifically needs to not take into account any existing debt as it's already\n        // accounted for in the delta from when they issued previously.\n        // The delta is a high precision integer.\n        uint delta = SafeDecimalMath.preciseUnit().sub(debtPercentage);\n\n        uint existingDebt = synthetix.debtBalanceOf(account, \"XDR\");\n\n        // And what does their debt ownership look like including this previous stake?\n        if (existingDebt > 0) {\n            debtPercentage = xdrValue.add(existingDebt).divideDecimalRoundPrecise(newTotalDebtIssued);\n        }\n\n        // Are they a new issuer? If so, record them.\n        if (issuanceData[account].initialDebtOwnership == 0) {\n            totalIssuerCount = totalIssuerCount.add(1);\n        }\n\n        // Save the debt entry parameters\n        issuanceData[account].initialDebtOwnership = debtPercentage;\n        issuanceData[account].debtEntryIndex = debtLedger.length;\n\n        // And if we're the first, push 1 as there was no effect to any other holders, otherwise push\n        // the change for the rest of the debt holders. The debt ledger holds high precision integers.\n        if (debtLedger.length > 0) {\n            debtLedger.push(\n                debtLedger[debtLedger.length - 1].multiplyDecimalRoundPrecise(delta)\n            );\n        } else {\n            debtLedger.push(SafeDecimalMath.preciseUnit());\n        }\n    }\n\n    /* ========== VIEWS ========== */\n\n    /**\n     * @notice Retrieve the length of the debt ledger array\n     */\n    function debtLedgerLength()\n        external\n        view\n        returns (uint)\n    {\n        return debtLedger.length;\n    }\n\n    /**\n     * @notice Retrieve the most recent entry from the debt ledger\n     */\n    function lastDebtLedgerEntry()\n        external\n        view\n        returns (uint)\n    {\n        return debtLedger[debtLedger.length - 1];\n    }\n\n    /**\n     * @notice Query whether an account has issued and has an outstanding debt balance\n     * @param account The address to query for\n     */\n    function hasIssued(address account)\n        external\n        view\n        returns (bool)\n    {\n        return issuanceData[account].initialDebtOwnership > 0;\n    }\n\n    event IssuanceRatioUpdated(uint newRatio);\n}\n",
  "sourcePath": "/Users/mathew/workspace/quantal/test/test-projects/synthetix/contracts/SynthetixState.sol",
  "compiler": {
    "name": "solc",
    "version": "0.4.25+commit.59dbf8f1.Emscripten.clang"
  },
  "schemaVersion": "3.0.6",
  "updatedAt": "2019-08-12T22:49:05.783Z",
  "devdoc": {
    "methods": {
      "appendDebtLedgerValue(uint256)": {
        "details": "Only the associated contract may call this.",
        "params": {
          "value": "The new value to be added to the debt ledger."
        }
      },
      "clearIssuanceData(address)": {
        "details": "Only the associated contract may call this.",
        "params": {
          "account": "The address to clear the data for."
        }
      },
      "decrementTotalIssuerCount()": {
        "details": "Only the associated contract may call this."
      },
      "hasIssued(address)": {
        "params": {
          "account": "The address to query for"
        }
      },
      "importIssuerData(address[],uint256[])": {
        "details": "Only callable by the contract owner, and only for 1 week after deployment."
      },
      "incrementTotalIssuerCount()": {
        "details": "Only the associated contract may call this."
      },
      "nominateNewOwner(address)": {
        "details": "Only the current owner may nominate a new owner."
      },
      "setCurrentIssuanceData(address,uint256)": {
        "details": "Only the associated contract may call this.",
        "params": {
          "account": "The address to set the data for.",
          "initialDebtOwnership": "The initial debt ownership for this address."
        }
      },
      "setIssuanceRatio(uint256)": {
        "details": "Only callable by the contract owner."
      },
      "setPreferredCurrency(address,bytes4)": {
        "details": "Only the associated contract may call this.",
        "params": {
          "account": "The account to set the preferred currency for",
          "currencyKey": "The new preferred currency"
        }
      }
    },
    "title": "Synthetix State"
  },
  "userdoc": {
    "methods": {
      "acceptOwnership()": {
        "notice": "Accept the nomination to be owner."
      },
      "appendDebtLedgerValue(uint256)": {
        "notice": "Append a value to the debt ledger"
      },
      "clearIssuanceData(address)": {
        "notice": "Clear issuance data for an address"
      },
      "debtLedgerLength()": {
        "notice": "Retrieve the length of the debt ledger array"
      },
      "decrementTotalIssuerCount()": {
        "notice": "Decrement the total issuer count"
      },
      "hasIssued(address)": {
        "notice": "Query whether an account has issued and has an outstanding debt balance"
      },
      "importIssuerData(address[],uint256[])": {
        "notice": "Import issuer data from the old Synthetix contract before multicurrency"
      },
      "incrementTotalIssuerCount()": {
        "notice": "Increment the total issuer count"
      },
      "lastDebtLedgerEntry()": {
        "notice": "Retrieve the most recent entry from the debt ledger"
      },
      "nominateNewOwner(address)": {
        "notice": "Nominate a new owner of this contract."
      },
      "setCurrentIssuanceData(address,uint256)": {
        "notice": "Set issuance data for an address"
      },
      "setIssuanceRatio(uint256)": {
        "notice": "Set the issuanceRatio for issuance calculations."
      },
      "setPreferredCurrency(address,bytes4)": {
        "notice": "Set preferred currency for a user"
      }
    }
  }
}