{
  "contractName": "CountersImpl",
  "abi": [
    {
      "constant": true,
      "inputs": [],
      "name": "current",
      "outputs": [
        {
          "name": "",
          "type": "uint256"
        }
      ],
      "payable": false,
      "stateMutability": "view",
      "type": "function"
    },
    {
      "constant": false,
      "inputs": [],
      "name": "increment",
      "outputs": [],
      "payable": false,
      "stateMutability": "nonpayable",
      "type": "function"
    },
    {
      "constant": false,
      "inputs": [],
      "name": "decrement",
      "outputs": [],
      "payable": false,
      "stateMutability": "nonpayable",
      "type": "function"
    }
  ],
  "bytecode": "0x608060405234801561001057600080fd5b5061019d806100206000396000f3fe608060405234801561001057600080fd5b50600436106100415760003560e01c80632baeceb7146100465780639fa6a6e314610050578063d09de08a1461006e575b600080fd5b61004e610078565b005b610058610084565b6040518082815260200191505060405180910390f35b610076610095565b005b61008260006100a1565b565b600061009060006100c4565b905090565b61009f60006100d2565b565b6100b9600182600001546100e890919063ffffffff16565b816000018190555050565b600081600001549050919050565b6001816000016000828254019250508190555050565b600082821115610160576040517f08c379a000000000000000000000000000000000000000000000000000000000815260040180806020018281038252601e8152602001807f536166654d6174683a207375627472616374696f6e206f766572666c6f77000081525060200191505060405180910390fd5b60008284039050809150509291505056fea165627a7a72305820eab505502e11dc3b1b1123c0940fcf7c0246e844e8c678a287103beb421f9bfa0029",
  "source": "pragma solidity ^0.5.0;\n\nimport \"../drafts/Counters.sol\";\n\ncontract CountersImpl {\n    using Counters for Counters.Counter;\n\n    Counters.Counter private _counter;\n\n    function current() public view returns (uint256) {\n        return _counter.current();\n    }\n\n    function increment() public {\n        _counter.increment();\n    }\n\n    function decrement() public {\n        _counter.decrement();\n    }\n}\n",
  "sourcePath": "/Users/mathew/workspace/quantal/test/test-projects/openzeppelin-solidity/contracts/mocks/CountersImpl.sol",
  "compiler": {
    "name": "solc",
    "version": "0.5.7+commit.6da8b019.Emscripten.clang"
  },
  "schemaVersion": "3.0.9",
  "updatedAt": "2019-08-16T20:14:49.641Z",
  "devdoc": {
    "methods": {}
  },
  "userdoc": {
    "methods": {}
  }
}