{
  "contractName": "StringsMock",
  "abi": [
    {
      "constant": true,
      "inputs": [
        {
          "name": "value",
          "type": "uint256"
        }
      ],
      "name": "fromUint256",
      "outputs": [
        {
          "name": "",
          "type": "string"
        }
      ],
      "payable": false,
      "stateMutability": "pure",
      "type": "function"
    }
  ],
  "bytecode": "0x608060405234801561001057600080fd5b50610245806100206000396000f3fe608060405234801561001057600080fd5b506004361061002b5760003560e01c8063a2bd364414610030575b600080fd5b61005c6004803603602081101561004657600080fd5b81019080803590602001909291905050506100d7565b6040518080602001828103825283818151815260200191508051906020019080838360005b8381101561009c578082015181840152602081019050610081565b50505050905090810190601f1680156100c95780820380516001836020036101000a031916815260200191505b509250505060405180910390f35b60606100e2826100e9565b9050919050565b60606000821415610131576040518060400160405280600181526020017f30000000000000000000000000000000000000000000000000000000000000008152509050610214565b600082905060005b6000821461015b578080600101915050600a828161015357fe5b049150610139565b6060816040519080825280601f01601f1916602001820160405280156101905781602001600182028038833980820191505090505b50905060006001830390508593505b6000841461020c57600a84816101b157fe5b0660300160f81b828280600190039350815181106101cb57fe5b60200101907effffffffffffffffffffffffffffffffffffffffffffffffffffffffffffff1916908160001a905350600a848161020457fe5b04935061019f565b819450505050505b91905056fea165627a7a72305820a69b956d0284ec25518865741922e66cd716badf27565f74ac6af38cd86b2ae40029",
  "source": "pragma solidity ^0.5.0;\n\nimport \"../drafts/Strings.sol\";\n\ncontract StringsMock {\n    function fromUint256(uint256 value) public pure returns (string memory) {\n        return Strings.fromUint256(value);\n    }\n}\n",
  "sourcePath": "/Users/mathew/workspace/quantal/test/test-projects/openzeppelin-solidity/contracts/mocks/StringsMock.sol",
  "compiler": {
    "name": "solc",
    "version": "0.5.7+commit.6da8b019.Emscripten.clang"
  },
  "schemaVersion": "3.0.9",
  "updatedAt": "2019-08-16T20:14:49.687Z",
  "devdoc": {
    "methods": {}
  },
  "userdoc": {
    "methods": {}
  }
}